:020000041000EA
:4000000000400208310100100D000000950100100000000000000000000000000000000000000000000000000000000091010010000000000000000091010010910100109B
:4000400091010010690D001091010010910100109101001091010010910100109101001091010010910100109101001091010010910100109101001091010010910100107C
:400080009101001091010010910100109101001091010010910100109101001091010010910100109101001091010010910100109101001091010010910100109101001020
:4000C00010B5064C2378002B07D1054B002B02D0044800E000BF0123237010BD28360008000000002CC10010084B10B5002B03D00749084800E000BF07480368002B00D121
:4001000010BD064B002BFBD09847F9E7000000002C3600082CC100104C090008000000007047EFF3108072B6704780F310887047FFF7F6FF72B6104C104DAC4209DA216838
:400140006268A368043B02DBC858D050FAE70C34F3E70B490B4A0020521A02DD043A8850FCDC094809490860BFF34F8F00F0DEFC00F01EF8FEE70000D4C60210ECC6021091
:4001800028360008605400080000000808ED00E0FEE7FEE700B504207146084202D0EFF3098001E0EFF30880043002F0DBFBFEE710B500221E4B1A701E4B1B681E480360A4
:4001C000802292009A1842608022D2009A188260C022D2009A18C260802212019A180261A02212019A184261C02212019A188261E02212019A18C261802252019A18026274
:40020000902252019A184262A022520194466344836200F05BF90CF025F9054B1B78002BF9D000F059FA0022014B1A70F3E7C04668470008C00000083C47000830B585B074
:40024000050001AC1423A380013323810190200003F02CFB182323812B0014330193200003F024FB1A2323812B0028330193200003F01CFB1C2323812B003C330193200062
:4002800003F014FB1E2323812B0050330193200003F00CFB202323812B0064330193200003F004FB222323812B0078330193200003F0FCFA242323812B008C3301932000C7
:4002C00003F0F4FA262323812B00A0330193200003F0ECFA282323812B00B4330193200003F0E4FA2A2323812B00C8330193200003F0DCFA2C2323812B00DC3301932000AA
:4003000003F0D4FA2E2323812B00F0330193200003F0CCFA302323816B1DFF330193200003F0C4FA322323811935FF350195200003F0BCFA05B030BD00B585B001AB3D22C5
:400340001A8101903C3A9A80180003F0AFFA05B000BDC04600B585B001AB12221A810190103A9A80180003F0A1FA05B000BDC04600B585B0752903D1392201AB1A8102E03D
:400380003B2201AB1A8101AB019002229A80180003F08CFA05B000BD70B50400114B1B78092B1BD80F4801330370FFF7C5FF002211E00C4B1B78013B5100605C61184D78A0
:4003C0009900CB185901891849002B021B1806480B52013292B28F2AEBD902E0034806F0A5FC70BD6C470008744700087494001070B506000C0000F09FFC3500210030006F
:4004000001F072FF08E0104BC118104806F012FC2100280001F068FF0D4B9842F3D10D4806F084FC642403E0013C012002F040FA01F0D2FE002801D0002CF5D1002C01D1E1
:40044000002000E0012070BD0000AEFF8C940010010050009494001081B5FFB0002304E000226946CA5401339BB2124A9342F7D957236A461370043B5370023393700E4B2B
:400480001A786946CA705B780B710C4B1A784A715B788B710A4B1B681868FFF7A9FF002803D0084806F042FC02E0074806F03EFC7FB081BDFF010000F453000870470008AE
:4004C000F8530008A4940010C0940010F0B56C4CA5446C4C206062B66B4800F09BFB04F08FF96A4B1B68586800230222002106F027FC674806F01AFC664806F017FC664819
:4005000006F014FC654806F011FC654806F00EFC644806F00BFC01226349002001F014FA23681B681A78572A40D15A78532A3DD19B78552B3AD15D4806F0F8FB514B1E68E4
:400540005B4B3268D2781A70326812795A70594B326852791A70326892795A700022564B1A7000241FE0651CAD0075192B681978514A1378CB181370002310E05A0029689C
:400580008C4662449078D778A10009194A01D2185200390209184948115201339BB29F2BECD90134E4B2092CDDD945E0444806F0BDFB0022404B1A703D4B43321A70413A74
:4005C0005A703C4BE8321A70E93A5A7000200FE0810009184B019B185B00002437495C52013292B200E000229F2AF1D90130C0B20928F8D9FFF730FF002304E0002269460E
:40060000CA5401339BB22F4A9342F7D9012411E0A3001C4A1268D0586946FFF7E9FE002803D0294806F082FB02E0284806F07EFB0134E4B20A2CEBD9254800F0C5FD01E04B
:400640000BF010FF234B1B78022BF9D1184D0221280000F021FB174C0321200000F01CFB1548FFF769FE75212800FFF781FE6C212000FFF77DFE81239B009D44F0BDC04630
:40068000FCFDFFFFF85300080000081008090008E49400100C950010349500105C95001084950010AC9500106D0C0010D4950010F4530008704700086C47000874470008A4
:4006C000E8950010FF0100000096001018960010490800100054000811B5FFB0002304E000226946CA5401339BB2124A9342F7D901236A461370104B1B789C00E3189901E9
:400700000E4BC918902252006B46981C05F00BFE0B4B1B6818596946FFF76AFE002803D0084806F003FB02E0074806F0FFFA7FB011BDC046FF0100006C47000874470008E1
:40074000F85300083496001050960010F0B5374CA5440500002304E000226946CA5401339BB2334A9342F7D901236A46137025E06B1E3049A8004019420112195200575AD7
:400780009800C6187201121952005752C3189A015118902252006B46981C05F0C4FD0134A4B200E000249F2CE2D9AB00224A1268D0586946FFF71CFE0135EDB21F4B1878D0
:4007C0008542EFD300220AE0431E9900C9184B019B185B00002417495C52013292B29F2AF2D9002304E000226946CA5401339BB20F4A9342F7D980000F4B1B681858694601
:40080000FFF7F6FD04000D480378013B0370FFF793FD002C03D00A4806F088FA02E0094806F084FA81239B009D44F0BDFCFDFFFFFF01000074470008F85300086C470008C1
:40084000749600109096001010B50C00404B98420CD004D880235B01984207D076E03D4B98420ED03C4B984212D06FE03B4806F05DFA02223A4B5A600021002002F0B4FE4A
:4008800064E0384806F052FA0222354B9A605DE00B89353B9AB20C2A55D89300324AD3589F460B681878431E9841C0B200F02AFA20000C30210003F01DF844E00B681B7813
:4008C0002A4A127893423ED8013B9A00D3189801274BC018FFF7B2FC20000C30210003F009F830E00B681878204B1B7898422AD8FFF72CFF27E00221206800F0CDF9236855
:400900001A781C4B1A70226852785A70FFF7A4FD20000C30210002F0EDFF14E00321206800F0BAF923681A78134B1A70226852785A70FFF791FD20000C30210002F0DAFFF2
:4009400001E000F0C5F9E06823F03EFC10BDC04608400000015000000C500000AC96001080043240E0960010409400106C47000874470008F45300087047000870B562497D
:40098000E0239B00CB580F2213401A00D0329200525807210A40032A05D0042A06D0002A12D15A4814E05A4A106811E01A00C0329200554952581F210A40112A06D0132AB4
:4009C00004D0FA20C00103E0524801E080200002002B36D14C4BB222D2009A5801211140B125ED005A59120F032422405B591B0F1C4207D0444C63591B0F03242340012B15
:400A000002D102E0012300E00023002B01D0002901D1032A4BD13C4BB022D2009D58AD03AD0B3D495958C904C90C9C58240E01231C40013403F000FF6843210003F0FCFEB3
:400A400035E0012B33D1304BC822D2009A5801251540C024E4001A59120F03210A401B591B0F194207D028490B591B0F03210B40012B02D102E0012300E00023002B01D081
:400A8000002D01D1032A12D11F4DC022D200AB587F210B40A958090A1F263140AC58240C3440584303F0C8FE210003F0C5FEE0239B00154AD3581B0903221340D840144C40
:400AC0006060164B1D692D0AFC32154001351969090E013103F0B0FEA060290003F0ACFE0500E06020610E4BC0180E4903F0A4FE20750D4BE818FA21890003F09DFEA0612A
:400B0000C003E06170BDC0460000264000127A00C400000800366E0184050000000021403F420F0040420F00E703000010B5234BB021C9005A58520052085A50E0208000D1
:400B40001A583024A2431A50802252045A501C491C4A9950A021890104329950FF211A4A995081315A58920092088020C00502435A505A588020000602435A505A58012035
:400B800082435A5000F06EFAFFF7F8FE00F0F4F800F0FCF801F0D4FAB0235B055B78002B04D0B0235B055B78DBB200E02123212B03D1064B0022DA605A6010BD000026408D
:400BC00001000200840500008C050000E00023408023024AD3580320184070470000214010B5FFF79EFA084980228C58074B2340074C23438B508823034AD358DB06FAD5A2
:400C0000FFF793FA10BDC04600002140FCFF00000100FA0570B50500FFF783FA0400FFF7D7FF032801D1FFF7DBFF0A4AB0239B00D55080215058084B0340084803435350C9
:400C40008823044AD358DB06FAD52000FFF76DFA70BDC04600002140FCFF00000300FA050122014B1A707047E400000810B500280ED00379002B08D0012B09D10530FFF77B
:400C80008BFB0122034B1A7002E00530FFF762FB10BDC0466847000810B50B4B1B78002BFBD0094B00221A70197202785A7242789A72064B044A04320021012000F0DCFDA4
:400CC0000028F6D110BDC046E4000008610C001010B50A4B1B78002BFBD0084B00221A7004321A72033A5A72054B044A04320021012000F0C1FD0028F6D110BDE4000008F0
:400D0000610C001010B50A4B1B78002BFBD0084B00221A7005321A725872064B044A04320021012000F0A8FD0028F6D110BDC046E4000008610C001010B5094B1B78002B59
:400D4000FBD0074B00221A7006321A72054B044A04320021012000F08FFD0028F6D110BDE4000008610C001010B5024800F01EFE10BDC0464436000810B5034A603280217A
:400D8000042000F09BFB10BD4437000810B501F054FE0400044800F097FC044800F006FD200001F04EFE10BD44360008F896001010B504002100034801F074FE0028F9D04C
:400DC00010BDC04600006640C2239B00034AD358DB05F9D0D0239B00D058704700006640FEE7C046F0B50025002711E0BB00C658F3B2FF22964308E06A008A181478A41944
:400E0000527822700135013BDBB2002BF4D10137012FEBD9F0BDC04680221206044B1A600122044B1A60044A044B1A607047C04600001D4100031D4101001180000E1F4186
:400E4000F0B587B0694D6A4C2B5980273F063B432B51012001F02CFD2B59C022D20513432B51A021C9006A5803239A4313436B5001AE604C04222100300005F054FA3000D1
:400E800003F050FB5C4A902013585C490B40135013691B021B0A8020400403431361136919401161E0239B00EA580F218A43EA50EA5821318A43EA50EA581743EF5000218F
:400EC000012000F0D5FD0021022000F0D1FD0021032000F0CDFD0021042000F0C9FD0021002000F0C5FD3300211D15C915C305C905C3300000F004FE002802D00420FFF72F
:400F00006FFF3A493E4A8B588020000603438B503C4800F0ADFE002802D00420FFF760FF324C394BE158394A0A40E250E158384A0A40E250E25880252D062A43E250043B9B
:400F4000E158344A0A40E250E158334A0A40802189010A43E250E258802109020A43E2502E4A11682E4B0B40802149000B431360002001F069FD2B4AA3581D43A550A35898
:400F80000125AB432B43A3506421002001F002FD254B0021254A9950802000011A5817490A408C24A40122431A508022D2002048985098581F481D501F481C582140C424B1
:400FC000A401214319501D499950995840201C495850902000011C581A4921401A4C214319501A4999509B5807B0F0BD000026403C0500003497001000002140FF00FFFF33
:40100000087F0000400D030004050000FEFCFFFFFFFF00FFFFF0FFFFFF8FFFFF00002740FFFCFFFF0C05000000000140140C000000FF0080E40C00000408000001FF008095
:40104000240C0000FF0000FF00352D0040FF008010B50A00002105F06FF910BD10B505F062F910BDF0B58BB09621002001F092FC01F068FC002801D101F054FC012001F04D
:40108000F3FA424A516C424B0B40E82189010B435364536C1B0AFF2213403A2B07D13B4A516C3C4B0B40E82189010B435364FFF7C7FE394A394B1A6000240CE06200121970
:4010C0005300374AD318998B1A8B588B00041043FFF7BEFF01340B2CF0D900240AE06200121993002E4AD3189A6E596E186EFFF7B5FF0134112CF2D92A4D29003831280048
:401100004430FFF76FFE0126274B1E600322274B1A60274A1368832149000B43136001AC22002B004C3383CB83C283CB83C283CB83C221001F4801F0FDF822002B00703386
:4011400023CB23C223CB23C223CB23C221001A4801F0F0F82200194B143323CB23C223CB23C223CB23C22100154801F0E3F824220021200005F0E0F801962100114801F0B4
:40118000D9F8FFF749FE0BB0F0BDC04600002740FF00FFFFFFC5FFDF0300FA05F001214034970010349800100479344008793440007934408002324000033240B49800100A
:4011C000800432400005324010B5002814D00B4BD8620B4B1B78002B08D10848094B436301F054FE0122064B1A7000E00020002803D101F079FE00E0034810BD1002000833
:40120000D43700082C9700100100160010B583089A00801AC000FF228240D44381400A40072B32D89B001949CB589F46184B196A0C4022431A6228E0154B596A0C40224338
:401240005A6222E0124B996A0C4022439A621CE00F4BD96A0C402243DA6216E00C4B196B0C4022431A6310E0094B596B0C4022435A630AE0064B996B0C4022439A6304E0D7
:40128000034BD96B0C402243DA6310BD78A900100000214083089A00801AC100FF228A40072B2BD89B001748C3589F46164B186A1040C84023E0144B586A1040C8401EE000
:4012C000114B986A1040C84019E00F4BD86A1040C84014E00C4B186B1040C8400FE00A4B586B1040C8400AE0074B986B1040C84005E0054BD86B1040C84000E00020C0B2ED
:401300007047C04698A900100000214070B504000D000B4B9A680B4B9A420BD1002903D1FC21094801F0EAFA1034064BA400E058E55003E01034A400044BE05870BDC04637
:4013400000ED00E000000008B8A9001000000010F0B583B0041E019150D04368032B03D93621294801F0CAFA0023E05E002802DBA178FFF74BFF0023E25E6368002A12DB35
:401380009008224EC0308000875903210A40D200FF25290091408F4399012B000B4093403B43835117E092B20F21114008398908063189001648844661444E68032002403A
:4013C000D200FF2738009040864398013B000340934033434B600E4B9A680E4B9A420FD1019B002B03D14521074801F087FA0023E05E0199FFF78AFF002002E0064800E03D
:40140000002003B0F0BDC046B8A9001000E100E000ED00E0000000080100560070B504000D000369002B0ADA0B0C03D00549064801F064FA2D042D0C6560002000E00348C8
:4014400070BDC046B3020000FCA9001001008A0070B505000C000368002B01DA002300E0084B002B0BD1EA60230C03D00649074801F044FA2404240CAC60002000E001487A
:4014800070BDC04601008A009A020000FCA9001070B505000C1E03D19921064801F02EFA2B69002B03DAEB682360002000E0024870BDC0463CAA001001008A00F8B50400B3
:4014C0000E0015000F283FD8002A10D100290ED10F2804D9AA21FF31214801F00FFA6401204B9C466444204B1C60002037E0002D2CD0002E2CD0F3062CD10F2C04D9AA2152
:40150000FF31174801F0FAF96401164B9C466444154F3C607E60BD60F2080021280004F00BFF00212000FFF779FF3A0001CA0021FFF78EFF00280FD10B4B18680021FFF75F
:401540006DFF00280AD10AE0084808E0074806E0064804E0054802E0054800E00448F8BD7CAA001000002340FC37000803018A0001018A00F0B583B00D001C4B1B68DC6815
:40158000236883422DD947097B01C01A012383401E00002903D101F050FA019001E000230193124B18680368002B01DA002300E00F4B002B0ED16368BF00DF193B6833427A
:4015C00003D133433B60002400E00A4C0021FFF725FF00E0084C002D04D1019801F031FA00E0064C200003B0F0BDC046FC37000801008A00020188000301880004018A0062
:40160000F0B583B00D001C4B1B68DC68236883422DD947097B01C01A012383401E00002903D101F00AFA019001E000230193124B18680368002B01DA002300E00F4B002BA5
:401640000ED16368BF00DF193B68334203D0B3433B60002400E00A4C0021FFF7DFFE00E0084C002D04D1019801F0EBF900E0064C200003B0F0BDC046FC37000801008A001D
:40168000020188000301880004018A000A4B1B68DA68136883420BD943095901401A0121814052689B009B580B4203D0034802E0034800E003487047FC37000801018800DC
:4016C00004018A0000018800034B1B68002B01D1014B18607047C04608380008F0B5474680B404000F0090461E002B4B1B68002B03D1B421294801F001F9072C03D9B521C0
:40170000264801F0FBF8244B1B682C2060431C18FF22150035402560330A13406360330CA3600F2D04D9AA21FF311D4801F0E6F86B011C4A94466344236165680F2D04D978
:40174000E2214900164801F0D9F86D01164B9C4665446561A668330C04D0F1214900104801F0CCF8330C04D0E421FF310C4801F0C5F83604330C1E43AE604346E3612762CC
:401780000023A361069B002B02D000229B5EA38104BC9046F0BDC04608380008BCAA00107CAA00100000234000102340F0B58FB0041E03D150212E4801F0A0F86368032BCF
:4017C00003D952212A4801F099F8E36A002B03D15621274801F092F8E368072B03D95721234801F08BF8236A072B03D95821204801F084F8236B002B03D159211C4801F004
:401800007DF807AA1300210061C961C321C921C302AD290023001433C1CBC1C141CB41C10821535E0CAE3380079B1933B370089B0D930B9B0A980096A26AE16AFFF74EFFC1
:401840002B69E868002200920021FFF747FF216B3000FFF77DFD0023F25E002A05DB1F231A401E3B9340034A13600FB0F0BDC046BCAA001000E100E0F8B504000F001600C3
:401880001D00002A03D1FD21284801F037F8284B1B68002B03D1FE21244801F02FF8072C03D9FF21214801F029F8072F04D9802149001E4801F022F81D4B1B682C21200057
:4018C0004843181879435918012213004C68A3401B044468A24014000269002A20D08F69002F1FD11268002A01DA002200E0114A002A19D132681204120C134333600369C3
:40190000DE6001238B614D620569230C03D00A490A4800F0F3FF2204120CAA60002004E0074802E0074800E00648F8BDBCAA00100838000801008A009A0200007CAA0010E3
:4019400004028A0007028A0070B504000D001600134B1B68002B04D16221FF31114800F0CDFF072C04D9B12149000E4800F0C6FF0B4B1B682C2060431C18236A002B04D190
:40198000B3214900074800F0B9FFE369B34204D9236AB6009D51002000E0034870BDC04608380008BCAA00100A028A0070B582B0040000230193002804D1EA2149002B481C
:4019C00000F09CFF2369002B04D1D621FF31274800F094FF6369002B04D1EB214900234800F08CFF236A002B04D1D821FF311F4800F084FF6269D5682B0C1FD01B04136060
:401A0000136820690369002B18DA01A9FFF740FD00280ED1019803681E0CFF221340E269934207D29B00226AD358002B02D0984700E0002631002069FFF7F0FC2D042D0C60
:401A40000FD063691D601B68636A002B03D098470023636203E0A36A002B00D098470023A36163691B6802B070BDC046BCAA001004281DD8042904D94B1EFF3B9BB2132B35
:401A800018D8FF290CD91F2319400B4A0300C0339B009950D03080000423835000200AE007231940D0308000034BC150002002E0024800E0014870470000264001004A00FC
:401AC00010B50400042804D91621FF310A4800F015FF2300D0339B00084A985807231840042807D1C034A400A3581B30184080235B00184310BDC046FCAA00100000264050
:401B000070B5041E04D1E221FF314C4800F0F6FEB023DB004A4AD358002B01DB002500E0484D002D00D086E0474B22689A4204D9F8214900414800F0E1FE23689B03990B11
:401B4000E3791B068022520413400B43B022D2003B498B50A2883D4B9A4204D9F821FF31364800F0CBFE2289394B9A4204D9FC214900324800F0C2FEA388DB04D90C23894E
:401B80001B04344A13400B43334A2D498B50A37A0F2B04D9FF214900284800F0AFFEE37A0F2B03D92A49254800F0A8FEA289274B9A4204D980218900204800F09FFEA37AF4
:401BC0000F211940E27A1201FF2313400B43A289120222490A401343A27B1207C02189050A401343B122D20015498B50A379072B04D982218900114800F080FE228A144B94
:401C00009A4203D916490D4800F078FE0C4815494658154B1E40A3791B02E022D2001340334343504658114B1E40238A1B04094A134033434350280070BDC046FCAA001077
:401C40000000264003004A00FFFF0300FF1F0000FF0100000000FF018405000000FF1F00090200008C050000FFF8FFFFFFFF00FE70B505002D492E4A8B5880200006034377
:401C80008B502C0003E0012000F02CFE013CB223DB00264AD3585B0701D4002CF3D12349B122D2008858234B03408020800503438B50002D02D00ED0002C0CD01B49B0224D
:401CC000D2008B588020000603438B5003E0012000F008FE013CB223DB00144AD358DB0701D4002CF3D1002D0ED0002C0CD10F4AB021C90053585B005B0853500C4953583E
:401D00005B005B0853500BE0084B0221B222D2009950B121C9005A58C020800502435A50002C01D1044800E0002070BD000026408C050000FFFFFFCF02004A00F0B54746F9
:401D400080B45B4B98426FD89A4274D8594B994278D80124584B1C70FF2806D80E3404400F250F239C46072021E0544B984206D80F2630400F2500239C46002417E0030AC5
:401D80000F2633404E4CA04208D80001F03630401843FF2500239C46002408E00002F026360130401843474D00239C460024FF2A10D81201FF231A401443E022D20202430F
:401DC00016000F3B62461A439446F0273F032F4300203DE0394B9A4208D81204F0273F033A40104306002F43002031E0160A3604F0231B031E403043314B9A420AD81205CA
:401E0000F0231B041A4010430600FF273F042F4300201DE01206F0263605324010430600294F2F43002013E0002700239C460026002426480CE0002700239C46002600244E
:401E4000224805E0002700239C46002600241F4800282AD11E4B1B68002BFBDA164B5B78002B04D01B4B1C4AD358002B19DA1B4A1B4B1A601B4A1C4B1A60174BA322D2005B
:401E800090469D58624695432C4342469C50174C1A59BA4332431A51074A51600D4A995000E0134800220A4B5A6004BC9046F0BD0F060000FFFFFF000C380008FF040000EF
:401EC000FF0500000F0F000000000F0F01004A00E00023401C050000000026401F1F0000080126403D3D0000040126401405000003004A0070B582B00022002300920193D3
:401F00002C4B1A702C4B1B68002BFBDA2B4B1A682B4B9A4206D12B4B1A682B4B9A4203D0002502E0002500E00125A423DB00274AD4582402220A0023009201931E4B0022D1
:401F40005A60002D2DD0009A019B1A4329D0002815D1184B58680A000023002102F002FE009C019DEE07620832436B0880185941009A019B02F0D6FD0090019115E0009A21
:401F8000019B0800002102F0EDFD0A4B5A685408002500196941002302F0C4FD0090019103E000220023009201930098019902B070BDC0460C380008E000234008012640CA
:401FC0001F1F0000040126403D3D000000002640F0231B06C3180F4A934201D8580A18E0EC231B06C3180C4A934204D85B0A8020400218430DE0EA231B069C466044064B42
:40200000984204D8400A80229202104301E0012040427047FFFF0F00FF7F000010B50400FFF7D6FF431C03D0E40503D0002002E0002000E0012010BD214B984230D00ED8B3
:40204000402831D004D800281FD010282AD031E080282BD080235B00984229D02AE0194B984229D007D8A0231B0698420DD0164B984212D01EE0154B98420AD0144B98422A
:4020800009D0144B984215D101E0002016E0124814E0124812E0124810E0A020C0030DE007480BE00F4809E00F4807E00F4805E0034803E00E4801E0A420C0037047C04640
:4020C00006005200010000F0090000A0040000F0050000F0030000F0010052000200520003005200010050000200500005005200FF00520010B50C4B1B69002B11DB0B4BBE
:402100001868FFF799FF0121094B0A4AD150084B084AD358002BFAD1074BD358002BF6D100E0064810BDC04600002340183800080C040000000025408C040000020050005E
:4021400010B5022202490020FFF7FEFB10BDC046A509000870B504000D00FFF75FFF002827D0002D27D0FEF709FC144B144A1A6000225A609C60DD60124B19691A69120A02
:40218000FF2313405A1C0B0E013353430E4C5C430E4B1868FA21890002F04EFB0100200002F04AFB0A4BC1188020400007F040F902E0084800E0074870BDC046183800081E
:4021C0000001000500002140C0EA2101C8000008482600000600520010B5FFF78BFF10BD10B50400FFF71AFF00282AD0FEF7C6FB154BE02252051A601A68802149000A4368
:402200001A605C6000229A60DA60104B19691A69120AFF2313405A1C0B0E013353430C4C5C430C4B1868FA21890002F005FB0100200002F001FB084BC118002007F0F8F822
:4022400000E0064810BDC046183800080000214060F59000C8000008980800000600520070B504000D00FFF7D9FE00282ED0002D2ED0FEF783FB174BC022D2041A601A681A
:40228000802149000A431A60832252005A609C60DD60114B19691A69120AFF2313405A1C0B0E013353430D4C5C430D4B1868FA21890002F0C1FA0100200002F0BDFAE12349
:4022C0009B00C118002007F0B3F802E0054800E0044870BD1838000800002140808D5B00C80000080600520070B504000D00FFF795FE002813D0002D13D02000FFF770FF78
:40230000094B98420ED1FFF7F5FE084B9842FAD0002807D129002000FFF7A2FF02E0044800E0034870BDC04601005000020050000600520070B505000C00002848D00029AA
:4023400048D0FF230A689A4303D08D21224800F0D5FAFF2322699A4303D08E211E4800F0CDFAA3685B0D03D08F211B4800F0C6FA63685B0A03D09021174800F0BFFAE369F0
:402380005B0F03D09121144800F0B8FA236A5B0F03D09221104800F0B1FA104BEB18DB090F4A944663441B0122682A60E268AA622269EA6262692A63A2686A626268AA6144
:4023C000A2696A63E2691A60226A5A60002002E0044800E0034870BD84AB00100000CEBF0010030401005A0010B5074A074813580F24A34302210B43135004381358A343CC
:402400001943115010BDC0460000214004F0000010B5074A074813580F24A34303210B43135004381358A3431943115010BDC0460000214004F000000449054A8858054BBB
:402440000340C020C00103438B5070470000214004F00000FF8FFFFF0449054A8858054B03408020C00103438B5070470000214004F00000FF8FFFFF10B5002000F0FEFAC9
:40248000B0235B055B78002B04D0B0235B055B78DBB200E02123222B03D8002803D1013002E0012000E0002010BDC04610B50400002000F0E3FA00280AD114498A69144BCD
:4024C0001A40240680235B041C4014438C611BE0002C01D00F4A00E00F4A01210F48FEF7B7FF00280DD10D4B1B69002BFBDB0B4BDB681B0E1B06A0221206934203D0084870
:4025000002E0074800E0002010BDC04600F02540FFFFFFFE0101003001000030000023400400420070B50400022805D0052803D02349244800F0E2F9FFF79EFF00283CD0A9
:4025400000F07BFA0600022C10D10120FFF7AEFF051E18D1FFF748FF1B494B6907229343043A13434B61FFF767FF0CE016494B6907229343043A13434B61C82000F0B2F960
:40258000FFF76AFF0025002D13D10F494B69072293431A000723234013434B61052C08D1C82000F09FF9FFF733FF0020FFF77EFF0500300000F045FA00E0044D280070BDB3
:4025C0003706000004AC0010000026400300420010B50400012803D90D490E4800F08EF9002C03D10C4B5869C00F00E00020012C0CD1094B9B695B0005D4074B9B69002B44
:4026000003DA012002E0012000E0002010BDC0469C06000004AC00100000264070B504000D00072803D90D490D4800F067F90D4B9B690722134021009C420DD009488269D2
:402640000726B243344014438461002D04D0994202D9C82000F046F970BDC046FC06000004AC001000002640F8B50500012804D9EA21C900294800F041F9FFF7FDFE00281F
:4026800048D000F0DAF90700002D17D1E823DB00B0225205D65CF6B20120FFF707FF041E1FD1FFF7A1FE1E481E4943581F229343143A13434350FFF7BFFE12E01A4BB022E4
:4026C0005205D65CF6B21648164943581F229343143A13434350092000F004F9FFF7BCFE0024002C12D10E490E4A8B581F20834306401E438E50012D08D1163800F0F2F8BF
:40270000FFF786FE0020FFF7D1FE0400380000F098F900E0054C2000F8BDC04604AC0010000026401CFF0000410700000300420070B584B005000E00042803D929492A484B
:4027400000F0DCF8731EDBB2012B07D9042E05D0082E03D02549244800F0D0F8042E01D0012E1DD1224B5C68002013E023799D420FD1A368002B01D01E420AD1E36801A8D4
:402780005A6842609B688360067023689847184B9C606469002C23D0164B9842E6D11FE0134B9C68022E02D1002C00D02469002011E023799D420DD1A368002B01D01E42F4
:4027C00008D1E36801A85A6842609B6883600670236898472469002C02D0064B9842E8D104B070BD9508000004AC00109608000028380008FF00420070B50500012804D9BE
:402800004E21FF311B4800F079F81B4B1B68002B05D001210020FFF78BFF040000E00024002C20D100F009F90600134B1B68002B03D004210020FFF77BFF104A13690421DE
:402840008B431361012D01D030BF00E020BF300000F0F7F8084B1B68002B09D008210020FFF766FF04E002210020FFF761FF044C200070BD04AC00102838000800ED00E0CD
:40288000FF00420010B500F0D8F8074B5A6807490A40E824A40122435A605A68114059605B6800F0CEF810BD00002640FF00FC0F10B5040006E0084B186800F0B5F8074BE1
:4028C0009C46644480231B029C42F4D8044B1868604300F0A9F810BDE00000080080FFFFDC00000810B5034B1B78584300F09CF810BDC046D800000801BEFEE770B50D007C
:40290000044C18220100200004F0D1FAA5610020FFF7F2FF980C00080122014B9A60704700002540054B802212069A649B6C002B01DB002000E002487047C046000027406B
:4029400003004600054B8022120198585B68FF221A4202D08023DB021843704700002640FEE7C04610B50A4B0268DA6142681A6282685A62C2689A620269DA6242691A63A4
:4029800082695A63C2699A63FFF7EAFF10BDC046980C0008F0B5002801D0192200E064228A42924152421C4BE8256D005C590327BC433A4014435C515C59184E34405C51FE
:4029C000D03D5C59BC4322435A515A5916405E51002805D010290DD921290DD8012014E01D290BD93A290BD957290BD978290BD803200AE0002008E0022006E0002004E074
:402A0000012002E0022000E00420054A13680F218B4303431360F0BD00002140FFFCFFFF00002540000000000230800803D001300238FCD1C046C0467047EFF3108072B65E
:402A4000704780F310887047042805D1094A116804230B4313600CE00006C0239B04184090239B00044AD050024A136804218B431360704710E000E00000214010B50400C1
:402A80000F2803D9E4210548FFF738FFA402044B9C46644423680F20184010BD44AC00100040244003681B0501D5802200E0402282239B00C358DB05DB0D934204D09023BE
:402AC0009B00C150012000E000207047F8B505000C001600002800D1C1E1002900D1C0E1C04B984200D1BEE10B78022B03D94221BD48FFF703FF637B023BDBB2062B03D952
:402B00004321B948FFF7FAFEA37B002B07D0022B05D0032B03D04421B348FFF7EFFE2123E35C012B03D94521AF48FFF7E7FE2823E35C012B03D94621AB48FFF7DFFE2378BF
:402B4000012B06D86268083A082393429B415B4208E0A37F002B05D063685A1E062393429B415B42002B03D048219F48FFF7C6FEA368053B042B03D949219B48FFF7BEFEA5
:402B80006369FF2B03D94A219748FFF7B7FEA369FF2B03D94B219448FFF7B0FEA37C002B0FD02378002B07D1A368092B06D1A37B002B05D0012304E0012302E0012300E043
:402BC0000023002B03D04D218748FFF797FE874B626B1A4203D04F218348FFF78FFE844BE26B1A4203D050217F48FFF787FE2378022B02D1A37F002B02D063685A1E00E085
:402C00000022237F002B02D08021490200E00021A368082B02D880231B0100E0002319430F2313400B438022920413432B60236B2A68120501D5802200E04022934203D328
:402C400065216948FFF75AFEA36B2A68120501D5802200E04022934203D366216248FFF74DFE636A2A68120501D5802200E04022934203D367215C48FFF740FE23781B064A
:402C8000C022920413402B64637F002B01D0402200E00022A07C002802D08023DB0000E000231A43237C002B02D08021490000E000210A43637C002B02D08021890000E0CA
:402CC00000210A43E36A013B1B04F020000303401343627B013A07210A4013431900A27B120130231A400B001343AB64237B002B02D08021490000E00021E27B002A04D1EA
:402D00002378022B03D1013B02E0012300E00023002B02D080239B0000E000230B43A268013A0F273A401343C02292009446AB50FF2260691040A3691A04FF2109040A40B7
:402D40000243C4239B00EA50E26A6346EB583B4003339A4201D3102A03D97D212248FFF7CDFDE37F002B04D02378012B03D0002302E0002300E00123002B02D080214900CD
:402D800000E00021627B013A072313401943A27B120130231A400B0013436B64237B002B02D08021490000E00021A3685A1E0F2313400B432278012A02D18022520200E0CA
:402DC0000022134380229200AB50FF23226B1340C1229200AB502023E35C002B0AD08021890408E00000694008AD001092F4FFFF8CF8FFFF00212122A25C012A02D18023A6
:402E00005B0400E000230B432822A25C012A02D18022520200E000221343FF21626A0A4013432B65A36B0B4081229200AB50104B626B13400F4AAB50E26B0F4B13400F4A87
:402E4000AB50002E11D0002373603360B360F3603362F36233630A4B7363002006E0094804E0084802E0074800E00020F8BDC0466D0B0000C80F000073070000880F0000D7
:402E8000EFCDAB000160AA007047C04610B5002817D00D4B1860C36A002B01D00A4A536000240A4B1C700A4B1C700A4B1C600A4B1C7000F091FB094B1C70094B1C7000201B
:402EC00000E0084810BDC0465438000810540008145400081854000815540008FF530008045400080100160070B590B00CAE102510222849300003F016FA02AC2822002166
:402F0000200003F019FA244B0293A660234BA3810423A373224A126812692261214A62611B2222836283183A227763770233A377E5771A33E5540133E55451336384023AAF
:402F40004C3BE25409F076FA08A809F0F7FA00281ED1154B039302A809F098FA002814D10122124B1A700023114A1370114A13700B4B1B681A6A00929B6ADB886A4693803F
:402F80001423D380684621F095FF00220A4B1A6010B070BD48AD0010353A0010542900005438000896100000D40C000800540008085400080954000818540008014B024A02
:402FC000D050704778F0010000003C4010B511F017FC044B1B68002B02D0002800D0984710BDC0465C38000810B5002809D0FA23FF33994207D80A00044903F094F9002061
:4030000002E0034800E0024810BDC0460708001601001600F0B55F4656464D464446F0B4B14CA54481460E00904605930B00AF4A914204D942468A18AD498A4211D9AD4AD9
:40304000934204D94246B218AB498A4209D9AB4A934200D823E14346F318A94A934200D922E1A84B5B695B0010D5A64B5B6907241C40022C25D10520FFF754FA0190A24B8E
:403080009842F8D003940123049324E09F4B9D4AD3581F221A40E823DB00B0214905CB5C9B1A5A1E9341DBB20493002B0FD10120FFF7DAFA944B9842F9D001900523039369
:4030C00009E00394012304930023019303E005230393002301938E4B019A9A4204D1D621FF318C48FFF70AFCF0231B069C466644730A9A465C0200210320FEF73BFA002859
:40310000F9D100250023029399E0B4421BD3BD4219D24A4652191078804606A84146C154594600290DD1802149058846A044414609786846017001781278914201D00122D6
:403140009346013505E080225205A218127806A8C2540134013304E0002100238B46844647466D4A9342D0D959466046B846002962D0019B002B5FD1059B002B51D1C833EF
:4031800000951D00B3465646A24680231B03F7187F023800FFF724F80400013D0120FFF7A1FBA423DB0322001A409A4201D1002DEBD122000294009D5446B2465E46574B6B
:4031C0009A4205D1FFF708F8554B9842FAD00290029B002B19D1C83300971F00A34606A90098FFF73DF80400013F0120FFF77AFBA423DB0322001A409A4204D1002FEED103
:4032000002945C4601E002945C46444B029A9A4211D1FEF7E1FF424B9842FAD0029001200AE0802000035044400206A9FEF792FF0290012000E0012001239C46E244029B86
:40324000019A134301D1454586D3002801D0FFF763FB00210320FEF7D3F90028F9D1019B002B25D1274B5B695B0009D5039B022B06D10220FFF756F90190234B9842F8D08E
:40328000204B1B681B0213D4049B002B10D10020FFF7EAF901901C4B9842F8D008E000230193204B029303E0002301931D4B0293019B002B0CD11C4B029999420AD0194BE9
:4032C000994207D0002901D1002004E0174802E0174800E0174887239B009D443CBC90469946A246AB46F0BDE4FDFFFFFFFFFF0F00001010FFFFFF1300800014FF0700161A
:40330000000A001600002640040042001CFF00000300420058AE0010FF0100000100500002005000060052000200520013001600120016000100160010B500280AD0FA23B0
:40334000FF33994208D8F93BFF3B0A000349FFF761FE02E0024800E0014810BD070800160100160010B50023FFF754FE10BDC04670B5C0B005000C001600802252000849E5
:40338000684602F0D0FF05E02A7872406B469E5C0135013C002CF7D1300040B070BDC04658AD001010B50022FFF7E2FF10BDC04600207047B0235B05588880B27047C04681
:4033C0000020704710B5FFF78DFA10BD064B1B685B6B00229A5E002A05DB1F231A401E3B9340024A136070475438000800E100E0094B1B685B6B00229A5E002A0ADB1F238E
:403400001A401E3B9340802204498B50BFF34F8FBFF36F8F7047C0465438000800E100E0A023DB00024AD358032018407047C04600002640024B034AD058C00F7047C046E9
:403440001C0500000000264010B5FEF753FD10BD70B504000D0016000320FEF717F9054B984205D0320029002000FEF767FC00E0014870BD0101880003004A0070B5431AF9
:40348000DC171B196340934227D3164B164CE458A405A40D884208D9401A51084018110001F0CAF9201A0ED50AE0081A51084018110001F0C1F900190C4B984202D802E003
:4034C000002000E00A48084D06496B589B0A9B028205920D13436B5001E000240020201A70BDC0463C05000000002640FE030000FF03000010B5034B1A6880210902FFF727
:40350000BDFF10BDC805000810B500F0D7FF0220FFF754FD094C2368586B0949FDF718FF23685B6B00229A5E002A05DB1F231A401E3B9340034A136010BDC04654380008D5
:40354000CD2F001000E100E00420704710B5FFF774FA10BD10B5FFF774FA10BD10B5FFF74BF910BD10B50021FFF758F810BDC0467047C0467047C04600207047004870479C
:4035800011001600004870471100160000487047110016000048704711001600004870471100160000487047110016000048704711001600004870471100160000487047DB
:4035C00011001600004870471100160000487047110016007047C04610B5024800F0D8FD10BDC046C005000870B5022875D8002975D10022002306E03C4CE45C012C01D922
:403600000132D2B20133002BF6D0012A0CD1384B1B681C688A0052189300E3185B681B79023BDBB2012B5CD8324B1B78002B5AD1314B197000281DD12D4E34688B005B1883
:403640009A0023689D18CB00591A4B006168C918898829822168891849686468E45A0C8031680C68A446624452684968CB185B8853801FE001281DD11D4D2C688B005B185D
:403680009A0023689E18CB00591A4B006168C91889893182216889184E686168C9180989318029680C68A446624452684968CB185B895380114B18700D4B1B6818680E4B38
:4036C0001B789A00D3189A0080181DF061FB00280AD10122074B1A7006E0094804E0084802E0084800E0084870BDC046085400085438000809540008FE53000815540008EE
:403700000100160002001600FF00160070B5002907D1154B1B681B689968CE7F002300250FE0114B1B681B68D968CE7FF6E7CA5C002A0AD00133CC5C1B2C01D09B1800E036
:403740000125B34201D2002DF1D0002D0BD001338279CA54002204E0D4180134855C0D550132052AF8D970BD5438000870B5050021F0BEFB041E24D1134B19682B899A0082
:40378000D2189300143B0A6A944663445A68920117D5EA7B1B695B68C8691B1A50008018C0180A4BC018AA88296802F0BCFDEB7B074AD35C012B04D1064A117802230B4367
:4037C0001370200070BDC046543800080C54000804540008FF53000870B586B004000289164B1B685B699B889A4223D101A80300220062CA62C300238381A389C38140239F
:403800000374FFF7B3FF051E0ED123681B789B0705D50B4B1B6821000A48984704E0084B1B68210008489847084A137801218B43137000E00025280006B070BD54380008A4
:403840005838000805000100060001001054000810B54288531E9BB2402B1CD84478002C1BD1104B196893009A189300143B0A6A944663445A68920111D51B695868C9690E
:40388000411A63001C19641807496118022202F04AFD002004E0012002E0012000E0002010BDC046543800080C54000830B587B0041E18D00E4B1B68196A028993009A1827
:4038C0009300143BCB185B689B010ED401AD14220021280002F030FD2B0007CC07C32800FFF744FF02E00E2000E0012007B030BD5438000870B586B006000C1E16D000286B
:4039000016D001AD14220021280002F015FD2B0007CC07C3022231001220684402F003FD40232B742800FFF721FF02E00E2000E00E2006B070BDC04630B583B004000D0013
:4039400006220021684602F0F7FCA3896A4613802389538012231371074B1B78DB0709D4002D04D05571684620F00CFC02E0E06820F02AFC03B030BD1054000810B500283A
:4039800011D00023002406E09A0011495258904200D1012401330E4A1279934206D2002CF2D0002303E000240A4B00E00023002B0CD1002C0AD1064A1279002A05D1044928
:4039C0009400605001320A7100E0034B180010BD1C540008010016000300160070B506000D000020002406E0A200074BD3582900300098470134044B1B799C4203D2034B48
:403A00001B78DB07F0D470BD1C540008105400088379002B06D000200AE0C25C002A06D1013300E00023052BF7D9002000E001207047C046F0B5474680B48CB004000D004E
:403A4000BC4A117801230B43DBB21370BA4B984200D113E231D8B94B984200D1C6E015D8B74B984200D1EAE007D8023B984257D0B44B984200D1DEE06FE3B34B984200D14E
:403A80001CE1B24B984200D162E366E3B04B984200D147E208D8AF4B984200D19EE0AE4B984200D11EE158E3AC4B984200D1E9E1AB4B984200D131E24FE3AA4B984200D131
:403AC0000AE316D8A84B984200D1BEE208D8A74B984200D1D6E1A64B984200D162E23CE3A44B984200D1CDE2A34B984200D1D1E233E3A24B984200D1FAE208D8A04B9842B6
:403B000000D1EDE29F4B984200D1EDE225E39E4B984200D1F0E29D4B984200D13EE21CE39B4B1E683000FFF773FF00280CD030001EF00CF9964E00213068FFF7E7FD306807
:403B40000121FFF7E3FD37E0924B19688B6A1B79002B22D0B02040058F4BC35C3F2213408E4E865D324092011A438D4BC65C1F2333401B031343C022D200805C7F220240B9
:403B8000520413430A6B1370824A1168096B180A48701268126B1B0C93707E4E3368186B1EF0D4F83368186B0021FFF7AFFD3368186B0121FFF7AAFD764B1B68986A0230B3
:403BC0001EF074FC0822774905A802F0ACFB05A81EF0E0F80222744B1A70BEE20023724A1370724A1370FFF74FF9B6E2704B1B68DB0700D5B1E205AE03220021300002F05D
:403C00009BFB644F3B689B6A1B785BB2337030001EF0DAF83B689B6A5B785BB2337001277770FF23B37030001EF0CEF8604B1A6817431F6091E22900FFF7D0FE8DE26B7805
:403C4000984602225749083105A802F06CFB00261DE002AF73005749C9180222380002F062FB7B78002B02D1534AD35C00E00023012B0BD973004F4A9B5C984506D17300F6
:403C8000D118022205A802F04EFB02E00136002EDFD005AB5B78FF2B05D104D1F22189004648FEF72BFE05AB1B8808AA138007AA13801B0A2978424AD1544EE22B78002B28
:403CC00000D04AE22B7A002B06D13E4B0022DA809A803D4A1A606B60164A137801218B4313703AE26B79984602222E49083105A802F019FB00266AE003AF73002D49C91887
:403D00000222380002F00FFB7B78002B02D12A4AD35C00E00023012B58D97300254A9B5C984553D17300D118022205A802F0FBFA4FE0C046105400080A400000042000003A
:403D40000210000001100000031000000410000006400000123000000440000007400000084000000E500000025000001040000001500000035000000C500000145000003A
:403D80000F500000105000001750000001600000CC0500085438000804060000050600000306000094AE0010005400080954000818540008FC53000808540008A0AE001051
:403DC0001454000874380008283600080136002E92D005AB5B78FF2B05D104D1F2218900C948FEF78BFD05AA138809A90B8013801B0A6978C54AD154EB78002B00D0ACE1B1
:403E00006B7998460222C249083105A802F08BFA00261DE004AF7300BE49C9180222380002F081FA7B78002B02D1BB4AD35C00E00023012B0BD97300B64A9B5C984506D1E4
:403E400076009119022205A802F06DFA02E00136002EDFD005AB5B78FF2B05D104D1F2218900A948FEF74AFD05AA13880AA90B8013801B0A0121A94AD1546EE12900FFF7F9
:403E8000ADFD6AE1AB7E002B44D12B7E012B02D10022A34B1A70EB7E984602229C49083104A802F040FA00261DE005AF73009949C9180222380002F036FA7B78002B02D185
:403EC000954AD35C00E00023012B0BD97300914A9B5C984506D176009119022204A802F022FA02E00136002EDFD004AB5B78FF2B05D104D1F22189008348FEF7FFFC04AA58
:403F000013880BA90B8013801B0AFF2B02D0297E844AD1540222844B1A701EE10222824B1A701AE12900FFF759FD804B1B78DB0700D412E17A4B1B78012B03D10222784BAC
:403F40001A700AE1032B03D10022754B1A7004E1022B00D001E10022714B1A70744B1B685868744B1978CA00531A5B00C3189A79002A00D1F1E09B88002B00D1EDE06E4BEF
:403F80001B78002B00D0E8E00120FFF72DFB002800D0E2E00122624B1A70DEE02900FFF71DFDDAE002222900684602F0BCF96B465B78002B03D10221574AD15406E0002B88
:403FC00004D1E12189005048FEF798FC68784000504B18180222290002F0A5F96B780021564AD1545800C018554E8019504B1B6819692B785A00D318524A94466344C918BD
:404000000631032202F08FF96B785800C01880190221FFF7C7F96B785A00D318F618B37898420DD0484B1B680021484898476B785800C318424818180322002102F07CF9EA
:4040400029002000FFF7CAFC87E001AE02222900300002F068F97378002B03D100212E4AD15406E0002B04D1E12189002648FEF745FC6B780021294AD15429002000FFF7BD
:40408000ADFC6AE005A82B8803801723438020F087F862E02A89531E9BB2402B0ED905A8AB8903804280122303710126467120F069F81E4A1378B34313704EE02800FFF7C3
:4040C0008BFB011E04D129002000FFF787FC01002800FFF731FC40E02900FFF77FFC3CE02900FFF77BFC38E02900FFF777FC34E02900FFF773FC30E02800FFF7A9FB290085
:404100002000FFF76BFC28E0A0AE00100454000894AE0010FC530008085400086C3800080954000870380008005400081054000854380008FE5300081554000814540008D8
:404140000C5400089010000058380008040001000B4A117801230B4313700A4B1A7811231A4209D0074A137801218B431370064B1B682900200098470CB004BC9046F0BD2D
:40418000FF53000810540008583800080020704710B5002805D0044B18600448FFF7EEFB00E0034810BDC046803800088D4100100100160070B50D000F4B184300040F4B1E
:4041C000D861FA24A40003E0013C0120FEF78AFB0A4B1B6CDB0701D4002CF5D1002C08D0064B196C01220A431A64DB6A2B80002000E0034870BDC0460080FFFF00003C4054
:404200000400160010B500040E4B184001430E4BD961FA24A40003E0013C0120FEF762FB094B1B6CDB0701D4002CF5D1002C06D0054A116C01230B431364002000E0034838
:4042400010BDC0460000FF7F00003C4004001600F0B583B006000A24C02149017548FFF7D1FF002804D16B46991D7248FFF7A2FF002C01D0013C00E06F48002805D16B4668
:40428000DA88C0235B019A42E6D1002825D16B46991D6A48FFF78EFF00281ED16B4606331B885B0519D40A248021C9006348FFF7A9FF002804D16B46991D6048FFF77AFFC3
:4042C000002C01D0013C00E05B48002805D16B46DA888023DB009A42E6D1002804D16B46991D5748FFF766FF002844D16B4606331B883F229343B278012A15D1F1780129B2
:4043000004D88FB20222D21B95B201E000250227402213439BB2302213436A46D380494BCB40494A136013E0F178002904D18FB20122D21B95B201E000250127402293432C
:40434000102213436A46D380404BCB403E4A13606B469C1DD9883943D9803948FFF752FFF378DB1B03221340AA0092B213432380374A38498B50B0235B055B78002B04D017
:40438000B0235B055B78DBB200E02123212B4FD0314BB0225205D35A9BB2002B48D0002804D16B46991D2D48FFF704FF002824D16B469A1DDB8860218B4318001380B025F0
:4043C0006D05254C2B5B60310B405B08034324490B401380295BC901F020C00001400B43204919401180285BC0239B000340DB00194311801948FFF705FF002804D16B466F
:40440000991D1948FFF7D6FE002811D16B469A1DD988C023994311800F4BB0204005C05A302303409B00194311800F48FFF7EAFE03B0F0BD021E000004001600031E0000E1
:40444000091E00000048E801C40000080024F40064F0010000003C4016180000071E00007FF5FFFFFFE7FFFF061E000070B50C004000084901430848FFF7C4FE051E04D15C
:4044800006490748FFF7BEFE05006001FEF72AFA280070BD01100000081E0000376800000F1E00000349044A8858102303438B507047C04600003C4070F00100F0B59DB07B
:4044C00013A9144B0A00180070C870C270C870C270C870C20AAD28001A002432D0CAD0C0D0CAD0C0D0CAD0C001AC22004833C1CBC1C2C1CBC1C2C1CBC1C20748FDF71AFFA1
:4045000029000648FDF716FF21000548FDF712FF1DB0F0BDD8AE0010000132408001324000023240F8B5051E00D1D4E06E4B5B689B0301D5FEF7A6F96C4C03E0013C0120CC
:40454000FEF7D0F96A4B6B4AD358002B01D0002CF4D1694B674AD358DB0704D5674BD358DB0700D5B9E0624B624AD358002B00D0B5E0FFF7A3FF5F4B6149624A99502A784C
:404580008021C9020A4360495A506049604A9950802252009B58DB0700D5A2E05D4B1B6F1B0709D45C4B18685C4B984206D9190000F042F9013802E0012000E000204D4BC3
:4045C0001B68002803D04003554A104300E055481843484B1860444B5B695B000ED501210320FEF71BF8404B5B695B000CD53E4A93698021C9050B43936105E03D494A4A88
:404600008858032303438B503A4C3B4AA658474B3343A3504020FEF765F9454BE358DB070BD42700424C01233B514020FEF75AF903233B514020FEF755F93E4F37403E4E1E
:404640003E432D4B2B4AD650FA24E40003E0013C0120FEF747F9394B394AD358DB0601D4002CF4D1002C01D0002400E0354C002C23D12049344A8858082303438B5001207F
:40468000FDF7A6FF002801D1304E3E43304B1E4001231E43184B174AD650144E03E0013E0120FEF71FF9154B124AD358DB0701D4002EF4D1002E00D1224C002C03D1280048
:4046C000FFF7C6FD0400002C0CD168782978FFF7CDFE040006E01F4C04E01F4C02E01E4C00E01E4C2000F8BD00002640F07E0E006CF0010000003C40A0F00100B4F00100B2
:4047000006000001A4F00100A8F0010001000100ACF0010000F03D40CC00000800093D00041A0080040A0080C4F0010030000300B0F00100EFFFFEFF20000200104000000C
:40474000000032400400160068F0010028000200FFFFFBFF010016000300160002001600014B18687047C046C400000810B5002405E02000FDF7A4F9032804D00134042CB2
:40478000F7D9002000E0012010BDC046A023DB00064AD35803221340012B03D0032B03D1012002E0012000E0002070470000264070B50D001600002907D1002408E028786D
:4047C000FCF7F6FA0135013400E00024B442F6DB200070BD70B50D00160000290AD100240BE0FCF7F1FAC0B2287001340A2804D0013500E00024B442F3DB200070BDC04684
:4048000010B5094B1B78002B07D1084A08490948FEF75CF90122044B1A70064A1368802109060B43136010BD8438000824540008D005000800006640002243088B4274D33E
:4048400003098B425FD3030A8B4244D3030B8B4228D3030C8B420DD3FF22090212BA030C8B4202D31212090265D0030B8B4219D300E0090AC30B8B4201D3CB03C01A524139
:40488000830B8B4201D38B03C01A5241430B8B4201D34B03C01A5241030B8B4201D30B03C01A5241C30A8B4201D3CB02C01A5241830A8B4201D38B02C01A5241430A8B4210
:4048C00001D34B02C01A5241030A8B4201D30B02C01A5241CDD2C3098B4201D3CB01C01A524183098B4201D38B01C01A524143098B4201D34B01C01A524103098B4201D344
:404900000B01C01A5241C3088B4201D3CB00C01A524183088B4201D38B00C01A524143088B4201D34B00C01A5241411A00D20146524110467047FFE701B5002000F0F0F8EA
:4049400002BDC0460029F7D076E7704703460B437FD4002243088B4274D303098B425FD3030A8B4244D3030B8B4228D3030C8B420DD3FF22090212BA030C8B4202D31212A8
:40498000090265D0030B8B4219D300E0090AC30B8B4201D3CB03C01A5241830B8B4201D38B03C01A5241430B8B4201D34B03C01A5241030B8B4201D30B03C01A5241C30A88
:4049C0008B4201D3CB02C01A5241830A8B4201D38B02C01A5241430A8B4201D34B02C01A5241030A8B4201D30B02C01A5241CDD2C3098B4201D3CB01C01A524183098B4246
:404A000001D38B01C01A524143098B4201D34B01C01A524103098B4201D30B01C01A5241C3088B4201D3CB00C01A524183088B4201D38B00C01A524143088B4201D34B00DE
:404A4000C01A5241411A00D201465241104670475DE0CA0F00D04942031000D34042534000229C4603098B422DD3030A8B4212D3FC22890112BA030A8B420CD38901921153
:404A80008B4208D3890192118B4204D389013AD0921100E08909C3098B4201D3CB01C01A524183098B4201D38B01C01A524143098B4201D34B01C01A524103098B4201D3B5
:404AC0000B01C01A5241C3088B4201D3CB00C01A524183088B4201D38B00C01A5241D9D243088B4201D34B00C01A5241411A00D20146634652415B10104601D34042002B34
:404B000000D54942704763465B1000D3404201B5002000F005F802BD0029F8D016E770477047C046002B11D1002A0FD1002900D1002802D00021C943081C07B4024802A10D
:404B40004018029003BDC046D9FFFFFF03B4684601B5029800F050F8019B9E4602B00CBC7047C046F0B54F464646C0B41604360C9946330005042C0C070C150C63437E4387
:404B80006F4365431C0CAD1964199C46A64203D980235B02984647446346250CEF191D044B464A4343432D0C240464199918C91920000CBC90469946F0BDC04670B5002272
:404BC0000C4B04000D0001F05DFA002804D12000290001F0B5F970BD064B00222000290000F05AFE01F0ACF980231B069C466044F1E7C0460000E041F0B54D4656464446B2
:404C00005F46F0B4924683B004000D0099468B422FD82CD04946504601F05CFA29000600200001F057FA331A9846203B9B4600D574E053465A4693401F00534642469340B4
:404C40001E00AF4229D826D05B46A41BBD41002B00DA79E0002200230092019301235A4693400193012342469340009319E08242D0D900220023009201930C9B002B01D056
:404C80001C605D600098019903B03CBC90469946A246AB46F0BDA342D6D900220023009201934346002BE8D0FB0772081A4346467B080EE0AB4201D1A2420CD8A41A9D413F
:404CC000012024196D410021013E24184D41002E06D0AB42EED9013E24196D41002EF8D15B460098019900196941002B22DB2B005A46D3402A004446E2401C005B46150061
:404D0000002B2CDB26009E40330026004746BE403200801A994100900191AEE7424620239B1A5246DA40414613004A468A4017001F4382E7424620239B1A2A0046469A40E4
:404D40002300F3401343D5E74246202300219B1A0022009101920122DA40019282E74246202326009B1ADE402F00B446974066463B003343C9E7C046F0B556464D46444676
:404D80005F46F0B41D000E034C00CB0F87B0070092468146360B640D98466AD06D4B9C4235D08022430F12041343F6001E43C3009946694B00279C460023644402932B0370
:404DC00068001B0BED0F51469B46400D009500D178E0604B98426CD05B46DA004B0F802109040B4313439B465346D9005A4B9C46002360444246201A6A40924601901F43E6
:404E00000F2F00D9B0E05548BF00C0598746374300D088E0002399460233082700260293CDE74346B34649460093029B009A9246022B00D0BFE100215346012200268946E0
:404E40001A40444B002136030C0D2405360B2643434C1B0526401E437600D207760816434846310007B03CBC90469946A246AB46F0BD330003434FD0002E00D1BCE130005A
:404E800001F00AF903000B3B1C2B00DDADE11D220100D31A08393A008F408E40DA40B9461643304B00279C46002360444442029385E753465A4613432CD1002300219B46C9
:404EC000023397E70B4320D05B46002B00D19EE1584601F0E1F803000B3B1C2B00DD8FE102005946083A91408B461D21CB1A5146D9400B0059460B4351469B469140194B63
:404F00009C4660444042002374E7002300219B4601336FE703236DE70023994601330427002602934BE703230C27029347E70122D51A382D00DCB0E153461A40002100233D
:404F4000002689467EE700238026994600223603004B77E7FF07000001FCFFFFE0BE0010FFFF0F80F30300005E4500D972E100D16DE1019B4D46013B019300233400029320
:404F80005B461E020B0E1E430B020393330C994633041B0C494620000093FFF74DFC009B370043430600494620009846FFF7CAFC2C0C09040C43A04509D9E419731EA7429D
:404FC00000D95CE1A04500D859E1023EE4194346E41A49462000FFF72FFC0300009A80465343494620009B46FFF7ACFC2A040904120C0A4393450DD94346D219013B9742FC
:4050000000D93AE1934500D837E102235B429C46D219E0445B46D21A4346360433439B460399180C0B0C1D00059309045B46090C0C001B041B0C4443049159436B436843A8
:405040001B190D0CEB189C4203D980246402A44660441C0C09041B04090C20185D18824200D2DEE000D1D7E0161A029B9C465D1BAC459B415B42F61AB74200D106E14946BB
:405080003000FFF7D9FB009B04004343494630009846FFF757FC2E0C09040E43B04509D9F619631EB74200D9F3E0B04500D8F0E0023CF6194346F31A494618000293FFF795
:4050C000BBFB009B06004343494602989846FFF739FC2D0409042D0C0D43A84509D9ED19731EAF4200D9D6E0A84500D8D3E0023EED192404210043463143049E059A30007F
:40510000ED1A0B040C0C1B0C58436643534354439A19030C9B189E4203D980225202944664441A0C00041B04000C14191B18A54250D34DD001231943964A019B94466344A7
:40514000002B00DCF3E64A0709D00F220A40042A05D00A1D8A42894149428B4411005A46D20108D55A468C4B1A4093468022D2009446019B6344894A934200DD5BE65A468E
:40518000C908500708435602514601225B058146360B5B0D0A4055E680231B031E4211D05A461A420ED15E461E433603360B2A0089467B4B46E6032B00D1E1E0012BBBD156
:4051C0001A40BBE61E433603360B4246744B39E6002BB1D07D194A1EAF4252D91100A542A8D1039A9A42A5D1A6E703003E00283B9E400023994654E600F04EFF203041E64E
:4052000003005246283B9A400021934677E6504600F042FF20305EE6029B0026AB4200D323E7039E0299B44661448846B045B6415B467642F619B218013B0291974213D203
:4052400090424FD800D18EE0161A9B460DE7894500D28EE674084B46F60735005B081D434B46DB0702938BE69742EDD10399029CA142E5D93E1A9B46F7E69846CAE61E002E
:40528000A5E6AC423ED874D0110053E70121494252E71C000EE71E002BE71F2D3CDC20230A0058465B1B9840EA4099400243481E81415E461143EE404B0709D00F230B40CE
:4052C000042B05D00B00191D99429B415B42F61833023CD55346012200211A40002601238946AFE502235B429C46039CE344A446029B63449846A045B6417642F61902932F
:40530000B218B1E603988A1E41008142B6417642F619AD19039161E71F225242D31A5A46DA401300202D29D040225846551BA8400143481E814107200B43184000260028B1
:4053400009D00F2200261A401900042ABBD10B0070077602360BDB0803439946012253461A4000236EE502998D42BBD89B4600267BE603989842C5D3110032E70020D7E787
:4053800080265B4636031E433603360B009A8946034B57E5FF030000FFFFFFFEFE070000FF070000F0B55F4656464D464446F0B40D0399464E002B0B87B0070092468046A1
:4053C0009B46760DCC0F002E69D06D4B9E4235D05B468022DD001204430F13432B439B46C3009846674B00279C460023664401934A4615035000D20F53462D0B400D9146B2
:4054000000D176E05E4A90426CD080225B0F120413435C4AED0094461D4353460022DB00604449463618701C6140029017430F2F00D9AFE05448BF00C759BF465B461F43F1
:4054400000D088E000239B469846023308270193CEE74946022A6AD0032A00D109E2012A00D0BBE111400022002300259046CCB200212D030A0D12052D0B1543434A1B0525
:4054800015401D436D00E4076D0825434046290007B03CBC90469946A246AB46F0BD034352D05B46002B00D18AE1584600F0F4FD03000B3B1C2B00DD7BE11D22D31A3A004B
:4054C00001005D46DA4008398D4013008F402B439B46B8462E4B00279C46002360444642019385E752462A432CD100250023022297E752462A4321D0002D00D154E12800A3
:4055000000F0CAFD03000B3B1C2B00DD46E11D21CB1A51460200D9405346083A954093400D431B4A944660444042002279E7012400220C40124B0025904699E700250023DE
:4055400001226EE703226CE700239B4698460133042701934CE703230C27019348E700238025984600242D03054B81E75D464346019A6FE75D4643462100019A6AE7C04609
:40558000FF07000001FCFFFF20BF0010FFFF0F80F30300004246120C91461A0C9446424617044A461B041B0C5A43604690464A4642431000039262461C003F0C7A437C4324
:4055C00042440192220C9246019A5244904506D98246802040028046C24450460390100C049048462404240C1204121905922A0C2D042D0C68432C00824648467C4350437B
:405600008146200C8046574357444744BA4503D9802040028046C144380C3F04B84648442404240C01900498A044404404905846000C814658460404200C82460700484637
:405640005F434C464343604660436446834650464443380C8446E4186444A34203D980235B029C46E34448463F04230C3F0C2404E419574668436F4384464D465046554326
:405680004243380C814662444A445B44944503D9802040028446654403983F04834604983F0C8446E344C345804140428246100484460198674484466744A344BC46A34583
:4056C000A4419946D44464428742BF41D4458041E144A04699459B417F424042C8440743120CBA18A045A4415F423B0064422343D71843467D19DB0D6D021D435B465A02C3
:40570000059B1A43531E9A415B46DB0D1A4343465B021343EA0107D501225C0813402343EA07029E13436D08574AB218002A4BDD580709D00F201840042805D0181D98420F
:405740009B415B42ED180300E80104D54F4A15408022D200B2184E48824200DDE7E60124DB08680718436D02530580462D0B5B0D0C407DE6802259461203114208D0154230
:4057800006D115432D0398462D0B4C46414B6FE65D4615432D032D0B3E4B69E603005546283B9D400023BCE6504600F075FC2030A8E60300283B9F400023BB46984689E698
:4057C00000F06AFC203073E60124A61A382E07DD00220C4000230025904649E6029EA3E71F2E20DC20222C001800921BF040944093400443581E83411C43F540630709D0EB
:405800000F232340042B05D023001C1D9C4292415242AD182B021FD5012400220C4001230025904624E61F202C004042821AD440202E1CD04022961BB5402B43581E834105
:405840000720234318400025002809D00F2200251A401C00042AD8D1230068076D022D0B0124DB08034398460C40002300E60025E3E780220124120315432D0398462D0B57
:405880000C40044BF4E5C046FF030000FFFFFFFEFE070000FF070000F0B557464E464546E0B40E001100F20F9246C500420F180337037400400A4E0F7F0A3043CF4E174380
:4058C0005A00640D520DDB0FC900B24200D1E5E001267340A61AB446534500D1AFE0002E00DC0DE1002A3AD103000B4300D0E4E06B0709D00F232B40042B05D02B1DAB4282
:40590000AD416D427F191D003B0200D488E0BB4B01349C4200D110E13A00B94B51461A4001235007ED08520264050543120B640D0B400021280012030D0D120B64052D0514
:4059400015436208AF4CDB072C401443640064081C4321001CBC90469946A246F0BDA74B9C42C5D080231B0418436346382B00DDFDE01F2B00DD30E1624620239B1A020031
:405980009A40664690460A009940F24046464B1E99413243114363460200DA40691A8D429B410D00BA1A5B42D71A3B0235D57A02530A98464346002B00D1C4E0404600F0DF
:4059C0006BFB0300083B1F2B00DDC5E020222900D21A4746D1409F400A009D403A439C4200DDC0E01C1B631C1F2B00DDE4E0202114002800C91AD8408C408D400443DA4089
:405A0000681E854117002543002471E7424663461A4300D14CE2674645466B0700D069E7012351467807ED08FA080B40054373498C4238D012036405120B640D79E7002ED8
:405A400000DC9AE0002A47D06C4A944200D14FE78022120410436246382A00DC08E10143481E81410022C9B24919D219A942BF410D007F42BF183A0200D442E15F4A01342B
:405A8000944200D14EE101205D4A69083A4028400843D507054357089A4629E706000E4300D017E714E72900114300D1F9E1802109030A431203120B3BE701235B42984602
:405AC000C4446346002B72D1691A8D429B413F1A5B42FF1A0D0068E702000A4300D107E7012252429046C4446246002A00D0E6E06918A942B6413F187642F7190D00BAE7B3
:405B0000002E00D080E0621C5205520D012A00DCF9E06A1A91464D45B6413A1A7642921B9046120200D499E04D1BA9428941C71B49427A1A90469A463CE752460123002547
:405B400013400022F5E6280000F0A6FA20300300083B1F2B00DC39E72A002838824000259C4200DC3EE7264FE41A1740C0E60143481E81410022C9B210E7002E00D0F1E0B2
:405B8000621C94465205520D012A00DCA0E01B4A944500D1C5E06918A94292413F185242D2194908D5070D4357086446A0E6134B9C4200D0D9E69BE611001F3CE1400C0096
:405BC000202B00D180E04021CB1A9A4015436A1E95410027254300241FE763460200203BDA406346202B71D0402366469B1B98400143481E814111430022CFE6FF0700000B
:405C0000FFFF7FFFFFFF0F80002C48D0CA4CA24200D1A2E07442A1468024240427434C46382C00DDDBE01F2C00DD44E14E462024A41B3E00A640A246B0464C462E00E6409D
:405C4000B4464646644626435446A5406C1EA54134002C434D46EF400D1B28E04A4643464D461A4300D0A5E6002300240025DEE61F2A5ADC66462022921B060096409146A6
:405C8000B04662460E00D640424616434A4691404A1E9141020060463143C240E4E63C002C435AD0F443A146002C52D14D1BA9428941C71B49427F1A14009A4675E69E4A22
:405CC000944200D0C7E613E600227FE700208FE7002C00D0C8E03B002B4300D10FE103000B4300D104E66918A9429B413F185B42DF193B0200D41AE1904B0D001F406446EF
:405D0000F6E59A4689E63A002A43002C5CD1002A75D102000A4300D1CAE007000D009A46E6E564460022002581E662460600203AD6406246B046202A00D1B7E0402266466C
:405D4000921B904001434246481E8141114300228AE6794CA24200D061E707000D0014009A46C5E5002C41D13C002C4378D0F443A146002C20D0704CA24271D04C46382C17
:405D800000DDB2E01F2C00DDBCE02026341BA2463C005646B4404E46A0462C00F440A446444666463443A4465446A54064466E1EB54125434C46E7406D188D4289413F18CB
:405DC0004942CF19140056E6002A2FD102000A4300D184E007000D009A46574C88E53D436F1EBD41ECB200270D1B60E7524CA24236D0744280263604A1463743BEE70200C9
:405E00000A4300D174E56A1A90464545B6413A1A7642921B9446120200D4F7E54D1BA9428941C71B49427F1A9A4661E502000A433AD0ED087C072C438025FA082D032A42ED
:405E400008D0C7082F4205D145072C003A009A46C9080C43670FD200E5001743364C47E507000D00140043E53A002A4343D002000A4319D0ED087C072C438025FA082D034D
:405E80002A4207D0C6082E4204D147073C003200C9080C43D700620FE50017439A46264C26E50022002544E5234C21E5002049E700230025BBE54C463E00203CE6404C46CB
:405EC000B446202C31D040244E46A61BB7403D436C1EA54164462C4300270D1BE7E6802200231203144C0025A1E53D436F1EBD410027EDB260E707000D000F4CF8E4070037
:405F00000D00F5E44E463C00203EF440A0464C46202C0ED040244E46A41BA7403D436F1EBD4144460027254346E70027CFE70D0073E50027F2E7C046FF070000FFFF7FFFBE
:405F40000B0330B5134D1A0B4B005B0DC90F0024AB4211DD104CA34210DC8024640322430E4CE41A1F2C0CDD0D48C31ADA4013005C42002900D11C00200030BD094BCC189E
:405F8000FAE7E040084CA44663449A4013000343EEE7C046FE0300001D0400003304000013040000FFFFFF7FEDFBFFFF70B5051E28D000F071F8154B154A1B1AD21A1F2A59
:405FC00016DD2C00134A0025D21A94405A052403240B520D002124030B0D240B1B0523430D4C1205234013435B002800590870BD0B212C00081AC440954024035A05240BD5
:40600000520DE7E700220024E4E7C0461E0400003304000013040000FFFF0F808446101C62468C46191C634600E0C0461FB500F001F9002801D40021C8421FBD10B500F074
:4060400055F84042013010BD10B500F0F3F8002801DB002010BD012010BDC04610B500F0E9F8002801DD002010BD012010BDC04610B500F07BF8002801DC002010BD012016
:4060800010BDC04610B500F071F8002801DA002010BD012010BDC0461C2101231B04984201D3000C10391B0A984201D3000A08391B09984201D30009043902A2105C4018EA
:4060C0007047C0460403020201010101000000000000000010B5002903D1FFF7DDFF203002E0081CFFF7D8FF10BDC046F0B55F4656464D464446F0B41F035C00DB0F9A465B
:40610000194B0E034D00C90F8046360B6D0D8B4691463F0B640D9D4219D0134B9C421BD00123A54206D018003CBC90469946A246AB46F0BDBE42F6D1C845F4D1D34510D035
:40614000002DF0D1304303005A1E9341EBE7310001230143E7D1E0E73A430123002AE2D1DEE70023DFE7C046FF070000F0B55F46444656464D46F0B41F033C0B2C4F0E03B1
:406180004D00A3465C008446360B6D0DC90F9046640DDB0FBD422BD0254FBC422ED0002D0ED130430700814678427841002C17D15F463A4314D14B460020002B0AD006E0DE
:4061C000002C02D15846024301D099421AD00123484218433CBC90469946A246AB46F0BD0028F2D058425841012240421043F1E737000743D0D002204042EBE75F46174368
:40620000CDD0F8E7A542E2DC05DB5E45DFD808D000205E45DED248424841012340421843D8E7C445D3D80020C445F4D3D2E7C046FF070000F0B55F464D4644465646F0B4D5
:406240001C03240BA4462F4C0F034D005E00C90F80463F0B6D0D8B469146760DDB0FA54220D0284CA64222D0002D12D1384344424441002E20D0002C0DD05C4263410124EE
:406280005B421C4320003CBC90469946A246AB46F0BD002E17D05B4519D05B465C4201231C43EFE7390002240143EBD1D9E7614602241143E6D1D7E761460A43DBD10024E0
:4062C0000028DFD0E9E761460A43E4D1E5E7B54203DD01225C421443D4E7B542CDDB6745DBD809D000246745CCD259464C426141012449420C43C5E7C845CED80024C84535
:40630000F3D3BFE7FF07000030B50024A24208D0035D651C0C5DA34201D0181B02E02C00F4E7002030BD002310B59A4203D0CC5CC4540133F9E710BD03008218934202D001
:4063400019700133FAE77047F0B58BB014001D1E129906DA802424061B191D0014002D2300E000230B702023149E03229E43462E07D03300453B59424B411099013ACB1826
:40638000109309AB049308AB0393139B00920293109B220001932B0000F0F0FE0700472E02D1119BDB072DD5109BFB180793462E14D13B78302B0CD100220023200029005E
:4063C000FFF73CFE002804D10123109A9B1A139A1360139B079A1B68D31807930022002320002900FFF72AFE3022002802D0079B099307E0099B0799994203D9591C09914F
:406400001A70F7E73800099B159ADB1B13600BB0F0BDF7B52B2307000C000270861C002901DA2D234C427B70092C1CDD6B46DD1D20000A21FEF770FB013D303129702000CE
:406440000A21FEF783FA04000928F1DC013D30342C706B4607333000AB4209D92B78013533700136F5E73023E4183370B01C7470C01BFEBDF0B595B00C000A920B931A9DA7
:40648000099001F0C9FD036818000D9300F008FD0023129323680E900C930C99277E2B680722C90501D59B1800E0073393431A0008322A601A685B68A264E3640122E56CB3
:4064C000A66C6B005B080F935242C04B30000F9902F010FF002819D10122BC4B524230000F99FFF7BBFD002810D10022002330002900FFF7A9FD002803D023002D22433326
:406500001A70B34D472F0ED8B24D0CE032002B003000290002F0EEFE002800D19AE1AE4D472F00D8AD4D03230C9A236101339A432260002642E0672F00D193E1472F00D1F2
:4065400090E10C9A0021134312AA059211AA0392232223600691019308A9636852180292009332002B0004970998FFF7EDFE20233A0005009A43472A00D18EE11199652F22
:4065800000D996E1200001393A0050301191FFF740FF129A060083182361012A00DD85E12268D20700D581E1232308AA9B181B78002B03D023002D2243331A700B9B13AAB6
:4065C000009321000A9B099800F0A4F9431C02D1012040429BE12268530501D4236964E0652F00D8CCE0A06CE16C00220023FFF725FD00282CD00123794A0A9909980B9D77
:40660000A847431CE4D0119B129A934208DB2368DB0705D4236800259B0700D50FE113E10B9D0E9B0D9A0A990998A8470025431CCED0129B013B9D42ECDA220001231A328A
:406640000A9909980B9EB047431CC1D00135F0E7119B002B2BDC0123614A0A9909980B9EB047431CB4D0119B002B05D1129B002B02D12368DB07CDD50B9E0E9B0D9A0A99C2
:406680000998B0470026431CA2D0119B5B429E420ADA220001231A320A9909980B9FB847431C95D00136F0E7129B2A00ACE0A36D129E9E4200DD1E00002E05DC00230C931E
:4066C000F343DB170F9315E033002A000A9909980B9FB847431CF1D17AE7220001231A320A9909980B9FB847431C00D170E70C9B01330C930F9BA26D0C993340D31A9942F6
:40670000EBDBAE18119B129A93420DDB2368DB070AD4129B119AED18AD1B9B1A9D4200DD1D00002D09DC11E00E9B0D9A0A9909980B9FB847431CECD14AE72B0032000A992D
:4067400009980B9EB047431C00D141E7EF43FB1700260C930AE0220001231A320A9909980B9FB847431C00D132E70136119A129B0C999B1A2A000A409B1A9E42EBDB49E7DD
:40678000129B012B02DC01231A4245D001232A000A9909980B9FB847431C00D118E70E9B0D9A0A9909980B9FB847431C00D10FE7A06CE16C00220023FFF740FC002801D0F7
:4067C00000251AE0129B6A1C013B26E0FFFFEF7F6CBF001068BF001074BF001070BF001078BF0010220001231A320A9909980B9FB847431C00D1EBE60135129B013B9D42E0
:40680000F0DB2200330050320A9909980B9DA847431C00D0FEE6DBE62A000A9909980B9DA847431CEDD1D3E62200012319320A9909980B9EB047431C00D1C9E60135E36857
:40684000139A9B1A9D42EFDB139BE06898425EDA18005CE080236268DB00511C00D06AE6073202E0002A02D10122626069E60C9908A80B430021069112A9059111A9039196
:40688000232109182360019300922B000497029132000998FFF758FD0500119BDA1C02DB626893421CDD023FFFB267E6013323617AE6662F15D16368002909DD2161002BDE
:4068C00002D12268D2071ED50133591821611AE0002B03D101222168114213D09A1C11E06727119B129A934206DB22682361D20709D50133236106E00121002B01DC49183C
:40690000C91A8A182261119B0026A3654CE615B0F0BDC046F7B5170001938A680B6900900C00934200DA130022003B6043321278002A01D001333B6023689B0602D53B6884
:4069400002333B60062523681D401ED0230043331B785A1E9341226892061CD53020E1184331087021005A1C45310978A2184332023311700FE02200012319320199009861
:40698000089EB047431C0ED00135E3683A689B1A9D42F0DBDAE72200019943320098089DA847431C02D10120404220E006232068E1683A6803400025042B03D18D1AEB43AC
:4069C000DB171D40A3682269934201DD9B1AED180027BD420AD0220001231A3201990098089EB047431CDED00137F2E70020FEBDF0B58BB006920A0043320793059004922F
:406A00000A7E0C00109B6E2A00D1ABE011D8632A22D009D8002A00D1B5E0582A00D0C5E045310A70814A4FE0642A1DD0692A1BD0BCE0732A00D1AAE009D86F2A29D0702ACF
:406A400000D0B3E0202209680A43226037E0752A1FD0782A33D0A9E00E001A684236111D196013683370A4E021681A68080606D4490604D5111D19600023D55E02E0111DE5
:406A800019601568002D3BDA2D23049A6D42137036E021681A68080606D4490604D51568111D1960ADB202E0111D196015685F4B227E039308276F2A1DD00A271BE02200E1
:406AC0007821453211705A4A19680392081D226818600D68100602D4500600D5ADB2D30702D520231A4322601027002D03D1202322689A4322602300002243331A7002E0DB
:406B00000A274A4B03936368A360002B09DB0422216891432160002D05D1049E002B11D07BE0002D79D0049E28003900FDF70AFF039B013E5B5C280033703900FDF77CFE90
:406B4000051EF1D1082F09D12368DB0706D563682269934202DC3023013E3370049B9B1B23612BE009681A68080607D4490605D5111D19601368A28A1A8004E0111D19603D
:406B8000136862691A600023049E236116E01A68111D1960166800216268300001F0AEFA002801D0801B6060636803E0260042363270012323610023049A1370079B09AAF8
:406BC00000932100069B0598FFF7A4FE431C02D10120404227E02369320006990598079DA847431CF4D0236800259B070FD4099BE068984217DA180015E0220001231932F5
:406C000006990598079EB047431CE1D00135E368099A9B1A9D42F0DBE9E72600039B42361B7833708EE70BB0F0BDC0467ABF00108BBF00100FB40B4B13B51C68002C05D0BB
:406C4000A369002B02D1200001F052F905AB049AA1682000019301F029FE16BC08BC04B01847C0460809000870B505000E00002804D08369002B01D101F03AF9AB69AC685A
:406C8000002B02D1280001F033F9254B9C4201D16C6808E0234B9C4201D1AC6803E0224B9C4200D1EC68A3891B0702D52369002B11D12100280000F065F900280BD00120B7
:406CC00040422BE0013B0136A360002B08DB23685A1C226019703178A3680029F2D10BE0A269934201DB0A29F1D12200280000F0F1F8431CEFD1E2E7013BA360002B08DAE4
:406D000022000A31280000F0E5F8431CD7D00A2004E00A2023685A1C2260187070BDC046ACBF0010CCBF0010ECBF001010B5034B01001868FFF798FF10BDC04608090008A7
:406D4000F0B51D00514B85B01E6804000F000092002E05D0B369002B02D1300001F0C8F84B4B9C4201D1746808E04A4B9C4201D1B46803E0484B9C4200D1F468009B022BA3
:406D800005D0012B00D97CE0002D00DA79E02100300001F03FF8616B002908D023004433994202D0300001F0ADFC002363630023A3616360A3891B0603D52169300001F043
:406DC000A1FCA289354B1340A381009B022B21D003AB02AA2100300001F022F9A3891843A081002D01D1029D01E0002F25D1280001F07AF90195071E1AD1029B0193AB42C8
:406E000002D10120404206E0019801F06DF9071E0ED1F6E700200222A3891343A3810023A3602300473323602361012363612AE08022A389019D1343A381B369002B02D17F
:406E4000300001F055F8009B012B03D1A389009A1A43A2810823A2892760134027616561181E0CD001231A40002310009A4204D06D42A360A561180005E0A56003E0A36032
:406E800001E00120404205B0F0BDC04608090008ACBF0010CCBF0010ECBF00105CF3FFFF0023C25C0133002AFBD1581E7047030030B5002A0DD00C7801335D1E013A2C701E
:406EC0000131002CF5D19A189A4202D01C700133FAE730BDF8B505000F001400002804D08369002B01D101F003F8234B9C4201D16C6808E0214B9C4201D1AC6803E0204B82
:406F00009C4200D1EC68A369A360A3891B070AD52369002B07D023682269FEB2981A636998420FDB08E02100280000F02BF80028F1D0012040421DE02100280000F06AFF0D
:406F40000028F6D1A3680130013BA36023685A1C22601F706369984205D0A3893000DB0708D50A2E06D12100280000F053FF0028DFD13000F8BDC046ACBF0010CCBF00108C
:406F8000ECBF0010364B70B51D6806000C00002D05D0AB69002B02D1280000F0A9FF314B9C4201D16C6808E02F4B9C4201D1AC6803E02E4B9C4200D1EC680C22A35E9AB205
:406FC000110723D4D10607D409220120326037321343A381404242E0530713D5616B002908D023004433994202D0300001F08AFB002363632422A3899343A3810023636034
:40700000236923600822A3891343A3812369002B0BD1A0238022A1899B0092000B40934203D02100300001F021F80123A289134005D00023A36063695B42A36103E092074E
:4070400000D46369A36000202369834207D10C22A35E1A0603D540221343A381013870BD08090008ACBF0010CCBF0010ECBF0010F0B503690C6989B00700059100269C4271
:4070800079DC0B00013C1433A50003935B1904930300143302935D19049B28681B68591C0193FDF7C9FB0190B04233D0039B02989C460696634604CB9C46019B91B25943CD
:4070C000120C5A4389190B0CD3180793069A1E0C038889B29B1802685B1A110C6A46928B8A1A1914521811149BB21204134308C0049B06916345DDD22B68002B0AD1029BE7
:40710000043DAB4201D33C6104E02B68002BFAD1013CF4E70599380001F00CFA002829DB0020019B02990133039A019340CA0B881818B3B2C31A0868360C000C801B1D14DD
:40714000451928149BB22D042B4308C1049B9342ECD2029AA300D3181A68002A0AD1029A043B9A4201D33C6104E01A68002AFAD1013CF4E7019E300009B0F0BDF0B5160052
:407180001F00446A9DB00490259D06960797002C08D1102000F0A8FF049B5862446084600460C460049B5B6A196800290BD05A68012393404A608B60049800F0E2FF00222A
:4071C000049B5B6A1A60079B002B05DA01232B607B005B08079301E000232B60079CC84B220019931A409A4219D1C64B249A1360069AC54B002A02D1240300D1C34B269AF6
:407200001800002A01D100F07DFDD978DA1C002900D00532269918000A6000F073FD069E079F0022002330003900FEF707FF051E0ED00123249A1360B54B269A1800002A6D
