:020000041000EA
:4000000000400208310100100D000000950100100000000000000000000000000000000000000000000000000000000091010010000000000000000091010010910100109B
:400040009101001095050010910100109101001091010010910100109101001091010010910100109101001091010010910100109101001091010010910100109101001058
:400080009101001091010010910100109101001091010010910100109101001091010010910100109101001091010010910100109101001091010010910100109101001020
:4000C00010B5064C2378002B07D1054B002B02D0044800E000BF0123237010BDE432000800000000F46F0010084B10B5002B03D00749084800E000BF07480368002B00D1F3
:4001000010BD064B002BFBD09847F9E700000000E8320008F46F0010AC050008000000007047EFF3108072B6704780F310887047FFF7F6FF72B6104C104DAC4209DA2168AE
:400140006268A368043B02DBC858D050FAE70C34F3E70B490B4A0020521A02DD043A8850FCDC094809490860BFF34F8F00F078F900F01EF8FEE700002C7C0210447C0210DE
:40018000E4320008204400080000000808ED00E0FEE7FEE700B504207146084202D0EFF3098001E0EFF30880043001F04DFFFEE710B562B6084800F02BFB01E007F0B6F88D
:4001C000064B1B78022BF9D1054800F0BDF907F0ADF800F039F8FAE7E5010010FC4300080000081010B50C00134B98420CD004D880235B01984207D01CE0104B98420BD0C1
:400200000F4B98420CD015E020220E4B5A600021002002F0D5FB0DE020220A4B9A6009E00B89182B03D108000C3002F07DFDE0681FF02AFA10BDC0460840000001500000B8
:400240000C5000000005324010B58AB027246C440023237018336A4613810094173B93806946002002F082FD2378012B1ED1002226336B441A70684602F032FD15236A4612
:40028000138103AB0093182393806946002002F06DFD002305E003A95800425A0132425201330B2BF7DD684602F01AFD0AB010BD70B56249E0239B00CB580F2213401A00D6
:4002C000D0329200525807210A40032A05D0042A06D0002A12D15A4814E05A4A106811E01A00C0329200554952581F210A40112A06D0132A04D0FA20C00103E0524801E0CD
:4003000080200002002B36D14C4BB222D2009A5801211140B125ED005A59120F032422405B591B0F1C4207D0444C63591B0F03242340012B02D102E0012300E00023002BE1
:4003400001D0002901D1032A4BD13C4BB022D2009D58AD03AD0B3D495958C904C90C9C58240E01231C40013403F06EFC6843210003F06AFC35E0012B33D1304BC822D2002E
:400380009A5801251540C024E4001A59120F03210A401B591B0F194207D028490B591B0F03210B40012B02D102E0012300E00023002B01D0002D01D1032A12D11F4DC02267
:4003C000D200AB587F210B40A958090A1F263140AC58240C3440584303F036FC210003F033FCE0239B00154AD3581B0903221340D840144C6060164B1D692D0AFC3215402B
:4004000001351969090E013103F01EFCA060290003F01AFC0500E06020610E4BC0180E4903F012FC20750D4BE818FA21890003F00BFCA061C003E06170BDC0460000264004
:4004400000127A00C000000800366E0184050000000021403F420F0040420F00E703000010B5234BB021C9005A58520052085A50E02080001A583024A2431A50802252042C
:400480005A501C491C4A9950A021890104329950FF211A4A995081315A58920092088020C00502435A505A588020000602435A505A58012082435A5000F05AF9FFF7F8FE6B
:4004C00000F070F800F078F801F05EF9B0235B055B78002B04D0B0235B055B78DBB200E02123212B03D1064B0022DA605A6010BD0000264001000200840500008C05000069
:40050000E00023408023024AD3580320184070470000214010B5FFF704FE084980228C58074B2340074C23438B508823034AD358DB06FAD5FFF7F9FD10BDC04600002140FB
:40054000FCFF00000100FA0570B50500FFF7E9FD0400FFF7D7FF032801D1FFF7DBFF0A4AB0239B00D55080215058084B03400848034353508823044AD358DB06FAD52000EA
:40058000FFF7D3FD70BDC04600002140FCFF00000300FA0510B5024800F02CFD10BDC0460033000810B5034A60328021042000F0A9FA10BD0034000810B501F0AEFD040044
:4005C000044800F0A5FB044800F014FC200001F0A8FD10BD00330008A8570010FEE7C046F0B587B0534D544C2B5980273F063B432B51012001F0CEFC2B59C022D205134326
:400600002B51A021C9006A5803239A4313436B5001AE4A4C04222100300005F08CF8300003F0CCF9464A9020135846490B40135013691B021B0A8020400403431361136901
:4006400019401161E0239B00EA580F218A43EA50EA5821318A43EA50EA581743EF500021012000F029FD0021022000F025FD0021032000F021FD0021042000F01DFD0021B3
:40068000002000F019FD3300211D15C915C305C905C3300000F058FD002802D00420FFF79DFF2449284A8B588020000603438B50264800F001FE002802D00420FFF78EFFAB
:4006C0001C4C234BE158234A0A40E250E158224A0A40E250E25880252D062A43E250043BE1581E4A0A40E250E1581D4A0A40802189010A43E250E258802109020A43E250DB
:40070000184A1168184B0B40802149000B431360002001F009FD154BE2581543E550E158012291430A43E2506421002001F0A4FC07B0F0BD000026403C050000E45700100C
:4007400000002140FF00FFFF087F0000400D030004050000FEFCFFFFFFFF00FFFFF0FFFFFF8FFFFF00002740FFFCFFFF0C05000030B58BB09621002001F07EFC01F054FCB9
:40078000002801D101F040FC012001F06BFA1A4A516C1A4B0B40E82189010B435364536C1B0AFF2213403A2B07D1134A516C144B0B40E82189010B435364FFF711FF01AC8E
:4007C0002200104B183323CB23C223CB23C223CB23C221000C4801F0ABF824220021200004F0B2FFC023DB03E3602100074801F09FF80BB030BDC04600002740FF00FFFF75
:40080000FFC5FFDFE4570010000332400005324010B5002814D00B4BD8620B4B1B78002B08D10848094B436301F016FD0122064B1A7000E00020002803D101F03BFD00E040
:40084000034810BDE000000890340008DC5700100100160010B583089A00801AC000FF228240D44381400A40072B32D89B001949CB589F46184B196A0C4022431A6228E0AD
:40088000154B596A0C4022435A6222E0124B996A0C4022439A621CE00F4BD96A0C402243DA6216E00C4B196B0C4022431A6310E0094B596B0C4022435A630AE0064B996B5F
:4008C0000C4022439A6304E0034BD96B0C402243DA6310BDD05A00100000214083089A00801AC100FF228A40072B2BD89B001748C3589F46164B186A1040C84023E0144B47
:40090000586A1040C8401EE0114B986A1040C84019E00F4BD86A1040C84014E00C4B186B1040C8400FE00A4B586B1040C8400AE0074B986B1040C84005E0054BD86B104018
:40094000C84000E00020C0B27047C046F05A00100000214070B504000D000B4B9A680B4B9A420BD1002903D1FC21094801F038FB1034064BA400E058E55003E01034A400E9
:40098000044BE05870BDC04600ED00E000000008105B001000000010F0B583B0041E019150D04368032B03D93621294801F018FB0023E05E002802DBA178FFF74BFF00230E
:4009C000E25E6368002A12DB9008224EC0308000875903210A40D200FF25290091408F4399012B000B4093403B43835117E092B20F211140083989080631890016488446A2
:400A000061444E6803200240D200FF2738009040864398013B000340934033434B600E4B9A680E4B9A420FD1019B002B03D14521074801F0D5FA0023E05E0199FFF78AFF28
:400A4000002002E0064800E0002003B0F0BDC046105B001000E100E000ED00E0000000080100560070B504000D000369002B0ADA0B0C03D00549064801F0B2FA2D042D0C1A
:400A80006560002000E0034870BDC046B3020000545B001001008A0070B505000C000368002B01DA002300E0084B002B0BD1EA60230C03D00649074801F092FA2404240C31
:400AC000AC60002000E0014870BDC04601008A009A020000545B001070B505000C1E03D19921064801F07CFA2B69002B03DAEB682360002000E0024870BDC046945B001003
:400B000001008A00F8B504000E0015000F283FD8002A10D100290ED10F2804D9AA21FF31214801F05DFA6401204B9C466444204B1C60002037E0002D2CD0002E2CD0F30671
:400B40002CD10F2C04D9AA21FF31174801F048FA6401164B9C466444154F3C607E60BD60F2080021280004F0EFFD00212000FFF779FF3A0001CA0021FFF78EFF00280FD105
:400B80000B4B18680021FFF76DFF00280AD10AE0084808E0074806E0064804E0054802E0054800E00448F8BDD45B001000002340B834000803018A0001018A00F0B583B06B
:400BC0000D001C4B1B68DC68236883422DD947097B01C01A012383401E00002903D101F09CFA019001E000230193124B18680368002B01DA002300E00F4B002B0ED163688C
:400C0000BF00DF193B68334203D133433B60002400E00A4C0021FFF725FF00E0084C002D04D1019801F07DFA00E0064C200003B0F0BDC046B834000801008A000201880072
:400C40000301880004018A00F0B583B00D001C4B1B68DC68236883422DD947097B01C01A012383401E00002903D101F056FA019001E000230193124B18680368002B01DA90
:400C8000002300E00F4B002B0ED16368BF00DF193B68334203D0B3433B60002400E00A4C0021FFF7DFFE00E0084C002D04D1019801F037FA00E0064C200003B0F0BDC046D8
:400CC000B834000801008A00020188000301880004018A000A4B1B68DA68136883420BD943095901401A0121814052689B009B580B4203D0034802E0034800E003487047EC
:400D0000B83400080101880004018A0000018800034B1B68002B01D1014B18607047C046C4340008F0B5474680B404000F0090461E002B4B1B68002B03D1B421294801F032
:400D40004FF9072C03D9B521264801F049F9244B1B682C2060431C18FF22150035402560330A13406360330CA3600F2D04D9AA21FF311D4801F034F96B011C4A94466344E1
:400D8000236165680F2D04D9E2214900164801F027F96D01164B9C4665446561A668330C04D0F1214900104801F01AF9330C04D0E421FF310C4801F013F93604330C1E43A3
:400DC000AE604346E36127620023A361069B002B02D000229B5EA38104BC9046F0BDC046C4340008145C0010D45B00100000234000102340F0B58FB0041E03D150212E48EC
:400E000001F0EEF86368032B03D952212A4801F0E7F8E36A002B03D15621274801F0E0F8E368072B03D95721234801F0D9F8236A072B03D95821204801F0D2F8236B002B68
:400E400003D159211C4801F0CBF807AA1300210061C961C321C921C302AD290023001433C1CBC1C141CB41C10821535E0CAE3380079B1933B370089B0D930B9B0A98009634
:400E8000A26AE16AFFF74EFF2B69E868002200920021FFF747FF216B3000FFF77DFD0023F25E002A05DB1F231A401E3B9340034A13600FB0F0BDC046145C001000E100E0BF
:400EC000F8B504000F0016001D00002A03D1FD21284801F085F8284B1B68002B03D1FE21244801F07DF8072C03D9FF21214801F077F8072F04D9802149001E4801F070F86B
:400F00001D4B1B682C2120004843181879435918012213004C68A3401B044468A24014000269002A20D08F69002F1FD11268002A01DA002200E0114A002A19D132681204A7
:400F4000120C134333600369DE6001238B614D620569230C03D00A490A4801F041F82204120CAA60002004E0074802E0074800E00648F8BD145C0010C434000801008A0002
:400F80009A020000D45B001004028A0007028A0070B504000D001600134B1B68002B04D16221FF31114801F01BF8072C04D9B12149000E4801F014F80B4B1B682C206043B0
:400FC0001C18236A002B04D1B3214900074801F007F8E369B34204D9236AB6009D51002000E0034870BDC046C4340008145C00100A028A0070B582B00400002301930028B7
:4010000004D1EA2149002B4800F0EAFF2369002B04D1D621FF31274800F0E2FF6369002B04D1EB214900234800F0DAFF236A002B04D1D821FF311F4800F0D2FF6269D5680D
:401040002B0C1FD01B041360136820690369002B18DA01A9FFF740FD00280ED1019803681E0CFF221340E269934207D29B00226AD358002B02D0984700E0002631002069BE
:40108000FFF7F0FC2D042D0C0FD063691D601B68636A002B03D098470023636203E0A36A002B00D098470023A36163691B6802B070BDC046145C001004281DD8042904D9D7
:4010C0004B1EFF3B9BB2132B18D8FF290CD91F2319400B4A0300C0339B009950D03080000423835000200AE007231940D0308000034BC150002002E0024800E00148704749
:401100000000264001004A0010B50400042804D91621FF310A4800F063FF2300D0339B00084A985807231840042807D1C034A400A3581B30184080235B00184310BDC04636
:40114000545C00100000264070B5041E04D1E221FF314C4800F044FFB023DB004A4AD358002B01DB002500E0484D002D00D086E0474B22689A4204D9F8214900414800F012
:401180002FFF23689B03990BE3791B068022520413400B43B022D2003B498B50A2883D4B9A4204D9F821FF31364800F019FF2289394B9A4204D9FC214900324800F010FF1A
:4011C000A388DB04D90C23891B04344A13400B43334A2D498B50A37A0F2B04D9FF214900284800F0FDFEE37A0F2B03D92A49254800F0F6FEA289274B9A4204D98021890099
:40120000204800F0EDFEA37A0F211940E27A1201FF2313400B43A289120222490A401343A27B1207C02189050A401343B122D20015498B50A379072B04D982218900114876
:4012400000F0CEFE228A144B9A4203D916490D4800F0C6FE0C4815494658154B1E40A3791B02E022D2001340334343504658114B1E40238A1B04094A134033434350280015
:4012800070BDC046545C00100000264003004A00FFFF0300FF1F0000FF0100000000FF018405000000FF1F00090200008C050000FFF8FFFFFFFF00FE70B505002D492E4A1D
:4012C0008B588020000603438B502C0003E0012000F07AFE013CB223DB00264AD3585B0701D4002CF3D12349B122D2008858234B03408020800503438B50002D02D00ED038
:40130000002C0CD01B49B022D2008B588020000603438B5003E0012000F056FE013CB223DB00144AD358DB0701D4002CF3D1002D0ED0002C0CD10F4AB021C90053585B0081
:401340005B0853500C4953585B005B0853500BE0084B0221B222D2009950B121C9005A58C020800502435A50002C01D1044800E0002070BD000026408C050000FFFFFFCF3B
:4013800002004A00F0B5474680B45B4B98426FD89A4274D8594B994278D80124584B1C70FF2806D80E3404400F250F239C46072021E0544B984206D80F2630400F2500231B
:4013C0009C46002417E0030A0F2633404E4CA04208D80001F03630401843FF2500239C46002408E00002F026360130401843474D00239C460024FF2A10D81201FF231A4041
:401400001443E022D202024316000F3B62461A439446F0273F032F4300203DE0394B9A4208D81204F0273F033A40104306002F43002031E0160A3604F0231B031E40304372
:40144000314B9A420AD81205F0231B041A4010430600FF273F042F4300201DE01206F0263605324010430600294F2F43002013E0002700239C460026002426480CE0002716
:4014800000239C4600260024224805E0002700239C46002600241F4800282AD11E4B1B68002BFBDA164B5B78002B04D01B4B1C4AD358002B19DA1B4A1B4B1A601B4A1C4B49
:4014C0001A60174BA322D20090469D58624695432C4342469C50174C1A59BA4332431A51074A51600D4A995000E0134800220A4B5A6004BC9046F0BD0F060000FFFFFF0095
:40150000C8340008FF040000FF0500000F0F000000000F0F01004A00E00023401C050000000026401F1F0000080126403D3D0000040126401405000003004A0070B582B000
:4015400000220023009201932C4B1A702C4B1B68002BFBDA2B4B1A682B4B9A4206D12B4B1A682B4B9A4203D0002502E0002500E00125A423DB00274AD4582402220A0023E1
:40158000009201931E4B00225A60002D2DD0009A019B1A4329D0002815D1184B58680A000023002102F0E6FC009C019DEE07620832436B0880185941009A019B02F0BAFC26
:4015C0000090019115E0009A019B0800002102F0D1FC0A4B5A685408002500196941002302F0A8FC0090019103E000220023009201930098019902B070BDC046C834000817
:40160000E0002340080126401F1F0000040126403D3D000000002640F0231B06C3180F4A934201D8580A18E0EC231B06C3180C4A934204D85B0A8020400218430DE0EA2351
:401640001B069C466044064B984204D8400A80229202104301E0012040427047FFFF0F00FF7F000010B50400FFF7D6FF431C03D0E40503D0002002E0002000E0012010BDB1
:40168000214B984230D00ED8402831D004D800281FD010282AD031E080282BD080235B00984229D02AE0194B984229D007D8A0231B0698420DD0164B984212D01EE0154BB5
:4016C00098420AD0144B984209D0144B984215D101E0002016E0124814E0124812E0124810E0A020C0030DE007480BE00F4809E00F4807E00F4805E0034803E00E4801E061
:40170000A420C0037047C04606005200010000F0090000A0040000F0050000F0030000F0010052000200520003005200010050000200500005005200FF00520010B50C4B34
:401740001B69002B11DB0B4B1868FFF799FF0121094B0A4AD150084B084AD358002BFAD1074BD358002BF6D100E0064810BDC04600002340D43400080C0400000000254061
:401780008C0400000200500010B5022202490020FFF7FEFB10BDC0460506000870B504000D00FFF75FFF002827D0002D27D0FEF77FFD144B144A1A6000225A609C60DD6094
:4017C000124B19691A69120AFF2313405A1C0B0E013353430E4C5C430E4B1868FA21890002F032FA0100200002F02EFA0A4BC1188020400003F0D0FF02E0084800E007489D
:4018000070BDC046D43400080001000500002140C0EA2101C4000008482600000600520010B5FFF78BFF10BD10B50400FFF71AFF00282AD0FEF73CFD154BE02252051A6033
:401840001A68802149000A431A605C6000229A60DA60104B19691A69120AFF2313405A1C0B0E013353430C4C5C430C4B1868FA21890002F0E9F90100200002F0E5F9084B4F
:40188000C118002003F088FF00E0064810BDC046D43400080000214060F59000C4000008980800000600520070B504000D00FFF7D9FE00282ED0002D2ED0FEF7F9FC174BFA
:4018C000C022D2041A601A68802149000A431A60832252005A609C60DD60114B19691A69120AFF2313405A1C0B0E013353430D4C5C430D4B1868FA21890002F0A5F9010049
:40190000200002F0A1F9E1239B00C118002003F043FF02E0054800E0044870BDD434000800002140808D5B00C40000080600520070B505000C00002848D0002948D0FF23D0
:401940000A689A4303D08D21224800F049FBFF2322699A4303D08E211E4800F041FBA3685B0D03D08F211B4800F03AFB63685B0A03D09021174800F033FBE3695B0F03D023
:401980009121144800F02CFB236A5B0F03D09221104800F025FB104BEB18DB090F4A944663441B0122682A60E268AA622269EA6262692A63A2686A626268AA61A2696A63C9
:4019C000E2691A60226A5A60002002E0044800E0034870BDDC5C00100000CEBF0010030401005A0010B5074A074813580F24A34302210B43135004381358A34319431150E8
:401A000010BDC0460000214004F0000010B5074A074813580F24A34303210B43135004381358A3431943115010BDC0460000214004F000000449054A8858054B0340C0205F
:401A4000C00103438B5070470000214004F00000FF8FFFFF0449054A8858054B03408020C00103438B5070470000214004F00000FF8FFFFF10B5002000F070FBB0235B0550
:401A80005B78002B04D0B0235B055B78DBB200E02123222B03D8002803D1013002E0012000E0002010BDC04610B50400002000F055FB00280AD114498A69144B1A40240613
:401AC00080235B041C4014438C611BE0002C01D00F4A00E00F4A01210F48FEF7DDFF00280DD10D4B1B69002BFBDB0B4BDB681B0E1B06A0221206934203D0084802E00748A7
:401B000000E0002010BDC04600F02540FFFFFFFE0101003001000030000023400400420070B50400022805D0052803D02349244800F056FAFFF79EFF00283CD000F0EDFA98
:401B40000600022C10D10120FFF7AEFF051E18D1FFF748FF1B494B6907229343043A13434B61FFF767FF0CE016494B6907229343043A13434B61C82000F026FAFFF76AFFFB
:401B80000025002D13D10F494B69072293431A000723234013434B61052C08D1C82000F013FAFFF733FF0020FFF77EFF0500300000F0B7FA00E0044D280070BD37060000F8
:401BC0005C5D0010000026400300420010B50400012803D90D490E4800F002FA002C03D10C4B5869C00F00E00020012C0CD1094B9B695B0005D4074B9B69002B03DA01200F
:401C000002E0012000E0002010BDC0469C0600005C5D00100000264070B504000D00072803D90D490D4800F0DBF90D4B9B690722134021009C420DD0094882690726B2433B
:401C4000344014438461002D04D0994202D9C82000F0BAF970BDC046FC0600005C5D001000002640F8B50500012804D9EA21C900294800F0B5F9FFF7FDFE002848D000F052
:401C80004CFA0700002D17D1E823DB00B0225205D65CF6B20120FFF707FF041E1FD1FFF7A1FE1E481E4943581F229343143A13434350FFF7BFFE12E01A4BB0225205D65CFA
:401CC000F6B21648164943581F229343143A13434350092000F078F9FFF7BCFE0024002C12D10E490E4A8B581F20834306401E438E50012D08D1163800F066F9FFF786FEEF
:401D00000020FFF7D1FE0400380000F00AFA00E0054C2000F8BDC0465C5D0010000026401CFF0000410700000300420070B5040000F0F3F9002C05D01A4B1B681F2B03D997
:401D4000002502E0002500E00125002D25D0E368002B1FD02368002B1ED0124B59680B00002203E0A34204D01A005B69002BF9D100E00025002D10D0002902D1094B5C602E
:401D800000E05461226100236361064A13680133136002E0002500E0002500F0C2F9280070BDC046E434000870B5040000F0B5F9174B1A68002A25D059680B0002E0A34223
:401DC00004D05B69002BFAD1002500E00125002D19D0A14207D14B69002B0CD00C494B600021196107E019695C694C615969002901D01B690B61013A054B1A60002A02D17A
:401E00005A6000E0002500F08CF9280070BDC046E434000870B584B005000E00042803D929492A4800F0DCF8731EDBB2012B07D9042E05D0082E03D02549244800F0D0F80B
:401E4000042E01D0012E1DD1224B5C68002013E023799D420FD1A368002B01D01E420AD1E36801A85A6842609B688360067023689847184B9C606469002C23D0164B9842BD
:401E8000E6D11FE0134B9C68022E02D1002C00D02469002011E023799D420DD1A368002B01D01E4208D1E36801A85A6842609B6883600670236898472469002C02D0064BDA
:401EC0009842E8D104B070BD950800005C5D001096080000E4340008FF00420070B50500012804D94E21FF311B4800F079F81B4B1B68002B05D001210020FFF78BFF0400C7
:401F000000E00024002C20D100F007F90600134B1B68002B03D004210020FFF77BFF104A136904218B431361012D01D030BF00E020BF300000F0F5F8084B1B68002B09D025
:401F400008210020FFF766FF04E002210020FFF761FF044C200070BD5C5D0010E434000800ED00E0FF00420010B500F0D6F8074B5A6807490A40E824A40122435A605A68E9
:401F8000114059605B6800F0CCF810BD00002640FF00FC0F10B5040006E0084B186800F0B3F8074B9C46644480231B029C42F4D8044B1868604300F0A7F810BDDC0000084E
:401FC0000080FFFFD800000810B5034B1B78584300F09AF810BDC046D400000801BEFEE770B50D00044C18220100200003F0B4FBA5610020FFF7F2FFF80800080122014B6A
:402000009A60704700002540054B802212069A649B6C002B01DB002000E002487047C0460000274003004600054B8022120198585B68FF221A4202D08023DB021843704724
:4020400000002640FEE7C04610B50A4B0268DA6142681A6282685A62C2689A620269DA6242691A6382695A63C2699A63FFF7EAFF10BDC046F8080008F0B5002801D019222C
:4020800000E064228A42924152421C4BE8256D005C590327BC433A4014435C515C59184E34405C51D03D5C59BC4322435A515A5916405E51002805D010290DD921290DD83A
:4020C000012014E01D290BD93A290BD957290BD978290BD803200AE0002008E0022006E0002004E0012002E0022000E00420054A13680F218B4303431360F0BD0000214099
:40210000FFFCFFFF000025400230800803D001300238FCD1C046C0467047EFF3108072B6704780F310887047042805D1094A116804230B4313600CE00006C0239B04184024
:4021400090239B00044AD050024A136804218B431360704710E000E00000214010B504000F2803D9E4210548FFF73AFFA402044B9C46644423680F20184010BD9C5D0010CA
:402180000040244070B50378012B02D0082B44D049E0294B1B78012B47D00320FEF79AFD264B984243D001F02DFD012841D0022005F0C0F80500FFF7B0FF214B186005F06F
:4021C000C6F80400062817D0022D0AD1022006F04DFF032C01D0052C10D1002810D0194C13E0012006F042FF022C0BD000280BD1FFF774FE134C08E0002406E0114C04E0C9
:40220000002402E00F4C00E00E4C0E4B9C4211D10B4B1868FFF785FF0CE0094B1868FFF780FF002406E0074C04E0064C02E0054C00E0044C200070BDFC4300080101880051
:4022400010350008FF00420010B50248FFF7ACFD10BDC046EC02000810B5002817D00D4B5860C36A002B01D00A4A936000240A4B1C700A4B1C700A4B1C600A4B1C7000F07D
:4022800097FB094B1C70094B1C70002000E0084810BDC046103500080C440008104400081444000811440008FB430008004400080100160070B590B00CAE102510222A4949
:4022C000300003F038FA02AC28220021200003F03BFA264B0293A660254BA3810423A373244A526812692261234A62611B2222836283183A227763770233A377E5771A3371
:40230000E5540133E55451336384023A4C3BE2541A48FFF70BFD04F0F1FF08A805F084F800281ED1164B039302A805F025F8002814D10122134B1A700023134A1370134AEC
:4023400013700C4B5B681A6A00929B6ADB886A4693802C23D38068461EF022F800220C4B1A6010B070BDC046DC5D0010CD2E0010542900001035000896100000EC02000867
:4023800034090008FC430008044400080544000814440008014B024AD050704778F0010000003C4010B50DF0C1FB044B1B68002B02D0002800D0984710BDC0461C350008EC
:4023C00010B5002809D0FA23FF33994207D80A00044903F0B0F9002002E0034800E0024810BDC0460708001601001600F0B55F4656464D464446F0B4B14CA54481460E0033
:40240000904605930B00AF4A914204D942468A18AD498A4211D9AD4A934204D94246B218AB498A4209D9AB4A934200D823E14346F318A94A934200D922E1A84B5B695B0017
:4024400010D5A64B5B6907241C40022C25D10520FFF766FB0190A24B9842F8D003940123049324E09F4B9D4AD3581F221A40E823DB00B0214905CB5C9B1A5A1E9341DBB2D4
:402480000493002B0FD10120FFF7ECFB944B9842F9D001900523039309E00394012304930023019303E005230393002301938E4B019A9A4204D1D621FF318C48FFF790FDBE
:4024C000F0231B069C466644730A9A465C0200210320FEF773FB0028F9D100250023029399E0B4421BD3BD4219D24A4652191078804606A84146C154594600290DD18021CA
:4025000049058846A044414609786846017001781278914201D001229346013505E080225205A218127806A8C2540134013304E0002100238B46844647466D4A9342D0D9C7
:4025400059466046B846002962D0019B002B5FD1059B002B51D1C83300951D00B3465646A24680231B03F7187F023800FFF75CF90400013D0120FFF727FDA423DB03220097
:402580001A409A4201D1002DEBD122000294009D5446B2465E46574B9A4205D1FFF740F9554B9842FAD00290029B002B19D1C83300971F00A34606A90098FFF775F904004B
:4025C000013F0120FFF700FDA423DB0322001A409A4204D1002FEED102945C4601E002945C46444B029A9A4211D1FFF719F9424B9842FAD0029001200AE080200003504480
:40260000400206A9FFF7CAF80290012000E0012001239C46E244029B019A134301D1454586D3002801D0FFF7E9FC00210320FEF70BFB0028F9D1019B002B25D1274B5B69D6
:402640005B0009D5039B022B06D10220FFF768FA0190234B9842F8D0204B1B681B0213D4049B002B10D10020FFF7FCFA01901C4B9842F8D008E000230193204B029303E09F
:40268000002301931D4B0293019B002B0CD11C4B029999420AD0194B994207D0002901D1002004E0174802E0174800E0174887239B009D443CBC90469946A246AB46F0BDBE
:4026C000E4FDFFFFFFFFFF0F00001010FFFFFF1300800014FF070016000A001600002640040042001CFF000003004200EC5E0010FF0100000100500002005000060052008E
:402700000200520013001600120016000100160010B500280AD0FA23FF33994208D8F93BFF3B0A000349FFF761FE02E0024800E0014810BD070800160100160010B50023AD
:40274000FFF754FE10BDC04670B5C0B005000C001600802252000849684602F0ECFF05E02A7872406B469E5C0135013C002CF7D1300040B070BDC046EC5D001010B50022D4
:40278000FFF7E2FF10BDC04600207047B0235B05588880B27047C0460020704710B5FFF713FC10BD064B1B685B6B00229A5E002A05DB1F231A401E3B9340024A136070472C
:4027C0001435000800E100E0094B1B685B6B00229A5E002A0ADB1F231A401E3B9340802204498B50BFF34F8FBFF36F8F7047C0461435000800E100E0A023DB00024AD3584B
:40280000032018407047C04600002640024B034AD058C00F7047C0461C0500000000264010B5FEF78BFE10BD70B504000D0016000320FEF74FFA054B984205D0320029000E
:402840002000FEF79FFD00E0014870BD0101880003004A0070B5431ADC171B196340934227D3164B164CE458A405A40D884208D9401A51084018110001F0E6F9201A0ED552
:402880000AE0081A51084018110001F0DDF900190C4B984202D802E0002000E00A48084D06496B589B0A9B028205920D13436B5001E000240020201A70BDC0463C05000078
:4028C00000002640FE030000FF03000010B5034B1A6880210902FFF7BDFF10BD0403000810B501F037F80220FFF754FD094C2368586B0949FEF750F823685B6B00229A5EB5
:40290000002A05DB1F231A401E3B9340034A136010BDC04614350008A523001000E100E00420704710B5FFF7F8FB10BD10B5FFF7F8FB10BD10B5FFF7D1FA10BD10B500213E
:40294000FFF76AF910BDC0467047C0467047C0460020704700487047110016000048704711001600004870471100160000487047110016000048704711001600004870471D
:4029800011001600004870471100160000487047110016000048704711001600004870471100160000487047110016007047C04610B5024800F038FE10BDC046E40200087F
:4029C00070B5022875D8002975D10022002306E03C4CE45C012C01D90132D2B20133002BF6D0012A0CD1384B1B681C688A0052189300E3185B681B79023BDBB2012B5CD861
:402A0000324B1B78002B5AD1314B197000281DD12D4E34688B005B189A0023689D18CB00591A4B006168C918898829822168891849686468E45A0C8031680C68A446624429
:402A400052684968CB185B8853801FE001281DD11D4D2C688B005B189A0023689E18CB00591A4B006168C91889893182216889184E686168C9180989318029680C68A446B1
:402A8000624452684968CB185B895380114B18700D4B1B6818680E4B1B789A00D3189A00801819F0D5FB00280AD10122074B1A7006E0094804E0084802E0084800E00848E1
:402AC00070BDC046044400081435000805440008FA430008114400080100160002001600FF00160070B5002907D1154B1B681B689968CE7F002300250FE0114B1B681B6858
:402B0000D968CE7FF6E7CA5C002A0AD00133CC5C1B2C01D09B1800E00125B34201D2002DF1D0002D0BD001338279CA54002204E0D4180134855C0D550132052AF8D970BDFE
:402B40001435000870B505001DF07CFC041E24D1134B19682B899A00D2189300143B0A6A944663445A68920117D5EA7B1B695B68C8691B1A50008018C0180A4BC018AA88DE
:402B8000296802F0D8FDEB7B074AD35C012B04D1064A117802230B431370200070BDC046143500080844000800440008FB43000870B586B004000289164B1B685B699B88C8
:402BC0009A4223D101A80300220062CA62C300238381A389C38140230374FFF7B3FF051E0ED123681B789B0705D50B4B1B6821000A48984704E0084B1B68210008489847FC
:402C0000084A137801218B43137000E00025280006B070BD143500081835000805000100060001000C44000870B504000289531E9BB21B2B1ED8C57B002D1DD10F4B196845
:402C400093009A189300143B0A6A944663445A6892010BD51B695868C969411A6B005D196D1807496918022202F065FD20001DF0B5FB02E0012000E0012070BD1435000824
:402C80000844000810B54288531E9BB21B2B1CD84478002C1BD1104B196893009A189300143B0A6A944663445A68920111D51B695868C969411A63001C1964180749611884
:402CC000022202F038FD002004E0012002E0012000E0002010BDC046143500080844000830B587B0041E18D00E4B1B68196A028993009A189300143BCB185B689B010ED48E
:402D000001AD14220021280002F01EFD2B0007CC07C32800FFF716FF02E00E2000E0012007B030BD1435000870B586B006000C1E16D0002816D001AD14220021280002F0BA
:402D400003FD2B0007CC07C3022231001220684402F0F1FC40232B742800FFF7F3FE02E00E2000E00E2006B070BDC04630B587B005000C001422002101A802F0E5FC002C35
:402D80001ED0124B1B68196A228993009A189300143BCB185A6880239B04134001D0002D10D0002B05D0022229001220684402F0C2FC01A8030026CC26C3FFF735FF02E06A
:402DC0000E2000E00E2007B030BDC0461435000830B583B004000D0006220021684602F0B3FCA3896A4613802389538012231371074B1B78DB0709D4002D04D0557168461B
:402E00001CF020FC02E0E0681CF03EFC03B030BD0C44000810B5002811D00023002406E09A0011495258904200D1012401330E4A1279934206D2002CF2D0002303E00024C5
:402E40000A4B00E00023002B0CD1002C0AD1064A1279002A05D104499400605001320A7100E0034B180010BD18440008010016000300160070B506000D000020002406E0C8
:402E8000A200074BD3582900300098470134044B1B799C4203D2034B1B78DB07F0D470BD184400080C4400088379002B06D000200AE0C25C002A06D1013300E00023052BF3
:402EC000F7D9002000E001207047C046F0B5474680B48CB004000D00BC4A117801230B43DBB21370BA4B984200D113E231D8B94B984200D1C6E015D8B74B984200D1EAE0F9
:402F000007D8023B984257D0B44B984200D1DEE06FE3B34B984200D11CE1B24B984200D162E366E3B04B984200D147E208D8AF4B984200D19EE0AE4B984200D11FE158E32D
:402F4000AC4B984200D1E9E1AB4B984200D131E24FE3AA4B984200D10AE316D8A84B984200D1BEE208D8A74B984200D1D6E1A64B984200D162E23CE3A44B984200D1CDE2CA
:402F8000A34B984200D1D1E233E3A24B984200D1FAE208D8A04B984200D1EDE29F4B984200D1EDE225E39E4B984200D1F0E29D4B984200D13EE21CE39B4B1E683000FFF7E0
:402FC00073FF00280CD030001AF020F9964E00213068FFF787FD30680121FFF783FD37E0924B19688B6A1B79002B22D0B02040058F4BC35C3F2213408E4E865D3240920120
:403000001A438D4BC65C1F2333401B031343C022D200805C7F220240520413430A6B1370824A1168096B180A48701268126B1B0C93707E4E3368186B1AF0E8F83368186B53
:403040000021FFF74FFD3368186B0121FFF74AFD764B1B68986A02301AF088FC0822774905A802F068FB05A81AF0F4F80222744B1A70BEE20023724A1370724A1370FFF737
:40308000E3F8B6E2704B1B68DB0700D5B1E205AE03220021300002F057FB644F3B689B6A1B785BB2337030001AF0EEF83B689B6A5B785BB2337001277770FF23B37030003B
:4030C0001AF0E2F8604B1A6817431F6091E22900FFF7D0FE8DE26B78984602225749083105A802F028FB00261DE002AF73005749C9180222380002F01EFB7B78002B02D177
:40310000534AD35C00E00023012B0BD973004F4A9B5C984506D17300D118022205A802F00AFB02E00136002EDFD005AB5B78FF2B05D104D1F22189004648FEF751FF05AB68
:403140001B8808AA138007AA13801B0A2978424AD1544EE22B78002B00D04AE22B7A002B07D13E4B0322DA8029329A803C4A1A606B60164A137801218B43137039E26B7965
:40318000984602222D49083105A802F0D4FA002669E003AF73002D49C9180222380002F0CAFA7B78002B02D1294AD35C00E00023012B57D97300254A9B5C984552D17300B6
:4031C000D118022205A802F0B6FA4EE00C4400080A400000042000000210000001100000031000000410000006400000123000000440000007400000084000000E5000007C
:40320000025000001040000001500000035000000C500000145000000F5000001050000017500000016000000803000814350008040600000506000003060000285F0010E8
:40324000FC4300080544000814440008F843000804440008345F00101044000840350008883200080136002E93D005AB5B78FF2B05D104D1F2218900C948FEF7B1FE05AA65
:40328000138809A90B8013801B0A6978C54AD154EB78002B00D0ACE16B7998460222C249083105A802F047FA00261DE004AF7300BE49C9180222380002F03DFA7B78002BA0
:4032C00002D1BB4AD35C00E00023012B0BD97300B64A9B5C984506D176009119022205A802F029FA02E00136002EDFD005AB5B78FF2B05D104D1F2218900A948FEF770FE52
:4033000005AA13880AA90B8013801B0A0121A94AD1546EE12900FFF7ADFD6AE1AB7E002B44D12B7E012B02D10022A34B1A70EB7E984602229C49083104A802F0FCF90026C3
:403340001DE005AF73009949C9180222380002F0F2F97B78002B02D1954AD35C00E00023012B0BD97300914A9B5C984506D176009119022204A802F0DEF902E00136002E22
:40338000DFD004AB5B78FF2B05D104D1F22189008348FEF725FE04AA13880BA90B8013801B0AFF2B02D0297E844AD1540222844B1A701EE10222824B1A701AE12900FFF7A1
:4033C00059FD804B1B78DB0700D412E17A4B1B78012B03D10222784B1A700AE1032B03D10022754B1A7004E1022B00D001E10022714B1A70744B1B685868744B1978CA0006
:40340000531A5B00C3189A79002A00D1F1E09B88002B00D1EDE06E4B1B78002B00D0E8E00120FFF7CDFA002800D0E2E00122624B1A70DEE02900FFF71DFDDAE0022229001F
:40344000684602F078F96B465B78002B03D10221574AD15406E0002B04D1E12189005048FEF7BEFD68784000504B18180222290002F061F96B780021564AD1545800C01899
:40348000554E8019504B1B6819692B785A00D318524A94466344C9180631032202F04BF96B785800C01880190221FFF767F96B785A00D318F618B37898420DD0484B1B6865
:4034C0000021484898476B785800C318424818180322002102F038F929002000FFF7CAFC87E001AE02222900300002F024F97378002B03D100212E4AD15406E0002B04D1CE
:40350000E12189002648FEF76BFD6B780021294AD15429002000FFF7ADFC6AE005A82B880380172343801CF09BF862E02A89531E9BB21B2B0ED905A8AB89038042801223AD
:403540000371012646711CF07DF81E4A1378B34313704EE02800FFF72BFB011E04D129002000FFF787FC01002800FFF731FC40E02900FFF77FFC3CE02900FFF77BFC38E014
:403580002900FFF777FC34E02900FFF773FC30E02800FFF777FB29002000FFF76BFC28E0345F001000440008285F0010F84300080444000838350008054400083C35000831
:4035C000FC4300080C44000814350008FA4300081144000810440008084400089010000018350008040001000B4A117801230B4313700A4B1A7811231A4209D0074A137890
:4036000001218B431370064B1B682900200098470CB004BC9046F0BDFB4300080C440008183500080020704710B5002805D0044B18600448FFF7EEFB00E0034810BDC046A0
:403640004C350008253600100100160070B50D000F4B184300040F4BD861FA24A40003E0013C0120FEF7B0FC0A4B1B6CDB0701D4002CF5D1002C08D0064B196C01220A434E
:403680001A64DB6A2B80002000E0034870BDC0460080FFFF00003C400400160010B500040E4B184001430E4BD961FA24A40003E0013C0120FEF788FC094B1B6CDB0701D4AB
:4036C000002CF5D1002C06D0054A116C01230B431364002000E0034810BDC0460000FF7F00003C4004001600F0B583B006000A24C02149017548FFF7D1FF002804D16B4687
:40370000991D7248FFF7A2FF002C01D0013C00E06F48002805D16B46DA88C0235B019A42E6D1002825D16B46991D6A48FFF78EFF00281ED16B4606331B885B0519D40A24F5
:403740008021C9006348FFF7A9FF002804D16B46991D6048FFF77AFF002C01D0013C00E05B48002805D16B46DA888023DB009A42E6D1002804D16B46991D5748FFF766FFDE
:40378000002844D16B4606331B883F229343B278012A15D1F178012904D88FB20222D21B95B201E000250227402213439BB2302213436A46D380494BCB40494A136013E04E
:4037C000F178002904D18FB20122D21B95B201E00025012740229343102213436A46D380404BCB403E4A13606B469C1DD9883943D9803948FFF752FFF378DB1B0322134007
:40380000AA0092B213432380374A38498B50B0235B055B78002B04D0B0235B055B78DBB200E02123212B4FD0314BB0225205D35A9BB2002B48D0002804D16B46991D2D4862
:40384000FFF704FF002824D16B469A1DDB8860218B4318001380B0256D05254C2B5B60310B405B08034324490B401380295BC901F020C00001400B43204919401180285BDC
:40388000C0239B000340DB00194311801948FFF705FF002804D16B46991D1948FFF7D6FE002811D16B469A1DD988C023994311800F4BB0204005C05A302303409B0019435C
:4038C00011800F48FFF7EAFE03B0F0BD021E000004001600031E0000091E00000048E801C00000080024F40064F0010000003C4016180000071E00007FF5FFFFFFE7FFFF95
:40390000061E000070B50C004000084901430848FFF7C4FE051E04D106490748FFF7BEFE05006001FEF750FB280070BD01100000081E0000376800000F1E00000349044A75
:403940008858102303438B507047C04600003C4070F00100F0B59DB013A9144B0A00180070C870C270C870C270C870C20AAD28001A002432D0CAD0C0D0CAD0C0D0CAD0C03F
:4039800001AC22004833C1CBC1C2C1CBC1C2C1CBC1C20748FDF7CCFF29000648FDF7C8FF21000548FDF7C4FF1DB0F0BD6C5F0010000132408001324000023240F8B5051E2C
:4039C00000D1D4E06E4B5B689B0301D5FEF7CCFA6C4C03E0013C0120FEF7F6FA6A4B6B4AD358002B01D0002CF4D1694B674AD358DB0704D5674BD358DB0700D5B9E0624B12
:403A0000624AD358002B00D0B5E0FFF7A3FF5F4B6149624A99502A788021C9020A4360495A506049604A9950802252009B58DB0700D5A2E05D4B1B6F1B0709D45C4B18683C
:403A40005C4B984206D9190000F0FEF8013802E0012000E000204D4B1B68002803D04003554A104300E055481843484B1860444B5B695B000ED501210320FEF7CDF8404B62
:403A80005B695B000CD53E4A93698021C9050B43936105E03D494A4A8858032303438B503A4C3B4AA658474B3343A3504020FEF78BFA454BE358DB070BD42700424C012368
:403AC0003B514020FEF780FA03233B514020FEF77BFA3E4F37403E4E3E432D4B2B4AD650FA24E40003E0013C0120FEF76DFA394B394AD358DB0601D4002CF4D1002C01D056
:403B0000002400E0354C002C23D12049344A8858082303438B500120FEF758F8002801D1304E3E43304B1E4001231E43184B174AD650144E03E0013E0120FEF745FA154BED
:403B4000124AD358DB0701D4002EF4D1002E00D1224C002C03D12800FFF7C6FD0400002C0CD168782978FFF7CDFE040006E01F4C04E01F4C02E01E4C00E01E4C2000F8BD68
:403B800000002640F07E0E006CF0010000003C40A0F00100B4F0010006000001A4F00100A8F0010001000100ACF0010000F03D40C800000800093D00041A0080040A008091
:403BC000C4F0010030000300B0F00100EFFFFEFF2000020010400000000032400400160068F0010028000200FFFFFBFF010016000300160002001600014B18687047C04607
:403C0000C000000810B5002405E02000FDF77CFA032804D00134042CF7D9002000E0012010BDC046A023DB00064AD35803221340012B03D0032B03D1012002E0012000E0A6
:403C40000020704700002640002243088B4274D303098B425FD3030A8B4244D3030B8B4228D3030C8B420DD3FF22090212BA030C8B4202D31212090265D0030B8B4219D324
:403C800000E0090AC30B8B4201D3CB03C01A5241830B8B4201D38B03C01A5241430B8B4201D34B03C01A5241030B8B4201D30B03C01A5241C30A8B4201D3CB02C01A5241C1
:403CC000830A8B4201D38B02C01A5241430A8B4201D34B02C01A5241030A8B4201D30B02C01A5241CDD2C3098B4201D3CB01C01A524183098B4201D38B01C01A5241430915
:403D00008B4201D34B01C01A524103098B4201D30B01C01A5241C3088B4201D3CB00C01A524183088B4201D38B00C01A524143088B4201D34B00C01A5241411A00D2014623
:403D4000524110467047FFE701B5002000F0F0F802BDC0460029F7D076E7704703460B437FD4002243088B4274D303098B425FD3030A8B4244D3030B8B4228D3030C8B422D
:403D80000DD3FF22090212BA030C8B4202D31212090265D0030B8B4219D300E0090AC30B8B4201D3CB03C01A5241830B8B4201D38B03C01A5241430B8B4201D34B03C01A71
:403DC0005241030B8B4201D30B03C01A5241C30A8B4201D3CB02C01A5241830A8B4201D38B02C01A5241430A8B4201D34B02C01A5241030A8B4201D30B02C01A5241CDD2C7
:403E0000C3098B4201D3CB01C01A524183098B4201D38B01C01A524143098B4201D34B01C01A524103098B4201D30B01C01A5241C3088B4201D3CB00C01A524183088B42EE
:403E400001D38B00C01A524143088B4201D34B00C01A5241411A00D201465241104670475DE0CA0F00D04942031000D34042534000229C4603098B422DD3030A8B4212D3B6
:403E8000FC22890112BA030A8B420CD3890192118B4208D3890192118B4204D389013AD0921100E08909C3098B4201D3CB01C01A524183098B4201D38B01C01A524143096E
:403EC0008B4201D34B01C01A524103098B4201D30B01C01A5241C3088B4201D3CB00C01A524183088B4201D38B00C01A5241D9D243088B4201D34B00C01A5241411A00D2FE
:403F00000146634652415B10104601D34042002B00D54942704763465B1000D3404201B5002000F005F802BD0029F8D016E770477047C046002B11D1002A0FD1002900D147
:403F4000002802D00021C943081C07B4024802A14018029003BDC046D9FFFFFF03B4684601B5029800F050F8019B9E4602B00CBC7047C046F0B54F464646C0B41604360C8E
:403F80009946330005042C0C070C150C63437E436F4365431C0CAD1964199C46A64203D980235B02984647446346250CEF191D044B464A4343432D0C240464199918C91927
:403FC00020000CBC90469946F0BDC04670B500220C4B04000D0001F05DFA002804D12000290001F0B5F970BD064B00222000290000F05AFE01F0ACF980231B069C46604484
:40400000F1E7C0460000E041F0B54D46564644465F46F0B4924683B004000D0099468B422FD82CD04946504601F05CFA29000600200001F057FA331A9846203B9B4600D5D6
:4040400074E053465A4693401F005346424693401E00AF4229D826D05B46A41BBD41002B00DA79E0002200230092019301235A4693400193012342469340009319E08242A6
:40408000D0D900220023009201930C9B002B01D01C605D600098019903B03CBC90469946A246AB46F0BDA342D6D900220023009201934346002BE8D0FB0772081A43464628
:4040C0007B080EE0AB4201D1A2420CD8A41A9D41012024196D410021013E24184D41002E06D0AB42EED9013E24196D41002EF8D15B460098019900196941002B22DB2B0034
:404100005A46D3402A004446E2401C005B461500002B2CDB26009E40330026004746BE403200801A994100900191AEE7424620239B1A5246DA40414613004A468A40170070
:404140001F4382E7424620239B1A2A0046469A402300F3401343D5E74246202300219B1A0022009101920122DA40019282E74246202326009B1ADE402F00B446974066466C
:404180003B003343C9E7C046F0B556464D4644465F46F0B41D000E034C00CB0F87B0070092468146360B640D98466AD06D4B9C4235D08022430F12041343F6001E43C300E1
:4041C0009946694B00279C460023644402932B0368001B0BED0F51469B46400D009500D178E0604B98426CD05B46DA004B0F802109040B4313439B465346D9005A4B9C46C6
:40420000002360444246201A6A40924601901F430F2F00D9B0E05548BF00C0598746374300D088E0002399460233082700260293CDE74346B34649460093029B009A92465D
:40424000022B00D0BFE1002153460122002689461A40444B002136030C0D2405360B2643434C1B0526401E437600D207760816434846310007B03CBC90469946A246AB4608
:40428000F0BD330003434FD0002E00D1BCE1300001F00AF903000B3B1C2B00DDADE11D220100D31A08393A008F408E40DA40B9461643304B00279C460023604444420293E1
:4042C00085E753465A4613432CD1002300219B46023397E70B4320D05B46002B00D19EE1584601F0E1F803000B3B1C2B00DD8FE102005946083A91408B461D21CB1A514610
:40430000D9400B0059460B4351469B469140194B9C4660444042002374E7002300219B4601336FE703236DE70023994601330427002602934BE703230C27029347E7012283
:40434000D51A382D00DCB0E153461A4000210023002689467EE700238026994600223603004B77E7FF07000001FCFFFF746F0010FFFF0F80F30300005E4500D972E100D128
:404380006DE1019B4D46013B01930023340002935B461E020B0E1E430B020393330C994633041B0C494620000093FFF74DFC009B370043430600494620009846FFF7CAFC42
:4043C0002C0C09040C43A04509D9E419731EA74200D95CE1A04500D859E1023EE4194346E41A49462000FFF72FFC0300009A80465343494620009B46FFF7ACFC2A040904E8
:40440000120C0A4393450DD94346D219013B974200D93AE1934500D837E102235B429C46D219E0445B46D21A4346360433439B460399180C0B0C1D00059309045B46090C65
:404440000C001B041B0C4443049159436B4368431B190D0CEB189C4203D980246402A44660441C0C09041B04090C20185D18824200D2DEE000D1D7E0161A029B9C465D1B1E
:40448000AC459B415B42F61AB74200D106E149463000FFF7D9FB009B04004343494630009846FFF757FC2E0C09040E43B04509D9F619631EB74200D9F3E0B04500D8F0E0FC
:4044C000023CF6194346F31A494618000293FFF7BBFB009B06004343494602989846FFF739FC2D0409042D0C0D43A84509D9ED19731EAF4200D9D6E0A84500D8D3E0023E33
:40450000ED192404210043463143049E059A3000ED1A0B040C0C1B0C58436643534354439A19030C9B189E4203D980225202944664441A0C00041B04000C14191B18A542B3
:4045400050D34DD001231943964A019B94466344002B00DCF3E64A0709D00F220A40042A05D00A1D8A42894149428B4411005A46D20108D55A468C4B1A4093468022D20060
:404580009446019B6344894A934200DD5BE65A46C908500708435602514601225B058146360B5B0D0A4055E680231B031E4211D05A461A420ED15E461E433603360B2A0018
:4045C00089467B4B46E6032B00D1E1E0012BBBD11A40BBE61E433603360B4246744B39E6002BB1D07D194A1EAF4252D91100A542A8D1039A9A42A5D1A6E703003E00283BEF
:404600009E400023994654E600F04EFF203041E603005246283B9A400021934677E6504600F042FF20305EE6029B0026AB4200D323E7039E0299B44661448846B045B64100
:404640005B467642F619B218013B0291974213D290424FD800D18EE0161A9B460DE7894500D28EE674084B46F60735005B081D434B46DB0702938BE69742EDD10399029CDE
:40468000A142E5D93E1A9B46F7E69846CAE61E00A5E6AC423ED874D0110053E70121494252E71C000EE71E002BE71F2D3CDC20230A0058465B1B9840EA4099400243481E07
:4046C00081415E461143EE404B0709D00F230B40042B05D00B00191D99429B415B42F61833023CD55346012200211A40002601238946AFE502235B429C46039CE344A44605
:40470000029B63449846A045B6417642F6190293B218B1E603988A1E41008142B6417642F619AD19039161E71F225242D31A5A46DA401300202D29D040225846551BA840EA
:404740000143481E814107200B4318400026002809D00F2200261A401900042ABBD10B0070077602360BDB0803439946012253461A4000236EE502998D42BBD89B46002682
:404780007BE603989842C5D3110032E70020D7E780265B4636031E433603360B009A8946034B57E5FF030000FFFFFFFEFE070000FF070000F0B55F4656464D464446F0B486
:4047C0000D0399464E002B0B87B00700924680469B46760DCC0F002E69D06D4B9E4235D05B468022DD001204430F13432B439B46C3009846674B00279C460023664401933D
:404800004A4615035000D20F53462D0B400D914600D176E05E4A90426CD080225B0F120413435C4AED0094461D4353460022DB00604449463618701C6140029017430F2F1A
:4048400000D9AFE05448BF00C759BF465B461F4300D088E000239B469846023308270193CEE74946022A6AD0032A00D109E2012A00D0BBE111400022002300259046CCB202
:4048800000212D030A0D12052D0B1543434A1B0515401D436D00E4076D0825434046290007B03CBC90469946A246AB46F0BD034352D05B46002B00D18AE1584600F0F4FDCA
:4048C00003000B3B1C2B00DD7BE11D22D31A3A0001005D46DA4008398D4013008F402B439B46B8462E4B00279C46002360444642019385E752462A432CD10025002302224F
:4049000097E752462A4321D0002D00D154E1280000F0CAFD03000B3B1C2B00DD46E11D21CB1A51460200D9405346083A954093400D431B4A944660444042002279E70124A9
:4049400000220C40124B0025904699E70025002301226EE703226CE700239B4698460133042701934CE703230C27019348E700238025984600242D03054B81E75D464346B7
:40498000019A6FE75D4643462100019A6AE7C046FF07000001FCFFFFB46F0010FFFF0F80F30300004246120C91461A0C9446424617044A461B041B0C5A43604690464A4671
:4049C00042431000039262461C003F0C7A437C4342440192220C9246019A5244904506D98246802040028046C24450460390100C049048462404240C1204121905922A0CBB
:404A00002D042D0C68432C00824648467C4350438146200C8046574357444744BA4503D9802040028046C144380C3F04B84648442404240C01900498A0444044049058465C
:404A4000000C814658460404200C8246070048465F434C464343604660436446834650464443380C8446E4186444A34203D980235B029C46E34448463F04230C3F0C2404B2
:404A8000E419574668436F4384464D46504655434243380C814662444A445B44944503D9802040028446654403983F04834604983F0C8446E344C345804140428246100461
:404AC00084460198674484466744A344BC46A345A4419946D44464428742BF41D4458041E144A04699459B417F424042C8440743120CBA18A045A4415F423B00644223433D
:404B0000D71843467D19DB0D6D021D435B465A02059B1A43531E9A415B46DB0D1A4343465B021343EA0107D501225C0813402343EA07029E13436D08574AB218002A4BDD28
:404B4000580709D00F201840042805D0181D98429B415B42ED180300E80104D54F4A15408022D200B2184E48824200DDE7E60124DB08680718436D02530580462D0B5B0DF4
:404B80000C407DE6802259461203114208D0154206D115432D0398462D0B4C46414B6FE65D4615432D032D0B3E4B69E603005546283B9D400023BCE6504600F075FC203061
:404BC000A8E60300283B9F400023BB46984689E600F06AFC203073E60124A61A382E07DD00220C4000230025904649E6029EA3E71F2E20DC20222C001800921BF0409440DE
:404C000093400443581E83411C43F540630709D00F232340042B05D023001C1D9C4292415242AD182B021FD5012400220C4001230025904624E61F202C004042821AD440D0
:404C4000202E1CD04022961BB5402B43581E83410720234318400025002809D00F2200251A401C00042AD8D1230068076D022D0B0124DB08034398460C40002300E60025BD
:404C8000E3E780220124120315432D0398462D0B0C40044BF4E5C046FF030000FFFFFFFEFE070000FF070000F0B557464E464546E0B40E001100F20F9246C500420F180310
:404CC00037037400400A4E0F7F0A3043CF4E17435A00640D520DDB0FC900B24200D1E5E001267340A61AB446534500D1AFE0002E00DC0DE1002A3AD103000B4300D0E4E0E7
:404D00006B0709D00F232B40042B05D02B1DAB42AD416D427F191D003B0200D488E0BB4B01349C4200D110E13A00B94B51461A4001235007ED08520264050543120B640D7A
:404D40000B400021280012030D0D120B64052D0515436208AF4CDB072C401443640064081C4321001CBC90469946A246F0BDA74B9C42C5D080231B0418436346382B00DD79
:404D8000FDE01F2B00DD30E1624620239B1A02009A40664690460A009940F24046464B1E99413243114363460200DA40691A8D429B410D00BA1A5B42D71A3B0235D57A020E
:404DC000530A98464346002B00D1C4E0404600F06BFB0300083B1F2B00DDC5E020222900D21A4746D1409F400A009D403A439C4200DDC0E01C1B631C1F2B00DDE4E02021EC
:404E000014002800C91AD8408C408D400443DA40681E854117002543002471E7424663461A4300D14CE2674645466B0700D069E7012351467807ED08FA080B400543734923
:404E40008C4238D012036405120B640D79E7002E00DC9AE0002A47D06C4A944200D14FE78022120410436246382A00DC08E10143481E81410022C9B24919D219A942BF417D
:404E80000D007F42BF183A0200D442E15F4A0134944200D14EE101205D4A69083A4028400843D507054357089A4629E706000E4300D017E714E72900114300D1F9E18021A4
:404EC00009030A431203120B3BE701235B429846C4446346002B72D1691A8D429B413F1A5B42FF1A0D0068E702000A4300D107E7012252429046C4446246002A00D0E6E0A3
:404F00006918A942B6413F187642F7190D00BAE7002E00D080E0621C5205520D012A00DCF9E06A1A91464D45B6413A1A7642921B9046120200D499E04D1BA9428941C71BFC
:404F400049427A1A90469A463CE752460123002513400022F5E6280000F0A6FA20300300083B1F2B00DC39E72A002838824000259C4200DC3EE7264FE41A1740C0E6014370
:404F8000481E81410022C9B210E7002E00D0F1E0621C94465205520D012A00DCA0E01B4A944500D1C5E06918A94292413F185242D2194908D5070D4357086446A0E6134B9E
:404FC0009C4200D0D9E69BE611001F3CE1400C00202B00D180E04021CB1A9A4015436A1E95410027254300241FE763460200203BDA406346202B71D0402366469B1B98402D
:405000000143481E814111430022CFE6FF070000FFFF7FFFFFFF0F80002C48D0CA4CA24200D1A2E07442A1468024240427434C46382C00DDDBE01F2C00DD44E14E462024B3
:40504000A41B3E00A640A246B0464C462E00E640B4464646644626435446A5406C1EA54134002C434D46EF400D1B28E04A4643464D461A4300D0A5E6002300240025DEE6D8
:405080001F2A5ADC66462022921B060096409146B04662460E00D640424616434A4691404A1E9141020060463143C240E4E63C002C435AD0F443A146002C52D14D1BA94268
:4050C0008941C71B49427F1A14009A4675E69E4A944200D0C7E613E600227FE700208FE7002C00D0C8E03B002B4300D10FE103000B4300D104E66918A9429B413F185B42E9
:40510000DF193B0200D41AE1904B0D001F406446F6E59A4689E63A002A43002C5CD1002A75D102000A4300D1CAE007000D009A46E6E564460022002581E662460600203AF7
:40514000D6406246B046202A00D1B7E040226646921B904001434246481E8141114300228AE6794CA24200D061E707000D0014009A46C5E5002C41D13C002C4378D0F44389
:40518000A146002C20D0704CA24271D04C46382C00DDB2E01F2C00DDBCE02026341BA2463C005646B4404E46A0462C00F440A446444666463443A4465446A54064466E1E89
:4051C000B54125434C46E7406D188D4289413F184942CF19140056E6002A2FD102000A4300D184E007000D009A46574C88E53D436F1EBD41ECB200270D1B60E7524CA242ED
:4052000036D0744280263604A1463743BEE702000A4300D174E56A1A90464545B6413A1A7642921B9446120200D4F7E54D1BA9428941C71B49427F1A9A4661E502000A4389
:405240003AD0ED087C072C438025FA082D032A4208D0C7082F4205D145072C003A009A46C9080C43670FD200E5001743364C47E507000D00140043E53A002A4343D0020019
:405280000A4319D0ED087C072C438025FA082D032A4207D0C6082E4204D147073C003200C9080C43D700620FE50017439A46264C26E50022002544E5234C21E5002049E7AF
:4052C00000230025BBE54C463E00203CE6404C46B446202C31D040244E46A61BB7403D436C1EA54164462C4300270D1BE7E6802200231203144C0025A1E53D436F1EBD41D6
:405300000027EDB260E707000D000F4CF8E407000D00F5E44E463C00203EF440A0464C46202C0ED040244E46A41BA7403D436F1EBD4144460027254346E70027CFE70D004B
:4053400073E50027F2E7C046FF070000FFFF7FFF0B0330B5134D1A0B4B005B0DC90F0024AB4211DD104CA34210DC8024640322430E4CE41A1F2C0CDD0D48C31ADA401300C3
:405380005C42002900D11C00200030BD094BCC18FAE7E040084CA44663449A4013000343EEE7C046FE0300001D0400003304000013040000FFFFFF7FEDFBFFFF70B5051EE6
:4053C00028D000F071F8154B154A1B1AD21A1F2A16DD2C00134A0025D21A94405A052403240B520D002124030B0D240B1B0523430D4C1205234013435B002800590870BD6F
:405400000B212C00081AC440954024035A05240B520DE7E700220024E4E7C0461E0400003304000013040000FFFF0F808446101C62468C46191C634600E0C0461FB500F02B
:4054400001F9002801D40021C8421FBD10B500F055F84042013010BD10B500F0F3F8002801DB002010BD012010BDC04610B500F0E9F8002801DD002010BD012010BDC046AA
:4054800010B500F07BF8002801DC002010BD012010BDC04610B500F071F8002801DA002010BD012010BDC0461C2101231B04984201D3000C10391B0A984201D3000A08393B
:4054C0001B09984201D30009043902A2105C40187047C0460403020201010101000000000000000010B5002903D1FFF7DDFF203002E0081CFFF7D8FF10BDC046F0B55F468C
:4055000056464D464446F0B41F035C00DB0F9A46194B0E034D00C90F8046360B6D0D8B4691463F0B640D9D4219D0134B9C421BD00123A54206D018003CBC90469946A246CB
:40554000AB46F0BDBE42F6D1C845F4D1D34510D0002DF0D1304303005A1E9341EBE7310001230143E7D1E0E73A430123002AE2D1DEE70023DFE7C046FF070000F0B55F46E0
:40558000444656464D46F0B41F033C0B2C4F0E034D00A3465C008446360B6D0DC90F9046640DDB0FBD422BD0254FBC422ED0002D0ED130430700814678427841002C17D13B
:4055C0005F463A4314D14B460020002B0AD006E0002C02D15846024301D099421AD00123484218433CBC90469946A246AB46F0BD0028F2D058425841012240421043F1E767
:4056000037000743D0D002204042EBE75F461743CDD0F8E7A542E2DC05DB5E45DFD808D000205E45DED248424841012340421843D8E7C445D3D80020C445F4D3D2E7C046F8
:40564000FF070000F0B55F464D4644465646F0B41C03240BA4462F4C0F034D005E00C90F80463F0B6D0D8B469146760DDB0FA54220D0284CA64222D0002D12D13843444260
:405680004441002E20D0002C0DD05C42634101245B421C4320003CBC90469946A246AB46F0BD002E17D05B4519D05B465C4201231C43EFE7390002240143EBD1D9E761468C
:4056C00002241143E6D1D7E761460A43DBD100240028DFD0E9E761460A43E4D1E5E7B54203DD01225C421443D4E7B542CDDB6745DBD809D000246745CCD259464C4261411D
:40570000012449420C43C5E7C845CED80024C845F3D3BFE7FF07000030B50024A24208D0035D651C0C5DA34201D0181B02E02C00F4E7002030BD002310B59A4203D0CC5CBB
:40574000C4540133F9E710BD03008218934202D019700133FAE77047030030B5002A0DD00C7801335D1E013A2C700131002CF5D19A189A4202D01C700133FAE730BD00008C
:40578000F8B5C046F8BC08BC9E467047F8B5C046F8BC08BC9E46704701B40248844601BC604700BF31060008030000000100000001000000000000000503600004000000C1
:4057C00001000000000000000100000006046000080000007034000895050010030018000300000019200102F4010000140004010A000905080000006301000000000000F3
:405800000000000000000000000000BA0000000000000000000000000000000000001D1D0000000001001C0001000028010000000B000000001800000000000002000328DD
:405840000100020003000000002A0000000000000300002A01000201030000001300000028010008040003280100020005000000012A0000000000000500012A01000201EA
:40588000050000000200000030010008060003280100020007000000042A0000000000000700042A0100020107000000080000003801000808000328010002000900000077
:4058C000A62A0000000000000900A62A010002010900000001000000400100080A000328010002000B000000C92A0000000000000B00C92A010002010B0000000100000064
:40590000480100080C000028010000000F00000001180000000000000D000328010020000F000000052A0000000000000E00052A000020010F000000040000005001000858
:405940000F00022901010A030F000000020000005801000810000028010000081C0000001000000060010008110003280100020013000000100000006801000812005BF363
:405980000100020913000000020000007001000813000129010002011300000018000000780100081400032801000200160000001000000080010008150095760100020943
:4059C00016000000180000008801000816000129010002011600000027000000900100081700032801000A001900000010000000980100081800239701010A0919000000B7
:405A000001000000A00100081900012901000201190000002C000000A80100081A000328010002001C00000010000000B00100081B00FAC6010002091C000000010000004E
:405A4000B80100081C000129010002011C0000001E000000C0010008FB349B5F8000008000100000E792CF7DFB349B5F80000080001000005BF3465CFB349B5F80000080C8
:405A80000010000095762EDDFB349B5F80000080001000002397597DFB349B5F8000008000100000FAC6C33E010003000500070009000B000C000E000F000000100012008E
:405AC000130015001600180019001B001C00000074080010800800108C08001098080010A4080010B0080010BC080010C8080010F4080010FE0800100809001012090010E2
:405B00001C09001026090010300900103A09001047656E6572617465645F536F757263655C50536F43365C70646C5C647269766572735C7065726970686572616C5C737948
:405B400073696E745C63795F737973696E742E630000000047656E6572617465645F536F757263655C50536F43365C70646C5C647269766572735C7065726970686572613C
:405B80006C5C6970635C63795F6970635F6472762E68000047656E6572617465645F536F757263655C50536F43365C70646C5C647269766572735C70657269706865726174
:405BC0006C5C6970635C63795F6970635F6472762E63000047656E6572617465645F536F757263655C50536F43365C70646C5C647269766572732F70657269706865726166
:405C00006C2F6970632F63795F6970635F6472762E68000047656E6572617465645F536F757263655C50536F43365C70646C5C647269766572735C7065726970686572614D
:405C40006C5C6970635C63795F6970635F706970652E630047656E6572617465645F536F757263655C50536F43365C70646C5C647269766572735C70657269706865726156
:405C80006C5C737973636C6B5C63795F737973636C6B2E630000000047656E6572617465645F536F757263655C50536F43365C70646C5C647269766572735C706572697009
:405CC000686572616C5C737973636C6B5C63795F737973636C6B2E680000000047656E6572617465645F536F757263655C50536F43365C70646C5C647269766572735C70D4
:405D000065726970686572616C5C6770696F5C63795F6770696F2E630000000047656E6572617465645F536F757263655C50536F43365C70646C5C647269766572735C70BC
:405D400065726970686572616C5C6770696F5C63795F6770696F2E680000000047656E6572617465645F536F757263655C50536F43365C70646C5C647269766572735C7077
:405D800065726970686572616C5C737973706D5C63795F737973706D2E63000047656E6572617465645F536F757263655C50536F43365C70646C5C647269766572735C7022
:405DC00065726970686572616C5C70726F745C63795F70726F742E63000000002400060030000100280002002400020000316253C4F5A697B988DBEA7D4C1F2E4372211050
:405E000087B6E5D4FACB98A93E0F5C6D86B7E4D5427320113F0E5D6CFBCA99A8C5F4A796013063527C4D1E2FB889DAEB3D0C5F6EF9C89BAA84B5E6D7407122137E4F1C2D52
:405E4000BA8BD8E9C7F6A59403326150BB8AD9E87F4E1D2C02336051C6F7A495F8C99AAB3C0D5E6F4170231285B4E7D67A4B1829BE8FDCEDC3F2A1900736655439085B6A52
:405E8000FDCC9FAE80B1E2D344752617FCCD9EAF38095A6B4574271681B0E3D2BF8EDDEC7B4A192806376455C2F3A0914776251483B2E1D0FECF9CAD3A0B58690435665712
:405EC000C0F1A293BD8CDFEE79481B2AC1F0A3920534675678491A2BBC8DDEEF82B3E0D1467724153B0A5968FFCE9DAC47656E6572617465645F536F757263655C50536FE3
:405F000043365C70646C5C6D6964646C65776172655C626C655C63795F626C655F68616C5F7076742E6300003F06000000000000FFFF000047656E6572617465645F536FA8
:405F4000757263655C50536F43365C70646C5C6D6964646C65776172655C626C655C63795F626C655F6761702E680000000000000000000000000000666666660000000057
:405F80000000FFFF000000001C1C1C1C1C1C1C1C00000000000000000000000066E6EE66000000000000FFFF000000001C1A1A1A1A1A0000000000000000000000000000C7
:405FC00066E66666000000000000FFFF000000001A1A001C00000000000404000104080002041400030C200004042C00050648007C01000031010000090901120C00FF0374
:4060000080ABCDABCD80409C1B04041BFFFFFFFF000000000410080007070400F216FBE0FBE01F60427EF56D720096BE2090000010502604060037D7F401FA0096006400D0
:406040004B0032001E00140003040506020D11008DFE0010F1FD00104304011041FF0010F3FF0010EF03011007040110C90401106D000110D5000110B1020110DF020110E5
:4060800017050110DD030110AB040110AB040110AB040110850301102D03011071030110393A0110453A01106D490110554A0110614A01103DFF00108BFE0010870401105B
:4060C000F1FF00102B000110FF0301102104011015050110D10001102D010110CB0201100503011083050110E7030110150501101505011015050110D503011015050110AF
:40610000150501101505011015050110150501101505011015050110B31A0110BB1A0110B71A0110B11A01108F1A01108B1A0110A91A0110A71A0110831A0110871A011065
:40614000BF1A0110AB1A0110A51A0110C31A0110C31A0110811A0110AF1A0110A13101105535011019330110C5300110D523011089200110592B01109D260110F51B0110FF
:40618000591C0110AD360110E52E01103526011009200110E52A0110C5770010952F01104D370110C93A0110153C0110E93C011005390110A9370110513A0110893801106B
:4061C000B3380110C3380110C5380110C9380110AB040110B5380110BF380110BD3801106D4D011065470110D94C0110894C0110254D01106D4A011079490110114A01107D
:40620000D54A0110BDE20010874701107D4701108347011081470110854701107F470110AB040110AB040110AB04011085D1001005600110E75F0110E75F0110E75F011042
:406240001D60011041450210E75F0110314502104945021039450210A36401109B64011005640110FD630110F75F0110DF5F0110D55F0110FB5F0110F5630110256401106D
:40628000EF5F01101D6401107D640110E75F01102D640110156401100D640110E75F0110256001102D60011035600110EB5F0110EB5F011005600110E75F0110E75F0110EB
:4062C000E75F01101D60011041450210E75F0110314502104945021039450210A36401109B64011005640110FD630110F75F0110DF5F0110D55F0110FB5F0110F563011030
:4063000025640110EF5F01101D6401107D640110E75F01102D640110156401100D640110E75F0110256001102D60011035600110EB5F0110EB5F01107D87011071870110D6
:4063400089870110EB5F0110EB5F0110098501104585011015850110398501102D85011021850110518501105D850110658701106589011069890110758901104D89011009
:4063800059890110EB5F0110EB5F0110EB5F0110EB5F0110EB5F0110EB5F0110EB5F0110EB5F0110EB5F0110EB5F0110EB5F0110EB5F0110EB5F0110EB5F0110EB5F011095
:4063C000EB5F0110EB5F0110EB5F0110EB5F0110EB5F0110EB5F0110EB5F0110EB5F0110EB5F0110EB5F0110698501101F7A0110CD780110CD780110CD780110517A011088
:40640000E1790110CD780110C5790110917A0110DB7901106B7A0110617A01104F780110CD780110CD780110CD780110D3770110AF790110F9770110317A0110577901105D
:4064400067790110E1780110CD780110A77A01101D7901100F790110CD7801109B790110DF7A0110CD780110CD780110CD7801102D870110218701103987011065790110D4
:40648000FF78011055840110918401106184011085840110798401106D8401109D840110A98401101587011005890110118901101D890110ED880110F9880110CD78011098
:4064C000CD780110CD780110CD780110CD780110CD780110CD780110CD780110CD780110CD780110CD780110CD780110CD780110CD780110CD780110CD780110CD7801103C
:40650000CD780110CD780110CD780110CD780110CD780110CD780110CD780110CD780110B58401104F7D01107D7C01107D7C01107D7C0110937D0110F97C01107D7C0110B5
:40654000417D0110417D0110EB7C0110A97D0110977D0110F97B0110F57B0110D97C01108D7B01107F7B01107F7B0110917B0110737D0110AD7C0110C17C0110817C01105A
:406580007D7C0110DD7D0110997C0110857C01107D7C0110DD7C0110F97D0110F57D01107D7C01107D7C0110598601104D86011065860110217E01107B7B01109D830110E4
:4065C000A5830110B1830110BD830110A5830110A5830110C9830110D583011041860110118801101D88011029880110F9870110058801107D7C01107D7C01107D7C01104D
:406600007D7C01107D7C01107D7C01107D7C01107D7C01107D7C01107D7C01107D7C01107D7C01107D7C01107D7C01107D7C01107D7C01107D7C01107D7C01107D7C0110BA
:406640007D7C01107D7C01107D7C01107D7C01107D7C01107D7C0110E183011008000000060F0020200107021900000007070E05020220001C1202000103000E0306000455
:4066800000402707000007070102000203070304000000000000000000000000000000000000000000000000000800001F7A0110CD780110CD780110CD780110517A0110B8
:4066C000E1790110CD780110C5790110917A0110DB7901106B7A0110617A01104F780110CD780110CD780110CD780110D3770110AF790110F9770110317A0110577901109B
:4067000067790110E1780110CD780110A77A01101D7901100F790110CD7801109B790110DF7A0110CD780110CD780110CD7801104F7D01107D7C01107D7C01107D7C011054
:40674000937D0110F97C01107D7C0110417D0110417D0110EB7C0110A97D0110977D0110F97B0110F57B0110D97C01108D7B01107F7B01107F7B0110917B0110737D01103D
:40678000AD7C0110C17C0110817C01107D7C0110DD7D0110997C0110857C01107D7C0110DD7C0110F97D0110F57D01107D7C01107D7C011008000000060F0020200107029D
:4067C0001900000007070E05020220001C1202000103000E032000800000C00000000004000000A822000000000000040000F7FFFF7F000000300000000000000000000020
:4068000000000000000000000000000000000000000000000000000035820110ED8301105583011095820110FB8301107D83011065820110098401106183011093820110AD
:406840000D840110798301107D820110FB8301107183011067820110FB83011069830110AB8201101984011085830110B1820110298401108D830110CD7801107D7C0110B7
:40688000EB5F0110CD7801107D7C0110EB5F0110CD7801107D7C0110EB5F0110CD7801107D7C0110EB5F0110CD7801107D7C0110EB5F0110CD7801107D7C0110EB5F0110D6
:4068C000CD7801107D7C0110EB5F0110CD7801107D7C0110EB5F0110BF8201104184011095830110CD7801107D7C0110EB5F0110CD7801107D7C0110EB5F0110CD78011005
:406900007D7C0110EB5F0110CD7801107D7C0110EB5F0110CD7801107D7C0110EB5F011079850110898601102F860110778501107D860110278601109F850110D586011007
:406940003786011075850110718601101F860110CD7801107D7C0110EB5F0110CD7801107D7C0110EB5F0110CD7801107D7C0110EB5F0110CD7801107D7C0110EB5F011094
:40698000CD7801107D7C0110EB5F0110B58701107188011000000000C387011085880110AD4B0110D1870110AF880110DD4B0110958701103588011061480110A387011069
:4069C000538801107D48011089BC0110F9C00110F9C00110F9C00110F9C001108DA7011059A80110F9C00110F9C00110F9C00110F9C00110F9C00110F9C00110F9C001107A
:406A0000F9C00110F9C00110F9C00110A1BE0110EDBE0110CDB501108DB701102DBB0110A996011000000000BC6E00105C6E0010080000008D2B021000000000A46C001095
:406A4000F06B00100F00000000000000000000000000000000000000000000000120000051CC01100620000091CD01100720000065CC01100820000049CD011009200000D7
:406A800059CE01100A20000049CB01100B2000001DCE01100C200000E1CD011010200000ADCB01101120000025CB01101220000025CD011014200000CDCD01101520000009
:406AC000C9CB0110172000007DCB01100E200000B5CB0110ACFD00003BD00110ADFD00002DCF0110A0FD0000A1D00110A1FD00008DCF0110A2FD0000D1CF0110A5FD00000A
:406B000095D10110A6FD0000FDD00110A8FD0000F5CE0110A9FD0000C9CE0110AAFD0000FBCF0110ABFD00005DD10110AFFD0000F9CF0110C3FD000049D10110B0FD000010
:406B4000C5D00110B2FD000011D10110051400000DCC01102D0C0000DDCC01107B0C00008DCC01107C0C000091CE011027200F2028201020292010202B200A202C200B209B
:406B80002D200D202E200C204E2017200000010001000001000102020300020000000000020201000200000100010005010005020203000200000000000205010005000005
:406BC000252402107D2502109124021001010B0102028102820503040403840906090709080909090A09050A0C0B0D0D0E0E00000100000001000000000000000200000053
:406C00000400000002000000030000000700000005000000040000000A00000008000000050000000C0000000B000000060000000E0000000D0000000700000010000000D5
:406C40000F0000000800000013000000110000000900000016000000140000000A0000001700000017000000FF00000018000000180000000B0000001B0000001900000000
:406C80000C0000001D0000001C0000000D0000001F0000001E0000000E0000002100000020000000010000008D550210FEFFFFFF61540210010000008D5502100600000044
:406CC00049570210F8FFFFFF61540210180012007D540210A000000CF551021047FFEDFB61540210E8000C00DD53021000012000F15202101FFED3FF61540210A000000C12
:406D00008D5B02105FFFFFFB6154021000020000FD590210FFFDFFFF61540210000C000019510210FFF3FFFF61540210000A00008D53021001000000B3530210FEF7FFFFC8
:406D400061540210002000004152021000400000A55A0210FF9FFFFF61540210FFFFFFFF69540210FFFFFFFF1151021000800000095102100000010001510210FF7FFEFFCC
:406D80006154021000800100F1500210FF7FFEFF6154021000008003E9500210FFFF7FFC6154021000801F0AF9500210FF7FE0F561540210000000000000000000000000CA
:406DC0000000000087000000000000000000000000000000303030314238303030313032303330343035303630373038303930413042304330443045304631303131313209
:406E000031333134313531363137313831393141314231433144314531463230323132323233323432353236323732383239324132423243324432453246333033313332D8
:406E40003333333433353336333733383339334133423343334433454142000081000000000000000000000082000000010000000100000001000000020000000200000058
:406E8000020000000400000003000000030000000600000005000000F10000000700000007000000F20000000900000008000000FF0000000A0000000A00000002000000A4
:406EC000B95F021001000000B95F02100E000000B95E021002000000015F02100C000000A15E0210020000003D5F02100C000000A15E02100E000000B95F02100C00000064
:406F0000F95F021002000000A15E02100E0000004160021026002B00300036003C0043004B0055005F006A00770086009600A800BD00D400EE000B012B014F017801A60112
:406F4000DA01130254029D02EE024A03B1032404A5043605D9058F065C0742084409650AAA0B160DAF0E79107C12BD1445171C1A4B1DDE2078430010464200104C430010DC
:406F80003C4200104C430010564300104C4300103C4200104642001046420010564300103C420010324200103242001032420010A8450010A4490010644800106448001069
:406FC000624800107C4900107C4900106E490010624800107C4900106E4900107C49001062480010844900108449001084490010844B001000000000FEB507460025694637
:40700000041D0D80183002902068002816D06168002913D0800711D1207A80070ED10298807B00280AD0FBF75BFCFBF7CDFBFBF777FC00F02BFD002802D065E0344D65E0D8
:40704000788C0006C00F00F0A3FD05460004000C5AD13049084601F093F90604360C53D120682289A37A002808D02B49002508608A80CD800B812946FEF766FB684601F0D5
:407080004DFF0546A07A801DC0B20190002D2BD16068019900F090F8050025D1029811F081FE050020D1E068002804D0384600F0E7FF050018D11948174A00786B4681007F
:4070C00001981B880818001DC1B29088D288D618B04207D3C01A801A80B201F05DFC060007D000E00E4E0A4D00F0F0FB002E06D00AE0A07A801DC0B200F03AFAF4E700F037
:4071000019FC08490120087000F0D2FC2846FEBD0100160095740010503500088C370008FFFF00000C03000810B503480078012801D101F0D1FA10BD0C03000810B5FBF7F2
:407140005BFB032801D101F0C1F800F0D9FD01F037FF01F047F90449002008608880C88008810249087010BD503500080C03000870B5044600208A0703D08A07920F891A4A
:40718000091D084B89B2DA889E885518B54206D81D68AA182260DA885118D98070BD024870BD00005035000803001600014800897047000050350008F0B587B00D46074688
:4071C000002089000691009001906846FFF7D0FF844600285DD1304800990160002117E02D4B88001A680629115406D22B4C0419667882185670628805E0C419203CA67A29
:407200008218567022891B68C018491C4280C9B2A942E5D300242DE0601CC2B2059025E01D4FA30039689600581840887118039604904E88B04217D938466F46FE80B6464F
