:020000041000EA
:4000000000400208310100100D000000950100100000000000000000000000000000000000000000000000000000000091010010000000000000000091010010910100109B
:400040009101001079050010910100109101001091010010910100109101001091010010910100109101001091010010910100109101001091010010910100109101001074
:400080009101001091010010910100109101001091010010910100109101001091010010910100109101001091010010910100109101001091010010910100109101001020
:4000C00010B5064C2378002B07D1054B002B02D0044800E000BF0123237010BD203600080000000064700010084B10B5002B03D00749084800E000BF07480368002B00D142
:4001000010BD064B002BFBD09847F9E700000000243600086470001024070008000000007047EFF3108072B6704780F310887047FFF7F6FF72B6104C104DAC4209DA216883
:400140006268A368043B02DBC858D050FAE70C34F3E70B490B4A0020521A02DD043A8850FCDC094809490860BFF34F8F00F064F900F01EF8FEE70000087C0210207C02103A
:40018000203600085C4700080000000808ED00E0FEE7FEE700B504207146084202D0EFF3098001E0EFF30880043001F08FFFFEE710B562B6074800F06DFB01E007F0EEF853
:4001C000054B1B78022BF9D1044800F0A9F907F0E5F8FCE7E1010010384700080000081070B50C00214B98420CD004D880235B01984207D038E01E4B98420BD01D4B9842A8
:400200000CD031E020221C4B5A600021002002F01BFC29E02022184B9A6025E00B89182B04D108000C3002F071FD1AE01E2B18D1124B1B78002B14D00022104B1A700A6883
:40024000117853781B02CB180D4D6B6020000C30210002F05BFD0B4B2A000021012000F071FEE0681FF048FA70BDC04608400000015000000C50000000053240E0000008FD
:40028000E40000086D05001070B56249E0239B00CB580F2213401A00D0329200525807210A40032A05D0042A06D0002A12D15A4814E05A4A106811E01A00C03292005549FF
:4002C00052581F210A40112A06D0132A04D0FA20C00103E0524801E080200002002B36D14C4BB222D2009A5801211140B125ED005A59120F032422405B591B0F1C4207D0C6
:40030000444C63591B0F03242340012B02D102E0012300E00023002B01D0002901D1032A4BD13C4BB022D2009D58AD03AD0B3D495958C904C90C9C58240E01231C40013439
:4003400003F044FC6843210003F040FC35E0012B33D1304BC822D2009A5801251540C024E4001A59120F03210A401B591B0F194207D028490B591B0F03210B40012B02D15F
:4003800002E0012300E00023002B01D0002D01D1032A12D11F4DC022D200AB587F210B40A958090A1F263140AC58240C3440584303F00CFC210003F009FCE0239B00154AFD
:4003C000D3581B0903221340D840144C6060164B1D692D0AFC32154001351969090E013103F0F4FBA060290003F0F0FB0500E06020610E4BC0180E4903F0E8FB20750D4B62
:40040000E818FA21890003F0E1FBA061C003E06170BDC0460000264000127A00C000000800366E0184050000000021403F420F0040420F00E703000010B5234BB021C900F0
:400440005A58520052085A50E02080001A583024A2431A50802252045A501C491C4A9950A021890104329950FF211A4A995081315A58920092088020C00502435A505A581C
:400480008020000602435A505A58012082435A5000F09EF9FFF7F8FE00F076F800F07EF801F0B4F9B0235B055B78002B04D0B0235B055B78DBB200E02123212B03D1064B63
:4004C0000022DA605A6010BD0000264001000200840500008C050000E00023408023024AD3580320184070470000214010B5FFF718FE084980228C58074B2340074C234390
:400500008B508823034AD358DB06FAD5FFF70DFE10BDC04600002140FCFF00000100FA0570B50500FFF7FDFD0400FFF7D7FF032801D1FFF7DBFF0A4AB0239B00D55080219E
:400540005058084B03400848034353508823044AD358DB06FAD52000FFF7E7FD70BDC04600002140FCFF00000300FA050122014B1A707047E000000810B5024800F07CFD95
:4005800010BDC0463C36000810B5034A60328021042000F0F9FA10BD3C37000810B501F000FE0400044800F0F5FB044800F064FC200001F0FAFD10BD3C36000830570010F4
:4005C000FEE7C04680221206044B1A6081225200034B1A60034A044B1A60704700001D4100031D4101001180000E1F41F0B587B0624D634C2B5980273F063B432B5101207F
:4006000001F00AFD2B59C022D20513432B51A021C9006A5803239A4313436B5001AE594C04222100300005F048F8300003F088F9554A9020135855490B40135013691B0210
:400640001B0A8020400403431361136919401161E0239B00EA580F218A43EA50EA5821318A43EA50EA581743EF500021012000F065FD0021022000F061FD0021032000F08A
:400680005DFD0021042000F059FD0021002000F055FD3300211D15C915C305C905C3300000F094FD002802D00420FFF789FF3349374A8B588020000603438B50354800F0B4
:4006C0003DFE002802D00420FFF77AFF2B4C324BE158324A0A40E250E158314A0A40E250E25880252D062A43E250043BE1582D4A0A40E250E1582C4A0A40802189010A4350
:40070000E250E258802109020A43E250274A1168274B0B40802149000B431360002001F047FD244AA3581D43A550A3580125AB432B43A3506421002001F0E0FC1E4B002151
:400740001E4A9950802000011958104A11408C24A401214319508021C90019485850585818481D5018481C582240C424A40122431A50164A5A505B5807B0F0BD0000264040
:400780003C0500006C57001000002140FF00FFFF087F0000400D030004050000FEFCFFFFFFFF00FFFFF0FFFFFF8FFFFF00002740FFFCFFFF0C05000000000140140C0000A7
:4007C00000FF0080E40C00000408000001FF008070B58AB09621002001F090FC01F066FC002801D101F052FC012001F07DFA224A516C224B0B40E82189010B435364536CFE
:400800001B0AFF2213403A2B07D11B4A516C1C4B0B40E82189010B435364FFF7E7FE01AD184C2A002300183343CB43C243CB43C243CB43C22900144801F0BCF82A00230041
:400840003C3343CB43C243CB43C243CB43C229000E4801F0AFF82A002300603313CB13C213CB13C213CB13C22900094801F0A2F8FFF7A8FE0AB070BD00002740FF00FFFFD4
:40088000FFC5FFDF6C57001080023240000332400005324010B5002814D00B4BD8620B4B1B78002B08D10848094B436301F018FD0122064B1A7000E00020002803D101F05A
:4008C0003DFD00E0034810BDEC000008CC370008645700100100160010B583089A00801AC000FF228240D44381400A40072B32D89B001949CB589F46184B196A0C402243C4
:400900001A6228E0154B596A0C4022435A6222E0124B996A0C4022439A621CE00F4BD96A0C402243DA6216E00C4B196B0C4022431A6310E0094B596B0C4022435A630AE0AF
:40094000064B996B0C4022439A6304E0034BD96B0C402243DA6310BD405B00100000214083089A00801AC100FF228A40072B2BD89B001748C3589F46164B186A1040C84062
:4009800023E0144B586A1040C8401EE0114B986A1040C84019E00F4BD86A1040C84014E00C4B186B1040C8400FE00A4B586B1040C8400AE0074B986B1040C84005E0054BC9
:4009C000D86B1040C84000E00020C0B27047C046605B00100000214070B504000D000B4B9A680B4B9A420BD1002903D1FC21094801F038FB1034064BA400E058E55003E04D
:400A00001034A400044BE05870BDC04600ED00E000000008805B001000000010F0B583B0041E019150D04368032B03D93621294801F018FB0023E05E002802DBA178FFF7A2
:400A40004BFF0023E25E6368002A12DB9008224EC0308000875903210A40D200FF25290091408F4399012B000B4093403B43835117E092B20F2111400839890806318900DC
:400A80001648844661444E6803200240D200FF2738009040864398013B000340934033434B600E4B9A680E4B9A420FD1019B002B03D14521074801F0D5FA0023E05E0199FF
:400AC000FFF78AFF002002E0064800E0002003B0F0BDC046805B001000E100E000ED00E0000000080100560070B504000D000369002B0ADA0B0C03D00549064801F0B2FA15
:400B00002D042D0C6560002000E0034870BDC046B3020000C45B001001008A0070B505000C000368002B01DA002300E0084B002B0BD1EA60230C03D00649074801F092FA2E
:400B40002404240CAC60002000E0014870BDC04601008A009A020000C45B001070B505000C1E03D19921064801F07CFA2B69002B03DAEB682360002000E0024870BDC046B9
:400B8000045C001001008A00F8B504000E0015000F283FD8002A10D100290ED10F2804D9AA21FF31214801F05DFA6401204B9C466444204B1C60002037E0002D2CD0002E76
:400BC0002CD0F3062CD10F2C04D9AA21FF31174801F048FA6401164B9C466444154F3C607E60BD60F2080021280004F06FFD00212000FFF779FF3A0001CA0021FFF78EFF18
:400C000000280FD10B4B18680021FFF76DFF00280AD10AE0084808E0074806E0064804E0054802E0054800E00448F8BD445C001000002340F437000803018A0001018A000A
:400C4000F0B583B00D001C4B1B68DC68236883422DD947097B01C01A012383401E00002903D101F09EFA019001E000230193124B18680368002B01DA002300E00F4B002BDB
:400C80000ED16368BF00DF193B68334203D133433B60002400E00A4C0021FFF725FF00E0084C002D04D1019801F07FFA00E0064C200003B0F0BDC046F437000801008A0092
:400CC000020188000301880004018A00F0B583B00D001C4B1B68DC68236883422DD947097B01C01A012383401E00002903D101F058FA019001E000230193124B1868036889
:400D0000002B01DA002300E00F4B002B0ED16368BF00DF193B68334203D0B3433B60002400E00A4C0021FFF7DFFE00E0084C002D04D1019801F039FA00E0064C200003B002
:400D4000F0BDC046F437000801008A00020188000301880004018A000A4B1B68DA68136883420BD943095901401A0121814052689B009B580B4203D0034802E0034800E07B
:400D800003487047F43700080101880004018A0000018800034B1B68002B01D1014B18607047C04600380008F0B5474680B404000F0090461E002B4B1B68002B03D1B42193
:400DC000294801F04FF9072C03D9B521264801F049F9244B1B682C2060431C18FF22150035402560330A13406360330CA3600F2D04D9AA21FF311D4801F034F96B011C4A80
:400E000094466344236165680F2D04D9E2214900164801F027F96D01164B9C4665446561A668330C04D0F1214900104801F01AF9330C04D0E421FF310C4801F013F9360441
:400E4000330C1E43AE604346E36127620023A361069B002B02D000229B5EA38104BC9046F0BDC04600380008845C0010445C00100000234000102340F0B58FB0041E03D191
:400E800050212E4801F0EEF86368032B03D952212A4801F0E7F8E36A002B03D15621274801F0E0F8E368072B03D95721234801F0D9F8236A072B03D95821204801F0D2F8BA
:400EC000236B002B03D159211C4801F0CBF807AA1300210061C961C321C921C302AD290023001433C1CBC1C141CB41C10821535E0CAE3380079B1933B370089B0D930B9B33
:400F00000A980096A26AE16AFFF74EFF2B69E868002200920021FFF747FF216B3000FFF77DFD0023F25E002A05DB1F231A401E3B9340034A13600FB0F0BDC046845C001057
:400F400000E100E0F8B504000F0016001D00002A03D1FD21284801F085F8284B1B68002B03D1FE21244801F07DF8072C03D9FF21214801F077F8072F04D9802149001E4882
:400F800001F070F81D4B1B682C2120004843181879435918012213004C68A3401B044468A24014000269002A20D08F69002F1FD11268002A01DA002200E0114A002A19D17E
:400FC00032681204120C134333600369DE6001238B614D620569230C03D00A490A4801F041F82204120CAA60002004E0074802E0074800E00648F8BD845C001000380008AD
:4010000001008A009A020000445C001004028A0007028A0070B504000D001600134B1B68002B04D16221FF31114801F01BF8072C04D9B12149000E4801F014F80B4B1B6822
:401040002C2060431C18236A002B04D1B3214900074801F007F8E369B34204D9236AB6009D51002000E0034870BDC04600380008845C00100A028A0070B582B00400002353
:401080000193002804D1EA2149002B4800F0EAFF2369002B04D1D621FF31274800F0E2FF6369002B04D1EB214900234800F0DAFF236A002B04D1D821FF311F4800F0D2FFD9
:4010C0006269D5682B0C1FD01B041360136820690369002B18DA01A9FFF740FD00280ED1019803681E0CFF221340E269934207D29B00226AD358002B02D0984700E00026F0
:4011000031002069FFF7F0FC2D042D0C0FD063691D601B68636A002B03D098470023636203E0A36A002B00D098470023A36163691B6802B070BDC046845C001004281DD836
:40114000042904D94B1EFF3B9BB2132B18D8FF290CD91F2319400B4A0300C0339B009950D03080000423835000200AE007231940D0308000034BC150002002E0024800E0BE
:40118000014870470000264001004A0010B50400042804D91621FF310A4800F063FF2300D0339B00084A985807231840042807D1C034A400A3581B30184080235B00184389
:4011C00010BDC046C45C00100000264070B5041E04D1E221FF314C4800F044FFB023DB004A4AD358002B01DB002500E0484D002D00D086E0474B22689A4204D9F8214900C8
:40120000414800F02FFF23689B03990BE3791B068022520413400B43B022D2003B498B50A2883D4B9A4204D9F821FF31364800F019FF2289394B9A4204D9FC21490032481F
:4012400000F010FFA388DB04D90C23891B04344A13400B43334A2D498B50A37A0F2B04D9FF214900284800F0FDFEE37A0F2B03D92A49254800F0F6FEA289274B9A4204D943
:4012800080218900204800F0EDFEA37A0F211940E27A1201FF2313400B43A289120222490A401343A27B1207C02189050A401343B122D20015498B50A379072B04D98221AE
:4012C0008900114800F0CEFE228A144B9A4203D916490D4800F0C6FE0C4815494658154B1E40A3791B02E022D2001340334343504658114B1E40238A1B04094A134033436E
:401300004350280070BDC046C45C00100000264003004A00FFFF0300FF1F0000FF0100000000FF018405000000FF1F00090200008C050000FFF8FFFFFFFF00FE70B505005F
:401340002D492E4A8B588020000603438B502C0003E0012000F07AFE013CB223DB00264AD3585B0701D4002CF3D12349B122D2008858234B03408020800503438B50002D79
:4013800002D00ED0002C0CD01B49B022D2008B588020000603438B5003E0012000F056FE013CB223DB00144AD358DB0701D4002CF3D1002D0ED0002C0CD10F4AB021C90057
:4013C00053585B005B0853500C4953585B005B0853500BE0084B0221B222D2009950B121C9005A58C020800502435A50002C01D1044800E0002070BD000026408C05000081
:40140000FFFFFFCF02004A00F0B5474680B45B4B98426FD89A4274D8594B994278D80124584B1C70FF2806D80E3404400F250F239C46072021E0544B984206D80F26304025
:401440000F2500239C46002417E0030A0F2633404E4CA04208D80001F03630401843FF2500239C46002408E00002F026360130401843474D00239C460024FF2A10D81201E5
:40148000FF231A401443E022D202024316000F3B62461A439446F0273F032F4300203DE0394B9A4208D81204F0273F033A40104306002F43002031E0160A3604F0231B0347
:4014C0001E403043314B9A420AD81205F0231B041A4010430600FF273F042F4300201DE01206F0263605324010430600294F2F43002013E0002700239C46002600242648D8
:401500000CE0002700239C4600260024224805E0002700239C46002600241F4800282AD11E4B1B68002BFBDA164B5B78002B04D01B4B1C4AD358002B19DA1B4A1B4B1A6081
:401540001B4A1C4B1A60174BA322D20090469D58624695432C4342469C50174C1A59BA4332431A51074A51600D4A995000E0134800220A4B5A6004BC9046F0BD0F06000045
:40158000FFFFFF0004380008FF040000FF0500000F0F000000000F0F01004A00E00023401C050000000026401F1F0000080126403D3D0000040126401405000003004A009A
:4015C00070B582B000220023009201932C4B1A702C4B1B68002BFBDA2B4B1A682B4B9A4206D12B4B1A682B4B9A4203D0002502E0002500E00125A423DB00274AD458240259
:40160000220A0023009201931E4B00225A60002D2DD0009A019B1A4329D0002815D1184B58680A000023002102F066FC009C019DEE07620832436B0880185941009A019B7E
:4016400002F03AFC0090019115E0009A019B0800002102F051FC0A4B5A685408002500196941002302F028FC0090019103E000220023009201930098019902B070BDC04672
:4016800004380008E0002340080126401F1F0000040126403D3D000000002640F0231B06C3180F4A934201D8580A18E0EC231B06C3180C4A934204D85B0A80204002184387
:4016C0000DE0EA231B069C466044064B984204D8400A80229202104301E0012040427047FFFF0F00FF7F000010B50400FFF7D6FF431C03D0E40503D0002002E0002000E025
:40170000012010BD214B984230D00ED8402831D004D800281FD010282AD031E080282BD080235B00984229D02AE0194B984229D007D8A0231B0698420DD0164B984212D0A4
:401740001EE0154B98420AD0144B984209D0144B984215D101E0002016E0124814E0124812E0124810E0A020C0030DE007480BE00F4809E00F4807E00F4805E0034803E0B9
:401780000E4801E0A420C0037047C04606005200010000F0090000A0040000F0050000F0030000F0010052000200520003005200010050000200500005005200FF00520099
:4017C00010B50C4B1B69002B11DB0B4B1868FFF799FF0121094B0A4AD150084B084AD358002BFAD1074BD358002BF6D100E0064810BDC04600002340103800080C040000EA
:40180000000025408C0400000200500010B5022202490020FFF7FEFB10BDC0467D07000870B504000D00FFF75FFF002827D0002D27D0FEF729FD144B144A1A6000225A60C4
:401840009C60DD60124B19691A69120AFF2313405A1C0B0E013353430E4C5C430E4B1868FA21890002F0B2F90100200002F0AEF90A4BC1188020400003F052FF02E0084892
:4018800000E0074870BDC046103800080001000500002140C0EA2101C4000008482600000600520010B5FFF78BFF10BD10B50400FFF71AFF00282AD0FEF7E6FC154BE0226C
:4018C00052051A601A68802149000A431A605C6000229A60DA60104B19691A69120AFF2313405A1C0B0E013353430C4C5C430C4B1868FA21890002F069F90100200002F0AF
:4019000065F9084BC118002003F00AFF00E0064810BDC046103800080000214060F59000C4000008980800000600520070B504000D00FFF7D9FE00282ED0002D2ED0FEF75D
:40194000A3FC174BC022D2041A601A68802149000A431A60832252005A609C60DD60114B19691A69120AFF2313405A1C0B0E013353430D4C5C430D4B1868FA21890002F066
:4019800025F90100200002F021F9E1239B00C118002003F0C5FE02E0054800E0044870BD1038000800002140808D5B00C40000080600520070B505000C00002848D000292A
:4019C00048D0FF230A689A4303D08D21224800F049FBFF2322699A4303D08E211E4800F041FBA3685B0D03D08F211B4800F03AFB63685B0A03D09021174800F033FBE369A6
:401A00005B0F03D09121144800F02CFB236A5B0F03D09221104800F025FB104BEB18DB090F4A944663441B0122682A60E268AA622269EA6262692A63A2686A626268AA61E3
:401A4000A2696A63E2691A60226A5A60002002E0044800E0034870BD4C5D00100000CEBF0010030401005A0010B5074A074813580F24A34302210B43135004381358A343DB
:401A80001943115010BDC0460000214004F0000010B5074A074813580F24A34303210B43135004381358A3431943115010BDC0460000214004F000000449054A8858054B45
:401AC0000340C020C00103438B5070470000214004F00000FF8FFFFF0449054A8858054B03408020C00103438B5070470000214004F00000FF8FFFFF10B5002000F072FBDE
:401B0000B0235B055B78002B04D0B0235B055B78DBB200E02123222B03D8002803D1013002E0012000E0002010BDC04610B50400002000F057FB00280AD114498A69144BE1
:401B40001A40240680235B041C4014438C611BE0002C01D00F4A00E00F4A01210F48FEF7DDFF00280DD10D4B1B69002BFBDB0B4BDB681B0E1B06A0221206934203D00848D3
:401B800002E0074800E0002010BDC04600F02540FFFFFFFE0101003001000030000023400400420070B50400022805D0052803D02349244800F056FAFFF79EFF00283CD0BE
:401BC00000F0EFFA0600022C10D10120FFF7AEFF051E18D1FFF748FF1B494B6907229343043A13434B61FFF767FF0CE016494B6907229343043A13434B61C82000F026FA01
:401C0000FFF76AFF0025002D13D10F494B69072293431A000723234013434B61052C08D1C82000F013FAFFF733FF0020FFF77EFF0500300000F0B9FA00E0044D280070BD53
:401C400037060000CC5D0010000026400300420010B50400012803D90D490E4800F002FA002C03D10C4B5869C00F00E00020012C0CD1094B9B695B0005D4074B9B69002BDF
:401C800003DA012002E0012000E0002010BDC0469C060000CC5D00100000264070B504000D00072803D90D490D4800F0DBF90D4B9B690722134021009C420DD0094882696F
:401CC0000726B243344014438461002D04D0994202D9C82000F0BAF970BDC046FC060000CC5D001000002640F8B50500012804D9EA21C900294800F0B5F9FFF7FDFE002848
:401D000048D000F04EFA0700002D17D1E823DB00B0225205D65CF6B20120FFF707FF041E1FD1FFF7A1FE1E481E4943581F229343143A13434350FFF7BFFE12E01A4BB022F8
:401D40005205D65CF6B21648164943581F229343143A13434350092000F078F9FFF7BCFE0024002C12D10E490E4A8B581F20834306401E438E50012D08D1163800F066F95F
:401D8000FFF786FE0020FFF7D1FE0400380000F00CFA00E0054C2000F8BDC046CC5D0010000026401CFF0000410700000300420070B5040000F0F5F9002C05D01A4B1B684F
:401DC0001F2B03D9002502E0002500E00125002D25D0E368002B1FD02368002B1ED0124B59680B00002203E0A34204D01A005B69002BF9D100E00025002D10D0002902D198
:401E0000094B5C6000E05461226100236361064A13680133136002E0002500E0002500F0C4F9280070BDC0462038000870B5040000F0B7F9174B1A68002A25D059680B0015
:401E400002E0A34204D05B69002BFAD1002500E00125002D19D0A14207D14B69002B0CD00C494B600021196107E019695C694C615969002901D01B690B61013A054B1A602F
:401E8000002A02D15A6000E0002500F08EF9280070BDC0462038000870B584B005000E00042803D929492A4800F0DCF8731EDBB2012B07D9042E05D0082E03D02549244804
:401EC00000F0D0F8042E01D0012E1DD1224B5C68002013E023799D420FD1A368002B01D01E420AD1E36801A85A6842609B688360067023689847184B9C606469002C23D0C0
:401F0000164B9842E6D11FE0134B9C68022E02D1002C00D02469002011E023799D420DD1A368002B01D01E4208D1E36801A85A6842609B6883600670236898472469002C41
:401F400002D0064B9842E8D104B070BD95080000CC5D00109608000020380008FF00420070B50500012804D94E21FF311B4800F079F81B4B1B68002B05D001210020FFF701
:401F80008BFF040000E00024002C20D100F009F90600134B1B68002B03D004210020FFF77BFF104A136904218B431361012D01D030BF00E020BF300000F0F7F8084B1B6817
:401FC000002B09D008210020FFF766FF04E002210020FFF761FF044C200070BDCC5D00102038000800ED00E0FF00420010B500F0D8F8074B5A6807490A40E824A40122432F
:402000005A605A68114059605B6800F0CEF810BD00002640FF00FC0F10B5040006E0084B186800F0B5F8074B9C46644480231B029C42F4D8044B1868604300F0A9F810BD2F
:40204000DC0000080080FFFFD800000810B5034B1B78584300F09CF810BDC046D400000801BEFEE770B50D00044C18220100200003F034FBA5610020FFF7F2FF700A000878
:402080000122014B9A60704700002540054B802212069A649B6C002B01DB002000E002487047C0460000274003004600054B8022120198585B68FF221A4202D08023DB0247
:4020C0001843704700002640FEE7C04610B50A4B0268DA6142681A6282685A62C2689A620269DA6242691A6382695A63C2699A63FFF7EAFF10BDC046700A0008F0B500282C
:4021000001D0192200E064228A42924152421C4BE8256D005C590327BC433A4014435C515C59184E34405C51D03D5C59BC4322435A515A5916405E51002805D010290DD9DC
:4021400021290DD8012014E01D290BD93A290BD957290BD978290BD803200AE0002008E0022006E0002004E0012002E0022000E00420054A13680F218B4303431360F0BD4A
:4021800000002140FFFCFFFF00002540000000000230800803D001300238FCD1C046C0467047EFF3108072B6704780F310887047042805D1094A116804230B4313600CE023
:4021C0000006C0239B04184090239B00044AD050024A136804218B431360704710E000E00000214010B504000F2803D9E4210548FFF738FFA402044B9C46644423680F209A
:40220000184010BD0C5E00100040244070B50378012B02D0082B44D049E0294B1B78012B47D00320FEF798FD264B984243D001F0ABFC012841D0022005F0B4F80500FFF768
:40224000B0FF214B186005F0BAF80400062817D0022D0AD1022006F041FF032C01D0052C10D1002810D0194C13E0012006F036FF022C0BD000280BD1FFF772FE134C08E031
:40228000002406E0114C04E0002402E00F4C00E00E4C0E4B9C4211D10B4B1868FFF785FF0CE0094B1868FFF780FF002406E0074C04E0064C02E0054C00E0044C200070BD57
:4022C00038470008010188004C380008FF00420010B50248FFF7AAFD10BDC0466404000810B5002817D00D4B5860C36A002B01D00A4A936000240A4B1C700A4B1C700A4B82
:402300001C600A4B1C7000F097FB094B1C70094B1C70002000E0084810BDC0464C380008484700084C470008504700084D470008374700083C4700080100160070B590B055
:402340000CAE102510222A49300003F0B6F902AC28220021200003F0B9F9264B0293A660254BA3810423A373244A526812692261234A62611B2222836283183A227763775A
:402380000233A377E5771A33E5540133E55451336384023A4C3BE2541A48FFF709FD04F0E5FF08A805F078F800281FD1164B039302A805F019F8002815D10122134B1A70F8
:4023C0000023134A1370134A13700C4B5B681A6A00929B6ADB886A46938090235B00D38068461DF0FFFF00220B4B1A6010B070BD4C5E00104D2E0010542900004C38000858
:402400009610000064040008AC0A000838470008404700084147000850470008014B024AD050704778F0010000003C4010B50DF0B5FB044B1B68002B02D0002800D0984717
:4024400010BDC0465838000810B5002809D0FA23FF33994207D80A00044903F02EF9002002E0034800E0024810BDC0460708001601001600F0B55F4656464D464446F0B484
:40248000B14CA54481460E00904605930B00AF4A914204D942468A18AD498A4211D9AD4A934204D94246B218AB498A4209D9AB4A934200D823E14346F318A94A934200D9F1
:4024C00022E1A84B5B695B0010D5A64B5B6907241C40022C25D10520FFF764FB0190A24B9842F8D003940123049324E09F4B9D4AD3581F221A40E823DB00B0214905CB5CCF
:402500009B1A5A1E9341DBB20493002B0FD10120FFF7EAFB944B9842F9D001900523039309E00394012304930023019303E005230393002301938E4B019A9A4204D1D62138
:40254000FF318C48FFF78EFDF0231B069C466644730A9A465C0200210320FEF771FB0028F9D100250023029399E0B4421BD3BD4219D24A4652191078804606A84146C1540D
:40258000594600290DD1802149058846A044414609786846017001781278914201D001229346013505E080225205A218127806A8C2540134013304E0002100238B468446C2
:4025C00047466D4A9342D0D959466046B846002962D0019B002B5FD1059B002B51D1C83300951D00B3465646A24680231B03F7187F023800FFF75AF90400013D0120FFF742
:4026000025FDA423DB0322001A409A4201D1002DEBD122000294009D5446B2465E46574B9A4205D1FFF73EF9554B9842FAD00290029B002B19D1C83300971F00A34606A9E3
:402640000098FFF773F90400013F0120FFF7FEFCA423DB0322001A409A4204D1002FEED102945C4601E002945C46444B029A9A4211D1FFF717F9424B9842FAD00290012027
:402680000AE0802000035044400206A9FFF7C8F80290012000E0012001239C46E244029B019A134301D1454586D3002801D0FFF7E7FC00210320FEF709FB0028F9D1019B92
:4026C000002B25D1274B5B695B0009D5039B022B06D10220FFF766FA0190234B9842F8D0204B1B681B0213D4049B002B10D10020FFF7FAFA01901C4B9842F8D008E0002343
:402700000193204B029303E0002301931D4B0293019B002B0CD11C4B029999420AD0194B994207D0002901D1002004E0174802E0174800E0174887239B009D443CBC90462B
:402740009946A246AB46F0BDE4FDFFFFFFFFFF0F00001010FFFFFF1300800014FF070016000A001600002640040042001CFF0000030042005C5F0010FF01000001005000E1
:4027800002005000060052000200520013001600120016000100160010B500280AD0FA23FF33994208D8F93BFF3B0A000349FFF761FE02E0024800E0014810BD0708001682
:4027C0000100160010B50023FFF754FE10BDC04670B5C0B005000C001600802252000849684602F06AFF05E02A7872406B469E5C0135013C002CF7D1300040B070BDC04617
:402800005C5E001010B50022FFF7E2FF10BDC04600207047B0235B05588880B27047C0460020704710B5FFF711FC10BD064B1B685B6B00229A5E002A05DB1F231A401E3B45
:402840009340024A136070475038000800E100E0094B1B685B6B00229A5E002A0ADB1F231A401E3B9340802204498B50BFF34F8FBFF36F8F7047C0465038000800E100E018
:40288000A023DB00024AD358032018407047C04600002640024B034AD058C00F7047C0461C0500000000264010B5FEF789FE10BD70B504000D0016000320FEF74DFA054B87
:4028C000984205D0320029002000FEF79DFD00E0014870BD0101880003004A0070B5431ADC171B196340934227D3164B164CE458A405A40D884208D9401A510840181100B7
:4029000001F064F9201A0ED50AE0081A51084018110001F05BF900190C4B984202D802E0002000E00A48084D06496B589B0A9B028205920D13436B5001E000240020201A82
:4029400070BDC0463C05000000002640FE030000FF03000010B5034B1A6880210902FFF7BDFF10BD7C04000810B500F0B5FF0220FFF754FD094C2368586B0949FEF74EF830
:4029800023685B6B00229A5E002A05DB1F231A401E3B9340034A136010BDC046503800082D24001000E100E00420704710B5FFF7F8FB10BD10B5FFF7F8FB10BD10B5FFF709
:4029C000CFFA10BD10B50021FFF768F910BDC0467047C0467047C0460020704700487047110016000048704711001600004870471100160000487047110016000048704749
:402A0000110016000048704711001600004870471100160000487047110016000048704711001600004870471100160000487047110016007047C04610B5024800F0B6FD1C
:402A400010BDC0465C04000870B5022875D8002975D10022002306E03C4CE45C012C01D90132D2B20133002BF6D0012A0CD1384B1B681C688A0052189300E3185B681B79CF
:402A8000023BDBB2012B5CD8324B1B78002B5AD1314B197000281DD12D4E34688B005B189A0023689D18CB00591A4B006168C918898829822168891849686468E45A0C801C
:402AC00031680C68A446624452684968CB185B8853801FE001281DD11D4D2C688B005B189A0023689E18CB00591A4B006168C91889893182216889184E686168C918098934
:402B0000318029680C68A446624452684968CB185B895380114B18700D4B1B6818680E4B1B789A00D3189A00801819F0C9FB00280AD10122074B1A7006E0094804E008482E
:402B400002E0084800E0084870BDC046404700085038000841470008364700084D4700080100160002001600FF00160070B5002907D1154B1B681B689968CE7F002300258A
:402B80000FE0114B1B681B68D968CE7FF6E7CA5C002A0AD00133CC5C1B2C01D09B1800E00125B34201D2002DF1D0002D0BD001338279CA54002204E0D4180134855C0D558D
:402BC0000132052AF8D970BD5038000870B505001DF026FC041E24D1134B19682B899A00D2189300143B0A6A944663445A68920117D5EA7B1B695B68C8691B1A500080184C
:402C0000C0180A4BC018AA88296802F056FDEB7B074AD35C012B04D1064A117802230B431370200070BDC04650380008444700083C4700083747000870B586B00400028960
:402C4000164B1B685B699B889A4223D101A80300220062CA62C300238381A389C38140230374FFF7B3FF051E0ED123681B789B0705D50B4B1B6821000A48984704E0084B83
:402C80001B68210008489847084A137801218B43137000E00025280006B070BD503800085438000805000100060001004847000810B54288531E9BB2212B1CD84478002CA4
:402CC0001BD1104B196893009A189300143B0A6A944663445A68920111D51B695868C969411A63001C19641807496118022202F0E4FC002004E0012002E0012000E00020E9
:402D000010BDC046503800084447000870B586B006000C1E16D0002816D001AD14220021280002F0D3FC2B0007CC07C3022231001220684402F0C1FC40232B742800FFF766
:402D400045FF02E00E2000E00E2006B070BDC04630B583B004000D0006220021684602F0B5FCA3896A4613802389538012231371074B1B78DB0709D4002D04D05571684685
:402D80001CF098FC02E0E0681CF0B6FC03B030BD4847000810B5002811D00023002406E09A0011495258904200D1012401330E4A1279934206D2002CF2D0002303E0002417
:402DC0000A4B00E00023002B0CD1002C0AD1064A1279002A05D104499400605001320A7100E0034B180010BD54470008010016000300160070B506000D000020002406E00A
:402E0000A200074BD3582900300098470134044B1B799C4203D2034B1B78DB07F0D470BD54470008484700088379002B06D000200AE0C25C002A06D1013300E00023052BF5
:402E4000F7D9002000E001207047C046F0B5474680B48CB004000D00BD4A117801230B43DBB21370BB4B984200D115E231D8BA4B984200D1C6E015D8B84B984200D1EAE073
:402E800007D8023B984257D0B54B984200D1DEE071E3B44B984200D11CE1B34B984200D164E368E3B14B984200D149E208D8B04B984200D19EE0AF4B984200D120E15AE39D
:402EC000AD4B984200D1EBE1AC4B984200D133E251E3AB4B984200D10CE316D8A94B984200D1C0E208D8A84B984200D1D8E1A74B984200D164E23EE3A54B984200D1CFE232
:402F0000A44B984200D1D3E235E3A34B984200D1FCE208D8A14B984200D1EFE2A04B984200D1EFE227E39F4B984200D1F2E29E4B984200D140E21EE39C4B1E683000FFF747
:402F400073FF00280CD030001AF098F9974E00213068FFF70BFE30680121FFF707FE37E0934B19688B6A1B79002B22D0B0204005904BC35C3F2213408F4E865D324092011A
:402F80001A438E4BC65C1F2333401B031343C022D200805C7F220240520413430A6B1370834A1168096B180A48701268126B1B0C93707F4E3368186B1AF060F93368186B58
:402FC0000021FFF7D3FD3368186B0121FFF7CEFD774B1B68986A02301AF000FD0822784905A802F06AFB05A81AF06CF90222754B1A70C0E20023734A1370734A1370FFF7B5
:4030000067F9B8E2714B1B68DB0700D5B3E205AE03220021300002F059FB654F3B689B6A1B785BB2337030001AF066F93B689B6A5B785BB2337001277770FF23B3703000B5
:403040001AF05AF9614B1A6817431F6093E22900FFF7D0FE8FE26B78984602225849083105A802F02AFB00261DE002AF73005849C9180222380002F020FB7B78002B02D173
:40308000544AD35C00E00023012B0BD97300504A9B5C984506D17300D118022205A802F00CFB02E00136002EDFD005AB5B78FF2B05D104D1F22189004748FEF7D3FF05AB62
:4030C0001B8808AA138007AA13801B0A2978434AD15450E22B78002B00D04CE22B7A002B08D13F4B1022DA801132FF329A803D4A1A606B60164A137801218B4313703AE29B
:403100006B79984602222E49083105A802F0D5FA00266AE003AF73002D49C9180222380002F0CBFA7B78002B02D12A4AD35C00E00023012B58D97300254A9B5C984553D1BE
:403140007300D118022205A802F0B7FA4FE0C046484700080A40000004200000021000000110000003100000041000000640000012300000044000000740000008400000A0
:403180000E500000025000001040000001500000035000000C500000145000000F5000001050000017500000016000008004000850380008040600000506000003060000EA
:4031C000985F00103847000841470008504700083447000840470008A45F00104C4700087C380008003400080136002E92D005AB5B78FF2B05D104D1F2218900C948FEF799
:4032000031FF05AA138809A90B8013801B0A6978C54AD154EB78002B00D0ACE16B7998460222C249083105A802F047FA00261DE004AF7300BE49C9180222380002F03DFA5F
:403240007B78002B02D1BB4AD35C00E00023012B0BD97300B64A9B5C984506D176009119022205A802F029FA02E00136002EDFD005AB5B78FF2B05D104D1F2218900A94817
:40328000FEF7F0FE05AA13880AA90B8013801B0A0121A94AD1546EE12900FFF7ABFD6AE1AB7E002B44D12B7E012B02D10022A34B1A70EB7E984602229C49083104A802F07E
:4032C000FCF900261DE005AF73009949C9180222380002F0F2F97B78002B02D1954AD35C00E00023012B0BD97300914A9B5C984506D176009119022204A802F0DEF902E0ED
:403300000136002EDFD004AB5B78FF2B05D104D1F22189008348FEF7A5FE04AA13880BA90B8013801B0AFF2B02D0297E844AD1540222844B1A701EE10222824B1A701AE15B
:403340002900FFF757FD804B1B78DB0700D412E17A4B1B78012B03D10222784B1A700AE1032B03D10022754B1A7004E1022B00D001E10022714B1A70744B1B685868744BC4
:403380001978CA00531A5B00C3189A79002A00D1F1E09B88002B00D1EDE06E4B1B78002B00D0E8E00120FFF74FFB002800D0E2E00122624B1A70DEE02900FFF71BFDDAE011
:4033C00002222900684602F078F96B465B78002B03D10221574AD15406E0002B04D1E12189005048FEF73EFE68784000504B18180222290002F061F96B780021564AD1547C
:403400005800C018554E8019504B1B6819692B785A00D318524A94466344C9180631032202F04BF96B785800C01880190221FFF7E9F96B785A00D318F618B37898420DD049
:40344000484B1B680021484898476B785800C318424818180322002102F038F929002000FFF7C8FC87E001AE02222900300002F024F97378002B03D100212E4AD15406E03A
:40348000002B04D1E12189002648FEF7EBFD6B780021294AD15429002000FFF7ABFC6AE005A82B880380172343801CF011F962E02A89531E9BB2212B0ED905A8AB8903802A
:4034C000428012230371012646711CF0F3F81E4A1378B34313704EE02800FFF7ADFB011E04D129002000FFF785FC01002800FFF72FFC40E02900FFF77DFC3CE02900FFF73B
:4035000079FC38E02900FFF775FC34E02900FFF771FC30E02800FFF7CBFB29002000FFF769FC28E0A45F00103C470008985F00103447000840470008743800084147000833
:4035400078380008384700084847000850380008364700084D4700084C470008444700089010000054380008040001000B4A117801230B4313700A4B1A7811231A4209D03A
:40358000074A137801218B431370064B1B682900200098470CB004BC9046F0BD3747000848470008543800080020704710B5002805D0044B18600448FFF7ECFB00E003485C
:4035C00010BDC04688380008A93500100100160070B50D000F4B184300040F4BD861FA24A40003E0013C0120FEF730FD0A4B1B6CDB0701D4002CF5D1002C08D0064B196C29
:4036000001220A431A64DB6A2B80002000E0034870BDC0460080FFFF00003C400400160010B500040E4B184001430E4BD961FA24A40003E0013C0120FEF708FD094B1B6CF1
:40364000DB0701D4002CF5D1002C06D0054A116C01230B431364002000E0034810BDC0460000FF7F00003C4004001600F0B583B006000A24C02149017548FFF7D1FF0028D6
:4036800004D16B46991D7248FFF7A2FF002C01D0013C00E06F48002805D16B46DA88C0235B019A42E6D1002825D16B46991D6A48FFF78EFF00281ED16B4606331B885B050B
:4036C00019D40A248021C9006348FFF7A9FF002804D16B46991D6048FFF77AFF002C01D0013C00E05B48002805D16B46DA888023DB009A42E6D1002804D16B46991D57489F
:40370000FFF766FF002844D16B4606331B883F229343B278012A15D1F178012904D88FB20222D21B95B201E000250227402213439BB2302213436A46D380494BCB40494AD9
:40374000136013E0F178002904D18FB20122D21B95B201E00025012740229343102213436A46D380404BCB403E4A13606B469C1DD9883943D9803948FFF752FFF378DB1B99
:4037800003221340AA0092B213432380374A38498B50B0235B055B78002B04D0B0235B055B78DBB200E02123212B4FD0314BB0225205D35A9BB2002B48D0002804D16B4696
:4037C000991D2D48FFF704FF002824D16B469A1DDB8860218B4318001380B0256D05254C2B5B60310B405B08034324490B401380295BC901F020C00001400B432049194046
:403800001180285BC0239B000340DB00194311801948FFF705FF002804D16B46991D1948FFF7D6FE002811D16B469A1DD988C023994311800F4BB0204005C05A30230340BF
:403840009B00194311800F48FFF7EAFE03B0F0BD021E000004001600031E0000091E00000048E801C00000080024F40064F0010000003C4016180000071E00007FF5FFFF02
:40388000FFE7FFFF061E000070B50C004000084901430848FFF7C4FE051E04D106490748FFF7BEFE05006001FEF7D0FB280070BD01100000081E0000376800000F1E00002C
:4038C0000349044A8858102303438B507047C04600003C4070F00100F0B59DB013A9144B0A00180070C870C270C870C270C870C20AAD28001A002432D0CAD0C0D0CAD0C050
:40390000D0CAD0C001AC22004833C1CBC1C2C1CBC1C2C1CBC1C20748FEF74CF829000648FEF748F821000548FEF744F81DB0F0BDDC5F001000013240800132400002324074
:40394000F8B5051E00D1D4E06E4B5B689B0301D5FEF74CFB6C4C03E0013C0120FEF776FB6A4B6B4AD358002B01D0002CF4D1694B674AD358DB0704D5674BD358DB0700D506
:40398000B9E0624B624AD358002B00D0B5E0FFF7A3FF5F4B6149624A99502A788021C9020A4360495A506049604A9950802252009B58DB0700D5A2E05D4B1B6F1B0709D49E
:4039C0005C4B18685C4B984206D9190000F0FEF8013802E0012000E000204D4B1B68002803D04003554A104300E055481843484B1860444B5B695B000ED501210320FEF70C
:403A00004DF9404B5B695B000CD53E4A93698021C9050B43936105E03D494A4A8858032303438B503A4C3B4AA658474B3343A3504020FEF70BFB454BE358DB070BD4270048
:403A4000424C01233B514020FEF700FB03233B514020FEF7FBFA3E4F37403E4E3E432D4B2B4AD650FA24E40003E0013C0120FEF7EDFA394B394AD358DB0601D4002CF4D1A0
:403A8000002C01D0002400E0354C002C23D12049344A8858082303438B500120FEF7D8F8002801D1304E3E43304B1E4001231E43184B174AD650144E03E0013E0120FEF790
:403AC000C5FA154B124AD358DB0701D4002EF4D1002E00D1224C002C03D12800FFF7C6FD0400002C0CD168782978FFF7CDFE040006E01F4C04E01F4C02E01E4C00E01E4C9F
:403B00002000F8BD00002640F07E0E006CF0010000003C40A0F00100B4F0010006000001A4F00100A8F0010001000100ACF0010000F03D40C800000800093D00041A0080CA
:403B4000040A0080C4F0010030000300B0F00100EFFFFEFF2000020010400000000032400400160068F0010028000200FFFFFBFF010016000300160002001600014B1868B6
:403B80007047C046C000000810B5002405E02000FDF7FCFA032804D00134042CF7D9002000E0012010BDC046A023DB00064AD35803221340012B03D0032B03D1012002E0EB
:403BC000012000E00020704700002640002243088B4274D303098B425FD3030A8B4244D3030B8B4228D3030C8B420DD3FF22090212BA030C8B4202D31212090265D0030B5D
:403C00008B4219D300E0090AC30B8B4201D3CB03C01A5241830B8B4201D38B03C01A5241430B8B4201D34B03C01A5241030B8B4201D30B03C01A5241C30A8B4201D3CB02F5
:403C4000C01A5241830A8B4201D38B02C01A5241430A8B4201D34B02C01A5241030A8B4201D30B02C01A5241CDD2C3098B4201D3CB01C01A524183098B4201D38B01C01A07
:403C8000524143098B4201D34B01C01A524103098B4201D30B01C01A5241C3088B4201D3CB00C01A524183088B4201D38B00C01A524143088B4201D34B00C01A5241411ADE
:403CC00000D20146524110467047FFE701B5002000F0F0F802BDC0460029F7D076E7704703460B437FD4002243088B4274D303098B425FD3030A8B4244D3030B8B4228D371
:403D0000030C8B420DD3FF22090212BA030C8B4202D31212090265D0030B8B4219D300E0090AC30B8B4201D3CB03C01A5241830B8B4201D38B03C01A5241430B8B4201D33D
:403D40004B03C01A5241030B8B4201D30B03C01A5241C30A8B4201D3CB02C01A5241830A8B4201D38B02C01A5241430A8B4201D34B02C01A5241030A8B4201D30B02C01A51
:403D80005241CDD2C3098B4201D3CB01C01A524183098B4201D38B01C01A524143098B4201D34B01C01A524103098B4201D30B01C01A5241C3088B4201D3CB00C01A524195
:403DC00083088B4201D38B00C01A524143088B4201D34B00C01A5241411A00D201465241104670475DE0CA0F00D04942031000D34042534000229C4603098B422DD3030A91
:403E00008B4212D3FC22890112BA030A8B420CD3890192118B4208D3890192118B4204D389013AD0921100E08909C3098B4201D3CB01C01A524183098B4201D38B01C01A1B
:403E4000524143098B4201D34B01C01A524103098B4201D30B01C01A5241C3088B4201D3CB00C01A524183088B4201D38B00C01A5241D9D243088B4201D34B00C01A5241CC
:403E8000411A00D20146634652415B10104601D34042002B00D54942704763465B1000D3404201B5002000F005F802BD0029F8D016E770477047C046002B11D1002A0FD195
:403EC000002900D1002802D00021C943081C07B4024802A14018029003BDC046D9FFFFFF03B4684601B5029800F050F8019B9E4602B00CBC7047C046F0B54F464646C0B471
:403F00001604360C9946330005042C0C070C150C63437E436F4365431C0CAD1964199C46A64203D980235B02984647446346250CEF191D044B464A4343432D0C24046419DE
:403F40009918C91920000CBC90469946F0BDC04670B500220C4B04000D0001F05DFA002804D12000290001F0B5F970BD064B00222000290000F05AFE01F0ACF980231B06F7
:403F80009C466044F1E7C0460000E041F0B54D46564644465F46F0B4924683B004000D0099468B422FD82CD04946504601F05CFA29000600200001F057FA331A9846203B87
:403FC0009B4600D574E053465A4693401F005346424693401E00AF4229D826D05B46A41BBD41002B00DA79E0002200230092019301235A469340019301234246934000932E
:4040000019E08242D0D900220023009201930C9B002B01D01C605D600098019903B03CBC90469946A246AB46F0BDA342D6D900220023009201934346002BE8D0FB077208D4
:404040001A4346467B080EE0AB4201D1A2420CD8A41A9D41012024196D410021013E24184D41002E06D0AB42EED9013E24196D41002EF8D15B460098019900196941002BF3
:4040800022DB2B005A46D3402A004446E2401C005B461500002B2CDB26009E40330026004746BE403200801A994100900191AEE7424620239B1A5246DA40414613004A46AA
:4040C0008A4017001F4382E7424620239B1A2A0046469A402300F3401343D5E74246202300219B1A0022009101920122DA40019282E74246202326009B1ADE402F00B4468F
:40410000974066463B003343C9E7C046F0B556464D4644465F46F0B41D000E034C00CB0F87B0070092468146360B640D98466AD06D4B9C4235D08022430F12041343F60002
:404140001E43C3009946694B00279C460023644402932B0368001B0BED0F51469B46400D009500D178E0604B98426CD05B46DA004B0F802109040B4313439B465346D900A9
:404180005A4B9C46002360444246201A6A40924601901F430F2F00D9B0E05548BF00C0598746374300D088E0002399460233082700260293CDE74346B34649460093029BC9
:4041C000009A9246022B00D0BFE1002153460122002689461A40444B002136030C0D2405360B2643434C1B0526401E437600D207760816434846310007B03CBC90469946F0
:40420000A246AB46F0BD330003434FD0002E00D1BCE1300001F00AF903000B3B1C2B00DDADE11D220100D31A08393A008F408E40DA40B9461643304B00279C4600236044A3
:404240004442029385E753465A4613432CD1002300219B46023397E70B4320D05B46002B00D19EE1584601F0E1F803000B3B1C2B00DD8FE102005946083A91408B461D21F1
:40428000CB1A5146D9400B0059460B4351469B469140194B9C4660444042002374E7002300219B4601336FE703236DE70023994601330427002602934BE703230C270293D9
:4042C00047E70122D51A382D00DCB0E153461A4000210023002689467EE700238026994600223603004B77E7FF07000001FCFFFFE46F0010FFFF0F80F30300005E4500D90C
:4043000072E100D16DE1019B4D46013B01930023340002935B461E020B0E1E430B020393330C994633041B0C494620000093FFF74DFC009B3700434306004946200098465A
:40434000FFF7CAFC2C0C09040C43A04509D9E419731EA74200D95CE1A04500D859E1023EE4194346E41A49462000FFF72FFC0300009A80465343494620009B46FFF7ACFCE7
:404380002A040904120C0A4393450DD94346D219013B974200D93AE1934500D837E102235B429C46D219E0445B46D21A4346360433439B460399180C0B0C1D000593090461
:4043C0005B46090C0C001B041B0C4443049159436B4368431B190D0CEB189C4203D980246402A44660441C0C09041B04090C20185D18824200D2DEE000D1D7E0161A029B43
:404400009C465D1BAC459B415B42F61AB74200D106E149463000FFF7D9FB009B04004343494630009846FFF757FC2E0C09040E43B04509D9F619631EB74200D9F3E0B045CA
:4044400000D8F0E0023CF6194346F31A494618000293FFF7BBFB009B06004343494602989846FFF739FC2D0409042D0C0D43A84509D9ED19731EAF4200D9D6E0A84500D8FE
:40448000D3E0023EED192404210043463143049E059A3000ED1A0B040C0C1B0C58436643534354439A19030C9B189E4203D980225202944664441A0C00041B04000C14195B
:4044C0001B18A54250D34DD001231943964A019B94466344002B00DCF3E64A0709D00F220A40042A05D00A1D8A42894149428B4411005A46D20108D55A468C4B1A4093463B
:404500008022D2009446019B6344894A934200DD5BE65A46C908500708435602514601225B058146360B5B0D0A4055E680231B031E4211D05A461A420ED15E461E4336038F
:40454000360B2A0089467B4B46E6032B00D1E1E0012BBBD11A40BBE61E433603360B4246744B39E6002BB1D07D194A1EAF4252D91100A542A8D1039A9A42A5D1A6E70300A5
:404580003E00283B9E400023994654E600F04EFF203041E603005246283B9A400021934677E6504600F042FF20305EE6029B0026AB4200D323E7039E0299B44661448846CC
:4045C000B045B6415B467642F619B218013B0291974213D290424FD800D18EE0161A9B460DE7894500D28EE674084B46F60735005B081D434B46DB0702938BE69742EDD1AD
:404600000399029CA142E5D93E1A9B46F7E69846CAE61E00A5E6AC423ED874D0110053E70121494252E71C000EE71E002BE71F2D3CDC20230A0058465B1B9840EA409940F8
:404640000243481E81415E461143EE404B0709D00F230B40042B05D00B00191D99429B415B42F61833023CD55346012200211A40002601238946AFE502235B429C46039CEB
:40468000E344A446029B63449846A045B6417642F6190293B218B1E603988A1E41008142B6417642F619AD19039161E71F225242D31A5A46DA401300202D29D040225846B2
:4046C000551BA8400143481E814107200B4318400026002809D00F2200261A401900042ABBD10B0070077602360BDB0803439946012253461A4000236EE502998D42BBD8B2
:404700009B4600267BE603989842C5D3110032E70020D7E780265B4636031E433603360B009A8946034B57E5FF030000FFFFFFFEFE070000FF070000F0B55F4656464D462D
:404740004446F0B40D0399464E002B0B87B00700924680469B46760DCC0F002E69D06D4B9E4235D05B468022DD001204430F13432B439B46C3009846674B00279C460023CD
:40478000664401934A4615035000D20F53462D0B400D914600D176E05E4A90426CD080225B0F120413435C4AED0094461D4353460022DB00604449463618701C61400290F5
:4047C00017430F2F00D9AFE05448BF00C759BF465B461F4300D088E000239B469846023308270193CEE74946022A6AD0032A00D109E2012A00D0BBE111400022002300253F
:404800009046CCB200212D030A0D12052D0B1543434A1B0515401D436D00E4076D0825434046290007B03CBC90469946A246AB46F0BD034352D05B46002B00D18AE15846D7
:4048400000F0F4FD03000B3B1C2B00DD7BE11D22D31A3A0001005D46DA4008398D4013008F402B439B46B8462E4B00279C46002360444642019385E752462A432CD1002535
:404880000023022297E752462A4321D0002D00D154E1280000F0CAFD03000B3B1C2B00DD46E11D21CB1A51460200D9405346083A954093400D431B4A944660444042002268
:4048C00079E7012400220C40124B0025904699E70025002301226EE703226CE700239B4698460133042701934CE703230C27019348E700238025984600242D03054B81E7DF
:404900005D464346019A6FE75D4643462100019A6AE7C046FF07000001FCFFFF24700010FFFF0F80F30300004246120C91461A0C9446424617044A461B041B0C5A436046BA
:4049400090464A4642431000039262461C003F0C7A437C4342440192220C9246019A5244904506D98246802040028046C24450460390100C049048462404240C12041219A2
:4049800005922A0C2D042D0C68432C00824648467C4350438146200C8046574357444744BA4503D9802040028046C144380C3F04B84648442404240C01900498A044404442
:4049C00004905846000C814658460404200C8246070048465F434C464343604660436446834650464443380C8446E4186444A34203D980235B029C46E34448463F04230C74
:404A00003F0C2404E419574668436F4384464D46504655434243380C814662444A445B44944503D9802040028446654403983F04834604983F0C8446E344C345804140424A
:404A40008246100484460198674484466744A344BC46A345A4419946D44464428742BF41D4458041E144A04699459B417F424042C8440743120CBA18A045A4415F423B00ED
:404A800064422343D71843467D19DB0D6D021D435B465A02059B1A43531E9A415B46DB0D1A4343465B021343EA0107D501225C0813402343EA07029E13436D08574AB218EF
:404AC000002A4BDD580709D00F201840042805D0181D98429B415B42ED180300E80104D54F4A15408022D200B2184E48824200DDE7E60124DB08680718436D0253058046C3
:404B00002D0B5B0D0C407DE6802259461203114208D0154206D115432D0398462D0B4C46414B6FE65D4615432D032D0B3E4B69E603005546283B9D400023BCE6504600F002
:404B400075FC2030A8E60300283B9F400023BB46984689E600F06AFC203073E60124A61A382E07DD00220C4000230025904649E6029EA3E71F2E20DC20222C001800921BA1
:404B8000F040944093400443581E83411C43F540630709D00F232340042B05D023001C1D9C4292415242AD182B021FD5012400220C4001230025904624E61F202C004042FD
:404BC000821AD440202E1CD04022961BB5402B43581E83410720234318400025002809D00F2200251A401C00042AD8D1230068076D022D0B0124DB08034398460C40002399
:404C000000E60025E3E780220124120315432D0398462D0B0C40044BF4E5C046FF030000FFFFFFFEFE070000FF070000F0B557464E464546E0B40E001100F20F9246C500F1
:404C4000420F180337037400400A4E0F7F0A3043CF4E17435A00640D520DDB0FC900B24200D1E5E001267340A61AB446534500D1AFE0002E00DC0DE1002A3AD103000B438F
:404C800000D0E4E06B0709D00F232B40042B05D02B1DAB42AD416D427F191D003B0200D488E0BB4B01349C4200D110E13A00B94B51461A4001235007ED08520264050543F5
:404CC000120B640D0B400021280012030D0D120B64052D0515436208AF4CDB072C401443640064081C4321001CBC90469946A246F0BDA74B9C42C5D080231B0418436346AC
:404D0000382B00DDFDE01F2B00DD30E1624620239B1A02009A40664690460A009940F24046464B1E99413243114363460200DA40691A8D429B410D00BA1A5B42D71A3B02D4
:404D400035D57A02530A98464346002B00D1C4E0404600F06BFB0300083B1F2B00DDC5E020222900D21A4746D1409F400A009D403A439C4200DDC0E01C1B631C1F2B00DDEB
:404D8000E4E0202114002800C91AD8408C408D400443DA40681E854117002543002471E7424663461A4300D14CE2674645466B0700D069E7012351467807ED08FA080B40A3
:404DC000054373498C4238D012036405120B640D79E7002E00DC9AE0002A47D06C4A944200D14FE78022120410436246382A00DC08E10143481E81410022C9B24919D219E5
:404E0000A942BF410D007F42BF183A0200D442E15F4A0134944200D14EE101205D4A69083A4028400843D507054357089A4629E706000E4300D017E714E72900114300D1B4
:404E4000F9E1802109030A431203120B3BE701235B429846C4446346002B72D1691A8D429B413F1A5B42FF1A0D0068E702000A4300D107E7012252429046C4446246002A3E
:404E800000D0E6E06918A942B6413F187642F7190D00BAE7002E00D080E0621C5205520D012A00DCF9E06A1A91464D45B6413A1A7642921B9046120200D499E04D1BA94293
:404EC0008941C71B49427A1A90469A463CE752460123002513400022F5E6280000F0A6FA20300300083B1F2B00DC39E72A002838824000259C4200DC3EE7264FE41A17402F
:404F0000C0E60143481E81410022C9B210E7002E00D0F1E0621C94465205520D012A00DCA0E01B4A944500D1C5E06918A94292413F185242D2194908D5070D435708644618
:404F4000A0E6134B9C4200D0D9E69BE611001F3CE1400C00202B00D180E04021CB1A9A4015436A1E95410027254300241FE763460200203BDA406346202B71D04023664657
:404F80009B1B98400143481E814111430022CFE6FF070000FFFF7FFFFFFF0F80002C48D0CA4CA24200D1A2E07442A1468024240427434C46382C00DDDBE01F2C00DD44E17E
:404FC0004E462024A41B3E00A640A246B0464C462E00E640B4464646644626435446A5406C1EA54134002C434D46EF400D1B28E04A4643464D461A4300D0A5E6002300246A
:405000000025DEE61F2A5ADC66462022921B060096409146B04662460E00D640424616434A4691404A1E9141020060463143C240E4E63C002C435AD0F443A146002C52D152
:405040004D1BA9428941C71B49427F1A14009A4675E69E4A944200D0C7E613E600227FE700208FE7002C00D0C8E03B002B4300D10FE103000B4300D104E66918A9429B410A
:405080003F185B42DF193B0200D41AE1904B0D001F406446F6E59A4689E63A002A43002C5CD1002A75D102000A4300D1CAE007000D009A46E6E564460022002581E66246E4
:4050C0000600203AD6406246B046202A00D1B7E040226646921B904001434246481E8141114300228AE6794CA24200D061E707000D0014009A46C5E5002C41D13C002C4329
:4051000078D0F443A146002C20D0704CA24271D04C46382C00DDB2E01F2C00DDBCE02026341BA2463C005646B4404E46A0462C00F440A446444666463443A4465446A540C0
:4051400064466E1EB54125434C46E7406D188D4289413F184942CF19140056E6002A2FD102000A4300D184E007000D009A46574C88E53D436F1EBD41ECB200270D1B60E7B9
:40518000524CA24236D0744280263604A1463743BEE702000A4300D174E56A1A90464545B6413A1A7642921B9446120200D4F7E54D1BA9428941C71B49427F1A9A4661E5D7
:4051C00002000A433AD0ED087C072C438025FA082D032A4208D0C7082F4205D145072C003A009A46C9080C43670FD200E5001743364C47E507000D00140043E53A002A4360
:4052000043D002000A4319D0ED087C072C438025FA082D032A4207D0C6082E4204D147073C003200C9080C43D700620FE50017439A46264C26E50022002544E5234C21E56A
:40524000002049E700230025BBE54C463E00203CE6404C46B446202C31D040244E46A61BB7403D436C1EA54164462C4300270D1BE7E6802200231203144C0025A1E53D4391
:405280006F1EBD410027EDB260E707000D000F4CF8E407000D00F5E44E463C00203EF440A0464C46202C0ED040244E46A41BA7403D436F1EBD4144460027254346E7002704
:4052C000CFE70D0073E50027F2E7C046FF070000FFFF7FFF0B0330B5134D1A0B4B005B0DC90F0024AB4211DD104CA34210DC8024640322430E4CE41A1F2C0CDD0D48C31AAE
:40530000DA4013005C42002900D11C00200030BD094BCC18FAE7E040084CA44663449A4013000343EEE7C046FE0300001D0400003304000013040000FFFFFF7FEDFBFFFF81
:4053400070B5051E28D000F071F8154B154A1B1AD21A1F2A16DD2C00134A0025D21A94405A052403240B520D002124030B0D240B1B0523430D4C1205234013435B00280035
:40538000590870BD0B212C00081AC440954024035A05240B520DE7E700220024E4E7C0461E0400003304000013040000FFFF0F808446101C62468C46191C634600E0C046E2
:4053C0001FB500F001F9002801D40021C8421FBD10B500F055F84042013010BD10B500F0F3F8002801DB002010BD012010BDC04610B500F0E9F8002801DD002010BD01203A
:4054000010BDC04610B500F07BF8002801DC002010BD012010BDC04610B500F071F8002801DA002010BD012010BDC0461C2101231B04984201D3000C10391B0A984201D333
:40544000000A08391B09984201D30009043902A2105C40187047C0460403020201010101000000000000000010B5002903D1FFF7DDFF203002E0081CFFF7D8FF10BDC0460B
:40548000F0B55F4656464D464446F0B41F035C00DB0F9A46194B0E034D00C90F8046360B6D0D8B4691463F0B640D9D4219D0134B9C421BD00123A54206D018003CBC9046C9
:4054C0009946A246AB46F0BDBE42F6D1C845F4D1D34510D0002DF0D1304303005A1E9341EBE7310001230143E7D1E0E73A430123002AE2D1DEE70023DFE7C046FF070000E4
:40550000F0B55F46444656464D46F0B41F033C0B2C4F0E034D00A3465C008446360B6D0DC90F9046640DDB0FBD422BD0254FBC422ED0002D0ED13043070081467842784185
:40554000002C17D15F463A4314D14B460020002B0AD006E0002C02D15846024301D099421AD00123484218433CBC90469946A246AB46F0BD0028F2D05842584101224042FE
:405580001043F1E737000743D0D002204042EBE75F461743CDD0F8E7A542E2DC05DB5E45DFD808D000205E45DED248424841012340421843D8E7C445D3D80020C445F4D30D
:4055C000D2E7C046FF070000F0B55F464D4644465646F0B41C03240BA4462F4C0F034D005E00C90F80463F0B6D0D8B469146760DDB0FA54220D0284CA64222D0002D12D123
:40560000384344424441002E20D0002C0DD05C42634101245B421C4320003CBC90469946A246AB46F0BD002E17D05B4519D05B465C4201231C43EFE7390002240143EBD172
:40564000D9E7614602241143E6D1D7E761460A43DBD100240028DFD0E9E761460A43E4D1E5E7B54203DD01225C421443D4E7B542CDDB6745DBD809D000246745CCD2594666
:405680004C426141012449420C43C5E7C845CED80024C845F3D3BFE7FF07000030B50024A24208D0035D651C0C5DA34201D0181B02E02C00F4E7002030BD002310B59A4207
:4056C00003D0CC5CC4540133F9E710BD03008218934202D019700133FAE77047030030B5002A0DD00C7801335D1E013A2C700131002CF5D19A189A4202D01C700133FAE7FF
:4057000030BD0000F8B5C046F8BC08BC9E467047F8B5C046F8BC08BC9E4670470000000001B40248844601BC604700BFA90700080300000001000000010000000000000047
:4057400005036000040000000100000000000000010000000604600008000000AC37000879050010030018000300000019200102F4010000140004010A0009050800000048
:4057800063010000030000000000000000000000680000000000000000000000000000001212000000000000000000000000000000000000000000BA00000000000000003C
:4057C000000000000000000000001D1D03000000000000000000000000006000000000000000000000000000000000000000000000000000010022000100002801000000BF
:405800000B0000000018000000000000020003280100020003000000002A0000000000000300002A010002010300000013000000340100080400032801000200050000002D
:40584000012A0000000000000500012A0100020105000000020000003C010008060003280100020007000000042A0000000000000700042A010002010700000008000000CC
:4058800044010008080003280100020009000000A62A0000000000000900A62A0100020109000000010000004C0100080A000328010002000B000000C92A0000000000001A
:4058C0000B00C92A010002010B00000001000000540100080C000028010000000F00000001180000000000000D000328010020000F000000052A0000000000000E00052A0C
:40590000000020010F000000040000005C0100080F00022901010A030F0000000200000064010008100000280100000822000000100000006C0100081100032801000200E0
:4059400013000000100000007401000812005BF30100020913000000020000007C010008130001290100020113000000180000008401000814000328010002001600000030
:40598000100000008C0100081500957601000209160000002001000094010008160001290100020116000000270000009C0100081700032801000A001900000010000000A6
:4059C000A40100081800239701010A091900000001000000AC0100081900012901000201190000002C000000B40100081A000328010002001C00000010000000BC010008C2
:405A00001B00FAC6010002091C00000001000000C40100081C000129010002011C0000001E000000CC0100081D00032801000A001F00000010000000D40100081E004E1859
:405A400001010A091F00000002000000DC0100081F000129010002011F00000017000000E40100082000032801000A002200000010000000EC0100082100181001010A09C0
:405A80002200000002000000F401000822000129010002012200000017000000FC010008FB349B5F8000008000100000E792CF7DFB349B5F80000080001000005BF3465C10
:405AC000FB349B5F800000800010000095762EDDFB349B5F80000080001000002397597DFB349B5F8000008000100000FAC6C33EFB349B5F80000080001000004E18D67BA4
:405B0000FB349B5F80000080001000001810E0E8010003000500070009000B000C000E000F00000010001200130015001600180019001B001C001E001F00210022000000A7
:405B4000F808001004090010100900101C0900102809001034090010400900104C09001078090010820900108C09001096090010A0090010AA090010B4090010BE090010AE
:405B800047656E6572617465645F536F757263655C50536F43365C70646C5C647269766572735C7065726970686572616C5C737973696E745C63795F737973696E742E6348
:405BC0000000000047656E6572617465645F536F757263655C50536F43365C70646C5C647269766572735C7065726970686572616C5C6970635C63795F6970635F647276CA
:405C00002E68000047656E6572617465645F536F757263655C50536F43365C70646C5C647269766572735C7065726970686572616C5C6970635C63795F6970635F647276F3
:405C40002E63000047656E6572617465645F536F757263655C50536F43365C70646C5C647269766572732F7065726970686572616C2F6970632F63795F6970635F6472763F
:405C80002E68000047656E6572617465645F536F757263655C50536F43365C70646C5C647269766572735C7065726970686572616C5C6970635C63795F6970635F70697076
:405CC000652E630047656E6572617465645F536F757263655C50536F43365C70646C5C647269766572735C7065726970686572616C5C737973636C6B5C63795F737973639B
:405D00006C6B2E630000000047656E6572617465645F536F757263655C50536F43365C70646C5C647269766572735C7065726970686572616C5C737973636C6B5C63795FAA
:405D4000737973636C6B2E680000000047656E6572617465645F536F757263655C50536F43365C70646C5C647269766572735C7065726970686572616C5C6770696F5C6365
:405D8000795F6770696F2E630000000047656E6572617465645F536F757263655C50536F43365C70646C5C647269766572735C7065726970686572616C5C6770696F5C633C
:405DC000795F6770696F2E680000000047656E6572617465645F536F757263655C50536F43365C70646C5C647269766572735C7065726970686572616C5C737973706D5CCD
:405E000063795F737973706D2E63000047656E6572617465645F536F757263655C50536F43365C70646C5C647269766572735C7065726970686572616C5C70726F745C63B5
:405E4000795F70726F742E63000000002400060030000100280002002400020000316253C4F5A697B988DBEA7D4C1F2E4372211087B6E5D4FACB98A93E0F5C6D86B7E4D563
:405E8000427320113F0E5D6CFBCA99A8C5F4A796013063527C4D1E2FB889DAEB3D0C5F6EF9C89BAA84B5E6D7407122137E4F1C2DBA8BD8E9C7F6A59403326150BB8AD9E8F2
:405EC0007F4E1D2C02336051C6F7A495F8C99AAB3C0D5E6F4170231285B4E7D67A4B1829BE8FDCEDC3F2A1900736655439085B6AFDCC9FAE80B1E2D344752617FCCD9EAFB2
:405F000038095A6B4574271681B0E3D2BF8EDDEC7B4A192806376455C2F3A0914776251483B2E1D0FECF9CAD3A0B586904356657C0F1A293BD8CDFEE79481B2AC1F0A392B1
:405F40000534675678491A2BBC8DDEEF82B3E0D1467724153B0A5968FFCE9DAC47656E6572617465645F536F757263655C50536F43365C70646C5C6D6964646C6577617220
:405F8000655C626C655C63795F626C655F68616C5F7076742E6300003F06000000000000FFFF000047656E6572617465645F536F757263655C50536F43365C70646C5C6D57
:405FC0006964646C65776172655C626C655C63795F626C655F6761702E68000000000000000000000000000066666666000000000000FFFF000000001C1C1C1C1C1C1C1CF4
:4060000000000000000000000000000066E6EE66000000000000FFFF000000001C1A1A1A1A1A000000000000000000000000000066E66666000000000000FFFF000000000E
:406040001A1A001C00000000000404000104080002041400030C200004042C00050648007C01000031010000090901120C00FF0380ABCDABCD80409C1B04041BFFFFFFFF03
:40608000000000000410080007070400F216FBE0FBE01F60427EF56D720096BE2090000010502604060037D7F401FA00960064004B0032001E00140003040506020D110075
:4060C000FDFE001061FE0010B3040110B1FF0010630001105F0401107704011039050110DD00011045010110210301104F030110870501104D0401101B0501101B0501109D
:406100001B050110F50301109D030110E1030110A93A0110B53A0110DD490110C54A0110D14A0110ADFF0010FBFE0010F7040110610001109B0001106F04011091040110EF
:4061400085050110410101109D0101103B03011075030110F30501105704011085050110850501108505011045040110850501108505011085050110850501108505011003
:406180008505011085050110231B01102B1B0110271B0110211B0110FF1A0110FB1A0110191B0110171B0110F31A0110F71A01102F1B01101B1B0110151B0110331B011009
:4061C000331B0110F11A01101F1B011011320110C5350110893301103531011045240110F9200110C92B01100D270110651C0110C91C01101D370110552F0110A5260110EA
:4062000079200110552B01103578001005300110BD370110393B0110853C0110593D01107539011019380110C13A0110F938011023390110333901103539011039390110C2
:406240001B050110253901102F3901102D390110DD4D0110D5470110494D0110F94C0110954D0110DD4A0110E9490110814A0110454B01102DE30010F7470110ED4701108A
:40628000F3470110F1470110F5470110EF4701101B0501101B0501101B050110F5D10010756001105760011057600110576001108D6001101D450210576001100D45021071
:4062C0002545021015450210136501100B650110756401106D640110676001104F600110456001106B60011065640110956401105F6001108D640110ED64011057600110D6
:406300009D640110856401107D64011057600110956001109D600110A56001105B6001105B600110756001105760011057600110576001108D6001101D450210576001105D
:406340000D4502102545021015450210136501100B650110756401106D640110676001104F600110456001106B60011065640110956401105F6001108D640110ED640110B9
:40638000576001109D640110856401107D64011057600110956001109D600110A56001105B6001105B600110ED870110E1870110F98701105B6001105B6001107985011057
:4063C000B585011085850110A98501109D85011091850110C1850110CD850110D5870110D5890110D9890110E5890110BD890110C98901105B6001105B6001105B600110F8
:406400005B6001105B6001105B6001105B6001105B6001105B6001105B6001105B6001105B6001105B6001105B6001105B6001105B6001105B6001105B6001105B6001109C
:406440005B6001105B6001105B6001105B6001105B6001105B600110D98501108F7A01103D7901103D7901103D790110C17A0110517A01103D790110357A0110017B01103A
:406480004B7A0110DB7A0110D17A0110BF7801103D7901103D7901103D790110437801101F7A011069780110A17A0110C7790110D7790110517901103D790110177B01101C
:4064C0008D7901107F7901103D7901100B7A01104F7B01103D7901103D7901103D7901109D87011091870110A9870110D57901106F790110C584011001850110D1840110A1
:40650000F5840110E9840110DD8401100D850110198501108587011075890110818901108D8901105D890110698901103D7901103D7901103D7901103D7901103D79011044
:406540003D7901103D7901103D7901103D7901103D7901103D7901103D7901103D7901103D7901103D7901103D7901103D7901103D7901103D7901103D7901103D790110AB
:406580003D7901103D7901103D7901103D79011025850110BF7D0110ED7C0110ED7C0110ED7C0110037E0110697D0110ED7C0110B17D0110B17D01105B7D0110197E011037
:4065C000077E0110697C0110657C0110497D0110FD7B0110EF7B0110EF7B0110017C0110E37D01101D7D0110317D0110F17C0110ED7C01104D7E0110097D0110F57C011071
:40660000ED7C01104D7D0110697E0110657E0110ED7C0110ED7C0110C9860110BD860110D5860110917E0110EB7B01100D84011015840110218401102D8401101584011000
:40664000158401103984011045840110B1860110818801108D880110998801106988011075880110ED7C0110ED7C0110ED7C0110ED7C0110ED7C0110ED7C0110ED7C0110A8
:40668000ED7C0110ED7C0110ED7C0110ED7C0110ED7C0110ED7C0110ED7C0110ED7C0110ED7C0110ED7C0110ED7C0110ED7C0110ED7C0110ED7C0110ED7C0110ED7C01103A
:4066C000ED7C0110ED7C01105184011008000000060F0020200107021900000007070E05020220001C1202000103000E03060004004027070000070701020002030703041A
:40670000000000000000000000000000000000000000000000000000000800008F7A01103D7901103D7901103D790110C17A0110517A01103D790110357A0110017B0110A6
:406740004B7A0110DB7A0110D17A0110BF7801103D7901103D7901103D790110437801101F7A011069780110A17A0110C7790110D7790110517901103D790110177B011059
:406780008D7901107F7901103D7901100B7A01104F7B01103D7901103D7901103D790110BF7D0110ED7C0110ED7C0110ED7C0110037E0110697D0110ED7C0110B17D01102F
:4067C000B17D01105B7D0110197E0110077E0110697C0110657C0110497D0110FD7B0110EF7B0110EF7B0110017C0110E37D01101D7D0110317D0110F17C0110ED7C011094
:406800004D7E0110097D0110F57C0110ED7C01104D7D0110697E0110657E0110ED7C0110ED7C011008000000060F0020200107021900000007070E05020220001C12020039
:406840000103000E032000800000C00000000004000000A822000000000000040000F7FFFF7F0000003000000000000000000000000000000000000000000000000000002D
:406880000000000000000000A58201105D840110C5830110058301106B840110ED830110D582011079840110D1830110038301107D840110E9830110ED8201106B840110BA
:4068C000E1830110D78201106B840110D98301101B83011089840110F58301102183011099840110FD8301103D790110ED7C01105B6001103D790110ED7C01105B60011068
:406900003D790110ED7C01105B6001103D790110ED7C01105B6001103D790110ED7C01105B6001103D790110ED7C01105B6001103D790110ED7C01105B6001103D7901104F
:40694000ED7C01105B6001102F830110B1840110058401103D790110ED7C01105B6001103D790110ED7C01105B6001103D790110ED7C01105B6001103D790110ED7C0110C6
:406980005B6001103D790110ED7C01105B600110E9850110F98601109F860110E7850110ED860110978601100F86011045870110A7860110E5850110E18601108F860110B0
:4069C0003D790110ED7C01105B6001103D790110ED7C01105B6001103D790110ED7C01105B6001103D790110ED7C01105B6001103D790110ED7C01105B6001102588011098
:406A0000E18801100000000033880110F58801101D4C0110418801101F8901104D4C011005880110A5880110D148011013880110C3880110ED480110F9BC011069C1011076
:406A400069C1011069C1011069C10110FDA70110C9A8011069C1011069C1011069C1011069C1011069C1011069C1011069C1011069C1011069C1011069C1011011BF0110FF
:406A80005DBF01103DB60110FDB701109DBB011019970110000000002C6F0010CC6E001008000000692B021000000000146D0010606C00100F000000000000000000000097
:406AC00000000000000000000000000001200000C1CC01100620000001CE011007200000D5CC011008200000B9CD011009200000C9CE01100A200000B9CB01100B2000007E
:406B00008DCE01100C20000051CE0110102000001DCC01101120000095CB01101220000095CD0110142000003DCE01101520000039CC011017200000EDCB01100E20000053
:406B400025CC0110ACFD0000ABD00110ADFD00009DCF0110A0FD000011D10110A1FD0000FDCF0110A2FD000041D00110A5FD000005D20110A6FD00006DD10110A8FD0000CA
:406B800065CF0110A9FD000039CF0110AAFD00006BD00110ABFD0000CDD10110AFFD000069D00110C3FD0000B9D10110B0FD000035D10110B2FD000081D101100514000047
:406BC0007DCC01102D0C00004DCD01107B0C0000FDCC01107C0C000001CF011027200F2028201020292010202B200A202C200B202D200D202E200C204E2017200000010020
:406C000001000001000102020300020000000000020201000200000100010005010005020203000200000000000205010005000001240210592502106D24021001010B01A6
:406C400002028102820503040403840906090709080909090A09050A0C0B0D0D0E0E00000100000001000000000000000200000004000000020000000300000007000000A6
:406C800005000000040000000A00000008000000050000000C0000000B000000060000000E0000000D00000007000000100000000F0000000800000013000000110000002A
:406CC0000900000016000000140000000A0000001700000017000000FF00000018000000180000000B0000001B000000190000000C0000001D0000001C0000000D00000069
:406D00001F0000001E0000000E00000021000000200000000100000069550210FEFFFFFF3D54021001000000695502100600000025570210F8FFFFFF3D5402101800120031
:406D400059540210A000000CD151021047FFEDFB3D540210E8000C00B953021000012000CD5202101FFED3FF3D540210A000000C695B02105FFFFFFB3D540210000200002E
:406D8000D9590210FFFDFFFF3D540210000C0000F5500210FFF3FFFF3D540210000A000069530210010000008F530210FEF7FFFF3D540210002000001D52021000400000B8
:406DC000815A0210FF9FFFFF3D540210FFFFFFFF45540210FFFFFFFFED50021000800000E550021000000100DD500210FF7FFEFF3D54021000800100CD500210FF7FFEFF25
:406E00003D54021000008003C5500210FFFF7FFC3D54021000801F0AD5500210FF7FE0F53D540210000000000000000000000000000000008700000000000000000000008C
:406E400000000000303030314238303030313032303330343035303630373038303930413042304330443045304631303131313231333134313531363137313831393141CC
:406E80003142314331443145314632303231323232333234323532363237323832393241324232433244324532463330333133323333333433353336333733383339334148
:406EC000334233433344334541420000810000000000000000000000820000000100000001000000010000000200000002000000020000000400000003000000030000001F
:406F00000600000005000000F10000000700000007000000F20000000900000008000000FF0000000A0000000A00000002000000955F021001000000955F02100E00000014
:406F4000955E021002000000DD5E02100C0000007D5E021002000000195F02100C0000007D5E02100E000000955F02100C000000D55F0210020000007D5E02100E000000DC
:406F80001D60021026002B00300036003C0043004B0055005F006A00770086009600A800BD00D400EE000B012B014F017801A601DA01130254029D02EE024A03B103240443
:406FC000A5043605D9058F065C0742084409650AAA0B160DAF0E79107C12BD1445171C1A4B1DDE20FC420010CA410010D0420010C0410010D0420010DA420010D042001050
:40700000C0410010CA410010CA410010DA420010C0410010B6410010B6410010B64100102C45001028490010E8470010E8470010E64700100049001000490010F2480010FE
:40704000E647001000490010F248001000490010E6470010084900100849001008490010084B001000000000FEB5074600256946041D0D80183002902068002816D0616859
:40708000002913D0800711D1207A80070ED10298807B00280AD0FBF767FCFBF7D9FBFBF783FC00F02BFD002802D065E0344D65E0788C0006C00F00F0A3FD05460004000C57
:4070C0005AD13049084601F093F90604360C53D120682289A37A002808D02B49002508608A80CD800B812946FEF7F0FA684601F04DFF0546A07A801DC0B20190002D2BD116
:407100006068019900F090F8050025D1029811F081FE050020D1E068002804D0384600F0E7FF050018D11948174A00786B46810001981B880818001DC1B29088D288D6182C
:40714000B04207D3C01A801A80B201F05DFC060007D000E00E4E0A4D00F0F0FB002E06D00AE0A07A801DC0B200F03AFAF4E700F019FC08490120087000F0D2FC2846FEBD1C
:4071800001001600057500108C380008C83A0008FFFF00008404000810B503480078012801D101F0D1FA10BD8404000810B5FBF767FB032801D101F0C1F800F0D9FD01F0B7
:4071C00037FF01F047F90449002008608880C88008810249087010BD8C3800088404000870B5044600208A0703D08A07920F891A091D084B89B2DA889E885518B54206D848
:407200001D68AA182260DA885118D98070BD024870BD00008C3800080300160001480089704700008C380008F0B587B00D460746002089000691009001906846FFF7D0FF33
