:020000041000EA
:4000000000400208310100100D000000950100100000000000000000000000000000000000000000000000000000000091010010000000000000000091010010910100109B
:4000400091010010E9070010910100109101001091010010910100109101001091010010910100109101001091010010910100109101001091010010910100109101001002
:400080009101001091010010910100109101001091010010910100109101001091010010910100109101001091010010910100109101001091010010910100109101001020
:4000C00010B5064C2378002B07D1054B002B02D0044800E000BF0123237010BD4035000800000000E0820010084B10B5002B03D00749084800E000BF07480368002B00D195
:4001000010BD064B002BFBD09847F9E70000000044350008E082001064080008000000007047EFF3108072B6704780F310887047FFF7F6FF72B6104C104DAC4209DA216895
:400140006268A368043B02DBC858D050FAE70C34F3E70B490B4A0020521A02DD043A8850FCDC094809490860BFF34F8F00F010FA00F01EF8FEE70000848E02109C8E021071
:4001800040350008BC5100080000000808ED00E0FEE7FEE700B504207146084202D0EFF3098001E0EFF30880043002F057F9FEE710B500F081F808F02FFAFCE730B585B0FD
:4001C000050001AC1423A380013323810190200002F098FF182323812B0014330193200002F090FF1A2323812B0028330193200002F088FF1C2323812B003C330193200096
:4002000002F080FF1E2323812B0050330193200002F078FF202323812B0064330193200002F070FF222323812B0078330193200002F068FF242323812B008C33019320008A
:4002400002F060FF262323812B00A0330193200002F058FF282323812B00B4330193200002F050FF2A2323812B00C8330193200002F048FF2C2323812B00DC33019320006A
:4002800002F040FF2E2323812B00F0330193200002F038FF302323816B1DFF330193200002F030FF322323811935FF350195200002F028FF05B030BD10B562B6154800F051
:4002C000B1FC01E008F0A8F9134B1B78022BF9D1124800F0D1F901221149002001F062F8002010E0C10009180A01D2185200191801310C4C11530133DBB200E000238F2B1D
:40030000F0D90130C0B20928F8D90648FFF756FF10BDC046290300109851000800000810D10600105446000810B50C00274B98420CD004D880235B01984207D044E0244BFD
:4003400098420BD0234B98420CD03DE02022224B5A600021002002F073FD35E020221E4B9A6031E00B89372B0FD10B681B78013BDA00D3185801194BC018FFF71FFF20000A
:400380000C30210002F0E2FE1BE0392B09D10421206800F0EDF920000C30210002F0D6FE0FE03B2B09D10521206800F0E1F920000C30210002F0CAFE03E0352B01D100F02C
:4003C000F5F9E06820F0D6FA10BDC04608400000015000000C500000000532405446000870B56249E0239B00CB580F2213401A00D0329200525807210A40032A05D0042AF7
:4004000006D0002A12D15A4814E05A4A106811E01A00C0329200554952581F210A40112A06D0132A04D0FA20C00103E0524801E080200002002B36D14C4BB222D2009A5868
:4004400001211140B125ED005A59120F032422405B591B0F1C4207D0444C63591B0F03242340012B02D102E0012300E00023002B01D0002901D1032A4BD13C4BB022D20063
:400480009D58AD03AD0B3D495958C904C90C9C58240E01231C40013403F0B6FD6843210003F0B2FD35E0012B33D1304BC822D2009A5801251540C024E4001A59120F0321AE
:4004C0000A401B591B0F194207D028490B591B0F03210B40012B02D102E0012300E00023002B01D0002D01D1032A12D11F4DC022D200AB587F210B40A958090A1F26314089
:40050000AC58240C3440584303F07EFD210003F07BFDE0239B00154AD3581B0903221340D840144C6060164B1D692D0AFC32154001351969090E013103F066FDA060290061
:4005400003F062FD0500E06020610E4BC0180E4903F05AFD20750D4BE818FA21890003F053FDA061C003E06170BDC0460000264000127A00C000000800366E01840500009D
:40058000000021403F420F0040420F00E703000010B5234BB021C9005A58520052085A50E02080001A583024A2431A50802252045A501C491C4A9950A021890104329950A5
:4005C000FF211A4A995081315A58920092088020C00502435A505A588020000602435A505A58012082435A5000F064FAFFF7F8FE00F002F900F00AF901F0D0FAB0235B051B
:400600005B78002B04D0B0235B055B78DBB200E02123212B03D1064B0022DA605A6010BD0000264001000200840500008C050000E00023408023024AD358032018407047CB
:400640000000214010B5FFF76CFD084980228C58074B2340074C23438B508823034AD358DB06FAD5FFF761FD10BDC04600002140FCFF00000100FA0570B50500FFF751FD11
:400680000400FFF7D7FF032801D1FFF7DBFF0A4AB0239B00D55080215058084B03400848034353508823044AD358DB06FAD52000FFF73BFD70BDC04600002140FCFF0000ED
:4006C0000300FA050122014B1A707047E000000800B5CFB0002304E000226946CA5401339BB22C22FF329342F6D900283DD04368012B2DD0002B1FD0022B02D0032B12D060
:4007000033E0037A6A4613704BA8372303814B920123838002F0F6FC27E0C218127A6946CA54013300E000232022FF329342F4DD6846FFF743FD18E0037A6A4613704BA834
:400740003D2303814B920123838002F0DBFC0CE0037A6A461370437A53704BA8122303814B920223838002F0CDFC4FB000BDC04610B50B4B1B78002BFBD0094B00221A70DA
:40078000996002781A7342785A73064B044A04320021012000F09EFD034B9842F5D010BDE0000008C506001007028A0010B50B4B1B78002BFBD0094B00221A7006329A602A
:4007C000053A1A73064B054A04320021012000F081FD044B9842F5D010BDC046E0000008C506001007028A0010B5024800F00CFE10BDC0465C35000810B5034A60328021D6
:40080000042000F089FB10BD5C36000810B501F090FE0400044800F085FC044800F0F4FC200001F08AFE10BD5C350008685B0010FEE7C046F0B50025002711E0BB00C65810
:40084000F3B2FF22964308E06A008A181478A419527822700135013BDBB2002BF4D10137012FEBD9F0BDC04680221206044B1A600122044B1A60044A044B1A607047C0462F
:4008800000001D4100031D4101001180000E1F41F0B587B0694D6A4C2B5980273F063B432B51012001F080FD2B59C022D20513432B51A021C9006A5803239A4313436B50C9
:4008C00001AE604C04222100300005F014F9300003F054FA5C4A902013585C490B40135013691B021B0A8020400403431361136919401161E0239B00EA580F218A43EA50E5
:40090000EA5821318A43EA50EA581743EF500021012000F0DBFD0021022000F0D7FD0021032000F0D3FD0021042000F0CFFD0021002000F0CBFD3300211D15C915C305C93D
:4009400005C3300000F00AFE002802D00420FFF76FFF3A493E4A8B588020000603438B503C4800F0B3FE002802D00420FFF760FF324C394BE158394A0A40E250E158384AC3
:400980000A40E250E25880252D062A43E250043BE158344A0A40E250E158334A0A40802189010A43E250E258802109020A43E2502E4A11682E4B0B40802149000B43136029
:4009C000002001F0F1FD2B4AA3581D43A550A3580125AB432B43A3506421002001F056FD254B0021254A9950802000011A5817490A408C24A40122431A508022D200204834
:400A0000985098581F481D501F481C582140C424A401214319501D499950995840201C495850902000011C581A4921401A4C214319501A4999509B5807B0F0BD00002640A2
:400A40003C050000A45B001000002140FF00FFFF087F0000400D030004050000FEFCFFFFFFFF00FFFFF0FFFFFF8FFFFF00002740FFFCFFFF0C05000000000140140C0000A8
:400A800000FF0080E40C00000408000001FF0080240C0000FF0000FF00A1870040FF008010B50A00002105F02FF810BD10B505F022F810BD70B58AB09621002001F0E6FCA3
:400AC00001F0BCFC002801D101F0A8FC012001F0D3FA424A516C424B0B40E82189010B435364536C1B0AFF2213403A2B07D13B4A516C3C4B0B40E82189010B4353640023C2
:400B000000223949394801F01BFD012300223849384801F015FDFFF7BBFE374A374B1A6000240CE0620012195300354AD318998B1A8B588B00041043FFF7B2FF01340B2CA1
:400B4000F0D900240AE06200121993002C4AD3189A6E596E186EFFF7A9FF0134112CF2D9284C2100383120004430FFF763FE0123254A1360254A1360254A13688321490045
:400B80000B43136001AD2A0023004C3343CB43C243CB43C243CB43C229001E4801F0D2F82A002300703313CB13C213CB13C213CB13C22900184801F0C5F82A00174B143364
:400BC00013CB13C213CB13C213CB13C22900144801F0B8F8FFF748FE0AB070BD00002740FF00FFFFFFC5FFDF0E0E0040040E000000060040290600000300FA05F001214056
:400C0000A45B0010A45C00100479344008793440007934408002324000033240245D00100005324010B5002814D00B4BD8620B4B1B78002B08D10848094B436301F04CFD7F
:400C40000122064B1A7000E00020002803D101F071FD00E0034810BD0C020008EC3600089C5B00100100160010B583089A00801AC000FF228240D44381400A40072B32D840
:400C80009B001949CB589F46184B196A0C4022431A6228E0154B596A0C4022435A6222E0124B996A0C4022439A621CE00F4BD96A0C402243DA6216E00C4B196B0C4022436D
:400CC0001A6310E0094B596B0C4022435A630AE0064B996B0C4022439A6304E0034BD96B0C402243DA6310BD786D00100000214083089A00801AC100FF228A40072B2BD8ED
:400D00009B001748C3589F46164B186A1040C84023E0144B586A1040C8401EE0114B986A1040C84019E00F4BD86A1040C84014E00C4B186B1040C8400FE00A4B586B1040E4
:400D4000C8400AE0074B986B1040C84005E0054BD86B1040C84000E00020C0B27047C046986D00100000214070B504000D000B4B9A680B4B9A420BD1002903D1FC21094858
:400D800001F038FB1034064BA400E058E55003E01034A400044BE05870BDC04600ED00E000000008B86D001000000010F0B583B0041E019150D04368032B03D936212948A1
:400DC00001F018FB0023E05E002802DBA178FFF74BFF0023E25E6368002A12DB9008224EC0308000875903210A40D200FF25290091408F4399012B000B4093403B4383512E
:400E000017E092B20F21114008398908063189001648844661444E6803200240D200FF2738009040864398013B000340934033434B600E4B9A680E4B9A420FD1019B002B71
:400E400003D14521074801F0D5FA0023E05E0199FFF78AFF002002E0064800E0002003B0F0BDC046B86D001000E100E000ED00E0000000080100560070B504000D00036935
:400E8000002B0ADA0B0C03D00549064801F0B2FA2D042D0C6560002000E0034870BDC046B3020000FC6D001001008A0070B505000C000368002B01DA002300E0084B002B72
:400EC0000BD1EA60230C03D00649074801F092FA2404240CAC60002000E0014870BDC04601008A009A020000FC6D001070B505000C1E03D19921064801F07CFA2B69002BD9
:400F000003DAEB682360002000E0024870BDC0463C6E001001008A00F8B504000E0015000F283FD8002A10D100290ED10F2804D9AA21FF31214801F05DFA6401204B9C4695
:400F40006444204B1C60002037E0002D2CD0002E2CD0F3062CD10F2C04D9AA21FF31174801F048FA6401164B9C466444154F3C607E60BD60F2080021280004F0C5FD002158
:400F80002000FFF779FF3A0001CA0021FFF78EFF00280FD10B4B18680021FFF76DFF00280AD10AE0084808E0074806E0064804E0054802E0054800E00448F8BD7C6E0010B6
:400FC000000023401437000803018A0001018A00F0B583B00D001C4B1B68DC68236883422DD947097B01C01A012383401E00002903D101F09EFA019001E000230193124B01
:4010000018680368002B01DA002300E00F4B002B0ED16368BF00DF193B68334203D133433B60002400E00A4C0021FFF725FF00E0084C002D04D1019801F07FFA00E0064CD9
:40104000200003B0F0BDC0461437000801008A00020188000301880004018A00F0B583B00D001C4B1B68DC68236883422DD947097B01C01A012383401E00002903D101F064
:4010800058FA019001E000230193124B18680368002B01DA002300E00F4B002B0ED16368BF00DF193B68334203D0B3433B60002400E00A4C0021FFF7DFFE00E0084C002D53
:4010C00004D1019801F039FA00E0064C200003B0F0BDC0461437000801008A00020188000301880004018A000A4B1B68DA68136883420BD943095901401A01218140526847
:401100009B009B580B4203D0034802E0034800E003487047143700080101880004018A0000018800034B1B68002B01D1014B18607047C04620370008F0B5474680B404009A
:401140000F0090461E002B4B1B68002B03D1B421294801F04FF9072C03D9B521264801F049F9244B1B682C2060431C18FF22150035402560330A13406360330CA3600F2D59
:4011800004D9AA21FF311D4801F034F96B011C4A94466344236165680F2D04D9E2214900164801F027F96D01164B9C4665446561A668330C04D0F1214900104801F01AF964
:4011C000330C04D0E421FF310C4801F013F93604330C1E43AE604346E36127620023A361069B002B02D000229B5EA38104BC9046F0BDC04620370008BC6E00107C6E001038
:401200000000234000102340F0B58FB0041E03D150212E4801F0EEF86368032B03D952212A4801F0E7F8E36A002B03D15621274801F0E0F8E368072B03D95721234801F08E
:40124000D9F8236A072B03D95821204801F0D2F8236B002B03D159211C4801F0CBF807AA1300210061C961C321C921C302AD290023001433C1CBC1C141CB41C10821535E0E
:401280000CAE3380079B1933B370089B0D930B9B0A980096A26AE16AFFF74EFF2B69E868002200920021FFF747FF216B3000FFF77DFD0023F25E002A05DB1F231A401E3B62
:4012C0009340034A13600FB0F0BDC046BC6E001000E100E0F8B504000F0016001D00002A03D1FD21284801F085F8284B1B68002B03D1FE21244801F07DF8072C03D9FF21EC
:40130000214801F077F8072F04D9802149001E4801F070F81D4B1B682C2120004843181879435918012213004C68A3401B044468A24014000269002A20D08F69002F1FD1BE
:401340001268002A01DA002200E0114A002A19D132681204120C134333600369DE6001238B614D620569230C03D00A490A4801F041F82204120CAA60002004E0074802E09B
:40138000074800E00648F8BDBC6E00102037000801008A009A0200007C6E001004028A0007028A0070B504000D001600134B1B68002B04D16221FF31114801F01BF8072CAE
:4013C00004D9B12149000E4801F014F80B4B1B682C2060431C18236A002B04D1B3214900074801F007F8E369B34204D9236AB6009D51002000E0034870BDC0462037000891
:40140000BC6E00100A028A0070B582B0040000230193002804D1EA2149002B4800F0EAFF2369002B04D1D621FF31274800F0E2FF6369002B04D1EB214900234800F0DAFFE5
:40144000236A002B04D1D821FF311F4800F0D2FF6269D5682B0C1FD01B041360136820690369002B18DA01A9FFF740FD00280ED1019803681E0CFF221340E269934207D2C2
:401480009B00226AD358002B02D0984700E0002631002069FFF7F0FC2D042D0C0FD063691D601B68636A002B03D098470023636203E0A36A002B00D098470023A3616369F8
:4014C0001B6802B070BDC046BC6E001004281DD8042904D94B1EFF3B9BB2132B18D8FF290CD91F2319400B4A0300C0339B009950D03080000423835000200AE00723194083
:40150000D0308000034BC150002002E0024800E0014870470000264001004A0010B50400042804D91621FF310A4800F063FF2300D0339B00084A985807231840042807D189
:40154000C034A400A3581B30184080235B00184310BDC046FC6E00100000264070B5041E04D1E221FF314C4800F044FFB023DB004A4AD358002B01DB002500E0484D002DD8
:4015800000D086E0474B22689A4204D9F8214900414800F02FFF23689B03990BE3791B068022520413400B43B022D2003B498B50A2883D4B9A4204D9F821FF31364800F00F
:4015C00019FF2289394B9A4204D9FC214900324800F010FFA388DB04D90C23891B04344A13400B43334A2D498B50A37A0F2B04D9FF214900284800F0FDFEE37A0F2B03D9FA
:401600002A49254800F0F6FEA289274B9A4204D980218900204800F0EDFEA37A0F211940E27A1201FF2313400B43A289120222490A401343A27B1207C02189050A401343BC
:40164000B122D20015498B50A379072B04D982218900114800F0CEFE228A144B9A4203D916490D4800F0C6FE0C4815494658154B1E40A3791B02E022D2001340334343507E
:401680004658114B1E40238A1B04094A134033434350280070BDC046FC6E00100000264003004A00FFFF0300FF1F0000FF0100000000FF018405000000FF1F0009020000FE
:4016C0008C050000FFF8FFFFFFFF00FE70B505002D492E4A8B588020000603438B502C0003E0012000F07AFE013CB223DB00264AD3585B0701D4002CF3D12349B122D2004E
:401700008858234B03408020800503438B50002D02D00ED0002C0CD01B49B022D2008B588020000603438B5003E0012000F056FE013CB223DB00144AD358DB0701D4002C9A
:40174000F3D1002D0ED0002C0CD10F4AB021C90053585B005B0853500C4953585B005B0853500BE0084B0221B222D2009950B121C9005A58C020800502435A50002C01D1A2
:40178000044800E0002070BD000026408C050000FFFFFFCF02004A00F0B5474680B45B4B98426FD89A4274D8594B994278D80124584B1C70FF2806D80E3404400F250F2338
:4017C0009C46072021E0544B984206D80F2630400F2500239C46002417E0030A0F2633404E4CA04208D80001F03630401843FF2500239C46002408E00002F0263601304098
:401800001843474D00239C460024FF2A10D81201FF231A401443E022D202024316000F3B62461A439446F0273F032F4300203DE0394B9A4208D81204F0273F033A401043BB
:4018400006002F43002031E0160A3604F0231B031E403043314B9A420AD81205F0231B041A4010430600FF273F042F4300201DE01206F0263605324010430600294F2F4317
:40188000002013E0002700239C460026002426480CE0002700239C4600260024224805E0002700239C46002600241F4800282AD11E4B1B68002BFBDA164B5B78002B04D061
:4018C0001B4B1C4AD358002B19DA1B4A1B4B1A601B4A1C4B1A60174BA322D20090469D58624695432C4342469C50174C1A59BA4332431A51074A51600D4A995000E01348F1
:4019000000220A4B5A6004BC9046F0BD0F060000FFFFFF0024370008FF040000FF0500000F0F000000000F0F01004A00E00023401C050000000026401F1F000008012640B9
:401940003D3D0000040126401405000003004A0070B582B000220023009201932C4B1A702C4B1B68002BFBDA2B4B1A682B4B9A4206D12B4B1A682B4B9A4203D0002502E01A
:40198000002500E00125A423DB00274AD4582402220A0023009201931E4B00225A60002D2DD0009A019B1A4329D0002815D1184B58680A000023002102F0BCFC009C019DC4
:4019C000EE07620832436B0880185941009A019B02F090FC0090019115E0009A019B0800002102F0A7FC0A4B5A685408002500196941002302F07EFC0090019103E000229E
:401A00000023009201930098019902B070BDC04624370008E0002340080126401F1F0000040126403D3D000000002640F0231B06C3180F4A934201D8580A18E0EC231B0608
:401A4000C3180C4A934204D85B0A8020400218430DE0EA231B069C466044064B984204D8400A80229202104301E0012040427047FFFF0F00FF7F000010B50400FFF7D6FF0D
:401A8000431C03D0E40503D0002002E0002000E0012010BD214B984230D00ED8402831D004D800281FD010282AD031E080282BD080235B00984229D02AE0194B984229D0C8
:401AC00007D8A0231B0698420DD0164B984212D01EE0154B98420AD0144B984209D0144B984215D101E0002016E0124814E0124812E0124810E0A020C0030DE007480BE087
:401B00000F4809E00F4807E00F4805E0034803E00E4801E0A420C0037047C04606005200010000F0090000A0040000F0050000F0030000F001005200020052000300520078
:401B4000010050000200500005005200FF00520010B50C4B1B69002B11DB0B4B1868FFF799FF0121094B0A4AD150084B084AD358002BFAD1074BD358002BF6D100E00648B1
:401B800010BDC04600002340303700080C040000000025408C0400000200500010B5022202490020FFF7FEFB10BDC046BD08000870B504000D00FFF75FFF002827D0002D70
:401BC00027D0FEF70DFC144B144A1A6000225A609C60DD60124B19691A69120AFF2313405A1C0B0E013353430E4C5C430E4B1868FA21890002F008FA0100200002F004FADD
:401C00000A4BC1188020400003F0A6FF02E0084800E0074870BDC046303700080001000500002140C0EA2101C4000008482600000600520010B5FFF78BFF10BD10B504005B
:401C4000FFF71AFF00282AD0FEF7CAFB154BE02252051A601A68802149000A431A605C6000229A60DA60104B19691A69120AFF2313405A1C0B0E013353430C4C5C430C4B69
:401C80001868FA21890002F0BFF90100200002F0BBF9084BC118002003F05EFF00E0064810BDC046303700080000214060F59000C4000008980800000600520070B5040050
:401CC0000D00FFF7D9FE00282ED0002D2ED0FEF787FB174BC022D2041A601A68802149000A431A60832252005A609C60DD60114B19691A69120AFF2313405A1C0B0E0133DC
:401D000053430D4C5C430D4B1868FA21890002F07BF90100200002F077F9E1239B00C118002003F019FF02E0054800E0044870BD3037000800002140808D5B00C400000881
:401D40000600520070B505000C00002848D0002948D0FF230A689A4303D08D21224800F049FBFF2322699A4303D08E211E4800F041FBA3685B0D03D08F211B4800F03AFBA8
:401D800063685B0A03D09021174800F033FBE3695B0F03D09121144800F02CFB236A5B0F03D09221104800F025FB104BEB18DB090F4A944663441B0122682A60E268AA62BD
:401DC0002269EA6262692A63A2686A626268AA61A2696A63E2691A60226A5A60002002E0044800E0034870BD846F00100000CEBF0010030401005A0010B5074A07481358AE
:401E00000F24A34302210B43135004381358A3431943115010BDC0460000214004F0000010B5074A074813580F24A34303210B43135004381358A3431943115010BDC04668
:401E40000000214004F000000449054A8858054B0340C020C00103438B5070470000214004F00000FF8FFFFF0449054A8858054B03408020C00103438B50704700002140FB
:401E800004F00000FF8FFFFF10B5002000F0A6FBB0235B055B78002B04D0B0235B055B78DBB200E02123222B03D8002803D1013002E0012000E0002010BDC04610B504007C
:401EC000002000F08BFB00280AD114498A69144B1A40240680235B041C4014438C611BE0002C01D00F4A00E00F4A01210F48FEF7DDFF00280DD10D4B1B69002BFBDB0B4B67
:401F0000DB681B0E1B06A0221206934203D0084802E0074800E0002010BDC04600F02540FFFFFFFE0101003001000030000023400400420070B50400022805D0052803D0BA
:401F40002349244800F056FAFFF79EFF00283CD000F0EFFA0600022C10D10120FFF7AEFF051E18D1FFF748FF1B494B6907229343043A13434B61FFF767FF0CE016494B69D5
:401F800007229343043A13434B61C82000F026FAFFF76AFF0025002D13D10F494B69072293431A000723234013434B61052C08D1C82000F013FAFFF733FF0020FFF77EFFF7
:401FC0000500300000F0B9FA00E0044D280070BD3706000004700010000026400300420010B50400012803D90D490E4800F002FA002C03D10C4B5869C00F00E00020012C9D
:402000000CD1094B9B695B0005D4074B9B69002B03DA012002E0012000E0002010BDC0469C060000047000100000264070B504000D00072803D90D490D4800F0DBF90D4B4E
:402040009B690722134021009C420DD0094882690726B243344014438461002D04D0994202D9C82000F0BAF970BDC046FC0600000470001000002640F8B50500012804D9DD
:40208000EA21C900294800F0B5F9FFF7FDFE002848D000F04EFA0700002D17D1E823DB00B0225205D65CF6B20120FFF707FF041E1FD1FFF7A1FE1E481E4943581F2293438C
:4020C000143A13434350FFF7BFFE12E01A4BB0225205D65CF6B21648164943581F229343143A13434350092000F078F9FFF7BCFE0024002C12D10E490E4A8B581F208343F2
:4021000006401E438E50012D08D1163800F066F9FFF786FE0020FFF7D1FE0400380000F00CFA00E0054C2000F8BDC04604700010000026401CFF0000410700000300420047
:4021400070B5040000F0F5F9002C05D01A4B1B681F2B03D9002502E0002500E00125002D25D0E368002B1FD02368002B1ED0124B59680B00002203E0A34204D01A005B6927
:40218000002BF9D100E00025002D10D0002902D1094B5C6000E05461226100236361064A13680133136002E0002500E0002500F0C4F9280070BDC0464037000870B50400DF
:4021C00000F0B7F9174B1A68002A25D059680B0002E0A34204D05B69002BFAD1002500E00125002D19D0A14207D14B69002B0CD00C494B600021196107E019695C694C61EE
:402200005969002901D01B690B61013A054B1A60002A02D15A6000E0002500F08EF9280070BDC0464037000870B584B005000E00042803D929492A4800F0DCF8731EDBB2A6
:40224000012B07D9042E05D0082E03D02549244800F0D0F8042E01D0012E1DD1224B5C68002013E023799D420FD1A368002B01D01E420AD1E36801A85A6842609B68836071
:40228000067023689847184B9C606469002C23D0164B9842E6D11FE0134B9C68022E02D1002C00D02469002011E023799D420DD1A368002B01D01E4208D1E36801A85A68B4
:4022C00042609B6883600670236898472469002C02D0064B9842E8D104B070BD95080000047000109608000040370008FF00420070B50500012804D94E21FF311B4800F085
:4023000079F81B4B1B68002B05D001210020FFF78BFF040000E00024002C20D100F009F90600134B1B68002B03D004210020FFF77BFF104A136904218B431361012D01D094
:4023400030BF00E020BF300000F0F7F8084B1B68002B09D008210020FFF766FF04E002210020FFF761FF044C200070BD047000104037000800ED00E0FF00420010B500F042
:40238000D8F8074B5A6807490A40E824A40122435A605A68114059605B6800F0CEF810BD00002640FF00FC0F10B5040006E0084B186800F0B5F8074B9C46644480231B0292
:4023C0009C42F4D8044B1868604300F0A9F810BDDC0000080080FFFFD800000810B5034B1B78584300F09CF810BDC046D400000801BEFEE770B50D00044C1822010020002C
:4024000003F08AFBA5610020FFF7F2FFB00B00080122014B9A60704700002540054B802212069A649B6C002B01DB002000E002487047C0460000274003004600054B802210
:40244000120198585B68FF221A4202D08023DB021843704700002640FEE7C04610B50A4B0268DA6142681A6282685A62C2689A620269DA6242691A6382695A63C2699A6314
:40248000FFF7EAFF10BDC046B00B0008F0B5002801D0192200E064228A42924152421C4BE8256D005C590327BC433A4014435C515C59184E34405C51D03D5C59BC43224396
:4024C0005A515A5916405E51002805D010290DD921290DD8012014E01D290BD93A290BD957290BD978290BD803200AE0002008E0022006E0002004E0012002E0022000E09A
:402500000420054A13680F218B4303431360F0BD00002140FFFCFFFF00002540000000000230800803D001300238FCD1C046C0467047EFF3108072B6704780F310887047EF
:40254000F8B506000C0015001F00012B03D936211248FFF74FFF32006240F0231B01134019D1220A0F210A40D20170310C401419A4000B4A94466444FF221640002D01D0A8
:402580000133FF3333437F028026B60037403B432360002000E00348F8BDC04644700010002001400100CE00042805D1094A116804230B4313600CE00006C0239B0418406E
:4025C00090239B00044AD050024A136804218B431360704710E000E00000214010B504000F2803D9E4210548FFF704FFA402044B9C46644423680F20184010BD887000107D
:402600000040244070B50378012B02D0082B44D049E0294B1B78012B47D00320FEF764FD264B984243D001F0CDFC012841D0022005F0F6FF0500FFF77CFF214B186005F078
:40264000FCFF0400062817D0022D0AD1022007F083FE032C01D0052C10D1002810D0194C13E0012007F078FE022C0BD000280BD1FFF73EFE134C08E0002406E0114C04E0D1
:40268000002402E00F4C00E00E4C0E4B9C4211D10B4B1868FFF751FF0CE0094B1868FFF74CFF002406E0074C04E0064C02E0054C00E0044C200070BD98510008010188008B
:4026C0006C370008FF00420010B50248FFF776FD10BDC046A405000810B5002817D00D4B5860C36A002B01D00A4A936000240A4B1C700A4B1C700A4B1C600A4B1C7000F016
:4027000097FB094B1C70094B1C70002000E0084810BDC0466C370008A8510008AC510008B0510008AD510008975100089C5100080100160070B590B00CAE102510222A496F
:40274000300003F0D8F902AC28220021200003F0DBF9264B0293A660254BA3810423A373244A526812692261234A62611B2222836283183A227763770233A377E5771A33AE
:40278000E5540133E55451336384023A4C3BE2541A48FFF7D5FC05F027FF08A805F0BAFF00281ED1164B039302A805F05BFF002814D10122134B1A700023134A1370134AEE
:4027C00013700C4B5B681A6A00929B6ADB886A4693801423D38068461EF042FF00220C4B1A6010B070BDC046C87000108D320010542900006C37000896100000A4050008F8
:40280000EC0B000898510008A0510008A1510008B0510008014B024AD050704778F0010000003C4010B50EF0F7FA044B1B68002B02D0002800D0984710BDC0467837000874
:4028400010B5002809D0FA23FF33994207D80A00044903F050F9002002E0034800E0024810BDC0460708001601001600F0B55F4656464D464446F0B4B14CA54481460E000E
:40288000904605930B00AF4A914204D942468A18AD498A4211D9AD4A934204D94246B218AB498A4209D9AB4A934200D823E14346F318A94A934200D922E1A84B5B695B0093
:4028C00010D5A64B5B6907241C40022C25D10520FFF730FB0190A24B9842F8D003940123049324E09F4B9D4AD3581F221A40E823DB00B0214905CB5C9B1A5A1E9341DBB286
:402900000493002B0FD10120FFF7B6FB944B9842F9D001900523039309E00394012304930023019303E005230393002301938E4B019A9A4204D1D621FF318C48FFF75AFDA5
:40294000F0231B069C466644730A9A465C0200210320FEF73DFB0028F9D100250023029399E0B4421BD3BD4219D24A4652191078804606A84146C154594600290DD180217B
:4029800049058846A044414609786846017001781278914201D001229346013505E080225205A218127806A8C2540134013304E0002100238B46844647466D4A9342D0D943
:4029C00059466046B846002962D0019B002B5FD1059B002B51D1C83300951D00B3465646A24680231B03F7187F023800FFF726F90400013D0120FFF7F1FCA423DB03220080
:402A00001A409A4201D1002DEBD122000294009D5446B2465E46574B9A4205D1FFF70AF9554B9842FAD00290029B002B19D1C83300971F00A34606A90098FFF73FF9040032
:402A4000013F0120FFF7CAFCA423DB0322001A409A4204D1002FEED102945C4601E002945C46444B029A9A4211D1FFF7E3F8424B9842FAD0029001200AE080200003504469
:402A8000400206A9FFF794F80290012000E0012001239C46E244029B019A134301D1454586D3002801D0FFF7B3FC00210320FEF7D5FA0028F9D1019B002B25D1274B5B69F5
:402AC0005B0009D5039B022B06D10220FFF732FA0190234B9842F8D0204B1B681B0213D4049B002B10D10020FFF7C6FA01901C4B9842F8D008E000230193204B029303E087
:402B0000002301931D4B0293019B002B0CD11C4B029999420AD0194B994207D0002901D1002004E0174802E0174800E0174887239B009D443CBC90469946A246AB46F0BD39
:402B4000E4FDFFFFFFFFFF0F00001010FFFFFF1300800014FF070016000A001600002640040042001CFF000003004200D8710010FF0100000100500002005000060052000A
:402B80000200520013001600120016000100160010B500280AD0FA23FF33994208D8F93BFF3B0A000349FFF761FE02E0024800E0014810BD070800160100160010B5002329
:402BC000FFF754FE10BDC04670B5C0B005000C001600802252000849684602F08CFF05E02A7872406B469E5C0135013C002CF7D1300040B070BDC046D870001010B50022B1
:402C0000FFF7E2FF10BDC04600207047B0235B05588880B27047C0460020704710B5FFF7DDFB10BD064B1B685B6B00229A5E002A05DB1F231A401E3B9340024A13607047DE
:402C40007037000800E100E0094B1B685B6B00229A5E002A0ADB1F231A401E3B9340802204498B50BFF34F8FBFF36F8F7047C0467037000800E100E0A023DB00024AD3580A
:402C8000032018407047C04600002640024B034AD058C00F7047C0461C0500000000264010B5FEF755FE10BD70B504000D0016000320FEF719FA054B984205D032002900F6
:402CC0002000FEF769FD00E0014870BD0101880003004A0070B5431ADC171B196340934227D3164B164CE458A405A40D884208D9401A51084018110001F086F9201A0ED564
:402D00000AE0081A51084018110001F07DF900190C4B984202D802E0002000E00A48084D06496B589B0A9B028205920D13436B5001E000240020201A70BDC0463C05000053
:402D400000002640FE030000FF03000010B5034B1A6880210902FFF7BDFF10BDBC05000810B500F0D7FF0220FFF754FD094C2368586B0949FEF71AF823685B6B00229A5E06
:402D8000002A05DB1F231A401E3B9340034A136010BDC046703700082528001000E100E00420704710B5FFF7C4FB10BD10B5FFF7C4FB10BD10B5FFF79BFA10BD10B5002175
:402DC000FFF734F910BDC0467047C0467047C046002070470048704711001600004870471100160000487047110016000048704711001600004870471100160000487047CF
:402E000011001600004870471100160000487047110016000048704711001600004870471100160000487047110016007047C04610B5024800F0D8FD10BDC0469C050008A0
:402E400070B5022875D8002975D10022002306E03C4CE45C012C01D90132D2B20133002BF6D0012A0CD1384B1B681C688A0052189300E3185B681B79023BDBB2012B5CD8DC
:402E8000324B1B78002B5AD1314B197000281DD12D4E34688B005B189A0023689D18CB00591A4B006168C918898829822168891849686468E45A0C8031680C68A4466244A5
:402EC00052684968CB185B8853801FE001281DD11D4D2C688B005B189A0023689E18CB00591A4B006168C91889893182216889184E686168C9180989318029680C68A4462D
:402F0000624452684968CB185B895380114B18700D4B1B6818680E4B1B789A00D3189A0080181AF00BFB00280AD10122074B1A7006E0094804E0084802E0084800E0084825
:402F400070BDC046A051000870370008A151000896510008AD5100080100160002001600FF00160070B5002907D1154B1B681B689968CE7F002300250FE0114B1B681B68D0
:402F8000D968CE7FF6E7CA5C002A0AD00133CC5C1B2C01D09B1800E00125B34201D2002DF1D0002D0BD001338279CA54002204E0D4180134855C0D550132052AF8D970BD7A
:402FC0007037000870B505001EF068FB041E24D1134B19682B899A00D2189300143B0A6A944663445A68920117D5EA7B1B695B68C8691B1A50008018C0180A4BC018AA8810
:40300000296802F078FDEB7B074AD35C012B04D1064A117802230B431370200070BDC04670370008A45100089C5100089751000870B586B004000289164B1B685B699B8849
:403040009A4223D101A80300220062CA62C300238381A389C38140230374FFF7B3FF051E0ED123681B789B0705D50B4B1B6821000A48984704E0084B1B6821000848984777
:40308000084A137801218B43137000E00025280006B070BD70370008743700080500010006000100A851000810B54288531E9BB23C2B1CD84478002C1BD1104B1968930055
:4030C0009A189300143B0A6A944663445A68920111D51B695868C969411A63001C19641807496118022202F006FD002004E0012002E0012000E0002010BDC046703700089B
:40310000A451000830B587B0041E18D00E4B1B68196A028993009A189300143BCB185B689B010ED401AD14220021280002F0ECFC2B0007CC07C32800FFF744FF02E00E20F7
:4031400000E0012007B030BD7037000870B586B006000C1E16D0002816D001AD14220021280002F0D1FC2B0007CC07C3022231001220684402F0BFFC40232B742800FFF7C8
:4031800021FF02E00E2000E00E2006B070BDC04630B583B004000D0006220021684602F0B3FCA3896A4613802389538012231371074B1B78DB0709D4002D04D05571684667
:4031C0001DF0B6FB02E0E0681DF0D4FB03B030BDA851000810B5002811D00023002406E09A0011495258904200D1012401330E4A1279934206D2002CF2D0002303E000242D
:403200000A4B00E00023002B0CD1002C0AD1064A1279002A05D104499400605001320A7100E0034B180010BDB4510008010016000300160070B506000D000020002406E05B
:40324000A200074BD3582900300098470134044B1B799C4203D2034B1B78DB07F0D470BDB4510008A85100088379002B06D000200AE0C25C002A06D1013300E00023052BDD
:40328000F7D9002000E001207047C046F0B5474680B48CB004000D00BC4A117801230B43DBB21370BA4B984200D113E231D8B94B984200D1C6E015D8B74B984200D1EAE035
:4032C00007D8023B984257D0B44B984200D1DEE06FE3B34B984200D11CE1B24B984200D162E366E3B04B984200D147E208D8AF4B984200D19EE0AE4B984200D11EE158E36B
:40330000AC4B984200D1E9E1AB4B984200D131E24FE3AA4B984200D10AE316D8A84B984200D1BEE208D8A74B984200D1D6E1A64B984200D162E23CE3A44B984200D1CDE206
:40334000A34B984200D1D1E233E3A24B984200D1FAE208D8A04B984200D1EDE29F4B984200D1EDE225E39E4B984200D1F0E29D4B984200D13EE21CE39B4B1E683000FFF71C
:4033800073FF00280CD030001BF0B6F8964E00213068FFF7E7FD30680121FFF7E3FD37E0924B19688B6A1B79002B22D0B02040058F4BC35C3F2213408E4E865D3240920106
:4033C0001A438D4BC65C1F2333401B031343C022D200805C7F220240520413430A6B1370824A1168096B180A48701268126B1B0C93707E4E3368186B1BF07EF83368186BF9
:403400000021FFF7AFFD3368186B0121FFF7AAFD764B1B68986A02301BF01EFC0822774905A802F068FB05A81BF08AF80222744B1A70BEE20023724A1370724A1370FFF785
:4034400043F9B6E2704B1B68DB0700D5B1E205AE03220021300002F057FB644F3B689B6A1B785BB2337030001BF084F83B689B6A5B785BB2337001277770FF23B37030007F
:403480001BF078F8604B1A6817431F6091E22900FFF7D0FE8DE26B78984602225749083105A802F028FB00261DE002AF73005749C9180222380002F01EFB7B78002B02D11C
:4034C000534AD35C00E00023012B0BD973004F4A9B5C984506D17300D118022205A802F00AFB02E00136002EDFD005AB5B78FF2B05D104D1F22189004648FEF77BFF05AB7B
:403500001B8808AA138007AA13801B0A2978424AD1544EE22B78002B00D04AE22B7A002B06D13E4B0022DA809A803D4A1A606B60164A137801218B4313703AE26B79984620
:4035400002222E49083105A802F0D5FA00266AE003AF73002D49C9180222380002F0CBFA7B78002B02D12A4AD35C00E00023012B58D97300254A9B5C984553D17300D118E0
:40358000022205A802F0B7FA4FE0C046A85100080A400000042000000210000001100000031000000410000006400000123000000440000007400000084000000E500000F0
:4035C000025000001040000001500000035000000C500000145000000F500000105000001750000001600000C005000870370008040600000506000003060000147200100E
:4036000098510008A1510008B051000894510008A051000820720010AC5100089C370008403500080136002E92D005AB5B78FF2B05D104D1F2218900C948FEF7DBFE05AA68
:40364000138809A90B8013801B0A6978C54AD154EB78002B00D0ACE16B7998460222C249083105A802F047FA00261DE004AF7300BE49C9180222380002F03DFA7B78002BDC
:4036800002D1BB4AD35C00E00023012B0BD97300B64A9B5C984506D176009119022205A802F029FA02E00136002EDFD005AB5B78FF2B05D104D1F2218900A948FEF79AFE64
:4036C00005AA13880AA90B8013801B0A0121A94AD1546EE12900FFF7ADFD6AE1AB7E002B44D12B7E012B02D10022A34B1A70EB7E984602229C49083104A802F0FCF9002600
:403700001DE005AF73009949C9180222380002F0F2F97B78002B02D1954AD35C00E00023012B0BD97300914A9B5C984506D176009119022204A802F0DEF902E00136002E5E
:40374000DFD004AB5B78FF2B05D104D1F22189008348FEF74FFE04AA13880BA90B8013801B0AFF2B02D0297E844AD1540222844B1A701EE10222824B1A701AE12900FFF7B3
:4037800059FD804B1B78DB0700D412E17A4B1B78012B03D10222784B1A700AE1032B03D10022754B1A7004E1022B00D001E10022714B1A70744B1B685868744B1978CA0042
:4037C000531A5B00C3189A79002A00D1F1E09B88002B00D1EDE06E4B1B78002B00D0E8E00120FFF72DFB002800D0E2E00122624B1A70DEE02900FFF71DFDDAE002222900FB
:40380000684602F078F96B465B78002B03D10221574AD15406E0002B04D1E12189005048FEF7E8FD68784000504B18180222290002F061F96B780021564AD1545800C018AB
:40384000554E8019504B1B6819692B785A00D318524A94466344C9180631032202F04BF96B785800C01880190221FFF7C7F96B785A00D318F618B37898420DD0484B1B6841
:403880000021484898476B785800C318424818180322002102F038F929002000FFF7CAFC87E001AE02222900300002F024F97378002B03D100212E4AD15406E0002B04D10A
:4038C000E12189002648FEF795FD6B780021294AD15429002000FFF7ADFC6AE005A82B880380172343801DF031F862E02A89531E9BB23C2B0ED905A8AB8903804280122308
:403900000371012646711DF013F81E4A1378B34313704EE02800FFF78BFB011E04D129002000FFF787FC01002800FFF731FC40E02900FFF77FFC3CE02900FFF77BFC38E059
:403940002900FFF777FC34E02900FFF773FC30E02800FFF7A9FB29002000FFF76BFC28E0207200109C5100081472001094510008A051000894370008A151000898370008DC
:4039800098510008A85100087037000896510008AD510008AC510008A45100089010000074370008040001000B4A117801230B4313700A4B1A7811231A4209D0074A137818
:4039C00001218B431370064B1B682900200098470CB004BC9046F0BD97510008A8510008743700080020704710B5002805D0044B18600448FFF7EEFB00E0034810BDC0462C
:403A0000A8370008E53900100100160070B50D000F4B184300040F4BD861FA24A40003E0013C0120FEF7DAFC0A4B1B6CDB0701D4002CF5D1002C08D0064B196C01220A433F
:403A40001A64DB6A2B80002000E0034870BDC0460080FFFF00003C400400160010B500040E4B184001430E4BD961FA24A40003E0013C0120FEF7B2FC094B1B6CDB0701D4BD
:403A8000002CF5D1002C06D0054A116C01230B431364002000E0034810BDC0460000FF7F00003C4004001600F0B583B006000A24C02149017548FFF7D1FF002804D16B46C3
:403AC000991D7248FFF7A2FF002C01D0013C00E06F48002805D16B46DA88C0235B019A42E6D1002825D16B46991D6A48FFF78EFF00281ED16B4606331B885B0519D40A2432
:403B00008021C9006348FFF7A9FF002804D16B46991D6048FFF77AFF002C01D0013C00E05B48002805D16B46DA888023DB009A42E6D1002804D16B46991D5748FFF766FF1A
:403B4000002844D16B4606331B883F229343B278012A15D1F178012904D88FB20222D21B95B201E000250227402213439BB2302213436A46D380494BCB40494A136013E08A
:403B8000F178002904D18FB20122D21B95B201E00025012740229343102213436A46D380404BCB403E4A13606B469C1DD9883943D9803948FFF752FFF378DB1B0322134043
:403BC000AA0092B213432380374A38498B50B0235B055B78002B04D0B0235B055B78DBB200E02123212B4FD0314BB0225205D35A9BB2002B48D0002804D16B46991D2D489F
:403C0000FFF704FF002824D16B469A1DDB8860218B4318001380B0256D05254C2B5B60310B405B08034324490B401380295BC901F020C00001400B43204919401180285B18
:403C4000C0239B000340DB00194311801948FFF705FF002804D16B46991D1948FFF7D6FE002811D16B469A1DD988C023994311800F4BB0204005C05A302303409B00194398
:403C800011800F48FFF7EAFE03B0F0BD021E000004001600031E0000091E00000048E801C00000080024F40064F0010000003C4016180000071E00007FF5FFFFFFE7FFFFD1
:403CC000061E000070B50C004000084901430848FFF7C4FE051E04D106490748FFF7BEFE05006001FEF77AFB280070BD01100000081E0000376800000F1E00000349044A88
:403D00008858102303438B507047C04600003C4070F00100F0B59DB013A9144B0A00180070C870C270C870C270C870C20AAD28001A002432D0CAD0C0D0CAD0C0D0CAD0C07B
:403D400001AC22004833C1CBC1C2C1CBC1C2C1CBC1C20748FDF7F6FF29000648FDF7F2FF21000548FDF7EEFF1DB0F0BD58720010000132408001324000023240F8B5051EEB
:403D800000D1D4E06E4B5B689B0301D5FEF7F6FA6C4C03E0013C0120FEF720FB6A4B6B4AD358002B01D0002CF4D1694B674AD358DB0704D5674BD358DB0700D5B9E0624BF9
:403DC000624AD358002B00D0B5E0FFF7A3FF5F4B6149624A99502A788021C9020A4360495A506049604A9950802252009B58DB0700D5A2E05D4B1B6F1B0709D45C4B186879
:403E00005C4B984206D9190000F0FEF8013802E0012000E000204D4B1B68002803D04003554A104300E055481843484B1860444B5B695B000ED501210320FEF7F7F8404B74
:403E40005B695B000CD53E4A93698021C9050B43936105E03D494A4A8858032303438B503A4C3B4AA658474B3343A3504020FEF7B5FA454BE358DB070BD42700424C01237A
:403E80003B514020FEF7AAFA03233B514020FEF7A5FA3E4F37403E4E3E432D4B2B4AD650FA24E40003E0013C0120FEF797FA394B394AD358DB0601D4002CF4D1002C01D014
:403EC000002400E0354C002C23D12049344A8858082303438B500120FEF782F8002801D1304E3E43304B1E4001231E43184B174AD650144E03E0013E0120FEF76FFA154BD6
:403F0000124AD358DB0701D4002EF4D1002E00D1224C002C03D12800FFF7C6FD0400002C0CD168782978FFF7CDFE040006E01F4C04E01F4C02E01E4C00E01E4C2000F8BDA4
:403F400000002640F07E0E006CF0010000003C40A0F00100B4F0010006000001A4F00100A8F0010001000100ACF0010000F03D40C800000800093D00041A0080040A0080CD
:403F8000C4F0010030000300B0F00100EFFFFEFF2000020010400000000032400400160068F0010028000200FFFFFBFF010016000300160002001600014B18687047C04643
:403FC000C000000810B5002405E02000FDF7A6FA032804D00134042CF7D9002000E0012010BDC046A023DB00064AD35803221340012B03D0032B03D1012002E0012000E0B9
:404000000020704700002640002243088B4274D303098B425FD3030A8B4244D3030B8B4228D3030C8B420DD3FF22090212BA030C8B4202D31212090265D0030B8B4219D360
:4040400000E0090AC30B8B4201D3CB03C01A5241830B8B4201D38B03C01A5241430B8B4201D34B03C01A5241030B8B4201D30B03C01A5241C30A8B4201D3CB02C01A5241FD
:40408000830A8B4201D38B02C01A5241430A8B4201D34B02C01A5241030A8B4201D30B02C01A5241CDD2C3098B4201D3CB01C01A524183098B4201D38B01C01A5241430951
:4040C0008B4201D34B01C01A524103098B4201D30B01C01A5241C3088B4201D3CB00C01A524183088B4201D38B00C01A524143088B4201D34B00C01A5241411A00D2014660
:40410000524110467047FFE701B5002000F0F0F802BDC0460029F7D076E7704703460B437FD4002243088B4274D303098B425FD3030A8B4244D3030B8B4228D3030C8B4269
:404140000DD3FF22090212BA030C8B4202D31212090265D0030B8B4219D300E0090AC30B8B4201D3CB03C01A5241830B8B4201D38B03C01A5241430B8B4201D34B03C01AAD
:404180005241030B8B4201D30B03C01A5241C30A8B4201D3CB02C01A5241830A8B4201D38B02C01A5241430A8B4201D34B02C01A5241030A8B4201D30B02C01A5241CDD203
:4041C000C3098B4201D3CB01C01A524183098B4201D38B01C01A524143098B4201D34B01C01A524103098B4201D30B01C01A5241C3088B4201D3CB00C01A524183088B422B
:4042000001D38B00C01A524143088B4201D34B00C01A5241411A00D201465241104670475DE0CA0F00D04942031000D34042534000229C4603098B422DD3030A8B4212D3F2
:40424000FC22890112BA030A8B420CD3890192118B4208D3890192118B4204D389013AD0921100E08909C3098B4201D3CB01C01A524183098B4201D38B01C01A52414309AA
:404280008B4201D34B01C01A524103098B4201D30B01C01A5241C3088B4201D3CB00C01A524183088B4201D38B00C01A5241D9D243088B4201D34B00C01A5241411A00D23A
:4042C0000146634652415B10104601D34042002B00D54942704763465B1000D3404201B5002000F005F802BD0029F8D016E770477047C046002B11D1002A0FD1002900D184
:40430000002802D00021C943081C07B4024802A14018029003BDC046D9FFFFFF03B4684601B5029800F050F8019B9E4602B00CBC7047C046F0B54F464646C0B41604360CCA
:404340009946330005042C0C070C150C63437E436F4365431C0CAD1964199C46A64203D980235B02984647446346250CEF191D044B464A4343432D0C240464199918C91963
:4043800020000CBC90469946F0BDC04670B500220C4B04000D0001F05DFA002804D12000290001F0B5F970BD064B00222000290000F05AFE01F0ACF980231B069C466044C0
:4043C000F1E7C0460000E041F0B54D46564644465F46F0B4924683B004000D0099468B422FD82CD04946504601F05CFA29000600200001F057FA331A9846203B9B4600D513
:4044000074E053465A4693401F005346424693401E00AF4229D826D05B46A41BBD41002B00DA79E0002200230092019301235A4693400193012342469340009319E08242E2
:40444000D0D900220023009201930C9B002B01D01C605D600098019903B03CBC90469946A246AB46F0BDA342D6D900220023009201934346002BE8D0FB0772081A43464664
:404480007B080EE0AB4201D1A2420CD8A41A9D41012024196D410021013E24184D41002E06D0AB42EED9013E24196D41002EF8D15B460098019900196941002B22DB2B0070
:4044C0005A46D3402A004446E2401C005B461500002B2CDB26009E40330026004746BE403200801A994100900191AEE7424620239B1A5246DA40414613004A468A401700AD
:404500001F4382E7424620239B1A2A0046469A402300F3401343D5E74246202300219B1A0022009101920122DA40019282E74246202326009B1ADE402F00B44697406646A8
:404540003B003343C9E7C046F0B556464D4644465F46F0B41D000E034C00CB0F87B0070092468146360B640D98466AD06D4B9C4235D08022430F12041343F6001E43C3001D
:404580009946694B00279C460023644402932B0368001B0BED0F51469B46400D009500D178E0604B98426CD05B46DA004B0F802109040B4313439B465346D9005A4B9C4602
:4045C000002360444246201A6A40924601901F430F2F00D9B0E05548BF00C0598746374300D088E0002399460233082700260293CDE74346B34649460093029B009A92469A
:40460000022B00D0BFE1002153460122002689461A40444B002136030C0D2405360B2643434C1B0526401E437600D207760816434846310007B03CBC90469946A246AB4644
:40464000F0BD330003434FD0002E00D1BCE1300001F00AF903000B3B1C2B00DDADE11D220100D31A08393A008F408E40DA40B9461643304B00279C4600236044444202931D
:4046800085E753465A4613432CD1002300219B46023397E70B4320D05B46002B00D19EE1584601F0E1F803000B3B1C2B00DD8FE102005946083A91408B461D21CB1A51464C
:4046C000D9400B0059460B4351469B469140194B9C4660444042002374E7002300219B4601336FE703236DE70023994601330427002602934BE703230C27029347E70122C0
:40470000D51A382D00DCB0E153461A4000210023002689467EE700238026994600223603004B77E7FF07000001FCFFFF60820010FFFF0F80F30300005E4500D972E100D165
:404740006DE1019B4D46013B01930023340002935B461E020B0E1E430B020393330C994633041B0C494620000093FFF74DFC009B370043430600494620009846FFF7CAFC7E
:404780002C0C09040C43A04509D9E419731EA74200D95CE1A04500D859E1023EE4194346E41A49462000FFF72FFC0300009A80465343494620009B46FFF7ACFC2A04090424
:4047C000120C0A4393450DD94346D219013B974200D93AE1934500D837E102235B429C46D219E0445B46D21A4346360433439B460399180C0B0C1D00059309045B46090CA2
:404800000C001B041B0C4443049159436B4368431B190D0CEB189C4203D980246402A44660441C0C09041B04090C20185D18824200D2DEE000D1D7E0161A029B9C465D1B5A
:40484000AC459B415B42F61AB74200D106E149463000FFF7D9FB009B04004343494630009846FFF757FC2E0C09040E43B04509D9F619631EB74200D9F3E0B04500D8F0E038
:40488000023CF6194346F31A494618000293FFF7BBFB009B06004343494602989846FFF739FC2D0409042D0C0D43A84509D9ED19731EAF4200D9D6E0A84500D8D3E0023E6F
:4048C000ED192404210043463143049E059A3000ED1A0B040C0C1B0C58436643534354439A19030C9B189E4203D980225202944664441A0C00041B04000C14191B18A542F0
:4049000050D34DD001231943964A019B94466344002B00DCF3E64A0709D00F220A40042A05D00A1D8A42894149428B4411005A46D20108D55A468C4B1A4093468022D2009C
:404940009446019B6344894A934200DD5BE65A46C908500708435602514601225B058146360B5B0D0A4055E680231B031E4211D05A461A420ED15E461E433603360B2A0054
:4049800089467B4B46E6032B00D1E1E0012BBBD11A40BBE61E433603360B4246744B39E6002BB1D07D194A1EAF4252D91100A542A8D1039A9A42A5D1A6E703003E00283B2B
:4049C0009E400023994654E600F04EFF203041E603005246283B9A400021934677E6504600F042FF20305EE6029B0026AB4200D323E7039E0299B44661448846B045B6413D
:404A00005B467642F619B218013B0291974213D290424FD800D18EE0161A9B460DE7894500D28EE674084B46F60735005B081D434B46DB0702938BE69742EDD10399029C1A
:404A4000A142E5D93E1A9B46F7E69846CAE61E00A5E6AC423ED874D0110053E70121494252E71C000EE71E002BE71F2D3CDC20230A0058465B1B9840EA4099400243481E43
:404A800081415E461143EE404B0709D00F230B40042B05D00B00191D99429B415B42F61833023CD55346012200211A40002601238946AFE502235B429C46039CE344A44641
:404AC000029B63449846A045B6417642F6190293B218B1E603988A1E41008142B6417642F619AD19039161E71F225242D31A5A46DA401300202D29D040225846551BA84027
:404B00000143481E814107200B4318400026002809D00F2200261A401900042ABBD10B0070077602360BDB0803439946012253461A4000236EE502998D42BBD89B460026BE
:404B40007BE603989842C5D3110032E70020D7E780265B4636031E433603360B009A8946034B57E5FF030000FFFFFFFEFE070000FF070000F0B55F4656464D464446F0B4C2
:404B80000D0399464E002B0B87B00700924680469B46760DCC0F002E69D06D4B9E4235D05B468022DD001204430F13432B439B46C3009846674B00279C4600236644019379
:404BC0004A4615035000D20F53462D0B400D914600D176E05E4A90426CD080225B0F120413435C4AED0094461D4353460022DB00604449463618701C6140029017430F2F57
:404C000000D9AFE05448BF00C759BF465B461F4300D088E000239B469846023308270193CEE74946022A6AD0032A00D109E2012A00D0BBE111400022002300259046CCB23E
:404C400000212D030A0D12052D0B1543434A1B0515401D436D00E4076D0825434046290007B03CBC90469946A246AB46F0BD034352D05B46002B00D18AE1584600F0F4FD06
:404C800003000B3B1C2B00DD7BE11D22D31A3A0001005D46DA4008398D4013008F402B439B46B8462E4B00279C46002360444642019385E752462A432CD10025002302228B
:404CC00097E752462A4321D0002D00D154E1280000F0CAFD03000B3B1C2B00DD46E11D21CB1A51460200D9405346083A954093400D431B4A944660444042002279E70124E6
:404D000000220C40124B0025904699E70025002301226EE703226CE700239B4698460133042701934CE703230C27019348E700238025984600242D03054B81E75D464346F3
:404D4000019A6FE75D4643462100019A6AE7C046FF07000001FCFFFFA0820010FFFF0F80F30300004246120C91461A0C9446424617044A461B041B0C5A43604690464A46AE
:404D800042431000039262461C003F0C7A437C4342440192220C9246019A5244904506D98246802040028046C24450460390100C049048462404240C1204121905922A0CF7
:404DC0002D042D0C68432C00824648467C4350438146200C8046574357444744BA4503D9802040028046C144380C3F04B84648442404240C01900498A04440440490584699
:404E0000000C814658460404200C8246070048465F434C464343604660436446834650464443380C8446E4186444A34203D980235B029C46E34448463F04230C3F0C2404EE
:404E4000E419574668436F4384464D46504655434243380C814662444A445B44944503D9802040028446654403983F04834604983F0C8446E344C34580414042824610049D
:404E800084460198674484466744A344BC46A345A4419946D44464428742BF41D4458041E144A04699459B417F424042C8440743120CBA18A045A4415F423B006442234379
:404EC000D71843467D19DB0D6D021D435B465A02059B1A43531E9A415B46DB0D1A4343465B021343EA0107D501225C0813402343EA07029E13436D08574AB218002A4BDD65
:404F0000580709D00F201840042805D0181D98429B415B42ED180300E80104D54F4A15408022D200B2184E48824200DDE7E60124DB08680718436D02530580462D0B5B0D30
:404F40000C407DE6802259461203114208D0154206D115432D0398462D0B4C46414B6FE65D4615432D032D0B3E4B69E603005546283B9D400023BCE6504600F075FC20309D
:404F8000A8E60300283B9F400023BB46984689E600F06AFC203073E60124A61A382E07DD00220C4000230025904649E6029EA3E71F2E20DC20222C001800921BF04094401A
:404FC00093400443581E83411C43F540630709D00F232340042B05D023001C1D9C4292415242AD182B021FD5012400220C4001230025904624E61F202C004042821AD4400D
:40500000202E1CD04022961BB5402B43581E83410720234318400025002809D00F2200251A401C00042AD8D1230068076D022D0B0124DB08034398460C40002300E60025F9
:40504000E3E780220124120315432D0398462D0B0C40044BF4E5C046FF030000FFFFFFFEFE070000FF070000F0B557464E464546E0B40E001100F20F9246C500420F18034C
:4050800037037400400A4E0F7F0A3043CF4E17435A00640D520DDB0FC900B24200D1E5E001267340A61AB446534500D1AFE0002E00DC0DE1002A3AD103000B4300D0E4E023
:4050C0006B0709D00F232B40042B05D02B1DAB42AD416D427F191D003B0200D488E0BB4B01349C4200D110E13A00B94B51461A4001235007ED08520264050543120B640DB7
:405100000B400021280012030D0D120B64052D0515436208AF4CDB072C401443640064081C4321001CBC90469946A246F0BDA74B9C42C5D080231B0418436346382B00DDB5
:40514000FDE01F2B00DD30E1624620239B1A02009A40664690460A009940F24046464B1E99413243114363460200DA40691A8D429B410D00BA1A5B42D71A3B0235D57A024A
:40518000530A98464346002B00D1C4E0404600F06BFB0300083B1F2B00DDC5E020222900D21A4746D1409F400A009D403A439C4200DDC0E01C1B631C1F2B00DDE4E0202128
:4051C00014002800C91AD8408C408D400443DA40681E854117002543002471E7424663461A4300D14CE2674645466B0700D069E7012351467807ED08FA080B400543734960
:405200008C4238D012036405120B640D79E7002E00DC9AE0002A47D06C4A944200D14FE78022120410436246382A00DC08E10143481E81410022C9B24919D219A942BF41B9
:405240000D007F42BF183A0200D442E15F4A0134944200D14EE101205D4A69083A4028400843D507054357089A4629E706000E4300D017E714E72900114300D1F9E18021E0
:4052800009030A431203120B3BE701235B429846C4446346002B72D1691A8D429B413F1A5B42FF1A0D0068E702000A4300D107E7012252429046C4446246002A00D0E6E0DF
:4052C0006918A942B6413F187642F7190D00BAE7002E00D080E0621C5205520D012A00DCF9E06A1A91464D45B6413A1A7642921B9046120200D499E04D1BA9428941C71B39
:4053000049427A1A90469A463CE752460123002513400022F5E6280000F0A6FA20300300083B1F2B00DC39E72A002838824000259C4200DC3EE7264FE41A1740C0E60143AC
:40534000481E81410022C9B210E7002E00D0F1E0621C94465205520D012A00DCA0E01B4A944500D1C5E06918A94292413F185242D2194908D5070D4357086446A0E6134BDA
:405380009C4200D0D9E69BE611001F3CE1400C00202B00D180E04021CB1A9A4015436A1E95410027254300241FE763460200203BDA406346202B71D0402366469B1B984069
:4053C0000143481E814111430022CFE6FF070000FFFF7FFFFFFF0F80002C48D0CA4CA24200D1A2E07442A1468024240427434C46382C00DDDBE01F2C00DD44E14E462024F0
:40540000A41B3E00A640A246B0464C462E00E640B4464646644626435446A5406C1EA54134002C434D46EF400D1B28E04A4643464D461A4300D0A5E6002300240025DEE614
:405440001F2A5ADC66462022921B060096409146B04662460E00D640424616434A4691404A1E9141020060463143C240E4E63C002C435AD0F443A146002C52D14D1BA942A4
:405480008941C71B49427F1A14009A4675E69E4A944200D0C7E613E600227FE700208FE7002C00D0C8E03B002B4300D10FE103000B4300D104E66918A9429B413F185B4225
:4054C000DF193B0200D41AE1904B0D001F406446F6E59A4689E63A002A43002C5CD1002A75D102000A4300D1CAE007000D009A46E6E564460022002581E662460600203A34
:40550000D6406246B046202A00D1B7E040226646921B904001434246481E8141114300228AE6794CA24200D061E707000D0014009A46C5E5002C41D13C002C4378D0F443C5
:40554000A146002C20D0704CA24271D04C46382C00DDB2E01F2C00DDBCE02026341BA2463C005646B4404E46A0462C00F440A446444666463443A4465446A54064466E1EC5
:40558000B54125434C46E7406D188D4289413F184942CF19140056E6002A2FD102000A4300D184E007000D009A46574C88E53D436F1EBD41ECB200270D1B60E7524CA24229
:4055C00036D0744280263604A1463743BEE702000A4300D174E56A1A90464545B6413A1A7642921B9446120200D4F7E54D1BA9428941C71B49427F1A9A4661E502000A43C6
:405600003AD0ED087C072C438025FA082D032A4208D0C7082F4205D145072C003A009A46C9080C43670FD200E5001743364C47E507000D00140043E53A002A4343D0020055
:405640000A4319D0ED087C072C438025FA082D032A4207D0C6082E4204D147073C003200C9080C43D700620FE50017439A46264C26E50022002544E5234C21E5002049E7EB
:4056800000230025BBE54C463E00203CE6404C46B446202C31D040244E46A61BB7403D436C1EA54164462C4300270D1BE7E6802200231203144C0025A1E53D436F1EBD4112
:4056C0000027EDB260E707000D000F4CF8E407000D00F5E44E463C00203EF440A0464C46202C0ED040244E46A41BA7403D436F1EBD4144460027254346E70027CFE70D0088
:4057000073E50027F2E7C046FF070000FFFF7FFF0B0330B5134D1A0B4B005B0DC90F0024AB4211DD104CA34210DC8024640322430E4CE41A1F2C0CDD0D48C31ADA401300FF
:405740005C42002900D11C00200030BD094BCC18FAE7E040084CA44663449A4013000343EEE7C046FE0300001D0400003304000013040000FFFFFF7FEDFBFFFF70B5051E22
:4057800028D000F071F8154B154A1B1AD21A1F2A16DD2C00134A0025D21A94405A052403240B520D002124030B0D240B1B0523430D4C1205234013435B002800590870BDAB
:4057C0000B212C00081AC440954024035A05240B520DE7E700220024E4E7C0461E0400003304000013040000FFFF0F808446101C62468C46191C634600E0C0461FB500F068
:4058000001F9002801D40021C8421FBD10B500F055F84042013010BD10B500F0F3F8002801DB002010BD012010BDC04610B500F0E9F8002801DD002010BD012010BDC046E6
:4058400010B500F07BF8002801DC002010BD012010BDC04610B500F071F8002801DA002010BD012010BDC0461C2101231B04984201D3000C10391B0A984201D3000A083977
:405880001B09984201D30009043902A2105C40187047C0460403020201010101000000000000000010B5002903D1FFF7DDFF203002E0081CFFF7D8FF10BDC046F0B55F46C8
:4058C00056464D464446F0B41F035C00DB0F9A46194B0E034D00C90F8046360B6D0D8B4691463F0B640D9D4219D0134B9C421BD00123A54206D018003CBC90469946A24608
:40590000AB46F0BDBE42F6D1C845F4D1D34510D0002DF0D1304303005A1E9341EBE7310001230143E7D1E0E73A430123002AE2D1DEE70023DFE7C046FF070000F0B55F461C
:40594000444656464D46F0B41F033C0B2C4F0E034D00A3465C008446360B6D0DC90F9046640DDB0FBD422BD0254FBC422ED0002D0ED130430700814678427841002C17D177
:405980005F463A4314D14B460020002B0AD006E0002C02D15846024301D099421AD00123484218433CBC90469946A246AB46F0BD0028F2D058425841012240421043F1E7A3
:4059C00037000743D0D002204042EBE75F461743CDD0F8E7A542E2DC05DB5E45DFD808D000205E45DED248424841012340421843D8E7C445D3D80020C445F4D3D2E7C04635
:405A0000FF070000F0B55F464D4644465646F0B41C03240BA4462F4C0F034D005E00C90F80463F0B6D0D8B469146760DDB0FA54220D0284CA64222D0002D12D1384344429C
:405A40004441002E20D0002C0DD05C42634101245B421C4320003CBC90469946A246AB46F0BD002E17D05B4519D05B465C4201231C43EFE7390002240143EBD1D9E76146C8
:405A800002241143E6D1D7E761460A43DBD100240028DFD0E9E761460A43E4D1E5E7B54203DD01225C421443D4E7B542CDDB6745DBD809D000246745CCD259464C42614159
:405AC000012449420C43C5E7C845CED80024C845F3D3BFE7FF07000030B50024A24208D0035D651C0C5DA34201D0181B02E02C00F4E7002030BD002310B59A4203D0CC5CF8
:405B0000C4540133F9E710BD03008218934202D019700133FAE77047030030B5002A0DD00C7801335D1E013A2C700131002CF5D19A189A4202D01C700133FAE730BD0000C8
:405B4000F8B5C046F8BC08BC9E467047F8B5C046F8BC08BC9E46704701B40248844601BC604700BFE908000803000000010000000100000000000000050360000400000043
:405B80000100000000000000010000000604600008000000CC360008E9070010030018000300000019200102F4010000140004010A000905080000006301000000203440E7
:405BC0007400802034407400002234407400802234407400002434407400802434407400002634407400802634407400002834407400802834407400002A34407400802A85
:405C000034407400002134405C5D00109000000000233440EC5D001090000000002534407C5E001090000000002734400C5F001090000000002934409C5F0010900000001D
:405C4000002B34402C6000109000000000603440BC6000107C00000080603440386100107C00000000613440B46100107C00000080613440306200107C00000000623440A5
:405C8000AC6200107C00000080623440286300107C00000000633440A46300107C00000080633440206400107C000000006434409C6400107C0000008064344018650010C3
:405CC0007C00000000653440946500107C00000080653440106600107C0000003A305C04630100011401000003243440027834400300000000000000000000006800000037
:405D00000000000000000000000000001212000000000000000000000000000000000000000000BA0000000000000000000000000000000000001D1D01000000000000004A
:405D400000000000000060000000000000000000000000000000000000000000000000000000000000000000FFFFFFFFFFFFFFFFFFFFFFFFFFFFFFFFFFFFFFFFFF000000D8
:405D8000FFFFFFFFFFFFFFFFFFFFFFFFFFFFFFFFFFFFFFFFFF000000000000000000000000000000000000000000000000000000FFFFFFFFFFFFFFFFFFFFFFFF11111111C0
:405DC0001111111111111111111111111111111111111111111111111111111111111111111111111111111111111111000000000000000000000000FFFFFFFFFFFFFFFFBF
:405E0000FFFFFFFFFFFFFFFFFFFFFFFFFF000000FFFFFFFFFFFFFFFFFFFFFFFFFFFFFFFFFFFFFFFFFF00000000000000000000000000000000000000000000000000000084
:405E4000FFFFFFFFFFFFFFFFFFFFFFFF11111111111111111111111111111111111111111111111111111111111111111111111111111111111111111111111100000000FE
:405E80000000000000000000FFFFFFFFFFFFFFFFFFFFFFFFFFFFFFFFFFFFFFFFFF000000FFFFFFFFFFFFFFFFFFFFFFFFFFFFFFFFFFFFFFFFFF00000000000000000000000C
:405EC00000000000000000000000004000000000FFFFFFFFFFFFFFFFFFFFFFFF111111111111111111111111111111111111111111111111111111112111111111111111FA
:405F0000111111111111111111111111000004000000000000000000FFFFFFFFFFFFFFFFFFFFFFFFFFFFFFFFFFFFFFFFFF000000FFFFFFFFFFFFFFFFFFFFFFFFFFFFFFFFB6
:405F4000FFFFFFFFFF00000000001F000000000000000000000000000000000000000000FFFFFFFFFFFFFFFFFFFFFFFF1111111111111111111111111111111111111111BF
:405F800011111111111111111111111111111111111111111111111111111111000000000000000000000000FFFFFFFFFFFFFFFFFFFFFFFFFFFFFFFFFFFFFFFFFF0000001A
:405FC000FFFFFFFFFFFFFFFFFFFFFFFFFFFFFFFFFFFFFFFFFF000000000000000000000000000000000000000000000000000000FFFFFFFFFFFFFFFFFFFFFFFF111111117E
:406000001111111111111111111111111111111111111111111111111111111111111111111111111111111111111111000000000000000000000000FFFFFFFFFFFFFFFF7C
:40604000FFFFFFFFFFFFFFFFFFFFFFFFFF000000FFFFFFFFFFFFFFFFFFFFFFFFFFFFFFFFFFFFFFFFFF00000000000000000000000000000000000000000000000000000042
:40608000FFFFFFFFFFFFFFFFFFFFFFFF11111111111111111111111111111111111111111111111111111111111111111111111111111111111111111111111100000000BC
:4060C000000000001F1F1F1F1F1F1F1F1F1F1F1F1F1F1F1F1F1F1F1F1F1F1F1F1F1F1F1F1F1F1F1F000000000000000000000000000000000000000000000000FFFFFFFFC4
:40610000FFFFFFFFFFFFFFFF111111111111111111111111111111111111111111111111111111111111111111111111111111111111111111111111000000000000000037
:406140001F1F1F1F1F1F1F1F1F1F1F1F1F1F1F1F1F1F1F1F1F1F1F1F1F1F1F1F1F1F1F1F000000000000000000000000000000000000000000000000FFFFFFFFFFFFFFFF47
:40618000FFFFFFFF11111111111111111111111111111111111111111111111111111111111111111111111111111111111111111111111100000000000000001F1F1F1F37
:4061C0001F1F1F1F1F1F1F1F1F1F1F1F1F1F1F1F1F1F1F1F1F1F1F1F1F1F1F1F000000000000000000000000000000000000000000000000FFFFFFFFFFFFFFFFFFFFFFFF47
:4062000011111111111111111111111111111111111111111111111111111111111111111111111111111111111111111111111100000000000000001F1F1F1F1F1F1F1F36
:406240001F1F1F1F1F1F1F1F1F1F1F1F1F1F1F1F041F1F1F1F1F1F1F00001F000000000000000000000000000000000000000000FFFFFFFFFFFFFFFFFFFFFFFF11111111FA
:4062800011111111111111111111111111111111111111111111111111111111111E111111111111111111111111111100000000000000001F1F1F1F1F1F1F1F1F1F1F1F71
:4062C0001F1F1F1F1F1F1F1F1F1F1F1F1F1F1F1F1F1F1F1F000000000000000000000000000000000000000000000000FFFFFFFFFFFFFFFFFFFFFFFF1111111111111111B6
:406300001111111111111111111111111111111111111111111111111111111111111111111111111111111100000000000000001F1F1F1F1F1F1F1F1F1F1F1F1F1F1F1FC5
:406340001F1F1F1F1F1F1F1F1F1F1F1F1F1F1F1F000000000000000000000000000000000000000000000000FFFFFFFFFFFFFFFFFFFFFFFF1111111111111111111111116D
:4063800011111111111111111111111111111111111111111111111111111111111111111111111100000000000000001F1F1F1F1F1F1F1F1F1F1F1F1F1F1F1F1F1F1F1F0D
:4063C0001F1F1F1F1F1F1F1F1F1F1F1F000000000000000000000000000000000000000000000000FFFFFFFFFFFFFFFFFFFFFFFF1111111111111111111111111111111125
:40640000111111111111111111111111111111111111111111111111111111111111111100000000000000001F1F1F1F1F1F1F091F1F1F1F1F1F1F1F1F1F1F1F1F1F1F1F6A
:406440001F1F1F1F1F1F1F1F000000000000000000000000000000000000000000000000FFFFFFFFFFFFFFFFFFFFFFFF1110111111111111111111111111111111111111DD
:406480001111111111111111111111111111111111111111111111111111111100000000000000001F1F1F1F1F1F1F1F1F1F1F1F1F1F1F1F1F1F1F1F1F1F1F1F1F1F1F1F9C
:4064C0001F1F1F1F00000000000000000000000000000000000000F000000000FFFFFFFFFFFFFFFFFFFFFFFF111D1111111111111111111111111111111111111111111198
:4065000011111111111111111111111111111111111131111111111100000000000000001F1F1F1F1F1F1F1F1F1F1F1F1F1F1F1F1F1F1F1F1F1F1F1F1F1F1F1F1F1F1F1FC3
:4065400000000F000000000000000000000000000000000000000000FFFFFFFFFFFFFFFFFFFFFFFF111111111111111111111111111111111111111111111111111111113C
:40658000111111111111111111111111111111111111111100000000000000001F1F1F1F1F1F1F1F1F1F1F1F1F1F1F1F1F1F1F1F1F1F1F1F1F1F1F1F1F1F1F1F00000000A7
:4065C0000000000000000000000000000000000000000000FFFFFFFFFFFFFFFFFFFFFFFF111111111111111111111111111111111111111111111111111111111111111187
:406600001111111111111111111111111111111100000000000000001F1F1F1F1F1F1F1F1F1F1F1F1F1F1F1F1F1F1F1F1F1F1F1F1F1F1F1F1F1F1F1F00000000000000006A
:4066400000000000000000000000000000000000FFFFFFFFFFFFFFFFFFFFFFFF111111111111111111111111111111111111111111111111111111111111111111111111C2
:406680001111111111111111111111110000000001003D0001000028010000000B0000000018000000000000020003280100020003000000002A0000000000000300002AF9
:4066C00001000201030000000B00000054020008040003280100020005000000012A0000000000000500012A0100020105000000020000005C0200080600032801000200F3
:4067000007000000042A0000000000000700042A01000201070000000800000064020008080003280100020009000000A62A0000000000000900A62A010002010900000079
:40674000010000006C0200080A000328010002000B000000C92A0000000000000B00C92A010002010B00000001000000740200080C000028010000000F0000000118000083
:40678000000000000D000328010020000F000000052A0000000000000E00052A000020010F000000040000007C0200080F00022901010A030F000000020000008402000863
:4067C000100000280100000012000000AFE5000000000000110003280100020012000000100000008C02000812005BF301000209120000000200000094020008130000286A
:4068000001000000320000009CF8000000000000140003280100020016000000100000009C020008150012C2010002091600000014000000A40200081600F2BB01000009E9
:406840001600000001000000AC02000817000328010002001800000010000000B4020008180004DE010002091800000014000000BC02000819000328010002001A000000C7
:4068800010000000C40200081A00C54F010002091A00000014000000CC0200081B000328010002001C00000010000000D40200081C00C48B010002091C00000014000000C2
:4068C000DC0200081D000328010002001E00000010000000E40200081E003D4D010002091E00000014000000EC0200081F000328010002002000000010000000F4020008F4
:406900002000C980010002092000000014000000FC02000821000328010002002200000010000000040300082200AA220100020922000000140000000C0300082300032883
:40694000010002002400000010000000140300082400135E0100020924000000140000001C03000825000328010002002600000010000000240300082600F70101000209DF
:4069800026000000140000002C030008270003280100020028000000100000003403000828007EFB0100020928000000140000003C03000829000328010002002A000000E9
:4069C00010000000440300082A00153F010002092A000000140000004C0300082B000328010002002C00000010000000540300082C00E2DF010002092C00000014000000EC
:406A00005C0300082D000328010002002E00000010000000640300082E0081D1010002092E000000140000006C0300082F0003280100020030000000100000007403000886
:406A400030004E630100020930000000140000007C0300083100032801000200320000001000000084030008320057CA0100020932000000140000008C0300083300002897
:406A8000010000003D0000000558000000000000340003280100080035000000100000009403000835004D160001080935000000010000009C0300083600032801000A00FC
:406AC0003700000010000000A4030008370094AB01010A093700000001000000AC0300083800032801000A003900000010000000B40300083900A91F01010A093900000061
:406B000002000000BC0300083A00032801000A003B00000010000000C40300083B0022BD01010A093B00000002000000CC0300083C000328010002003D0000001000000008
:406B4000D40300083D005E47010002093D00000001000000DC030008FB349B5F80000080001000005BF3465CFB349B5F800000800010000012C2EF83FB349B5F8000008052
:406B80000010000004DED386FB349B5F8000008000100000C54F9E5FFB349B5F8000008000100000C48B4A4EFB349B5F80000080001000003D4DD709FB349B5F8000008054
:406BC00000100000C9808312FB349B5F8000008000100000AA221F1EFB349B5F8000008000100000135E8A1AFB349B5F8000008000100000F7010569FB349B5F800000804F
:406C0000001000007EFB8CEAFB349B5F8000008000100000153F69C8FB349B5F8000008000100000E2DF9A82FB349B5F800000800010000081D19418FB349B5F8000008021
:406C4000001000004E63F684FB349B5F800000800010000057CA5D6AFB349B5F80000080001000004D166704FB349B5F800000800010000094AB3C4FFB349B5F8000008085
:406C800000100000A91FABCEFB349B5F800000800010000022BD7B49FB349B5F80000080001000005E475802010003000500070009000B000C000E000F0000001000120000
:406CC0000000000000000000000000000000000000000000000000000000000000000000000000000000000000000000000000000000000000000000000013001500160056
:406D0000180000001A0000001C0000001E00000020000000220000002400000026000000280000002A0000002C0000002E00000030000000320000003300350000003700AE
:406D40000000390000003B0000003D000000000000000000000000000000000000000000000000000000000000000000000000000000000000000000880C0010940C00100E
:406D8000A00C0010AC0C0010B80C0010C40C0010D00C0010DC0C0010080D0010120D00101C0D0010260D0010300D00103A0D0010440D00104E0D001047656E65726174654C
:406DC000645F536F757263655C50536F43365C70646C5C647269766572735C7065726970686572616C5C737973696E745C63795F737973696E742E630000000047656E65A2
:406E000072617465645F536F757263655C50536F43365C70646C5C647269766572735C7065726970686572616C5C6970635C63795F6970635F6472762E68000047656E65E1
:406E400072617465645F536F757263655C50536F43365C70646C5C647269766572735C7065726970686572616C5C6970635C63795F6970635F6472762E63000047656E65A6
:406E800072617465645F536F757263655C50536F43365C70646C5C647269766572732F7065726970686572616C2F6970632F63795F6970635F6472762E68000047656E65E8
:406EC00072617465645F536F757263655C50536F43365C70646C5C647269766572735C7065726970686572616C5C6970635C63795F6970635F706970652E630047656E65C4
:406F000072617465645F536F757263655C50536F43365C70646C5C647269766572735C7065726970686572616C5C737973636C6B5C63795F737973636C6B2E630000000055
:406F400047656E6572617465645F536F757263655C50536F43365C70646C5C647269766572735C7065726970686572616C5C737973636C6B5C63795F737973636C6B2E6891
:406F80000000000047656E6572617465645F536F757263655C50536F43365C70646C5C647269766572735C7065726970686572616C5C6770696F5C63795F6770696F2E632A
:406FC0000000000047656E6572617465645F536F757263655C50536F43365C70646C5C647269766572735C7065726970686572616C5C6770696F5C63795F6770696F2E68E5
:407000000000000047656E6572617465645F536F757263655C50536F43365C70646C5C647269766572735C7065726970686572616C5C737973706D5C63795F737973706D20
:407040002E63000047656E6572617465645F536F757263655C50536F43365C70646C5C647269766572735C7065726970686572616C5C747269676D75785C63795F74726968
:40708000676D75782E63000047656E6572617465645F536F757263655C50536F43365C70646C5C647269766572735C7065726970686572616C5C70726F745C63795F70721F
:4070C0006F742E63000000002400060030000100280002002400020000316253C4F5A697B988DBEA7D4C1F2E4372211087B6E5D4FACB98A93E0F5C6D86B7E4D542732011A5
:407100003F0E5D6CFBCA99A8C5F4A796013063527C4D1E2FB889DAEB3D0C5F6EF9C89BAA84B5E6D7407122137E4F1C2DBA8BD8E9C7F6A59403326150BB8AD9E87F4E1D2C2F
:4071400002336051C6F7A495F8C99AAB3C0D5E6F4170231285B4E7D67A4B1829BE8FDCEDC3F2A1900736655439085B6AFDCC9FAE80B1E2D344752617FCCD9EAF38095A6B2F
:407180004574271681B0E3D2BF8EDDEC7B4A192806376455C2F3A0914776251483B2E1D0FECF9CAD3A0B586904356657C0F1A293BD8CDFEE79481B2AC1F0A392053467562F
:4071C00078491A2BBC8DDEEF82B3E0D1467724153B0A5968FFCE9DAC47656E6572617465645F536F757263655C50536F43365C70646C5C6D6964646C65776172655C626CF5
:40720000655C63795F626C655F68616C5F7076742E6300003F06000000000000FFFF000047656E6572617465645F536F757263655C50536F43365C70646C5C6D6964646CB6
