:020000041008E2
:4000000000780408F90208100D00000061030810610308106103081061030810000000000000000000000000000000005D0308105D030810000000005D0308105D0308104C
:400040005D0308105D0308105D0308105D0308105D0308105D0308105D0308105D0308105D0308105D0308105D0308105D0308105D0308105D0308105D0308105D03081000
:400080005D0308105D0308105D0308105D0308105D0308105D0308105D0308105D0308105D0308105D0308105D0308105D0308105D030810510C08105D0308105D030810C3
:4000C0005D0308105D0308105D0308105D0308105D0308105D0308105D0308105D0308105D0308105D0308105D0308105D0308105D0308105D0308105D0308105D03081080
:400100005D0308105D0308105D0308105D0308105D0308105D0308105D0308105D0308105D0308105D0308105D0308105D0308105D0308105D0308105D0308105D0308103F
:400140005D0308105D0308105D0308105D0308105D0308105D0308105D0308105D0308105D0308105D0308105D0308105D0308105D0308105D0308105D0308105D030810FF
:400180005D0308105D0308105D0308105D0308105D0308105D0308105D0308105D0308105D0308105D0308105D0308105D0308105D0308105D0308105D0308105D030810BF
:4001C0005D0308105D0308105D0308105D0308105D0308105D0308105D0308105D0308105D0308105D0308105D0308105D0308105D0308105D0308105D0308105D0308107F
:400200005D0308105D0308105D0308105D0308105D0308105D0308105D0308105D0308105D0308105D0308105D0308105D0308105D0308105D0308105D0308105D0308103E
:400240005D0308105D0308105D0308105D0308105D0308105D0308105D0308105D0308105D0308105D0308105D0308105D0308105D0308105D0308105D0308105D030810FE
:400280005D0308105D0308105D03081010B5054C237833B9044B13B10448AFF300800123237010BDBC49020800000000C0620810084B10B51BB108490848AFF300800848F4
:4002C000036803B910BD074B002BFBD0BDE81040184700BF00000000C0490208C062081084440208000000007047EFF3108072B6704780F310887047FFF7F6FF72B6114C56
:40030000114DAC4209DA21686268A368043BA2BFC858D050FAE70C34F3E70C490C4A00209142BCBF41F8040BFAE70A480A490860BFF34F8F00F014F900F0EEF800F01EF89D
:40034000FEE70000C4620810DC620810BC490208A45802080040020808ED00E0FEE7FEE700B504207146084202D0EFF3098001E0EFF30880043001F07FF8FEE708B500F076
:40038000B5F9FEE7704700BF5C4AD2F8803303F00F0303F1D00152F8212002F00702032A04D0042A05D092B9554914E0554A116811E003F1C002514951F8222002F01F02E9
:4003C000112A06D0132A04D04FF4FA4103E04E4901E04FF400418BBB484BD3F8902502F00100D3F88825C2F30172D3F8883513F0405F07D0414BD3F88835C3F30173012B27
:4004000002D102E0012300E0002303B108B9032A46D13A48D0F88025C2F31103D0F88425C2F30C02D0F88005C0F300600130B1FBF2F202FB03F2B2FBF0F131E0012B2FD15D
:400440002E4BD3F8402602F00100D3F80026C2F30172D3F8003613F0405F07D0274BD3F80036C3F30173012B02D102E0012300E0002303B108B9032A12D12048D0F80026CC
:4004800002F07F02D0F80036C3F30423D0F80006C0F3044002FB01F2B2FBF3F2B2FBF0F1164BD3F88033C3F3011321FA03F215494A601648D0F89030C3F3072301330069F5
:4004C000000E0130B2FBF0F08860B2FBF3F3CB600B6103F5742202F23F220D48A0FB0202C2F387420A7503F2E7330A4AA2FB03239B098B61DB03CB61704700BF00002640AE
:4005000000127A008C42020800366E010000214083DE1B43D34D621008B5104BD3F8802122F0404242F08042C3F88021D3F8802142F00042C3F88021D3F8802122F00102DB
:40054000C3F88021FFF71EFFFFF71EFF00F088FB00F08EFB00F04EFF08BD00BF0000264008B5FFF7C2FE074AD2F8883043F47003C2F88830BFF34F8FBFF36F8FFFF7B9FE97
:4005800008BD00BF00ED00E00122014B1A707047AC42020800283DD008B54368023B032B37D8DFE803F002101E21037A417A03EB012189B2184B1980184802F063FA184892
:4005C00002F0E6FA08BD037A417A03EB012189B2144B1980144802F055FA114802F0D8FA08BD00F08DF908BD037A1BB101220F4B1A7002E000220D4B1A700C4B1B780BB153
:400600000B4900E00B490C4802F03CFA044802F0BFFA08BD704700BFC04B0208E85D0810045E08102C580208085E0810EA4B0208D85D0810E05D0810245E081008B50B4BFE
:400640001B7813F0FF0FFAD0084B00221A709A6002781A7342785A73054B064A0121002000F068FD044B9842F6D008BDAC42020889050810B042020807028A00134B1B787C
:4006800013F0FF0FFAD030B583B0104B0021197001229A600DE030F91120ADF806204B000A4CE5182A7301332344C2F307221A7301318F29EFDD064B064A0121002000F049
:4006C00039FD054B9842F6D003B030BDAC42020889050810B042020807028A0008B50021014801F07DF808BD00001D4110B55D4C5D49204600F00AFBB4F90030002B08DBFD
:40070000590903F01F03012202FA03F3574A42F82130574C5749204600F0F8FAB4F90030002B08DB590903F01F03012202FA03F34E4A42F8213062B600234F4A13804F4ADC
:40074000138004E000214E4A22F813100133B3F57A7FF7DB4B4A4A4B13604FF47A731381002393804FF43271D180474A4FF47F71118040F2DD3151804FF46871918040F2D2
:400780004731D1804FF43571118140F24B21518140F2B111918140F20911D181592111824FF6A77151824FF6F76191824FF64F61D1824FF6B55111834FF62C5151834FF6F2
:4007C000B94191834FF66041D1834FF6234111844FF60441518405E000212C4A42F823100133DBB2112BF7D9002305E00021284A22F813100133DBB2122BF7D9254B122214
:400800001A70214A5A604FF490421A811F4ADA600023214A1370214A137005E00021204A42F823100133DBB21F2BF7D900241D4B1C7001201C4B18701C4B1C701C4B1C80E1
:4008400022461C4900F0D6FC234605E000211A4A22F8131001339BB2B3F5D87FF6D301F057F810BD845E08103909081000E100E07C5E0810DD060810C04B02082C580208DE
:400880008C4C0208345802080858020860540208C44B02087C4C02082E58020830580208EC4B0208EA4B02085C5402082F580208BC4B020895050810A854020830B4828809
:4008C00004892244A2F16C0393FBF4F204FB12339BB200240EE00589B3FBF5F205FB12339BB2026832F9132021F814200134A4B201339BB2828801329342ECD130BC7047A4
:4009000008B5074802F044F90122064B1A7006490648FFF7D3FF4FF4A272054B1A8008BD305E08102F580208A854020834580208BC4B0208000000002DE9F04DC8B0002143
:400940008D4800F063FF8D4980B200F057F98C4B1B78112B08D804E15A1E8A4C34F9125024F81350D3B200E01223002BF4D1854B1880854B1B78122B40F2EF80814BB3F996
:400980002410411A89B2814800F020F9804B1B78002B3BD07F4C2388C3F5D8757B490E688A8808890244013A92FBF0F100FB112236F91210784A22F81510013B9BB2238014
:4009C00023BB734A13700AE0744AA2FB03125208714931F913102DF8121003339BB2B3F5D87FF1D3002409E03DF914106C4802F049F82C2002F05EF80134A4B28F2CF3D99D
:400A0000684802F0C5F86846FFF738FEDFF87C81D8F80010B8F8042002F2E732624F87FB0230D317C3EBA0134FF47A7606FB13234FF0000A4FF0804B31F9130001F0E8F86D
:400A400052465B4604F098F804460D46D8F80010B8F8042002F2DE3287FB0237D317C3EBA71306FB132331F9130001F0D1F852465B4604F081F802460B462046294600F025
:400A80007BFF01F03DFB2323002507E05A1E474C54F8221044F823100D44D3B2002BF5D1424B18600544424C84FB0534ED17C5EBE404204601F0ACF804F0E2F92CA3D3E9FD
:400AC000002301F035FA01F043FBADF80000394B1B78232B3DD96846FFF7B0FDBDF80030354A1288934212D3344B1B7823B1344B1B780BB1FFF704FF0022314B1A70314B0A
:400B000008225A6010225A6004229A602CE02E4A1288934212D8294B1B7823B1284B1B780BB1FFF7EDFE0022254B1A70254B04225A6010225A6008229A6015E00122204B6B
:400B40001A70204B04225A6008225A6010229A600AE00133174A137006E001330A4A137002E00133064A137048B0BDE8F08D00BFCD3B7F669EA0F63F00001D417C4C02084B
:400B80002E580208C44B020830580208345802082F580208BC4B0208A8540208ABAAAAAA3C5E0810045E0810D34D6210EC4B0208398EE338BE4B0208C04B0208EA4B0208CB
:400BC0005C540208800432402C58020810B48288531C9BB20489A34200D30023046824F812108380C38801339BB2C3800289934201D30023C3805DF8044B704730B40B78AD
:400C0000013BDBB2002511E0CC6803F18042013A54F8222044F82320CA6852F823404A6832F9132004FB0255013BDBB2002BEBD1CB681860CB6818684B68B3F9003000FBC6
:400C40000355088995FBF0F000B230BC704700BF08B5024800F0FEFA08BD00BF044A020808B500221146042000F0DAF808BD00BF10B500F05EFC0446044800F08DF9044835
:400C800000F0F6F9204600F058FC10BDD8490208405E081010B504462146034800F050FC0028F9D010BD00BF00006640054BD3F80833C3F30803002BF8D0024BD3F8400378
:400CC000704700BF0000664038B50C4B9A680C4B9A420ED10D46044619B9FC21094800F0BBFB04F11003064A52F8230042F8235038BD1030044B53F8200038BD00ED00E0DA
:400D000000400208945E08100000081070B338B504460D464368072B03D93621154800F09BFBB4F900306268002B08DB5201D2B203F1604303F5614383F8002305E003F072
:400D40000F035201D2B20C49CA540C4B9A680C4B9A420DD11DB94521064800F07DFB2946B4F90000FFF7B0FF002038BD05487047002038BD945E081014ED00E000ED00E014
:400D8000004002080100560038B50369002B0DDA0D4604460B0C1B0423B140F2B321044800F05AFBA9B26160002038BD014838BDD85E081001008A0038B50368002B01DA43
:400DC000002300E0094B73B90D460446C2600B0C1B0423B140F29A21054800F03DFBA9B2A160002038BD014838BD00BF01008A00D85E081038B504460D4619B9992106489A
:400E000000F02AFB2369002B03DAE3682B60002038BD024838BD00BF185F081001008A000F2840D8F8B515460E46044682B979B90F2804D940F2A911214800F00DFB6001E2
:400E400000F1804000F50C101E4B18600020F8BD5DB366B316F01F0F2BD10F2C04D940F2A911174800F0F8FA640104F1804404F50C14144F3C607E60BD60F20800212846A2
:400E800001F086F900212046FFF77EFF3A4652F8040B0021FFF790FF68B900213868FFF773FF50B9F8BD084870470748F8BD0648F8BD0548F8BD0548F8BD0448F8BD00BF6F
:400EC000585F0810584B020803018A0001018A002DE9F0411B4B1B68DC68236883422CD90D464609A0EB4610012303FA00F819B900F01FFB074600E00027124B186803687F
:400F0000002B01DA002300E00F4B83B9626852F8263018EA030F05D023EA080342F82630002400E0094C0021FFF72EFF00E0084C25B9384600F001FB00E0064C2046BDE8C1
:400F4000F08100BF584B020801008A00020188000301880004018A000B4B1B68DB681A6882420CD94109A0EB4110012202FA00F05B6853F82130184203D00448704704480C
:400F800070470448704700BF584B02080101880004018A0000018800024B1B680BB9014B18607047644B02082DE9F8430446884691461E46089F2A4B1B681BB9B421294844
:400FC00000F04AFA072C03D9B521264800F044FA234B1B682C2000FB04F01C18F5B21D50C6F307236360360CA6600F2D04D940F2A9111D4800F030FA6D0105F1804505F533
:401000000C15256165680F2D04D94FF4E271164800F022FA154B03EB45156561A668330C1B0423B14FF4F1710F4800F015FA330C1B0423B140F2E3110B4800F00DFAB3B273
:4010400043EA0646AE60C4F81C90C4F820800023A36117B1B7F90030A381BDE8F88300BF644B0208985F0810585F081000102340F0B58FB0044618B950212C4800F0ECF990
:40108000A369072B03D95421284800F0E5F9E36A1BB95621254800F0DFF9E368072B03D95721224800F0D8F9236A072B03D958211E4800F0D1F9236B1BB959211B4800F037
:4010C000CBF907AE04F114050FCD0FC62F6802AD26460FCE0FC533682B60079B1933ADF83030089B0D93A26AE16A0CAD00953B460A98FFF759FF00210091069B0A460598A3
:40110000FFF752FF216B2846FFF700FEBDF93030002B08DB590903F01F03012202FA03F3034A42F821300FB0F0BD00BF985F081000E100E0F8B506460F461D4614461AB919
:40114000FD21264800F088F9254B1B681BB9FE21224800F081F9072E03D9FF211F4800F07BF9072F04D94FF480711C4800F074F91B4B1B682C2101FB063001FB07314B6865
:40118000012202FA03F31B04466802FA06F60269EAB18F69EFB91268002A01DA002200E0104AC2B92288134323600369DC6001238B614D620469330C1B0423B140F29A21E3
:4011C000094800F049F9B2B2A2600020F8BD0748F8BD0748F8BD0648F8BD00BF985F0810644B020801008A00585F081004028A0007028A00F8B505460F461646124B1B6899
:4012000023B940F26111114800F026F9072D04D94FF4B1710D4800F01FF90B4B1B682C2404FB0534236A23B94FF4B371074800F013F9E369B34204D9236A43F826700020DB
:40124000F8BD0348F8BD00BF644B0208985F08100A028A0070B582B000230193044620B94FF4EA71264800F0F7F8236923B940F2D511234800F0F0F8636923B94FF4EB7176
:401280001F4800F0E9F8236A23B940F2D7111C4800F0E2F86369DD682A0C1CD012041A601B6820690369002B15DA01A9FFF7A2FD60B9019803681E0CDBB2E269934206D2E5
:4012C000226A52F8233013B1984700E0002631462069FFF759FDADB275B16369ADB21D601B68636A1BB198470023636202E0A36A03B198470023A36163691B6802B070BDE9
:40130000985F08101F4B98422DD00CD840282ED003D8E8B1102828D02FE0802829D0B0F5807F28D029E0184B984228D006D8B0F1204F0DD0154B984212D01EE0144B9842C7
:401340000AD00133984209D0023B984215D101E0002070470F4870470F4870470F4870474FF4A0007047074870470D4870470D4870470D487047034870470C4870474FF4B9
:40138000A400704706005200010000F0090000A0040000F0010052000200520003005200010050000200500005005200FF00520008B50C4B1B69002B12DB0B4B1868FFF729
:4013C000A1FF0122094BC3F88C24084BD3F80C34002BFAD1054BD3F88C34002BF5D108BD034808BD20002340684B0208000025400200500000B583B05523ADF80030002327
:4014000001930C496846FFF781FCBDF90030002B08DB590903F01F03012202FA03F3064A42F82130022205490120FFF7E3FE03B05DF804FB0545020800E100E0D94402089A
:4014400008B5034B1B7800FB03F000F069F808BDA042020801BEFEE738B50D46044C18220146204601F0A4FBA5610020FFF7F2FF28490208FEE700BF08B50268254BDA6135
:4014800042681A6282685A62C2689A620269DA6242691A6382695A63C2699A631E4A916AD963D16A1964516A5964516B9964926BDA64F1EE103A13F0900F27D0026A154B4A
:4014C0001A65426A5A65826A9A65C26ADA65026B1A66426B5A66826B9A66C26BDA66026C1A67426C5A67826C9A67C26CDA67026DC3F88020426DC3F88420826DC3F8882012
:40150000C26DC3F88C20026EC3F89020FFF7B2FF08BD00BF2849020800ED00E0000000000230800803D001300238FCD100BF00BF7047EFF3108072B6704780F310887047BA
:40154000036813F4006F01D0802200E04022D0F80832C3F30803934203D0C0F84012012070470020704700BF2DE9F8430E46074618B937216F48FFF76FFF1EB938216D48D7
:40158000FFF76AFF002F00F0CF80002E00F0CF803268694B13401BB147216648FFF75CFF7268664B13401BB148216248FFF754FFB36813F0FC2F03D049215E48FFF74CFFAA
:4015C000F36813F0FC2F03D04A215A48FFF744FF337D032B03D94B215648FFF73DFFB369B3F5803F03D34C215248FFF735FFF36D072B03D94D214F48FFF72EFF336EB3F5EA
:40160000803F03D34E214B48FFF726FF736EB3F5803F03D34F214748FFF71EFF73687B60B3683B61F3687B613369BB61337D9B07FB61B3693B62336803F46068736803F0DD
:401640000409002435E02546A31D06EB83035A683B4B13401BB15F213648FFF7FDFEAB1D06EB8303596805F1200247F822105B6813F0012F0BD1B8F5606F08D1B9F1000FC3
:4016800005D04FF478422F4B23F8152003E000222C4B23F81520726F02F11C7303F58033520093FBF2F31BB2274A42F825300134E4B20F2CC7D9F36DC7F81832336EC7F8B3
:4016C0002832736EC7F8383296F87030DBB1B36EB3F1804F03D37B211648FFF7BDFEF36E23F44F0323F0FF031BB17C211148FFF7B3FE6FF04043C7F80433B36EC7F8003384
:40170000F36EC7F84433D7F8003F3F2B02D0D7F8003F13B90B23C7F8003F336843F400133B600020BDE8F8830848BDE8F8830748BDE8F883D85F08100811DF0001FE30208D
:4017400088CA887E40580208605802080100060038B50D46044618B9AD211748FFF77CFE2CB30023236063604FF0031222616261A361E361236206E003F12002002144F8A6
:4017800022100133DBB20F2BF6D90023C4F81832C4F82832C4F838325DB16FF04043C4F804330020C4F84003C4F8440338BD034838BD002038BD00BFD85F08100100060064
:4017C00008B50368002B0ADBD0F8A032002BFBDB036843F0004303600220FFF731FE08BD38B505460C46012904D940F265110648FFF732FE012C04D16B6843F480336B608F
:4018000038BD01236B6238BDD85F081038B505460C460F2904D940F269210648FFF71CFE0F2C04D8603455F8240080B200E0002000B238BDD85F081070B539B900240AE05C
:4018400015F8010BFFF726FA013402E016460D460024B442F4DB204670BD00BF70B551B900240DE0FFF722FAC0B2287001340A2806D0013502E016460D460024B442F1DBF2
:40188000204670BD38B50546104A114BC3F800240369FF2B09D80E49D1F8042822F47F421B029BB21343C1F80438094B094AC3F80024D3F80034084C00212046FFF748FFDC
:4018C000A9682046FFF750FE38BD00BF010000400000014001FF008000001D4108B5084B1B7963B907490848FFF710FA044B5B792BB90122024B5A710448FFF7C3FF08BDAE
:40190000A84B02083D190810745E08105060081008B5084B1B7913F0010F06D1FFF7DEFF044A137943F0010313710348FFF748FF08BD00BFA84B020800001D4110B5094B14
:40194000D3F81042072C04D940F219610648FFF783FD044BC3F81042D3F81022D3F8103210BD00BF00001D411460081081F0004102E000BF83F0004330B54FEA41044FEA49
:40198000430594EA050F08BF90EA020F1FBF54EA000C55EA020C7FEA645C7FEA655C00F0E2804FEA5454D4EB5555B8BF6D420CDD2C4480EA020281EA030382EA000083EA60
:4019C000010180EA020281EA0303362D88BF30BD11F0004F4FEA01314FF4801C4CEA113102D0404261EB410113F0004F4FEA03334CEA133302D0524263EB430394EA050FB2
:401A000000F0A780A4F10104D5F1200E0DDB02FA0EFC22FA05F2801841F1000103FA0EF2801843FA05F359410EE0A5F120050EF1200E012A03FA0EFC28BF4CF0020C43FA5B
:401A400005F3C01851EBE37101F0004507D54FF0000EDCF1000C7EEB00006EEB0101B1F5801F1BD3B1F5001F0CD349085FEA30004FEA3C0C04F101044FEA445212F5800F89
:401A800080F09A80BCF1004F08BF5FEA500C50F1000041EB045141EA050130BD5FEA4C0C404141EB010111F4801FA4F10104E9D191F0000F04BF01460020B1FA81F308BF6C
:401AC0002033A3F10B03B3F120020CDA0C3208DD02F1140CC2F10C0201FA0CF021FA02F10CE002F11402D8BFC2F1200C01FA02F120FA0CFCDCBF41EA0C019040E41AA2BFCC
:401B000001EB0451294330BD6FEA04041F3C1CDA0C340EDC04F11404C4F1200220FA04F001FA02F340EA030021FA04F345EA030130BDC4F10C04C4F1200220FA02F001FA4B
:401B400004F340EA0300294630BD21FA04F0294630BD94F0000F83F4801306BF81F480110134013D4EE77FEA645C18BF7FEA655C29D094EA050F08BF90EA020F05D054EA50
:401B8000000C04BF1946104630BD91EA030F1EBF0021002030BD5FEA545C05D14000494128BF41F0004130BD14F580043CBF01F5801130BD01F0004545F0FE4141F47001F1
:401BC0004FF0000030BD7FEA645C1ABF194610467FEA655C1CBF0B46024650EA013406BF52EA033591EA030F41F4002130BD00BF90F0000F04BF0021704730B54FF48064F7
:401C000004F132044FF000054FF0000150E700BF90F0000F04BF0021704730B54FF4806404F1320410F0004548BF40424FF000013EE700BF42004FEAE2014FEA31014FEAAA
:401C400002701FBF12F07F4393F07F4F81F06051704792F0000F14BF93F07F4F704730B54FF4607401F0004521F0004120E700BF50EA010208BF704730B54FF000050AE0A2
:401C800050EA010208BF704730B511F0004502D5404261EB41014FF4806404F132045FEA915C3FF4DCAE4FF003025FEADC0C18BF03325FEADC0C18BF033202EBDC02C2F1D6
:401CC000200300FA03FC20FA02F001FA03FE40EA0E0021FA02F11444C1E600BF70B54FF0FF0C4CF4E06C1CEA11541DBF1CEA135594EA0C0F95EA0C0F00F0DEF82C4481EA38
:401D0000030621EA4C5123EA4C5350EA013518BF52EA033541F4801143F4801338D0A0FB02CE4FF00005E1FB02E506F00042E0FB03E54FF00006E1FB03569CF0000F18BF9A
:401D40004EF0010EA4F1FF04B6F5007F64F5407404D25FEA4E0E6D4146EB060642EAC62141EA55514FEAC52040EA5E504FEACE2EB4F1FD0C88BFBCF5E06F1ED8BEF1004FE9
:401D800008BF5FEA500E50F1000041EB045170BD06F0004646EA010140EA020081EA0301B4EB5C04C2BFD4EB0C0541EA045170BD41F480114FF0000E013C00F3AB8014F14D
:401DC000360FDEBF002001F0004170BDC4F10004203C35DA0C341BDC04F11404C4F1200500FA05F320FA04F001FA05F240EA020001F0004221F0004110EBD37021FA04F64A
:401E000042EB06015EEA430E08BF20EAD37070BDC4F10C04C4F1200500FA04F320FA05F001FA04F240EA020001F0004110EBD37041F100015EEA430E08BF20EAD37070BD5B
:401E4000C4F1200500FA05F24EEA020E20FA04F301FA05F243EA020321FA04F001F0004121FA04F220EA020000EBD3705EEA430E08BF20EAD37070BD94F0000F0FD101F050
:401E80000046400041EB010111F4801F08BF013CF7D041EA060195F0000F18BF704703F00046520043EB030313F4801F08BF013DF7D043EA0603704794EA0C0F0CEA135596
:401EC00018BF95EA0C0F0CD050EA410618BF52EA4306D1D181EA030101F000414FF0000070BD50EA410606BF1046194652EA430619D094EA0C0F02D150EA013613D195EA60
:401F00000C0F05D152EA03361CBF104619460AD181EA030101F0004141F0FE4141F470014FF0000070BD41F0FE4141F4780170BD70B54FF0FF0C4CF4E06C1CEA11541DBF20
:401F40001CEA135594EA0C0F95EA0C0F00F0A7F8A4EB050481EA030E52EA03354FEA013100F088804FEA03334FF0805545EA131343EA12634FEA022245EA111545EA106576
:401F80004FEA00260EF000419D4208BF964244F1FD0404F5407402D25B084FEA3202B61A65EB03055B084FEA32024FF480104FF4002CB6EB020E75EB030E22BFB61A7546B6
:401FC00040EA0C005B084FEA3202B6EB020E75EB030E22BFB61A754640EA5C005B084FEA3202B6EB020E75EB030E22BFB61A754640EA9C005B084FEA3202B6EB020E75EBC2
:40200000030E22BFB61A754640EADC0055EA060E18D04FEA051545EA16754FEA06164FEAC30343EA52734FEAC2025FEA1C1CC0D111F4801F0BD141EA00014FF000004FF056
:40204000004CB6E711F4801F04BF01430020B4F1FD0C88BFBCF5E06F3FF6AFAEB5EB030C04BFB6EB020C5FEA500C50F1000041EB045170BD0EF0004E4EEA113114EB5C044B
:40208000C2BFD4EB0C0541EA045170BD41F480114FF0000E013C90E645EA060E8DE60CEA135594EA0C0F08BF95EA0C0F3FF43BAF94EA0C0F0AD150EA01347FF434AF95EA79
:4020C0000C0F7FF425AF104619462CE795EA0C0F06D152EA03353FF4FDAE1046194622E750EA410618BF52EA43067FF4C5AE50EA41047FF40DAF52EA43057FF4EBAE12E73B
:402100004FEA410212F5001215D211D56FF47873B3EB625212D94FEAC12343F0004343EA505311F0004F23FA02F018BF404270474FF00000704750EA013005D111F0004068
:4021400008BF6FF0004070474FF00000704700BF4A0011D212F5001211D20DD56FF47873B3EB62520ED44FEAC12343F0004343EA505323FA02F070474FF00000704750EAA7
:40218000013002D14FF0FF3070474FF00000704702440346934202D003F8011BFAE770472DE9F04788B0002B149F1299109EDDF84CA01D4627F02007BBBF03F100431D46E9
:4021C00000232D231446B8BF1446462F0B7003D0452F03D1013601E0032300E0022307AA049206AA03928DE8480422462B4600F047FE472F804602D1119BDB0728D5462F89
:4022000008EB060911D198F80030302B0AD1002200232046294602F037FC18B9C6F10106CAF80060DAF800309944002200232046294602F029FC08B9302202E0CDF81C905E
:4022400006E0079B994503D9591C07911A70F8E7079B159AC8EB03034046136008B0BDE8F08773B503460029B8BF494203F8022BB4BF2D222B220929427019DD0DF107021B
:4022800016460A2591FBF5F405FB14113031092C02F8011D2146F5DC3031541E02F8011CB4421A460AD214F8012B03F8012BF7E730241A46214402F8024B5970101A02B0B5
:4022C00070BD00002DE9F04F91B00C46DDF8688016461F46054601F0EBFC03680893184600F05EFC00230E93D8F800300990073323F0070303F1080294F818A0D4F800B008
:40230000C8F80020D3E90023C4E91223D4E9128929F000430B93CDF828804FF0FF32A74BDDE90A0102F0E2FBA0B94FF0FF32A34BDDE90A0102F0BCFB60B900220023404626
:40234000494602F0ABFB10B12D2384F843309C4B9C4A0AE042464B464046494602F0C6FB002800F09281984B984ABAF1470F8CBF90469846032323612BF0040323604FF020
:4023800000093DE0BAF1670F00F08A81BAF1470F00F08681236000210DF133020193636805900292009342464B460691CDF810A0CDF80CE02846FFF7F3FE0AF0DF03472B78
:4023C000804600F08481BAF1650F0D9900F28D810139524604F150000D91FFF742FF0E9A8318012A8146236100F37C812268D10700F178819DF8333013B12D2384F8433081
:40240000009733460FAA2146284600F09FF9013002D14FF0FF3096E123685A0501D4236965E0BAF1650F40F2D58000220023D4E9120102F029FB78B30123654A3146284649
:40244000B8470130E5D00E9B0D9A9A420BDB2368D80708D423689B0740F111814FF0000804F1190906E1099B089A31462846B8470130CED04FF0000804F11A090E9B013BAD
:402480009845E7DA01234A4631462846B8470130BFD008F10108F1E70D9B002B29DC01234B4A31462846B8470130B2D00D9B23B90E9B13B92368D907CCD5099B089A314662
:4024C0002846B8470130A4D04FF0000904F11A0A0D9B5B42994509DA0123524631462846B847013095D009F10109F1E70E9B4246A7E00E9AA36D9A42A8BF1A46002A91463D
:4025000006DC4FF0000A29EAE97904F11A0B11E01346314642462846B8470130F1D178E701235A4631462846B84701303FF471AF0AF1010AA36DC9EB03029245F0DB08EB49
:4025400003090D9A0E9B9A420FDB2368DA070CD40E9B0D9A9844C9EB08089B1A9845A8BF9846B8F1000F08DC0FE0099B089A31462846B8470130EBD14BE743464A463146C2
:402580002846B84701303FF444AF4FF0000928EAE87804F11A0A09E00123524631462846B84701303FF435AF09F101090D9A0E9B9B1AC8EB03039945EEDB4BE7FFFFEF7FAC
:4025C000E4600810E8600810EC600810F0600810F46008100E9A012A01DCDB0738D50123424631462846B84701303FF412AF099B089A31462846B84701303FF40AAF00222A
:402600000023D4E9120102F03FFA20B14FF0000804F11A0A0EE00E9B08F10102013B19E00123524631462846B84701303FF4F1AE08F101080E9B013B9845F1DB4B4604F1CA
:40264000500231462846B84701307FF403AFE0E60123424631462846B8470130EED1D8E601234A4631462846B84701303FF4D1AE08F10108E3680F9A9B1A9845F0DBE068B4
:402680000F9B9842B8BF18465DE06268531C0EA84BF480630DF1340E7FF474AE062201E012B90122626075E6002106910DF133018DE80C00236005904246CDF810A0CDF845
:4026C0000CE002914B462846FFF76AFD80460D9BD81C02DB626893421DDDAAF1020A5FFA8AFA70E60133236184E6BAF1660F14D10029636807DD216113B92268D2071DD5AB
:4027000001330B4419E013B92268D00701D5023313E0012311E04FF0670A0D9B0E9A934205DB22682361D10708D5013305E0002BD4BFC3F102030123134423610D9BA36526
:402740004FF0000956E611B0BDE8F08F2DE9F04791461F460A698B68DDF820809342B8BF1346C9F8003091F8432006460C4612B10133C9F800302368990642BFD9F8003058
:402780000233C9F80030256815F0060510D104F1190A07E00123524639463046C04701301AD00135E368D9F800209B1A9D42F1DB94F843302268003318BF012392060FD59E
:4027C000E1185A1C302081F84300224494F8451082F84310023303E04FF0FF30BDE8F08704F1430239463046C0470130F4D02268D9F80050E36802F00602042A08BF5D1B20
:402800002269A3680CBF25EAE57500259342C4BF9B1AED184FF000091A344D4509D00123224639463046C0470130D5D009F10109F3E70020BDE8F0872DE9F04317460A7EF0
:4028400085B06E2A984606460C460C9B01F1430E00F0AE8011D8632A22D009D8002A00F0BB80582A40F0CA8081F84520834955E0642A1ED0692A1CD0C0E0732A00F0B08036
:4028800009D86F2A2ED0702A40F0B8800A6842F020020A603EE0752A24D0782A3AD0ADE01A6801F14205111D1960136884F84230A8E021681A6811F0800F02D0111D19601D
:4028C00008E011F0400F02F10401196002D0B2F9003000E01368002B3CDA2D225B4284F8432037E021681A6811F0800F02D0111D196007E011F0400F02F10401196001D077
:40290000138800E01368227E5C496F2A14BF0A2208221BE078225A4984F845202268186812F0800F00F104051D6003D1550601D5038800E00368D00744BF42F020022260E4
:402940001BB9226822F0200222601022002084F8430001E049490A226568A560002D08DB206820F0040020602BB9002D7DD175460CE0002B79D07546B3FBF2F002FB103390
:40298000CB5C05F8013D03460028F5D1082A0BD12368DA0708D5236962689A42DEBF302305F8013C05F1FF35C5EB0E0323612EE008681A68496910F0800F03D0101D1860A3
:4029C000136808E010F0400F02F104001860136801D0198000E0196000232361754616E01A68111D1960156862680021284601F0CFF908B1401B6060636804E004F14205A9
:402A000084F8422001232361002384F84330CDF800803B4603AA21463046FFF797FE013002D14FF0FF3026E023692A4639463046C0470130F5D023689B0710D5002504F191
:402A4000190907E001234A4639463046C0470130E7D00135E368039A9B1A9D42F2DBE068039B9842B8BF184605E00B7884F8423004F142058AE705B0BDE8F083F660081063
:402A8000076108100FB40A4B13B51C6824B1A36913B9204601F082F805AB049AA1680193204601F08BFD02B0BDE8104004B070473C44020838B5084B1C68054624B1A3695E
:402AC00013B9204601F06AF8A26829462046BDE8384001F08FBE00BF3C44020870B50E46054618B183690BB901F058F8AB69AC6813B9284601F052F8224B9C4201D16C68C2
:402B000008E0214B9C4201D1AC6803E01F4B9C4208BFEC68A3891B0701D523693BB92146284600F0ADF810B14FF0FF3070BD013EA36816F8011F013BA36091B1002B04DACB
:402B4000A269934206DB0A2904D023685A1C22601970EDE72246284600F03EF80130E7D1E2E7002B08DA22460A21284600F034F80130D9D00A2070BD23680A205A1C2260F7
:402B8000187070BD286108104861081068610810024B01461868FFF7A1BF00BF3C440208034613F8012B002AFBD1181A0138704710B5034642B111F8014B03F8014B013AFA
:402BC000002CF7D11A4400E010BD934202D003F8014BFAE710BD0000F8B50F461446064618B183690BB900F0D9FF224B9C4201D1746808E0204B9C4201D1B46803E01F4BEC
:402C00009C4208BFF468A369A360A3891A0709D523693BB123682069181A63699842FDB20FDB08E02146304600F02AF80028F1D04FF0FF30F8BD2146304600F045FF002840
:402C4000F6D1A368013BA36023685A1C22601F706269431C934204D0A389DB0707D50A2D05D12146304600F02FFF0028E0D12846F8BD00BF2861081048610810686108106E
:402C8000324B70B51D6806460C4625B1AB6913B9284600F083FF2E4B9C4201D16C6808E02C4B9C4201D1AC6803E02B4B9C4208BFEC68B4F90C309AB215071DD4D00602D459
:402CC000092232603AE0510712D5616B41B104F14403994202D0304601F09AFB00236363A38923F02403A3810023636023692360A38943F00803A38123694BB9A38903F472
:402D00002073B3F5007F03D02146304600F0F8FFA28912F0010305D00023A36063695B42A36103E0920758BF6369A36023695BB9B4F90C3003F0800080B230B143F04003C2
:402D4000A3814FF0FF3070BD002070BD3C4402082861081048610810686108102DE9F74F03690C699C42804600F38380013C01F114074FEA840E00F1140657F8245006EBCF
:402D80000E030193013556F82430B3FBF5F507EB0E09002D39D04FF0000A3846B446D34650F8042B93B205FB03A34FEA134A9BB2C3EB0B03120CBCF800B005FB02A213FAB1
:402DC0008BF34FEA124A1FFA82FBDCF80020CBEB124202EB23429BB243EA024381454FEA224B4CF8043BDBD256F80E306BB9019B043B9E421A4602D3C8F8104005E0126870
:402E0000043B002AF8D1013CF3E7404601F029FA00282CDB013530464FF0000E57F8041BD0F800C08AB2C2EB0E03090C13FA8CF3C1EB1C4202EB23429BB243EA0243B945DD
:402E40004FEA224E40F8043BE8D256F8242006EB840362B9043B9E421A4602D3C8F8104005E01268043B002AF8D1013CF3E7284600E0002003B0BDE8F08F00000000000002
:402E80002DE9F04F456A97B08246239CCDE9022345B9102000F070FFCAF82400456085600560C560DAF82430196859B15A684A60012393408B60504600F0FAFFDAF824303A
:402EC00000221A60039BA04A002BBFBF01232360039B23F00043B8BF0393DDF80C80A4BF0023236028F000431B0D1B0593421DD1229A42F20F731360029B43B9934A944B53
:402F0000C8F31300002814BF1846104600E09048249B002B00F04A85C37813B100F1080300E0C31C249A136000F040BDDDE90245002200232046294601F0A6FD074658B1CA
:402F4000229A01231360249B002B00F0228581481860013800F02ABD14AB019315AB009322462B46504601F0F7F9C8F30A56059056B1C5F3130343F07F51204641F44011C2
:402F8000A6F2FF3611971DE0159B149E1E4406F23243202B0ADD029A06F21240C3F1400322FA00F008FA03F3184304E0C3F12000029B03FA00F0FEF71BFE0123A1F1F87191
:402FC000013E11930022644BFEF7D4FC58A3D3E90023FEF783FE58A3D3E90023FEF7CCFC044630460D46FEF713FE55A3D3E90023FEF774FE02460B4620462946FEF7BCFCFF
:4030000004460D46FFF77CF80022834600232046294601F043FD58B15846FEF7F9FD02460B462046294601F02FFD08B90BF1FF3BBBF1160F0DD8494901EBCB01DDE9022376
:40304000D1E9000101F048FD30B10BF1FF3B002300E00123109300E01090149B9E1B731E089343BFC3F10009002308934FF00009BBF1000F07DB089BCDF834B05B44089382
:403080000023099306E0CBF1000309930023CBEB09090D93209B092B27D8052BC4BF043B2093209BA3F10203CCBF00250125032B20D8DFE803F0060E0204012302E00123A4
:4030C00008E000230C93219B002B1CDD069398461EE000230C93219B5B4403F1010806934346012BB8BF012312E00125002320930C9501E001230C934FF0FF3306939846B3
:403100000022122303E00123069398461A462192DAF8244000226260042101F114029A421ED86268013262604900F6E7AFF3008061436F63A787D23FB3C8608B288AC63FB5
:40314000FB799F501344D33F0000F07F1861081021610810F56008100000F83FC86108106168504600F06FFEDAF8243020601B680793B8F10E0F00F25D81002D00F05A81F7
:403180009DED027BBBF1000F8DED0E7B31DDA04A0BF00F0302EBC30393ED007B4FEA2B14E2068DED0A7B0CD59A4BDDE90E01D3E90823FEF7BDFE04F00F04CDE9020103261D
:4031C00000E00226934D6CB1E30708D5DDE90A01D5E90023FEF782FDCDE90A01013664100835F0E7DDE90A23DDE90201FEF7A0FE20E0CBF1000404B3854B864D04F00F02EF
:4032000003EBC203D3E90023DDE90E01FEF766FDCDE9020124110023022654B1E70705D5D5E90023FEF75AFD0136012364100835F3E71BB1CDE9020100E00226109BEBB1E2
:40324000DDE902450022744B2046294601F026FCA0B1B8F1000F11D0069B002B40F3E6800BF1FF330A9300226C4B20462946FEF735FD0136CDE90201069F02E0CDF828B075
:4032800047463046FEF7C4FCDDE90223FEF726FD0022634BFEF770FB0446A1F15075CFB90022604BDDE90201FEF764FB22462B46CDE9020101F010FC002840F041822246FE
:4032C00005F10043DDE9020101F0E8FB002840F02E82ABE00C9A4E4B791E002A4AD003EBC103D3E9002300204F49FEF721FE22462B46FEF73FFB079C05460E46DDE90201DB
:40330000FEF7FEFE1290FEF783FC02460B46DDE90201FEF72FFB129B303304F8013B2A463346CDE9020101F0B9FB002840F02183DDE9022300203849FEF71CFB2A463346F9
:4033400001F0ACFB002840F0D280079BE31ABB426CDA0022314B28463146FEF7BFFC002205460E462D4BDDE90201FEF7B7FCCDE90201C3E703EBC10122462B46D1E90001A5
:40338000FEF7ACFC079BCDE91201DC191D46DDE90201FEF7B5FE0646FEF73AFC303602460B46DDE90201FEF7E5FA05F8016BAC42CDE902014FF0000223D11B4BDDE91201A5
:4033C000FEF7DAFA02460B46DDE9020101F084FB002840F08C80DDE9122300201249FEF7C9FA02460B46DDE9020101F057FBE8B114F8013C302B04F1FF3240F0BA821446D2
:40340000F6E7064BFEF76AFCCDE90201BFE700BFC8610810A06108100000F03F0000244000001C40000014400000E03FDDE90E34CDE90234159B002B7CDBBBF10E0F79DCE5
:403440008F4B03EBCB03D3E90067219B002B14DAB8F1000F11DC40F06C810022894B30463946FEF73BFCDDE9022301F02BFB45464646002840F05F8166E1079C32463B46B1
:40348000DDE90201FEF754FDFEF73AFE0546FEF7BFFB32463B46FEF721FC0B460246DDE90201FEF767FA05F1300E04F801EB079BC3EB040EF045CDE902012ED102460B460F
:4034C000FEF75AFA8046894602460B463046394601F0E4FA78B942464B463046394601F0D3FA002800F04782E90704D443E2DDF828B000E01C4614F8012C392A04F1FF3314
:4035000007D1079A9A42F5D1079930220BF1010B0A701A7801321A702DE200225A4BFEF7DDFB00220023CDE9020101F0ADFA0028A4D020E20C9A002A2DD0209A012A0ADC3E
:40354000119A12B103F2334302E0149BC3F13603099D4C4615E0099B08F1FF35AB42BFBF099B0995EA1A0D9BB7BF9B185D1B0D930025B8F1000FB9BFC8EB090400234C4692
:403580004346089A01211A4450469944089200F02EFD064602E0099D0C9E4C465CB1089B002B08DDA342089AA8BF2346C3EB0909E41AD31A0893099B002B1DDD0C9BABB1FF
:4035C00085B131462A46504600F0ACFD059A01460646504600F014FD05990746504600F067FC0597099B5A1B06D000E0099A0599504600F097FD05900121504600F0F7FCEC
:403600000D9B05465BB31A460146504600F08AFD209B012B054618DC029B83B9039BC3F3130373B9039B23F000473F0D3F054FB1089B013309F101090893012702E0002711
:4036400000E0029F0D9B73B100E000272B6905EB8303186900F07EFCC0F1200004E0209B012BD9DD0D9F0120089B184410F01F000ED0C0F12003042B08DDC0F11C0008E049
:40368000C8610810000014400000244006D018461C30089B0344814404440893B9F1000F05DD4A460599504600F08AFD0590089B002B05DD29461A46504600F081FD0546C6
:4036C000109BEBB12946059800F0CBFD002817DA00230A220599504600F001FC0C9B05900BF1FF3B002B00F05881002331460A22504600F0F4FB069B002B064637DC33E057
:40370000B8F1000F2ADC209B022B27DDCDF81880069B83B929460522504600F0E0FB01460546059800F09DFD00280DDC03E03D4600E000252E46219B079C6FEA030B0AE055
:40374000DDF828B03D463E46079B079A5C1C312313700BF1010BB0460026F7E00C9BCDF8188023B9079CB1E0209B022BD0DC002C05DD31462246504600F022FD06469FB132
:403780007168504600F05FFB326902320446920006F10C010C3000F04BFB01222146504600F00EFD804600E0B046029BDDF81C9003F00103089329460598FFF7CFFA314686
:4037C000044600F13007059800F04BFD424602902946504600F061FDC36802463BB901460990059800F03DFD099A034600E0012311465046099300F05BFB099B4BB9209AE6
:403800003AB9089A2AB9392F28D0029B002B1ADC1BE0029A002A04DB1AD1209AC2B9089AB2B9002B11DD01220599504600F0C8FC2946059000F015FD002802DC05D1FA071E
:4038400003D5392F0AD004F1310709F101040CE0002B09F101040BDD392F05D1392389F8003009F1010954E0013789F800706DE0079B069A04F8017CE31A9342A1463AD08D
:4038800000230A220599504600F029FB464505904FF000034FF00A023146504604D100F01EFB0646804686E700F019FB4146064600230A22504600F012FB80467BE7002356
:4038C0000A220599504600F00AFB059029460598FFF744FA00F1300704F8017B079B069AE31A9342EBDB079B012AACBF9B180133B0469946002601220599504600F060FC67
:403900002946059000F0ADFC002802DC15D1FB0713D54C4614F8013C392B04F1FF3209D1079B934204D10BF1010B3123079A02E01446EFE70133137008E04C4614F8013C00
:40394000302B04F1FF3201D11446F7E72946504600F0AEFAB8F1000F0DD02EB1464503D03146504600F0A4FA4146504600F0A0FA01E0DDF828B00599504600F099FA0023A3
:40398000229A23700BF101031360249B1BB11C6001E008480AE0079808E0069B002B3FF7E1AE209B022B7FF7DDAEB1E617B0BDE8F08F00BFF46008108A892DE9F0410546D0
:4039C00010070C4659D44B68002B02DC0B6C002B17DDE66AAEB102F48052002392B22F682B600AB1606D15E0216A01232846B047411C0FD12B686BB11D2B01D0162B03D134
:403A00002F600020BDE8F081A38943F04003A381BDE8F081A3895A0705D56368C01A636B0BB1236CC01A00230246E66A216A2846B047431CA38906D129681D293AD8214A85
:403A4000CA40D60736D500226260D9042269226004D5421C01D12B6803B96065616B2F600029CED004F14403994202D0284600F0CFFC00206063BDE8F0810F69002FC0D005
:403A800093070E6808BF4B690F6018BF0023C7EB06088B6002E00744C0EB0808B8F1000FAFDD43463A46216AA66A2846B0470028F1DCA38943F04003A3814FF0FF30BDE864
:403AC000F08100BF0100402038B50B6905460C46DBB118B183690BB900F060F80C4B9C4201D16C6808E00B4B9C4201D1AC6803E0094B9C4208BFEC68B4F90C302BB12146B1
:403B00002846BDE83840FFF757BF002038BD00BF286108104861081068610810014900F0A9B800BFC93A0810002310B5044603604360836081814366C2810361436183616D
:403B4000194608225C30FEF723FB054B6362054BA362054BE362054B2462236310BD00BF81480810A3480810DB480810FF48081070B568234D1E5D430E4605F1740100F04E
:403B800095FC044640B1002180E842000C30A06005F16802FEF7FCFA204670BD836910B5044633BB8364C3640365124B124A1B688262984204BF0123836100F01FF8606069
:403BC000204600F01BF8A060204600F017F80022E06004216068FFF7A7FF01220921A068FFF7A2FF02221221E068FFF79DFF0123A36110BDE06008101D3B0810F8B51C4B1E
:403C00001E68B369074613B93046FFF7C7FF4836B4687368013B04D4B4F90C507DB16834F8E733680BB13668F2E704213846FFF79FFF30600028F6D10C233B60F8BD4FF614
:403C4000FF73E3810123A38165662560A560656025616561A5610822294604F15C00FEF797FA6563A563A564E5642046F8BD00BFE06008102DE9F8438046894600F14804D3
:403C8000002694B1A5686768013F0CD4AB89012B07D9B5F90E30013303D029464046C84706436835F0E72468EBE73046BDE8F883004870474044020870B50E46B1F90E10E7
:403CC000002990B014461D4606DA00232B60B3891A060ED540230EE001AA00F037FE0028F3DB029A02F47042A2F500535A425A412A604FF480630020236010B070BD000015
:403D00008B8973B59E0705460C4610D401AB6A46FFF7D2FF00990646284600F0C7FB68B9B4F90C309A0522D443F00203A38104F14703236023610123636118E00D4BAB6273
:403D4000A389206043F08003A381009B6361019B20614BB1B4F90E10284600F009FE18B1A38943F00103A381A0893043A08102B070BD00BF1D3B0810024B0146186800F0F6
:403D800095BB00BF3C440208000000000000000001F0FF01102A2BDB10F0070F08D010F8013B013A8B422DD010F0070F42B3F6D1F0B441EA012141EA014122F007047FF046
:403DC00000070023F0E80256083C85EA010586EA010685FA47F5A3FA87F586FA47F6A5FA87F68EB9EED1F0BC01F0FF0102F0070232B110F8013B013A83EA010313B1F8D18E
:403E00000020704701387047002D06BF35460338073815F0010F07D1013015F4807F02BF013015F4C03F0130F0BC0138704700BF10B5431E0A44914204D011F8014B03F8BD
:403E4000014FF8E710BD70B5456A04460E463DB91020FFF791FF6062456085600560C560656AEB6843B1636ADB6853F8260078B1026843F8262017E021220421204600F0F2
:403E8000B9FA636AE860DB68002BECD1002070BD012101FA06F56A1D9200204600F0AAFA0028F3D04660856000230361C36070BD70B5446A06460D463CB91020FFF75CFF62
:403EC0007062446084600460C4603DB1736A6A68DB6853F82210296043F8225070BD2DE9F0410D691F4606460C4601F1140E0023DEF8000081B202FB01710F0C000C02FB8D
:403F0000007089B2013301EB00419D424FEA10474EF8041BECDCD7B1A3689D4212DB616830460131FFF78FFF2269023204F10C01804692000C30FFF77BFF21463046FFF7ED
:403F4000B7FF444604EB850301355F6125612046BDE8F081030C1B0413B90004102300E0002310F07F4F04BF0002083310F0704F04BF0001043310F0404F04BF80000233CF
:403F8000002803DB420003D5581C70471846704720207047036813F007020BD0D90722D49A074BBF5B089B08036003604CBF01200220704799B209B91B0C102213F0FF0F8F
:403FC00004BF1B0A0832190704BF1B090432990704BF9B080232D90702D45B0805D00132036010467047002070472020704710B50C460121FFF727FF01224461026110BD7C
:404000002DE9F74F14460A6923699A42B8BF0B468846BCBFA0461C46D8F81070D4F81090D8F80830D8F8041007EB09069E42C8BF0131FFF708FF00F1140505EB860C2B465A
:404040000022634502D243F8042BFAE704F1140208F1140102EB890301EB87070093009B0192934257D9B2F800B0BBF1000F23D08946AE464FF0000859F8044BBEF800A07D
:40408000A3B20BFB03A34FEA144ADEF8004043444FEA14480BFB0A8404EB1344F2469BB243EA04434F454FEA14484AF8043B01D9D646E1E7CEF80480019BB3F802A0043292
:4040C000BAF1000F21D02B682C4689464FF00008B9F800E0B4F802B00AFB0EBEF044A3469BB243EA08434BF8043B59F8043BB4F804E01B0C0AFB03E303EB18434F454FEA8E
:40410000134801D95C46E3E763600435A7E75CF8043D13B9013E002EF9DC066103B0BDE8F08F00002DE9F843154612F0030206460F4607D0013A214C002354F82220FFF7F9
:40414000CEFE0746AD1036D0746A3CB91020FFF713FE7062446084600460C460D6F82480D8F808404CB940F271213046FFF73FFF0023C8F80800044603604FF00008EB07A9
:404180000AD5394622463046FFF73AFF394681463046FFF78DFE4F466D100CD0206808B10446ECE7224621463046FFF729FF2060C0F80080F4E73846BDE8F883906108106E
:4041C0002DE9F0470C464FEA621A26694968A368564407469146751CAB4202DA01315B00FAE73846FFF72FFE0023804600F114011A46534503DA41F823200133F9E72AEA91
:40420000EA73206901EB830319F01F0904F1140101EB800E14D0C9F1200C0022086800FA09F002439A4643F8042B51F8042B8E4522FA0CF2F2D8CAF8042042B1B51C06E0D4
:40424000043B51F8042B43F8042F8E45F9D8013D3846C8F810502146FFF72AFE4046BDE8F08703690A699B1A10B511D192001430143183180A4453F8044D52F8041D8C425E
:4042800002D007D3012010BD9842F4D3002010BD184610BD4FF0FF3010BD2DE9F8430C460746114620461546FFF7DBFF061E08D131463846FFF7C7FD012303614661BDE818
:4042C000F883BCBF23462C4638466168BABF1D4601260026FFF7B7FD2B69C660266905F11409143404EB860709EB830800F114054FF0000C54F8043B59F8042B1CFA83F14A
:404300001FFA82FE120CCEEB0101C2EB134303EB214389B24FEA234CC84541EA0343A64645F8043BE6D8BE450ED25EF8041B1CFA81F2131403EB114392B242EA03424FEAF7
:40434000234C45F8042BEEE755F8043D0BB9013EFAE70661BDE8F8832DE9F34101211C46089E099D9046FFF76EFDC4F31303C4F30A5407460CB143F480130193B8F1000F41
:4043800019D002A840F8088DFFF704FE009B48B1019AC0F1200102FA01F10B43C2407B61019200E07B61019BBB61002B14BF02210121396107E001A8FFF7ECFD019B7B61BF
:4043C00001213961203034B1A4F2334404443460C0F1350009E007EB8103A0F2324030601869FFF7B7FDC0EB41102860384602B0BDE8F08138B502FB01F4214600F056F891
:40440000054618B122460021FDF7C2FE284638BD38B50546002946D051F8043C0C1F002BB8BFE41800F0C6FA1F4A1368114613B96360146032E0A3420ED92268A01883422C
:4044400004BF18685B68636004BF121822600C6024E0A24203D813465A68002AF9D118681918A1420BD12168014458188242196014D1106852685A60014419600EE002D983
:404480000C232B600AE021686018824204BF10685268626004BF091821605C602846BDE8384000F088BA38BDB44B020870B5CD1C25F0030508350C2D38BF0C25002D0646BE
:4044C00001DBA94202D90C23336046E000F072FA234B1C681A462146A1B10B685B1B0ED40B2B03D90B60CC18CD501EE08C420DBF63684B686360136018BF0C4615E00C46C6
:404500004968E9E7174C23681BB9304600F0A8F920602946304600F0A3F9431C18D0C41C24F00304A0420DD12560304600F043FA04F10B00231D20F00700C31A0ED05A4268
:40454000E25070BD211A304600F08AF90130EBD10C233360304600F02EFA002070BD00BFB44B0208B04B02089368013B002B10B4936009DA9469A34202DBCBB20A2B03D120
:404580005DF8044BFEF728BB1368581C10601970C8B25DF8044B7047F8B506460F461446D518AC4208D03A4614F8011B3046FFF7DBFF431CF5D100E00020F8BD2DE9F04F4A
:4045C0009DB00C4617460393064618B183690BB9FFF7E4FA7F4B9C4201D1746808E07E4B9C4201D1B46803E07C4B9C4208BFF468A38918070CD5236953B100230993202354
:404600008DF8293030238DF82A30DFF8D4B144E021463046FEF734FB0028EED04FF0FF30D5E0039A111D12680391002A80F28C80524243F002000792049098F800302E2B50
:4046400000F08480032298F800106548FFF7A0FB48B14023CBEB000003FA00F0049B1843049008F1010898F800105E488DF82810062208F10107FFF78BFB002800F09580DF
:40468000594B002B40F08880039B073323F0070308330393099B53440993B846454615F8013B1BB9B8EB07090FD003E0252BF9D0A846F3E74B463A4621463046FFF76CFF0B
:4046C00001307FD0099B4B44099398F80030002B78D000234FF0FF3204930793059206938DF853301A930127052229783F48FFF74FFB05F10108049B38B13C4A801A07FA30
:4047000000F0184304904546EEE7D90644BF20228DF853201A0744BF2B228DF853202A782A2A3FF47EAF079A00210A20A846013598F80030303B092B03D800FB02320121C4
:40474000F4E700293FF479AF079276E798F801302A2B0BD1039B1A1D1B680392002BB8BF4FF0FF3308F1020805936BE70023059308F1010019460A258046013098F800201B
:40478000303A092A03D805FB01210123F4E7002B3FF458AF059155E703AB00932246144B04A93046FDF78EFD07E003AB009322460F4B04A93046FEF73FF8B0F1FF3F82469F
:4047C0007FF468AFA3895B063FF528AF09981DB0BDE8F08F286108104861081068610810966208109A620810C5220810906208109945081070B50D461446064618B18369CC
:404800000BB9FFF7CBF9134B9C4201D1746808E0114B9C4201D1B46803E0104B9C4208BFF468A368013B002BA3600CDAA269934202DBEBB20A2B06D1224629463046BDE80E
:404840007040FEF7C9B923685A1C22601D70E8B270BD00BF28610810486108106861081038B5064C002305460846236000F074F9431C02D1236803B12B6038BDA05802086A
:4048800010B50C46B1F90E1000F096F80028ABBF636DA3891B1823F48053ACBF6365A38110BD2DE9F0411F468B89DB0505460C46164605D502230022B1F90E1000F068F8FA
:4048C000A389B4F90E1023F48053A38132463B462846BDE8F04100F017B810B50C46B1F90E1000F055F8431CA38915BF606523F4805343F48053A38118BFA38110BDB1F9ED
:404900000E1000F013B8000038B5074C054608461146002222601A46FCF78EFF431C02D1236803B12B6038BDA058020838B5064C002305460846236000F0EEF8431C02D171
:40494000236803B12B6038BDA058020838B5074C0023054608461146236000F0E5F8431C02D1236803B12B6038BD00BFA058020838B5064C002305460846236000F0DCF8DF
:40498000431C02D1236803B12B6038BDA058020838B5074C054608461146002222601A4600F0D2F8431C02D1236803B12B6038BDA05802087047704738B5074C05460846DC
:4049C0001146002222601A46FCF748FF431C02D1236803B12B6038BDA05802084FF0FF3C06E000BF4FF0010C02E000BF4FF0010C4DF804CD4FEA410C7FEA6C5C4FEA430C82
:404A000018BF7FEA6C5C1BD001B050EA410C0CBF52EA430C91EA030F02BF90EA020F0020704710F1000F91EA030F58BF994208BF90422CBFD8176FEAE37040F001007047AF
:404A40004FEA410C7FEA6C5C02D150EA013C07D14FEA430C7FEA6C5CD6D152EA033CD3D05DF8040B704700BF8446104662468C461946634600E000BF01B5FFF7B7FF00283A
:404A800048BF10F1000F01BD4DF808EDFFF7F4FF0CBF012000205DF808FB00BF4DF808EDFFF7EAFF34BF012000205DF808FB00BF4DF808EDFFF7E0FF94BF012000205DF87F
:404AC00008FB00BF4DF808EDFFF7CEFF94BF012000205DF808FB00BF4DF808EDFFF7C4FF34BF012000205DF808FB00BF4FEA410C7FEA6C5C02D150EA013C0AD14FEA430CAA
:404B00007FEA6C5C02D152EA033C02D14FF0000070474FF001007047024B58221A604FF0FF307047A0580208024B58221A604FF0FF307047A0580208024B58221A60002005
:404B4000704700BFA0580208024B58221A604FF0FF307047A0580208044A05491368002B08BF0B461844106018467047B84B0208A8580208000000002DE9F04FDFF8F49251
:404B80008DB006460F4614461D4600F0D5F999F90080B8F1FF3FCDE9000145D022462B4620462946FFF7A2FF834600283CD132463B4630463946FFF799FF8246002840F0F8
:404BC00085803046394600220023FFF75DFF80B30022002320462946FFF756FF8346A8B19FED9D7B01229E4BCDF828A00292CDE90467CDE906458DED087B0393B8F1000F2C
:404C000053D0984900200DB0BDE8F08F2046294600F0B0FF40B10022002320462946FFF73DFF002840F0BA80DDE900010DB0BDE8F08FDDE9000100F09DFF804600285FD014
:404C40004FF0000A4FF0000BDDE9000152465B46FFF71AFF0028E7D03046394600F08AFF0028E1D02046294600F084FF0028DBD099F900307A4A039204210022022BCDE90C
:404C80000467CDE90645CDE908AB02910A9203D002A800F075FF70B901F08CF82223036009E09FED6D7B8DED087B02A800F068FF002800F089800A9B1BB101F07BF80A9BD3
:404CC0000360DDE908010DB0BDE8F08F0022002320462946FFF7D8FE0028A5D06149604BCDF828B000200122B8F1020FCDE904670292CDE90645CDE908010393D5D195E702
:404D00003046394600F036FF002899D02046294600F030FF002893D0DDE9002310461946FFF7E4FE00287AD1032399F9008002934B4B0A90CDE90467CDE906450393B8F102
:404D4000000F46D1DFF830B14FF0604A0022002330463946CDE908ABFFF7A0FE002897D00022414B20462946FCF7B8FF04460D4600F00EFF02460B4620462946FFF784FEF9
:404D8000002849D1394B99F900804FF06042CDE90823B8F1020F7FF47BAF7DE799F900302F4ACDF828B00121CDE90467CDE9064502910392002B3FF474AF2D490020022B16
:404DC000CDE908017FF471AF00F0F4FF2123036071E7DFF8A8B04FF0000A0022002330463946CDE908ABFFF759FE0028D1D000221D4B20462946FCF771FF04460D4600F0FF
:404E0000C7FE02460B4620462946FFF73DFE18B9174B0022CDE9082399F90080B9E799F900900F4BCDF828800122CDE90467CDE9064502920393B9F1000F3FF432AF0022DF
:404E4000002310461946FDF773F8B9F1020FCDE90801B9D029E700BF0000000000000000A46208100000F03F0000E03FFFFFEFC70000F0FF78440208FFFFEF470000F07FB1
:404E80002DE9F04F8BB004460D4600F0ADFD284B93F900A0BAF1FF3F06460F4612D022462B4620462946FFF721FE834650B94FF000084FF000092046294642464B46FFF718
:404EC000EDFD20B9304639460BB0BDE8F08F194BCDF820B00122CDE90445CDE902458DE80C00BAF1000F15D042464B4640464946FDF71EF8BAF1020FCDE906010CD100F065
:404F000059FF21230360089B63B9DDE906010BB0BDE8F08FCDE90689684600F031FE0028F1D1ECE700F046FF089B0360EDE700BF78440208A86208102DE9F04F23F00047D3
:404F400057EA020493B037D0674C21F00046A64283460D4629DC9A46964625D0A74224DC614CA74279D0002D80468946CDE9002377DB0024BEF1000F2CD15B4B9F4200F0D1
:404F80008B805A4B9F4261D0BAF1804F00F0C283574B9A451ED1002D1CDB4046494613B0BDE8F04F00F020BD58B106F1404606F5801656EA0B0306D14C49002013B0BDE80A
:404FC000F08FB742CCDD4B4813B0BDE8F04F00F0D9BD00244046494600F0C8FDBBF1000F19D126B1414B25F040429A4213D1BAF1000FC0F2C983002DE0DA06F1404606F56C
:40500000801656EA040300F0A184012CD6D101F100494946D2E7ED0F013D54EA05034ED0354B9F426EDD03F104739F4240F3EE83324B9E424EDDBAF1000F4EDD28A3D3E9F9
:40504000002310461946FCF749FEB7E7BAF1000FC0F24E8440464946B0E7BEF1000F82D0A3E7274B9F4228DCA3F154739F4280DD3B15A3F2FF33142B40F35084C3F13403C4
:405080002EFA03F202FA03F39E457FF472AF02F00102C2F102046DE706F1404303F5801353EA0B0388D0154B9E4240F36383BAF1000F12DBDDE9000180E702245AE74246A3
:4050C0004B4610461946FCF755FC02460B46FCF72FFF73E7BAF1000FB0DB002000216DE79C7500883CE4377E0000F07F0000F03F0000E03F385E08100000E041FFFFEF3F12
:40510000FFFF3F43B6F5801F4FF0000205DAD84BFCF7E4FD6FF034020E463315D54FC6F31306A3F2FF33134446F07F5ABE421A460D934AF4401A40F3CF83CF4B9E4240F3F0
:4051400009849FEDB57B8DED087B8DED0E7B9FEDB47B13468DED067B01330D93AAF5801A0027DDE906235146CDE90A01FCF702FCDDE9062380468946DDE90A01FCF7FCFB2C
:4051800002460B460020BD49FCF7D2FE0A460146CDE910121346494602464046FCF79EFD4FEA6A0343F000538C46834603F50023CDE904BCDA468B46D9190023CDE902ABF9
:4051C0000293DDE902AB002006460F4602460B4650465946FCF782FD02460B4640464946FCF7C8FBDDE906238046894630463946FCF7C0FB02460B46DDE90A01FCF7BAFB09
:4052000052465B46FCF76AFD02460B4640464946FCF7B0FBDDE91023FCF760FDDDE90467CDE9060132463B4630463946FCF756FD7DA3D3E9002306460F46FCF74FFD7CA326
:40524000D3E90023FCF798FB32463B46FCF746FD79A3D3E90023FCF78FFB32463B46FCF73DFD77A3D3E90023FCF786FB32463B46FCF734FD74A3D3E90023FCF77DFB324699
:405280003B46FCF72BFD72A3D3E90023FCF774FB3246804689463B4630463946FCF71EFD02460B4640464946FCF718FD524606460F465B46DDE90401FCF75EFBDDE90623D5
:4052C000FCF70CFD32463B46FCF756FB5246804689465B4650465946FCF700FD0022684BCDE90A01FCF748FB42464B46FCF744FB02980F46064632463B4650465946FCF70F
:40530000EDFC002282468B465D4B30463946FCF731FBDDE90A23FCF72DFB02460B4640464946FCF727FBDDE90423FCF7D7FC3246804689463B46DDE90601FCF7CFFC024628
:405340000B4640464946FCF717FB8046894602460B4650465946CDE904ABFCF70DFBDDE902AB3DA3D3E9002350460F46FCF7B6FCDDE90423CDE9020139465046FCF7FAFA9B
:4053800002460B4640464946FCF7F4FA34A3D3E90023FCF7A3FC34A3D3E900238046894650463946FCF79AFC02460B4640464946FCF7E2FADDE90E23FCF7DEFA80460D9883
:4053C0008946FCF725FC424606460F464B46DDE90201FCF7D1FADDE90823FCF7CDFA32463B46FCF7C9FA32463B4650468B46FCF7C1FADDE90823FCF7BDFADDE90223FCF7A8
:40540000B9FA02460B4640464946FCF7B3FA8046894637E0AFF300800000000000000000000000000000F03FEF4E454A287ECA3F65DBC9934A86CD3F01411DA96074D13F8F
:405440004D268F515555D53FFFAB6FDBB66DDB3F033333333333E33F000000E009C7EE3FFD033ADC09C7EE3FF5015B14E02F3EBE000040438E98030079B60B000000F03F51
:4054800000000840013C54EA050300F06E819FEDC27B8DED047BDDE900120B461446CDE9023400230293DDE9024508462B4611462246FCF75FFA52465B46FCF70FFCDDE985
:4054C000002306460F4640464946FCF707FC02460B4630463946FCF74FFA2246804689462B4650465946CDE90089FCF7F7FB0B46024606460F4640464946FCF73DFABE4BCA
:40550000994204460D468A4640F30B8101F13F4303F5E003034340F0F381A1A3D3E90023DDE90001FCF728FA3246804689463B4620462946FCF71EFA02460B464046494610
:40554000FFF7CAFA002840F0DB81A8464FEA28534FF48012A3F2FE3342FA03F35344C3F30A52A64DA2F2FF321541C3F3130B0020C2F1140423EA05014BF4801BBAF1000F31
:4055800002460B464BFA04FB30463946B8BFCBF1000BFCF7EFF902460B4606460F46DDE90001FCF7E9F94FEA0B5A00247EA3D3E9002320460D46FCF791FB32468046894623
:4055C0003B4620462946FCF7D5F902460B46DDE90001FCF7CFF976A3D3E90023FCF77EFB75A3D3E9002306460F4620462946FCF775FB02460B4630463946FCF7BDF90646C2
:405600000F4602460B4640464946FCF7B5F942464B4604460D46FCF7ADF902460B4630463946FCF7A7F92246804689462B4620462946FCF753FB62A3D3E9002306460F464D
:40564000FCF74CFB60A3D3E90023FCF793F932463B46FCF743FB5EA3D3E90023FCF78CF932463B46FCF73AFB5BA3D3E90023FCF781F932463B46FCF731FB59A3D3E90023AF
:40568000FCF77AF932463B46FCF728FB02460B4620462946FCF76EF906460F4602460B4620462946FCF71AFB0022CDE900014FF0804330463946FCF75DF902460B46DDE91E
:4056C0000001FCF735FC424606460F464B4620462946FCF703FB42464B46FCF74DF902460B4630463946FCF745F922462B46FCF741F902460B4600204149FCF73BF98A44B6
:40570000BAF5801FC0F236815146DDE90423FCF7E5FA53E442464B4640464946FCF7DEFA4CE4384B21F00048984540F30681364B0B4403430CD132463B46FCF71BF902464E
:405740000B46DDE90001FFF7B3F900283FF4FEAEDDE9040124A3D3E90023FCF7BFFA22A3D3E90023FCF7BAFA28E49FED217B8DED047B90E6BAF1000FBFF6AFACDDE9003499
:40578000184604F1004119E402460B4600201C49FCF7CEFB2FE400BF000000000000F03FFE822B654715973C00000000432EE63FEF39FAFE422EE63F396CA80C615C20BEFF
:4057C000D0A4BE726937663EF16BD2C541BDBB3E2CDE25AF6A56113F93BDBE166CC1663F3E5555555555C53F59F3F8C21F6EA501000000000000F0BFFFFF8F40FFFF0F0046
:405800000000F03FFFCB904000346F3F724B9E427FF760AC714B9E423FF70DAC00226F4BFCF7A8F858A3D3E9002306460F46FCF755FA57A3D3E90023804689463046394684
:40584000FCF74CFA002282468B46654B30463946FCF744FA02460B464FA1D1E90001FCF789F832463B46FCF739FA02460B4600205C49FCF77FF83246CDE902013B46304697
:405880003946FCF72BFA02460B46DDE90201FCF725FA43A3D3E90023FCF720FA02460B4650465946FCF766F802460B4606460F4640464946FCF760F842464B460020824651
:4058C0008B46FCF757F802460B4630463946FCF751F880468946D5E59FED337B8DED087B8DED0E7B9FED327B00278DED067B38E442464B4600203949FCF71AFBFFF75EBBF9
:40590000DDE904012CA3D3E90023FCF7E7F92AA3D3E90023FCF7E2F9FFF750BBBEF1000F7FF457ABC3F1140347FA03F202FA03F39F4223D07446FFF724BB2A4B98453FF78F
:4059400005AEDDE902349A469B462EE602460B46FFF7B7BB9FED1A7B8DED087B9FED1A7B8DED0E7B9FED1A7B4FF480278DED067BFFF7F7BB5A4600F097F9C6E602F00102F1
:40598000C2F10204FFF7FDBA000000604715F73F44DF5DF80BAE543E555555555555D53FFE822B654715F73F0000000000000000000000000000F03F9C7500883CE4377E7B
:4059C0000000004003B8E23F06D0CF43EBFD4C3E000000000000F83FFEFFEF3F0000F03F0000D03F0000E03F2DE9F0415E4EB6460E40764504460D4600F0948000290B465F
:405A0000024672DD0F157DD0A7F2FF37C3F31303F80743F4801363D403EBD27100260B447F105200B64616204FF400110EEB01049C424FEAD2754FEA420203DC1B1B04EBD9
:405A4000010E0E44013805EB43034FEA5101EDD1844620244FF0004109E020D003EBD275013C4FEA51012B444FEA420220D09E4501EB0C05F1DA002D05EB010C09DBF046DE
:405A80009542CEEB030300D9013B521B0844C646E4E7BCF1000FF2DB0EF10108F0E795421CD8002D05EB010C48DB98460023ECE7134304D0411C45D000F001042044440816
:405AC0007310F20703F17F5303F5001348BF44F0004403EB07512046BDE8F0817346BDE75B0003EBD273520096E721F00046064322D071BB0F46D30A153F5205002BFAD0CE
:405B0000DD0221D4002100E001465B00DC0201F10100F9D5C0F1200422FA04F423437F1A824071E702460B46FCF7D8F822462B46FBF722FFBDE8F081BDE8F081BCF1000F1D
:405B4000AADAB2E70136BBE720244FF0FF310020E2E702460B46FBF70DFF02460B46FCF7E7F9BDE8F08100BF0000F07F21F00041704700BF41F0004101F58010C00F704706
:405B80000020704700200149704700BF0000F87FF0B5C1F30A5EAEF2FF36132E83B002460B460C464FEAD17507462EDC002E49DB3B49314103EA010010432BD049080B40CC
:405BC00053EA02070CD04FF48023132E24EA010143FA06F444EA01040CBF4FF000470027304B03EBC5052146D5E90045384622462B46FBF7C1FECDE9000122462B46DDE96F
:405C00000001FBF7B7FE03B0F0BD332E06DDB6F5806F42D01046194603B0F0BDAEF2134E4FF0FF3121FA0EF10842F3D049080842D6D04FF0804320EA010143FA0EFE4EEAF0
:405C40000107CDE721F000410143E3D0C3F31301144E41EA000CCCF100015C0C06EBC503D3E9006741EA0C0C4FEA1C3C0CF4002C64044CEA040132463B46FBF77DFECDE9FB
:405C800000013B463246DDE90001FBF773FE21F0004444EAC5731946BEE7FBF76DFEBBE7FFFF0F00B0620810F8B5C1F30A5604460D460B46174606BB21F00043034325D06F
:405CC0000022354BFCF70AF8344A974204460D460B462ADBC1F30A56363E3E4440F2FE72964228DC002E12DD23F0FF4323F4E00343EA065520462946F8BD40F2FF72964242
:405D0000EBD102460B46FBF737FEF8BDF8BD16F1350F1DDA4CF250339F4222462B4625DC19A1D1E9000100F03DF817A3D3E90023FBF7D4FFF8BD22462B4615A1D1E90001C8
:405D400000F030F812A3D3E90023FBF7C7FFF8BD23F0FF4323F4E003363643EA06552046294600220E4BFBF7B9FFF8BD08A1D1E9000100F017F806A3D3E90023FBF7AEFF8E
:405D8000F8BD00BFAFF3008059F3F8C21F6EA5019C7500883CE4377E00005043B03CFFFF0000903C03F0004321F0004242EA0301704700BF014B1868704700BF3C44020862
:405DC000F8B500BFF8BC08BC9E467047F8B500BFF8BC08BC9E467047545255450000000046414C53450000004E6577205570706572205468726573686F6C643A2025687878
:405E0000000000000D0000004E6577204C6F776572205468726573686F6C643A2025687800000000456E61626C653A2025730000545249474745520D00000000256864008B
:405E40000300000001000000010000000000000005036000040000000100000000000000010000000604600008000000384B0208510C08108A000000070000007B0000002F
:405E8000070000007A000000070000002E0000000700000047656E6572617465645F536F757263655C50536F43365C70646C5C647269766572735C706572697068657261CC
:405EC0006C5C737973696E745C63795F737973696E742E630000000047656E6572617465645F536F757263655C50536F43365C70646C5C647269766572735C7065726970A5
:405F0000686572616C5C6970635C63795F6970635F6472762E68000047656E6572617465645F536F757263655C50536F43365C70646C5C647269766572735C7065726970F0
:405F4000686572616C5C6970635C63795F6970635F6472762E63000047656E6572617465645F536F757263655C50536F43365C70646C5C647269766572732F7065726970E2
:405F8000686572616C2F6970632F63795F6970635F6472762E68000047656E6572617465645F536F757263655C50536F43365C70646C5C647269766572735C7065726970CA
:405FC000686572616C5C6970635C63795F6970635F706970652E630047656E6572617465645F536F757263655C50536F43365C70646C5C647269766572735C7065726970D3
:40600000686572616C5C7361725C63795F7361722E63000047656E6572617465645F536F757263655C50536F43365C70646C5C647269766572732F70657269706865726118
:406040006C2F7361722F63795F7361722E680000000000000100000064600810000000001B00000066CE20569800009002000200020002000D02000E000000000100000009
:4060800000000000000000000000000000000000000000000000000000000000000000000000000000000000000000000000000000000000000000000000000000000000E0
:4060C0000100000000000000000000000000000000000000000000007206000043000000DC430208494E4600696E66004E414E006E616E003000303132333435363738394A
:40610000414243444546003031323334353637383961626364656600496E66696E697479004E614E0000000000000000000000000000000000000000000000000000000021
:40614000000000000000000000000000000000000000000000000000000000000000000000000000000000000000000000000000000000000000000000000000000000001F
:406180000000000000000000504F534958002E0005000000190000007D000000000000000080E03779C34143176E05B5B5B89346F5F93FE9034F384D321D30F94877825AA7
:4061C0003CBF737FDD4F1575000000000000F03F000000000000244000000000000059400000000000408F40000000000088C34000000000006AF8400000000080842E4121
:4062000000000000D01263410000000084D797410000000065CDCD41000000205FA00242000000E876483742000000A2941A6D42000040E59C30A2420000901EC4BCD642C9
:4062400000003426F56B0C430080E03779C3414300A0D8855734764300C84E676DC1AB43003D9160E458E143408CB5781DAF154450EFE2D6E41A4B4492D54D06CFF0804477
:40628000F64AE1C7022DB544B49DD9794378EA44232D302B2000686C4C0065666745464700000000706F77007371727400000000000000000000304300000000000030C3CD
:4062C0000000000000000810004002088C020000E46208108C4202089C060000BC490208E80E000000127A0000127A0000093D0000127A0000127A0008000000401F0000F4
:406300000000A00F0100000001006000000000000000000000000000000000000000000000000000000000000000000000000000000000000000000000000000000000004C
:40634000000000000000000000000000000000000000000000000000000000000000000000000000000000000000000000000000000000000000000000000000000000001D
:4063800000000000000000000000000000000000000000000000000000000000000000000000000000000000000000000000000000000000000000000000000000000000DD
:4063C000000000000000000000000000000000000000000000000000000000000000000000000000000000000000000000000000000000000000000000000000000000009D
:4064000000000000000000000000000000000000000000000000000000000000000000000000000000000000000000000000000002FF0000000000002861081048610810F9
:406440006861081000000000000000000000000000000000DC60081000000000000000000000000000000000000000000000000000000000000000000000000000000000E7
:406480000000000000000000000000000000000000000000DC4302088E61081095620810956208109562081095620810956208109562081095620810956208109562081025
:4064C000FFFFFFFFFFFFFFFFFFFFFFFFFFFF000001000000B10208108D0208100000000080B2C200E8B10F4B1B68002BFBDA3E210D4B196041F61E7104331960A3F5847398
:406500000621C3F8181522F07F42C3F81C25D3F81C350022034B5A60044BD3F81C35002BFADA7047E0002340040126400000264008B54378FF2B0ED100F002FA064BDB6801
:406540005A68136843F001031360136813F0010FFBD100F005FA08BD8000234038B54FF260034B4AD3589CB200F0EAF90546494B9A68631E032B00F28780DFE803F0022369
:406580004465032A06D10822434B9A60414B9B68032BFBD03F4A13691069C0F307221B0E581C02FB00003D4B03FB00F03C4B1B683C4AA2FB03239B09B0FBF3F08230FFF75D
:4065C0008FFF61E0032A06D10822334B9A60314B9B68032BFBD02F4A13691069C0F307221B0E581C02FB00002C4B03FB00F02C4B1B682C4AA2FB03239B09B0FBF3F082304E
:40660000FFF76EFF40E0032A06D10822224B9A60204B9B68032BFBD01E4A13691069C0F307221B0E581C02FB00001C4B03FB00F01B4B1B681B4AA2FB03239B09B0FBF3F070
:406640008230FFF74DFF1FE0032A06D10822124B9A60104B9B68032BFBD00E4A13691069C0F307221B0E581C02FB00000B4B03FB00F00B4B1B680B4AA2FB03239B09B0FB04
:40668000F3F08230FFF72CFF284600F069F938BD0000254000002140A000234040420F0090420208D34D6210F8B505460E462A4B1B69002B1FDB002000F03AF9274B9842AE
:4066C0001BD00023264A0121184600F021F918B1244C15E0013400E00024002000F028F91E4B984202D0204B9C42F3D91E4B9C4205D91C4C04E01B4C02E01A4C00E00024AC
:406700003CBB00F01DF90746184BD3F81C35002B11DA174A0121174800F002F968B93046FFF7DEFE5DB1134B1B69002BFBDB00F01FF9044604E00B4C02E00A4C00E00E4C54
:406740000121002000F004F90028F9D1384600F007F92046F8BD00BFA000234001018800D843020805005200EF49020000002640684B02082000234001005000394B1B686F
:40678000002BFBDA30B4374BDA6842F00102DA60DB6813F0020F20D0324DEB689CB232490A69120A120402F47F02D1F890301B0A42EA03632343EB600B6923F47F4343F44F
:4067C00010630B61D1F8903023F47F4343F41063C1F890300B69D1F89030224B00225A605B68224A136943F004031361012801D030BF07E020BF1E4B1B7803B120BF012235
:406800001B4B1A70184BD3F8803003F00303022BE7D0144B1B68002BFBDA124BDB6813F0020F15D010490B6923F47F420D48C3681B0C1B0203F47F4313430B61D1F89030C5
:4068400023F47F42C3681B0E42EA0323C1F89030044BDA6822F00102DA6000225A6030BC704700BFE00023400000214000ED00E0784B02081E4A136943F00403136101280A
:4068800001D030BF07E020BF1A4B1B7803B120BF0122184B1A70184BD3F8803003F00303022BE7D0154B1B68002BFBDA144BD3F80C31C3B941F61E72124B1A60062203F578
:4068C00082631A603E22A3F214431A60442203F583631A600C4B1B68002BFBDA4FF0AA32074BC3F80C210022044B5A60704700BF00ED00E0784B020800002140E0002340A7
:4069000000002540080126401C0526400000000001B40248844601BC604700BF3511081001B40248844601BC604700BFB90D081001B40248844601BC604700BF590F08107C
:4069400001B40248844601BC604700BF3315081001B40248844601BC604700BFD10E081001B40248844601BC604700BF3B15081001B40248844601BC604700BFB1130810CC
:4069800000000000000000000000000000000000000000000000000000000000000000000000000000000000000000000000000000000000000000000000000000000000D7
:4069C0000000000000000000000000000000000000000000000000000000000000000000000000000000000000000000000000000000000000000000000000000000000097
:0200000490303A
:0200000021D706
:0200000490501A
:0C0000000005E2F021002101E31842D7C6
:00000001FF