:020000041008E2
:4000000000780408F90208100D00000061030810610308106103081061030810000000000000000000000000000000005D0308105D030810000000005D0308105D0308104C
:400040005D0308105D0308105D0308105D0308105D0308105D0308105D0308105D0308105D0308105D0308105D0308105D0308105D0308105D0308105D0308105D03081000
:400080005D0308105D0308105D0308105D0308105D0308105D0308105D0308105D0308105D0308105D0308105D0308105D0308105D030810190608105D0308105D03081001
:4000C0005D0308105D0308105D0308105D0308105D0308105D0308105D0308105D0308105D0308105D0308105D0308105D0308105D0308105D0308105D0308105D03081080
:400100005D0308105D0308105D0308105D0308105D0308105D0308105D0308105D0308105D0308105D0308105D0308105D0308105D0308105D0308105D0308105D0308103F
:400140005D0308105D0308105D0308105D0308105D0308105D0308105D0308105D0308105D0308105D0308105D0308105D0308105D0308105D0308105D0308105D030810FF
:400180005D0308105D0308105D0308105D0308105D0308105D0308105D0308105D0308105D0308105D0308105D0308105D0308105D0308105D0308105D0308105D030810BF
:4001C0005D0308105D0308105D0308105D0308105D0308105D0308105D0308105D0308105D0308105D0308105D0308105D0308105D0308105D0308105D0308105D0308107F
:400200005D0308105D0308105D0308105D0308105D0308105D0308105D0308105D0308105D0308105D0308105D0308105D0308105D0308105D0308105D0308105D0308103E
:400240005D0308105D0308105D0308105D0308105D0308105D0308105D0308105D0308105D0308105D0308105D0308105D0308105D0308105D0308105D0308105D030810FE
:400280005D0308105D0308105D03081010B5054C237833B9044B13B10448AFF300800123237010BD8C480208000000003C550810084B10B51BB108490848AFF300800848B6
:4002C000036803B910BD074B002BFBD0BDE81040184700BF00000000904802083C55081058430208000000007047EFF3108072B6704780F310887047FFF7F6FF72B6114C45
:40030000114DAC4209DA21686268A368043BA2BFC858D050FAE70C34F3E70C490C4A00209142BCBF41F8040BFAE70A480A490860BFF34F8F00F04AF900F024F900F01EF830
:40034000FEE7000040550810585508108C4802082C4B02080040020808ED00E0FEE7FEE700B504207146084202D0EFF3098001E0EFF30880043000F07BFDFEE710B562B61E
:4003800001F024FC154B1868002302221946406802F080FD124802F075FD00221149012000F00CFC01F08AFC01210F4801F0F8FA0D4C0021204601F04DFB02460021204681
:4003C00001F09EFB01F00CFE02460B46074802F0E7FC4FF4FA7000F017FDE9E714430208B04F0810F505081000001D41C04F0810704700BF5C4AD2F8803303F00F0303F199
:40040000D00152F8212002F00702032A04D0042A05D092B9554914E0554A116811E003F1C002514951F8222002F01F02112A06D0132A04D04FF4FA4103E04E4901E04FF44F
:4004400000418BBB484BD3F8902502F00100D3F88825C2F30172D3F8883513F0405F07D0414BD3F88835C3F30173012B02D102E0012300E0002303B108B9032A46D13A48CD
:40048000D0F88025C2F31103D0F88425C2F30C02D0F88005C0F300600130B1FBF2F202FB03F2B2FBF0F131E0012B2FD12E4BD3F8402602F00100D3F80026C2F30172D3F873
:4004C000003613F0405F07D0274BD3F80036C3F30173012B02D102E0012300E0002303B108B9032A12D12048D0F8002602F07F02D0F80036C3F30423D0F80006C0F30440BA
:4005000002FB01F2B2FBF3F2B2FBF0F1164BD3F88033C3F3011321FA03F215494A601648D0F89030C3F3072301330069000E0130B2FBF0F08860B2FBF3F3CB600B6103F5B1
:40054000742202F23F220D48A0FB0202C2F387420A7503F2E7330A4AA2FB03239B098B61DB03CB61704700BF0000264000127A008C42020800366E010000214083DE1B43DA
:40058000D34D621008B5104BD3F8802122F0404242F08042C3F88021D3F8802142F00042C3F88021D3F8802122F00102C3F88021FFF71EFFFFF71EFF00F036F800F03CF8C0
:4005C00000F0FCFB08BD00BF0000264008B5FFF78CFE074AD2F8883043F47003C2F88830BFF34F8FBFF36F8FFFF783FE08BD00BF00ED00E008B50022054B1A7018B14168CB
:40060000044802F0CDFB0122014B1A7008BD00BFAC420208D44F081008B5024800F0FEFA08BD00BFD448020808B500221146042000F0DAF808BD00BF10B500F076FC04465A
:40064000044800F08DF9044800F0F6F9204600F070FC10BDA8480208E84F081010B504462146034800F092FC0028F9D010BD00BF00006640054BD3F80833C3F30803002B11
:40068000F8D0024BD3F84003704700BF0000664038B50C4B9A680C4B9A420ED10D46044619B9FC21094800F0D3FB04F11003064A52F8230042F8235038BD1030044B53F8C7
:4006C000200038BD00ED00E0004002082C5008100000081070B338B504460D464368072B03D93621154800F0B3FBB4F900306268002B08DB5201D2B203F1604303F56143AB
:4007000083F8002305E003F00F035201D2B20C49CA540C4B9A680C4B9A420DD11DB94521064800F095FB2946B4F90000FFF7B0FF002038BD05487047002038BD2C500810F0
:4007400014ED00E000ED00E0004002080100560038B50369002B0DDA0D4604460B0C1B0423B140F2B321044800F072FBA9B26160002038BD014838BD7050081001008A0097
:4007800038B50368002B01DA002300E0094B73B90D460446C2600B0C1B0423B140F29A21054800F055FBA9B2A160002038BD014838BD00BF01008A007050081038B504460D
:4007C0000D4619B99921064800F042FB2369002B03DAE3682B60002038BD024838BD00BFB050081001008A000F2840D8F8B515460E46044682B979B90F2804D940F2A9111D
:40080000214800F025FB600100F1804000F50C101E4B18600020F8BD5DB366B316F01F0F2BD10F2C04D940F2A911174800F010FB640104F1804404F50C14144F3C607E609B
:40084000BD60F2080021284601F030FE00212046FFF77EFF3A4652F8040B0021FFF790FF68B900213868FFF773FF50B9F8BD084870470748F8BD0648F8BD0548F8BD0548D5
:40088000F8BD0448F8BD00BFF0500810284A020803018A0001018A002DE9F0411B4B1B68DC68236883422CD90D464609A0EB4610012303FA00F819B900F037FB074600E04F
:4008C0000027124B18680368002B01DA002300E00F4B83B9626852F8263018EA030F05D023EA080342F82630002400E0094C0021FFF72EFF00E0084C25B9384600F019FBBE
:4009000000E0064C2046BDE8F08100BF284A020801008A00020188000301880004018A000B4B1B68DB681A6882420CD94109A0EB4110012202FA00F05B6853F82130184268
:4009400003D004487047044870470448704700BF284A02080101880004018A0000018800024B1B680BB9014B18607047344A02082DE9F8430446884691461E46089F2A4B67
:400980001B681BB9B421294800F062FA072C03D9B521264800F05CFA234B1B682C2000FB04F01C18F5B21D50C6F307236360360CA6600F2D04D940F2A9111D4800F048FAB7
:4009C0006D0105F1804505F50C15256165680F2D04D94FF4E271164800F03AFA154B03EB45156561A668330C1B0423B14FF4F1710F4800F02DFA330C1B0423B140F2E31116
:400A00000B4800F025FAB3B243EA0646AE60C4F81C90C4F820800023A36117B1B7F90030A381BDE8F88300BF344A020830510810F050081000102340F0B58FB0044618B9E7
:400A400050212C4800F004FAA369072B03D95421284800F0FDF9E36A1BB95621254800F0F7F9E368072B03D95721224800F0F0F9236A072B03D958211E4800F0E9F9236BEB
:400A80001BB959211B4800F0E3F907AE04F114050FCD0FC62F6802AD26460FCE0FC533682B60079B1933ADF83030089B0D93A26AE16A0CAD00953B460A98FFF759FF00214F
:400AC0000091069B0A460598FFF752FF216B2846FFF700FEBDF93030002B08DB590903F01F03012202FA03F3034A42F821300FB0F0BD00BF3051081000E100E0F8B506469C
:400B00000F461D4614461AB9FD21264800F0A0F9254B1B681BB9FE21224800F099F9072E03D9FF211F4800F093F9072F04D94FF480711C4800F08CF91B4B1B682C2101FB83
:400B4000063001FB07314B68012202FA03F31B04466802FA06F60269EAB18F69EFB91268002A01DA002200E0104AC2B92288134323600369DC6001238B614D620469330CEC
:400B80001B0423B140F29A21094800F061F9B2B2A2600020F8BD0748F8BD0748F8BD0648F8BD00BF30510810344A020801008A00F050081004028A0007028A00F8B5054696
:400BC0000F461646124B1B6823B940F26111114800F03EF9072D04D94FF4B1710D4800F037F90B4B1B682C2404FB0534236A23B94FF4B371074800F02BF9E369B34204D9C7
:400C0000236A43F826700020F8BD0348F8BD00BF344A0208305108100A028A0070B582B000230193044620B94FF4EA71264800F00FF9236923B940F2D511234800F008F9FA
:400C4000636923B94FF4EB711F4800F001F9236A23B940F2D7111C4800F0FAF86369DD682A0C1CD012041A601B6820690369002B15DA01A9FFF7A2FD60B9019803681E0C38
:400C8000DBB2E269934206D2226A52F8233013B1984700E0002631462069FFF759FDADB275B16369ADB21D601B68636A1BB198470023636202E0A36A03B198470023A361D8
:400CC00063691B6802B070BD305108101F4B98422DD00CD840282ED003D8E8B1102828D02FE0802829D0B0F5807F28D029E0184B984228D006D8B0F1204F0DD0154B98426F
:400D000012D01EE0144B98420AD00133984209D0023B984215D101E0002070470F4870470F4870470F4870474FF4A0007047074870470D4870470D4870470D4870470348EB
:400D400070470C4870474FF4A400704706005200010000F0090000A0040000F0010052000200520003005200010050000200500005005200FF00520008B50C4B1B69002B23
:400D800012DB0B4B1868FFF7A1FF0122094BC3F88C24084BD3F80C34002BFAD1054BD3F88C34002BF5D108BD034808BD20002340384A0208000025400200500000B583B055
:400DC0005523ADF80030002301930C496846FFF781FCBDF90030002B08DB590903F01F03012202FA03F3064A42F82130022205490120FFF7E3FE03B05DF804FBD943020887
:400E000000E100E0AD43020810B5044605E0084B186800F081F8A4F50044B4F5004FF6D8044B186800FB04F000F076F810BD00BFA8420208A442020808B5034B1B7800FBFF
:400E400003F000F069F808BDA042020801BEFEE738B50D46044C18220146204602F0CCF8A5610020FFF7F2FFF8470208FEE700BF08B50268254BDA6142681A6282685A6214
:400E8000C2689A620269DA6242691A6382695A63C2699A631E4A916AD963D16A1964516A5964516B9964926BDA64F1EE103A13F0900F27D0026A154B1A65426A5A65826A46
:400EC0009A65C26ADA65026B1A66426B5A66826B9A66C26BDA66026C1A67426C5A67826C9A67C26CDA67026DC3F88020426DC3F88420826DC3F88820C26DC3F88C20026EE8
:400F0000C3F89020FFF7B2FF08BD00BFF847020800ED00E0000000000230800803D001300238FCD100BF00BF7047EFF3108072B6704780F31088704710B4D0F8003303F046
:400F40000F03072B06D900230DE0D0F84043CC54013300E000239342F7D306E0D0F8404321F8134001339342F8D35DF8044B704710B51446D0F80833C3F308039A4200D39F
:400F80001C462246FFF7D8FF204610BD036813F4006F01D0802200E04022D0F80832C3F30803934203D0C0F84012012070470020704700BF10B4D0F8003203F00F03072BF9
:400FC00006D900230DE0CC5CC0F84042013300E000239342F7D306E031F81340C0F8404201339342F8D35DF8044B704710B51446036813F4006F01D0802200E04022D0F882
:401000000832C3F30803D31AA34200D81C462246FFF7D0FF204610BD2DE9F84305460C46036813F4006F02D04FF0800801E04FF04008D5F8007207F00F07A26A012A19D904
:40104000D4F82490E262561EB9F1000F00D026B940F22C512548FFF7FBFE324649462846FFF7C4FFA36A1B1AA362072F00D9400048446062D5F80832C3F30803984533D00B
:40108000A36A012B30D10023A362072F02D8636A1E7801E0636A1E88FFF747FFC5F840624FF40073C5F8803FD5F8803FFFF741FFD5F8883F23F4007222F0010242F400769A
:4010C00023F4EE6323F0030323B14FF481610848FFF7BEFEC5F8886F236843F002032360236B0BB101209847BDE8F88370510810B05108102DE9F04105460C46036813F4C8
:40110000006F01D0802600E040267608A769D4F81C8017B1B8F1000F04D14FF490613148FFF796FE424639462846FFF721FF236A03442362E3691B1AE36173BBA368FBB173
:40114000E3689E4201D8013E00E05E1E2B6813F4006F01D0802300E040239E4204D340F25E212148FFF774FED5F8043323F0FF03F6B21E43C5F804630123C5F8C83F02E0C7
:401180000023C5F8C83F636823F001036360236B33B304209847BDE8F081A169D5F8002302F00F02072A00D940000844A0619E4216D95C1E2B6813F4006F01D0802300E0DC
:4011C00040239C4204D340F25E210748FFF740FED5F8043323F0FF02E3B21343C5F80433BDE8F08170510810B0510810002800F0A98170B50546002900F0A6819E4B9842EF
:4012000000F0A48116460C460B78022B03D942219A48FFF71DFE637B023BDBB2062B03D943219648FFF714FEA37B3BB1022B05D0032B03D044219148FFF70AFE94F82130E4
:40124000012B03D945218D48FFF702FE94F82830012B03D946218948FFF7FAFD2378012B06D86368083B082B94BF0023012307E0A37F2BB16368013B062B94BF00230123ED
:401280001BB148217D48FFF7E3FDA368053B042B03D949217948FFF7DBFD6369FF2B03D94A217648FFF7D4FDA369FF2B03D94B217248FFF7CDFDA37C6BB1237833B9A36888
:4012C000092B05D1A37B2BB1012304E0012302E0012300E000231BB14D216848FFF7B8FD636B23F4366323F00D031BB14F216348FFF7AEFDE36B23F4EE6323F003031BB15C
:4013000050215E48FFF7A4FD2378022B01D1A37F13B163685A1E00E00022237F13B14FF4803100E00021A068082802D84FF4006300E00023194302F00F030B4343F00073D0
:401340002B60236B2A6812F4006F01D0802200E04022934203D365214848FFF779FDA36B2A6812F4006F01D0802200E04022934203D366214148FFF76BFD636A2A6812F423
:40138000006F01D0802200E04022934203D367213A48FFF75DFD23781B0603F040732B64637F0BB1402200E00022A17C11B14FF4806300E000231343227C12B14FF480721D
:4013C00000E000221343627C12B14FF4007200E000221A43E36A013B1B0403F470231343627B013A02F007021343A27B120102F030021343AB64237B13B14FF4807200E0BF
:401400000022E17B21B92378022B03D1012302E0012300E0002313B14FF4007300E000231A43A368013B03F00F031343C5F80033227DA3691B0403F47F031343C5F8103386
:40144000E26AD5F8003303F00F0303339A4201D3102A03D97D210948FFF7FAFCE37F23B12378012B03D0002302E0002300E0012333B14FF4807204E000006940F451081045
:401480000022637B013B03F007031A43A37B1B0103F0300313436B64237B13B14FF4807200E00022A368013B03F00F0313432278012A02D14FF4803200E000221343C5F834
:4014C000003294F83030C5F8043394F8203013B14FF0007100E0002194F82120012A02D14FF0807300E000230B4394F82820012A02D14FF4803200E00022134394F824204C
:4015000013432B6594F83830C5F80432636B23F4926323F002031B051B0DC5F8C83FE36B23F08C035B055B0DC5F8883F86B1002070603060B060F0603062F0623063054BC6
:40154000736370BD04487047034870BD024870BD002070BDEFCDAB000160AA000B694A69934202D34869181A7047CA694869101A184470472DE9F04107460D46036813F4D2
:40158000006F02D04FF0800801E04FF040084FEA5808D7F80863C6F308062C6926E00134EB689C4200D100246B699C420FD12B6B0BB1082098476B699C4208D10023C7F8D3
:4015C000C83F0CB1013C13E0EC68013C10E0D7F84023D7F8003303F00F03072B02D8AB681A5502E0AB6823F81420013E002ED6D12C61EC6829463846FFF7B0FF201A8045E5
:4016000019D908B1441E00E000243B6813F4006F01D0802300E040239C4204D340F25E210648FFF715FCD7F8040320F0FF03E0B21843C7F80403BDE8F08100BFB051081085
:4016400038B504460D46D0F8003E13F0080F35D0D0F8CC3F13F448730AD04A681A434A60C0F8C03FD0F8C03F0B6B0BB110209847D4F8CC3F13F4006F09D06B6843F4006341
:401680006B604FF40063C4F8C03FD4F8C03FD4F8CC3F13F0010F11D0EB6923B129462046FFF728FD05E0AB681BB129462046FFF761FF0123C4F8C03FD4F8C03FD4F8003EAD
:4016C00013F0040F2ED0D4F88C3F13F4A0630AD02A681A432A60C4F8803FD4F8803F2B6B0BB120209847D4F88C3F13F0010F08D029462046FFF790FC0123C4F8803FD4F827
:40170000803FD4F88C3F13F4007F0BD00022C4F8882F2B6823F001032B60EA622B6B0BB10220984738BD00BF2DE9F8430E46074618B937216F48FFF78BFB1EB938216D48A2
:40174000FFF786FB002F00F0CF80002E00F0CF803268694B13401BB147216648FFF778FB7268664B13401BB148216248FFF770FBB36813F0FC2F03D049215E48FFF768FB88
:40178000F36813F0FC2F03D04A215A48FFF760FB337D032B03D94B215648FFF759FBB369B3F5803F03D34C215248FFF751FBF36D072B03D94D214F48FFF74AFB336EB3F5C8
:4017C000803F03D34E214B48FFF742FB736EB3F5803F03D34F214748FFF73AFB73687B60B3683B61F3687B613369BB61337D9B07FB61B3693B62336803F46068736803F0EC
:401800000409002435E02546A31D06EB83035A683B4B13401BB15F213648FFF719FBAB1D06EB8303596805F1200247F822105B6813F0012F0BD1B8F5606F08D1B9F1000FE8
:4018400005D04FF478422F4B23F8152003E000222C4B23F81520726F02F11C7303F58033520093FBF2F31BB2274A42F825300134E4B20F2CC7D9F36DC7F81832336EC7F8F1
:401880002832736EC7F8383296F87030DBB1B36EB3F1804F03D37B211648FFF7D9FAF36E23F44F0323F0FF031BB17C211148FFF7CFFA6FF04043C7F80433B36EC7F8003392
:4018C000F36EC7F84433D7F8003F3F2B02D0D7F8003F13B90B23C7F8003F336843F400133B600020BDE8F8830848BDE8F8830748BDE8F883345208100811DF0001FE30207D
:4019000088CA887E904A0208B04A02080100060038B50D46044618B9AD211748FFF798FA2CB30023236063604FF0031222616261A361E361236206E003F12002002144F848
:4019400022100133DBB20F2BF6D90023C4F81832C4F82832C4F838325DB16FF04043C4F804330020C4F84003C4F8440338BD034838BD002038BD00BF345208100100060053
:4019800008B50368002B0ADBD0F8A032002BFBDB036843F0004303600220FFF74DFA08BD38B505460C46012904D940F265110648FFF74EFA012C04D16B6843F480336B609D
:4019C00038BD01236B6238BD3452081038B505460C460F2904D940F243210848FFF738FA0F2C07D8203455F8243013F0012F03D0002038BD002038BD012038BD34520810CE
:401A000038B505460C460F2904D940F212211048FFF71EFA0F2C14D821462846FFF7D6FF80F0010010F0FF0F05D06B6813F0080F09D1002038BD6B6813F0040F05D1002066
:401A400038BD002038BD012038BD012038BD00BF3452081038B505460C460F2904D940F269210648FFF7F4F90F2C04D8603455F8240080B200E0002000B238BD34520810B4
:401A8000F8B506460C4615460F2904D940F263311948FFF7DDF90F2C2BD8736813F0800F22D104F1200356F8233013F4806F1BD07768C7F302170137012303FA07F773685C
:401AC00013F4807F02D1102F00D9102721463046FFF796FF20B9ADB2B5FBF7F52DB203E03FB295FBF7F52DB2044B33F81430ED1A2DB22846F8BD00BF34520810904A02086C
:401B000070B505460C4616460F2904D940F2C3311348FFF79DF90F2C1AD86B6813F0020F19D1324621462846FFF7AAFF07EE900AF8EEE77AF2EE046A67EEA66A094B53F853
:401B4000243007EE103AB8EEC77AC6EE877A04E0DFED057A01E0DFED047A17EE900A70BD34520810B04A02080000000070B539B900240AE015F8010BFEF770FD013402E0B7
:401B800016460D460024B442F4DB204670BD00BF70B551B900240DE0FEF76CFDC0B2287001340A2806D0013502E016460D460024B442F1DB204670BD08B502490248FFF7CE
:401BC0003FFD08BDF04A02080000664008B5114B1B785BB9104A11491148FFF707FB11491148FEF777FD01220A4B1A700E4BB3F90030002B08DB590903F01F03012202FA3E
:401C000003F30A4A42F82130054A136843F00043136008BD784A0208F04A02087052081000006640B91B08102450081000E100E038B50546104A114BC3F800240369FF2B2B
:401C400009D80E49D1F8042822F47F421B029BB21343C1F80438094B094AC3F80024D3F80034084C00212046FFF752FEA9682046FFF75AFD38BD00BF01000040000001400B
:401C800001FF008000001D4108B5084B1B7963B907490848FEF71EFD044B5B792BB90122024B5A710448FFF7C3FF08BD7C4A0208E91C08101C500810EC52081008B5084BF4
:401CC0001B7913F0010F06D1FFF7DEFF044A137943F0010313710348FFF752FE08BD00BF7C4A020800001D4110B5094BD3F81042072C04D940F219610648FFF7A9F8044B95
:401D0000C3F81042D3F81022D3F8103210BD00BF00001D41B052081081F0004102E000BF83F0004330B54FEA41044FEA430594EA050F08BF90EA020F1FBF54EA000C55EA50
:401D4000020C7FEA645C7FEA655C00F0E2804FEA5454D4EB5555B8BF6D420CDD2C4480EA020281EA030382EA000083EA010180EA020281EA0303362D88BF30BD11F0004F67
:401D80004FEA01314FF4801C4CEA113102D0404261EB410113F0004F4FEA03334CEA133302D0524263EB430394EA050F00F0A780A4F10104D5F1200E0DDB02FA0EFC22FA07
:401DC00005F2801841F1000103FA0EF2801843FA05F359410EE0A5F120050EF1200E012A03FA0EFC28BF4CF0020C43FA05F3C01851EBE37101F0004507D54FF0000EDCF1BB
:401E0000000C7EEB00006EEB0101B1F5801F1BD3B1F5001F0CD349085FEA30004FEA3C0C04F101044FEA445212F5800F80F09A80BCF1004F08BF5FEA500C50F1000041EBF2
:401E4000045141EA050130BD5FEA4C0C404141EB010111F4801FA4F10104E9D191F0000F04BF01460020B1FA81F308BF2033A3F10B03B3F120020CDA0C3208DD02F1140C30
:401E8000C2F10C0201FA0CF021FA02F10CE002F11402D8BFC2F1200C01FA02F120FA0CFCDCBF41EA0C019040E41AA2BF01EB0451294330BD6FEA04041F3C1CDA0C340EDC69
:401EC00004F11404C4F1200220FA04F001FA02F340EA030021FA04F345EA030130BDC4F10C04C4F1200220FA02F001FA04F340EA0300294630BD21FA04F0294630BD94F08F
:401F0000000F83F4801306BF81F480110134013D4EE77FEA645C18BF7FEA655C29D094EA050F08BF90EA020F05D054EA000C04BF1946104630BD91EA030F1EBF00210020DF
:401F400030BD5FEA545C05D14000494128BF41F0004130BD14F580043CBF01F5801130BD01F0004545F0FE4141F470014FF0000030BD7FEA645C1ABF194610467FEA655C3C
:401F80001CBF0B46024650EA013406BF52EA033591EA030F41F4002130BD00BF90F0000F04BF0021704730B54FF4806404F132044FF000054FF0000150E700BF90F0000F0C
:401FC00004BF0021704730B54FF4806404F1320410F0004548BF40424FF000013EE700BF42004FEAE2014FEA31014FEA02701FBF12F07F4393F07F4F81F06051704792F05B
:40200000000F14BF93F07F4F704730B54FF4607401F0004521F0004120E700BF50EA010208BF704730B54FF000050AE050EA010208BF704730B511F0004502D5404261EB13
:4020400041014FF4806404F132045FEA915C3FF4DCAE4FF003025FEADC0C18BF03325FEADC0C18BF033202EBDC02C2F1200300FA03FC20FA02F001FA03FE40EA0E0021FA26
:4020800002F11444C1E600BF70B54FF0FF0C4CF4E06C1CEA11541DBF1CEA135594EA0C0F95EA0C0F00F0DEF82C4481EA030621EA4C5123EA4C5350EA013518BF52EA0335D3
:4020C00041F4801143F4801338D0A0FB02CE4FF00005E1FB02E506F00042E0FB03E54FF00006E1FB03569CF0000F18BF4EF0010EA4F1FF04B6F5007F64F5407404D25FEAB4
:402100004E0E6D4146EB060642EAC62141EA55514FEAC52040EA5E504FEACE2EB4F1FD0C88BFBCF5E06F1ED8BEF1004F08BF5FEA500E50F1000041EB045170BD06F00046C7
:4021400046EA010140EA020081EA0301B4EB5C04C2BFD4EB0C0541EA045170BD41F480114FF0000E013C00F3AB8014F1360FDEBF002001F0004170BDC4F10004203C35DA9D
:402180000C341BDC04F11404C4F1200500FA05F320FA04F001FA05F240EA020001F0004221F0004110EBD37021FA04F642EB06015EEA430E08BF20EAD37070BDC4F10C0438
:4021C000C4F1200500FA04F320FA05F001FA04F240EA020001F0004110EBD37041F100015EEA430E08BF20EAD37070BDC4F1200500FA05F24EEA020E20FA04F301FA05F255
:4022000043EA020321FA04F001F0004121FA04F220EA020000EBD3705EEA430E08BF20EAD37070BD94F0000F0FD101F00046400041EB010111F4801F08BF013CF7D041EA54
:40224000060195F0000F18BF704703F00046520043EB030313F4801F08BF013DF7D043EA0603704794EA0C0F0CEA135518BF95EA0C0F0CD050EA410618BF52EA4306D1D154
:4022800081EA030101F000414FF0000070BD50EA410606BF1046194652EA430619D094EA0C0F02D150EA013613D195EA0C0F05D152EA03361CBF104619460AD181EA030128
:4022C00001F0004141F0FE4141F470014FF0000070BD41F0FE4141F4780170BD70B54FF0FF0C4CF4E06C1CEA11541DBF1CEA135594EA0C0F95EA0C0F00F0A7F8A4EB0504D5
:4023000081EA030E52EA03354FEA013100F088804FEA03334FF0805545EA131343EA12634FEA022245EA111545EA10654FEA00260EF000419D4208BF964244F1FD0404F52F
:40234000407402D25B084FEA3202B61A65EB03055B084FEA32024FF480104FF4002CB6EB020E75EB030E22BFB61A754640EA0C005B084FEA3202B6EB020E75EB030E22BF34
:40238000B61A754640EA5C005B084FEA3202B6EB020E75EB030E22BFB61A754640EA9C005B084FEA3202B6EB020E75EB030E22BFB61A754640EADC0055EA060E18D04FEA10
:4023C000051545EA16754FEA06164FEAC30343EA52734FEAC2025FEA1C1CC0D111F4801F0BD141EA00014FF000004FF0004CB6E711F4801F04BF01430020B4F1FD0C88BFE1
:40240000BCF5E06F3FF6AFAEB5EB030C04BFB6EB020C5FEA500C50F1000041EB045170BD0EF0004E4EEA113114EB5C04C2BFD4EB0C0541EA045170BD41F480114FF0000E1F
:40244000013C90E645EA060E8DE60CEA135594EA0C0F08BF95EA0C0F3FF43BAF94EA0C0F0AD150EA01347FF434AF95EA0C0F7FF425AF104619462CE795EA0C0F06D152EAEF
:4024800003353FF4FDAE1046194622E750EA410618BF52EA43067FF4C5AE50EA41047FF40DAF52EA43057FF4EBAE12E702440346934202D003F8011BFAE770472DE9F0471C
:4024C00088B0002B149F1299109EDDF84CA01D4627F02007BBBF03F100431D4600232D231446B8BF1446462F0B7003D0452F03D1013601E0032300E0022307AA049206AA14
:4025000003928DE8480422462B4600F0DDFE472F804602D1119BDB0728D5462F08EB060911D198F80030302B0AD1002200232046294602F093FC18B9C6F10106CAF800606C
:40254000DAF800309944002200232046294602F085FC08B9302202E0CDF81C9006E0079B994503D9591C07911A70F8E7079B159AC8EB03034046136008B0BDE8F08773B5D2
:4025800003460029B8BF494203F8022BB4BF2D222B220929427019DD0DF1070216460A2591FBF5F405FB14113031092C02F8011D2146F5DC3031541E02F8011CB4421A4644
:4025C0000AD214F8012B03F8012BF7E730241A46214402F8024B5970101A02B070BD00002DE9F04F91B00C46DDF8688016461F46054601F081FD03680893184600F0F4FC2C
:4026000000230E93D8F800300990073323F0070303F1080294F818A0D4F800B0C8F80020D3E90023C4E91223D4E9128929F000430B93CDF828804FF0FF32A74BDDE90A0195
:4026400002F03EFCA0B94FF0FF32A34BDDE90A0102F018FC60B9002200234046494602F007FC10B12D2384F843309C4B9C4A0AE042464B464046494602F022FC002800F02B
:402680009281984B984ABAF1470F8CBF90469846032323612BF0040323604FF000093DE0BAF1670F00F08A81BAF1470F00F08681236000210DF1330201936368059002921B
:4026C000009342464B460691CDF810A0CDF80CE02846FFF7F3FE0AF0DF03472B804600F08481BAF1650F0D9900F28D810139524604F150000D91FFF742FF0E9A8318012AF4
:402700008146236100F37C812268D10700F178819DF8333013B12D2384F84330009733460FAA2146284600F09FF9013002D14FF0FF3096E123685A0501D4236965E0BAF1CD
:40274000650F40F2D58000220023D4E9120102F085FB78B30123654A31462846B8470130E5D00E9B0D9A9A420BDB2368D80708D423689B0740F111814FF0000804F1190969
:4027800006E1099B089A31462846B8470130CED04FF0000804F11A090E9B013B9845E7DA01234A4631462846B8470130BFD008F10108F1E70D9B002B29DC01234B4A31461D
:4027C0002846B8470130B2D00D9B23B90E9B13B92368D907CCD5099B089A31462846B8470130A4D04FF0000904F11A0A0D9B5B42994509DA0123524631462846B8470130AD
:4028000095D009F10109F1E70E9B4246A7E00E9AA36D9A42A8BF1A46002A914606DC4FF0000A29EAE97904F11A0B11E01346314642462846B8470130F1D178E701235A46BD
:4028400031462846B84701303FF471AF0AF1010AA36DC9EB03029245F0DB08EB03090D9A0E9B9A420FDB2368DA070CD40E9B0D9A9844C9EB08089B1A9845A8BF9846B8F1AE
:40288000000F08DC0FE0099B089A31462846B8470130EBD14BE743464A4631462846B84701303FF444AF4FF0000928EAE87804F11A0A09E00123524631462846B84701300C
:4028C0003FF435AF09F101090D9A0E9B9B1AC8EB03039945EEDB4BE7FFFFEF7F8053081084530810885308108C530810905308100E9A012A01DCDB0738D501234246314639
:402900002846B84701303FF412AF099B089A31462846B84701303FF40AAF00220023D4E9120102F09BFA20B14FF0000804F11A0A0EE00E9B08F10102013B19E0012352466D
:4029400031462846B84701303FF4F1AE08F101080E9B013B9845F1DB4B4604F1500231462846B84701307FF403AFE0E60123424631462846B8470130EED1D8E601234A4616
:4029800031462846B84701303FF4D1AE08F10108E3680F9A9B1A9845F0DBE0680F9B9842B8BF18465DE06268531C0EA84BF480630DF1340E7FF474AE062201E012B9012242
:4029C000626075E6002106910DF133018DE80C00236005904246CDF810A0CDF80CE002914B462846FFF76AFD80460D9BD81C02DB626893421DDDAAF1020A5FFA8AFA70E6E8
:402A00000133236184E6BAF1660F14D10029636807DD216113B92268D2071DD501330B4419E013B92268D00701D5023313E0012311E04FF0670A0D9B0E9A934205DB2268F9
:402A40002361D10708D5013305E0002BD4BFC3F102030123134423610D9BA3654FF0000956E611B0BDE8F08F2DE9F04791461F460A698B68DDF820809342B8BF1346C9F8AB
:402A8000003091F8432006460C4612B10133C9F800302368990642BFD9F800300233C9F80030256815F0060510D104F1190A07E00123524639463046C04701301AD001359C
:402AC000E368D9F800209B1A9D42F1DB94F843302268003318BF012392060FD5E1185A1C302081F84300224494F8451082F84310023303E04FF0FF30BDE8F08704F143029C
:402B000039463046C0470130F4D02268D9F80050E36802F00602042A08BF5D1B2269A3680CBF25EAE57500259342C4BF9B1AED184FF000091A344D4509D00123224639463A
:402B40003046C0470130D5D009F10109F3E70020BDE8F0872DE9F04317460A7E85B06E2A984606460C460C9B01F1430E00F0AE8011D8632A22D009D8002A00F0BB80582A49
:402B800040F0CA8081F84520834955E0642A1ED0692A1CD0C0E0732A00F0B08009D86F2A2ED0702A40F0B8800A6842F020020A603EE0752A24D0782A3AD0ADE01A6801F15C
:402BC0004205111D1960136884F84230A8E021681A6811F0800F02D0111D196008E011F0400F02F10401196002D0B2F9003000E01368002B3CDA2D225B4284F8432037E00E
:402C000021681A6811F0800F02D0111D196007E011F0400F02F10401196001D0138800E01368227E5C496F2A14BF0A2208221BE078225A4984F845202268186812F0800F56
:402C400000F104051D6003D1550601D5038800E00368D00744BF42F0200222601BB9226822F0200222601022002084F8430001E049490A226568A560002D08DB206820F014
:402C8000040020602BB9002D7DD175460CE0002B79D07546B3FBF2F002FB1033CB5C05F8013D03460028F5D1082A0BD12368DA0708D5236962689A42DEBF302305F8013C3F
:402CC00005F1FF35C5EB0E0323612EE008681A68496910F0800F03D0101D1860136808E010F0400F02F104001860136801D0198000E0196000232361754616E01A68111D45
:402D00001960156862680021284601F061FA08B1401B6060636804E004F1420584F8422001232361002384F84330CDF800803B4603AA21463046FFF797FE013002D14FF083
:402D4000FF3026E023692A4639463046C0470130F5D023689B0710D5002504F1190907E001234A4639463046C0470130E7D00135E368039A9B1A9D42F2DBE068039B984224
:402D8000B8BF184605E00B7884F8423004F142058AE705B0BDE8F08392530810A35308100FB40A4B13B51C6824B1A36913B9204601F018F905AB049AA1680193204601F0A8
:402DC0001DFE02B0BDE8104004B070471443020870B50E46054618B183690BB901F002F9AB69AC6813B9284601F0FCF8224B9C4201D16C6808E0214B9C4201D1AC6803E0E9
:402E00001F4B9C4208BFEC68A3891B0701D523693BB92146284600F057F910B14FF0FF3070BD013EA36816F8011F013BA36091B1002B04DAA269934206DB0A2904D02368C5
:402E40005A1C22601970EDE72246284600F0E8F80130E7D1E2E7002B08DA22460A21284600F0DEF80130D9D00A2070BD23680A205A1C2260187070BDC4530810E4530810C0
:402E800004540810024B01461868FFF7A1BF00BF144302082DE9F7431D464F4B1E6804460F46904626B1B36913B9304601F09AF84A4B9C4201D1746808E0494B9C4201D1CB
:402EC000B46803E0474B9C4208BFF468B8F1020F04D0B8F1010F79D8002D77DB2146304601F016F8616B41B104F14403994202D0304601F0ADFC002363630023A3616360C3
:402F0000A3891B0603D52169304601F0A1FCA38923F44A6323F00303B8F1020FA3811ED001AB6A462146304601F0EAF8A3891843A0810DB9009D00E02FBB284601F040F990
:402F40000746D0B9DDF80090A94502D14FF0FF3006E0484601F034F9074678B9F6E70020A38943F00203A3810023A36004F1470323602361012363612AE0A946A38943F0A6
:402F80008003A3814D46B36913B9304601F02AF8B8F1010F08BFA389276004BF43F00103A381A389276103F0080080B2656158B113F001034FF000001DBF6D42A060A5618E
:402FC000A56008BF184603E0A06001E04FF0FF3003B0BDE8F08300BF14430208C4530810E453081004540810034613F8012B002AFBD1181A0138704710B5034642B111F8FA
:40300000014B03F8014B013A002CF7D11A4400E010BD934202D003F8014BFAE710BD0000F8B50F461446064618B183690BB900F0D9FF224B9C4201D1746808E0204B9C4214
:4030400001D1B46803E01F4B9C4208BFF468A369A360A3891A0709D523693BB123682069181A63699842FDB20FDB08E02146304600F02AF80028F1D04FF0FF30F8BD214693
:40308000304600F045FF0028F6D1A368013BA36023685A1C22601F706269431C934204D0A389DB0707D50A2D05D12146304600F02FFF0028E0D12846F8BD00BFC45308106C
:4030C000E453081004540810324B70B51D6806460C4625B1AB6913B9284600F083FF2E4B9C4201D16C6808E02C4B9C4201D1AC6803E02B4B9C4208BFEC68B4F90C309AB20F
:4031000015071DD4D00602D4092232603AE0510712D5616B41B104F14403994202D0304601F096FB00236363A38923F02403A3810023636023692360A38943F00803A3812B
:4031400023694BB9A38903F42073B3F5007F03D02146304600F0F8FFA28912F0010305D00023A36063695B42A36103E0920758BF6369A36023695BB9B4F90C3003F0800054
:4031800080B230B143F04003A3814FF0FF3070BD002070BD14430208C4530810E4530810045408102DE9F74F03690C699C42804600F38380013C01F114074FEA840E00F14E
:4031C000140657F8245006EB0E030193013556F82430B3FBF5F507EB0E09002D39D04FF0000A3846B446D34650F8042B93B205FB03A34FEA134A9BB2C3EB0B03120CBCF800
:4032000000B005FB02A213FA8BF34FEA124A1FFA82FBDCF80020CBEB124202EB23429BB243EA024381454FEA224B4CF8043BDBD256F80E306BB9019B043B9E421A4602D339
:40324000C8F8104005E01268043B002AF8D1013CF3E7404601F025FA00282CDB013530464FF0000E57F8041BD0F800C08AB2C2EB0E03090C13FA8CF3C1EB1C4202EB2342EB
:403280009BB243EA0243B9454FEA224E40F8043BE8D256F8242006EB840362B9043B9E421A4602D3C8F8104005E01268043B002AF8D1013CF3E7284600E0002003B0BDE880
:4032C000F08F0000000000002DE9F04F456A97B08246239CCDE9022345B9102000F070FFCAF82400456085600560C560DAF82430196859B15A684A60012393408B60504686
:4033000000F0F6FFDAF8243000221A60039BA04A002BBFBF01232360039B23F00043B8BF0393DDF80C80A4BF0023236028F000431B0D1B0593421DD1229A42F20F73136058
:40334000029B43B9934A944BC8F31300002814BF1846104600E09048249B002B00F04A85C37813B100F1080300E0C31C249A136000F040BDDDE9024500220023204629461B
:4033800001F06CFD074658B1229A01231360249B002B00F0228581481860013800F02ABD14AB019315AB009322462B46504601F0F3F9C8F30A56059056B1C5F3130343F08E
:4033C0007F51204641F44011A6F2FF3611971DE0159B149E1E4406F23243202B0ADD029A06F21240C3F1400322FA00F008FA03F3184304E0C3F12000029B03FA00F0FEF7C9
:40340000CDFD0123A1F1F871013E11930022644BFEF786FC58A3D3E90023FEF735FE58A3D3E90023FEF77EFC044630460D46FEF7C5FD55A3D3E90023FEF726FE02460B46DA
:4034400020462946FEF76EFC04460D4601F04EFD0022834600232046294601F009FD58B15846FEF7ABFD02460B462046294601F0F5FC08B90BF1FF3BBBF1160F0DD8494992
:4034800001EBCB01DDE90223D1E9000101F00EFD30B10BF1FF3B002300E00123109300E01090149B9E1B731E089343BFC3F10009002308934FF00009BBF1000F07DB089BB8
:4034C000CDF834B05B4408930023099306E0CBF1000309930023CBEB09090D93209B092B27D8052BC4BF043B2093209BA3F10203CCBF00250125032B20D8DFE803F0060EAD
:403500000204012302E0012308E000230C93219B002B1CDD069398461EE000230C93219B5B4403F1010806934346012BB8BF012312E00125002320930C9501E001230C9326
:403540004FF0FF33069398460022122303E00123069398461A462192DAF8244000226260042101F114029A421ED86268013262604900F6E7AFF3008061436F63A787D23FA6
:40358000B3C8608B288AC63FFB799F501344D33F0000F07FB4530810BD530810915308100000F83F605408106168504600F06BFEDAF8243020601B680793B8F10E0F00F23A
:4035C0005D81002D00F05A819DED027BBBF1000F8DED0E7B31DDA04A0BF00F0302EBC30393ED007B4FEA2B14E2068DED0A7B0CD59A4BDDE90E01D3E90823FEF76FFE04F046
:403600000F04CDE90201032600E00226934D6CB1E30708D5DDE90A01D5E90023FEF734FDCDE90A01013664100835F0E7DDE90A23DDE90201FEF752FE20E0CBF1000404B3F9
:40364000854B864D04F00F0203EBC203D3E90023DDE90E01FEF718FDCDE9020124110023022654B1E70705D5D5E90023FEF70CFD0136012364100835F3E71BB1CDE90201E1
:4036800000E00226109BEBB1DDE902450022744B2046294601F0ECFBA0B1B8F1000F11D0069B002B40F3E6800BF1FF330A9300226C4B20462946FEF7E7FC0136CDE9020190
:4036C000069F02E0CDF828B047463046FEF776FCDDE90223FEF7D8FC0022634BFEF722FB0446A1F15075CFB90022604BDDE90201FEF716FB22462B46CDE9020101F0D6FB8D
:40370000002840F04182224605F10043DDE9020101F0AEFB002840F02E82ABE00C9A4E4B791E002A4AD003EBC103D3E9002300204F49FEF7D3FD22462B46FEF7F1FA079C53
:4037400005460E46DDE9020101F0D0FB1290FEF735FC02460B46DDE90201FEF7E1FA129B303304F8013B2A463346CDE9020101F07FFB002840F02183DDE90223002038494E
:40378000FEF7CEFA2A46334601F072FB002840F0D280079BE31ABB426CDA0022314B28463146FEF771FC002205460E462D4BDDE90201FEF769FCCDE90201C3E703EBC10125
:4037C00022462B46D1E90001FEF75EFC079BCDE91201DC191D46DDE9020101F087FB0646FEF7ECFB303602460B46DDE90201FEF797FA05F8016BAC42CDE902014FF0000220
:4038000023D11B4BDDE91201FEF78CFA02460B46DDE9020101F04AFB002840F08C80DDE9122300201249FEF77BFA02460B46DDE9020101F01DFBE8B114F8013C302B04F161
:40384000FF3240F0BA821446F6E7064BFEF71CFCCDE90201BFE700BF60540810385408100000F03F0000244000001C40000014400000E03FDDE90E34CDE90234159B002B57
:403880007CDBBBF10E0F79DC8F4B03EBCB03D3E90067219B002B14DAB8F1000F11DC40F06C810022894B30463946FEF7EDFBDDE9022301F0F1FA45464646002840F05F8165
:4038C00066E1079C32463B46DDE90201FEF706FD01F00CFB0546FEF771FB32463B46FEF7D3FB0B460246DDE90201FEF719FA05F1300E04F801EB079BC3EB040EF045CDE9F1
:4039000002012ED102460B46FEF70CFA8046894602460B463046394601F0AAFA78B942464B463046394601F099FA002800F04782E90704D443E2DDF828B000E01C4614F8AD
:40394000012C392A04F1FF3307D1079A9A42F5D1079930220BF1010B0A701A7801321A702DE200225A4BFEF78FFB00220023CDE9020101F073FA0028A4D020E20C9A002A93
:403980002DD0209A012A0ADC119A12B103F2334302E0149BC3F13603099D4C4615E0099B08F1FF35AB42BFBF099B0995EA1A0D9BB7BF9B185D1B0D930025B8F1000FB9BFFB
:4039C000C8EB090400234C464346089A01211A4450469944089200F02AFD064602E0099D0C9E4C465CB1089B002B08DDA342089AA8BF2346C3EB0909E41AD31A0893099B72
:403A0000002B1DDD0C9BABB185B131462A46504600F0A8FD059A01460646504600F010FD05990746504600F063FC0597099B5A1B06D000E0099A0599504600F093FD05902A
:403A40000121504600F0F3FC0D9B05465BB31A460146504600F086FD209B012B054618DC029B83B9039BC3F3130373B9039B23F000473F0D3F054FB1089B013309F1010906
:403A80000893012702E0002700E0029F0D9B73B100E000272B6905EB8303186900F07AFCC0F1200004E0209B012BD9DD0D9F0120089B184410F01F000ED0C0F12003042BD7
:403AC00008DDC0F11C0008E060540810000014400000244006D018461C30089B0344814404440893B9F1000F05DD4A460599504600F086FD0590089B002B05DD29461A46B0
:403B0000504600F07DFD0546109BEBB12946059800F0C7FD002817DA00230A220599504600F0FDFB0C9B05900BF1FF3B002B00F05881002331460A22504600F0F0FB069B71
:403B4000002B064637DC33E0B8F1000F2ADC209B022B27DDCDF81880069B83B929460522504600F0DCFB01460546059800F099FD00280DDC03E03D4600E000252E46219B70
:403B8000079C6FEA030B0AE0DDF828B03D463E46079B079A5C1C312313700BF1010BB0460026F7E00C9BCDF8188023B9079CB1E0209B022BD0DC002C05DD314622465046A5
:403BC00000F01EFD06469FB17168504600F05BFB326902320446920006F10C010C3000F047FB01222146504600F00AFD804600E0B046029BDDF81C9003F00103089329467A
:403C00000598FFF7CFFA3146044600F13007059800F047FD424602902946504600F05DFDC36802463BB901460990059800F039FD099A034600E0012311465046099300F092
:403C400057FB099B4BB9209A3AB9089A2AB9392F28D0029B002B1ADC1BE0029A002A04DB1AD1209AC2B9089AB2B9002B11DD01220599504600F0C4FC2946059000F011FD0B
:403C8000002802DC05D1FA0703D5392F0AD004F1310709F101040CE0002B09F101040BDD392F05D1392389F8003009F1010954E0013789F800706DE0079B069A04F8017C2F
:403CC000E31A9342A1463AD000230A220599504600F025FB464505904FF000034FF00A023146504604D100F01AFB0646804686E700F015FB4146064600230A22504600F0B3
:403D00000EFB80467BE700230A220599504600F006FB059029460598FFF744FA00F1300704F8017B079B069AE31A9342EBDB079B012AACBF9B180133B04699460026012252
:403D40000599504600F05CFC2946059000F0A9FC002802DC15D1FB0713D54C4614F8013C392B04F1FF3209D1079B934204D10BF1010B3123079A02E01446EFE70133137007
:403D800008E04C4614F8013C302B04F1FF3201D11446F7E72946504600F0AAFAB8F1000F0DD02EB1464503D03146504600F0A0FA4146504600F09CFA01E0DDF828B00599E4
:403DC000504600F095FA0023229A23700BF101031360249B1BB11C6001E008480AE0079808E0069B002B3FF7E1AE209B022B7FF7DDAEB1E617B0BDE8F08F00BF905308106A
:403E00008A892DE9F041054610070C4659D44B68002B02DC0B6C002B17DDE66AAEB102F48052002392B22F682B600AB1606D15E0216A01232846B047411C0FD12B686BB178
:403E40001D2B01D0162B03D12F600020BDE8F081A38943F04003A381BDE8F081A3895A0705D56368C01A636B0BB1236CC01A00230246E66A216A2846B047431CA38906D167
:403E800029681D293AD8214ACA40D60736D500226260D9042269226004D5421C01D12B6803B96065616B2F600029CED004F14403994202D0284600F0CBFC00206063BDE819
:403EC000F0810F69002FC0D093070E6808BF4B690F6018BF0023C7EB06088B6002E00744C0EB0808B8F1000FAFDD43463A46216AA66A2846B0470028F1DCA38943F04003AF
:403F0000A3814FF0FF30BDE8F08100BF0100402038B50B6905460C46DBB118B183690BB900F060F80C4B9C4201D16C6808E00B4B9C4201D1AC6803E0094B9C4208BFEC6861
:403F4000B4F90C302BB121462846BDE83840FFF757BF002038BD00BFC4530810E453081004540810014900F0A9B800BF113F0810002310B504460360436083608181436634
:403F8000C281036143618361194608225C30FEF78DFA054B6362054BA362054BE362054B2462236310BD00BF554C0810774C0810AF4C0810D34C081070B568234D1E5D43C1
:403FC0000E4605F1740100F091FC044640B1002180E842000C30A06005F16802FEF766FA204670BD836910B5044633BB8364C3640365124B124A1B688262984204BF0123BB
:40400000836100F01FF86060204600F01BF8A060204600F017F80022E06004216068FFF7A7FF01220921A068FFF7A2FF02221221E068FFF79DFF0123A36110BD7C53081023
:40404000653F0810F8B51C4B1E68B369074613B93046FFF7C7FF4836B4687368013B04D4B4F90C507DB16834F8E733680BB13668F2E704213846FFF79FFF30600028F6D1C4
:404080000C233B60F8BD4FF6FF73E3810123A38165662560A560656025616561A5610822294604F15C00FEF701FA6563A563A564E5642046F8BD00BF7C5308102DE9F843A4
:4040C0008046894600F14804002694B1A5686768013F0CD4AB89012B07D9B5F90E30013303D029464046C84706436835F0E72468EBE73046BDE8F88300487047184302083B
:4041000070B50E46B1F90E10002990B014461D4606DA00232B60B3891A060ED540230EE001AA00F0FDFD0028F3DB029A02F47042A2F500535A425A412A604FF4806300203A
:40414000236010B070BD00008B8973B59E0705460C4610D401AB6A46FFF7D2FF00990646284600F0C3FB68B9B4F90C309A0522D443F00203A38104F14703236023610123E4
:40418000636118E00D4BAB62A389206043F08003A381009B6361019B20614BB1B4F90E10284600F0CFFD18B1A38943F00103A381A0893043A08102B070BD00BF653F081084
:4041C000024B0146186800F091BB00BF1443020801F0FF01102A2BDB10F0070F08D010F8013B013A8B422DD010F0070F42B3F6D1F0B441EA012141EA014122F007047FF02B
:4042000000070023F0E80256083C85EA010586EA010685FA47F5A3FA87F586FA47F6A5FA87F68EB9EED1F0BC01F0FF0102F0070232B110F8013B013A83EA010313B1F8D149
:404240000020704701387047002D06BF35460338073815F0010F07D1013015F4807F02BF013015F4C03F0130F0BC0138704700BF10B5431E0A44914204D011F8014B03F879
:40428000014FF8E710BD70B5456A04460E463DB91020FFF795FF6062456085600560C560656AEB6843B1636ADB6853F8260078B1026843F8262017E021220421204600F0AA
:4042C000B9FA636AE860DB68002BECD1002070BD012101FA06F56A1D9200204600F0AAFA0028F3D04660856000230361C36070BD70B5446A06460D463CB91020FFF760FF1A
:404300007062446084600460C4603DB1736A6A68DB6853F82210296043F8225070BD2DE9F0410D691F4606460C4601F1140E0023DEF8000081B202FB01710F0C000C02FB48
:40434000007089B2013301EB00419D424FEA10474EF8041BECDCD7B1A3689D4212DB616830460131FFF78FFF2269023204F10C01804692000C30FFF77BFF21463046FFF7A9
:40438000B7FF444604EB850301355F6125612046BDE8F081030C1B0413B90004102300E0002310F07F4F04BF0002083310F0704F04BF0001043310F0404F04BF800002338B
:4043C000002803DB420003D5581C70471846704720207047036813F007020BD0D90722D49A074BBF5B089B08036003604CBF01200220704799B209B91B0C102213F0FF0F4B
:4044000004BF1B0A0832190704BF1B090432990704BF9B080232D90702D45B0805D00132036010467047002070472020704710B50C460121FFF727FF01224461026110BD37
:404440002DE9F74F14460A6923699A42B8BF0B468846BCBFA0461C46D8F81070D4F81090D8F80830D8F8041007EB09069E42C8BF0131FFF708FF00F1140505EB860C2B4616
:404480000022634502D243F8042BFAE704F1140208F1140102EB890301EB87070093009B0192934257D9B2F800B0BBF1000F23D08946AE464FF0000859F8044BBEF800A039
:4044C000A3B20BFB03A34FEA144ADEF8004043444FEA14480BFB0A8404EB1344F2469BB243EA04434F454FEA14484AF8043B01D9D646E1E7CEF80480019BB3F802A004324E
:40450000BAF1000F21D02B682C4689464FF00008B9F800E0B4F802B00AFB0EBEF044A3469BB243EA08434BF8043B59F8043BB4F804E01B0C0AFB03E303EB18434F454FEA49
:40454000134801D95C46E3E763600435A7E75CF8043D13B9013E002EF9DC066103B0BDE8F08F00002DE9F843154612F0030206460F4607D0013A214C002354F82220FFF7B5
:40458000CEFE0746AD1036D0746A3CB91020FFF717FE7062446084600460C460D6F82480D8F808404CB940F271213046FFF73FFF0023C8F80800044603604FF00008EB0761
:4045C0000AD5394622463046FFF73AFF394681463046FFF78DFE4F466D100CD0206808B10446ECE7224621463046FFF729FF2060C0F80080F4E73846BDE8F8832C5408109B
:404600002DE9F0470C464FEA621A26694968A368564407469146751CAB4202DA01315B00FAE73846FFF72FFE0023804600F114011A46534503DA41F823200133F9E72AEA4C
:40464000EA73206901EB830319F01F0904F1140101EB800E14D0C9F1200C0022086800FA09F002439A4643F8042B51F8042B8E4522FA0CF2F2D8CAF8042042B1B51C06E090
:40468000043B51F8042B43F8042F8E45F9D8013D3846C8F810502146FFF72AFE4046BDE8F08703690A699B1A10B511D192001430143183180A4453F8044D52F8041D8C421A
:4046C00002D007D3012010BD9842F4D3002010BD184610BD4FF0FF3010BD2DE9F8430C460746114620461546FFF7DBFF061E08D131463846FFF7C7FD012303614661BDE8D4
:40470000F883BCBF23462C4638466168BABF1D4601260026FFF7B7FD2B69C660266905F11409143404EB860709EB830800F114054FF0000C54F8043B59F8042B1CFA83F105
:404740001FFA82FE120CCEEB0101C2EB134303EB214389B24FEA234CC84541EA0343A64645F8043BE6D8BE450ED25EF8041B1CFA81F2131403EB114392B242EA03424FEAB3
:40478000234C45F8042BEEE755F8043D0BB9013EFAE70661BDE8F8832DE9F34101211C46089E099D9046FFF76EFDC4F31303C4F30A5407460CB143F480130193B8F1000FFD
:4047C00019D002A840F8088DFFF704FE009B48B1019AC0F1200102FA01F10B43C2407B61019200E07B61019BBB61002B14BF02210121396107E001A8FFF7ECFD019B7B617B
:4048000001213961203034B1A4F2334404443460C0F1350009E007EB8103A0F2324030601869FFF7B7FDC0EB41102860384602B0BDE8F08138B502FB01F4214600F056F84C
:40484000054618B122460021FDF730FE284638BD38B50546002946D051F8043C0C1F002BB8BFE41800F090FA1F4A1368114613B96360146032E0A3420ED92268A0188342B0
:4048800004BF18685B68636004BF121822600C6024E0A24203D813465A68002AF9D118681918A1420BD12168014458188242196014D1106852685A60014419600EE002D93F
:4048C0000C232B600AE021686018824204BF10685268626004BF091821605C602846BDE8384000F052BA38BD884A020870B5CD1C25F0030508350C2D38BF0C25002D0646DD
:4049000001DBA94202D90C23336046E000F03CFA234B1C681A462146A1B10B685B1B0ED40B2B03D90B60CC18CD501EE08C420DBF63684B686360136018BF0C4615E00C46B7
:404940004968E9E7174C23681BB9304600F072F920602946304600F06DF9431C18D0C41C24F00304A0420DD12560304600F00DFA04F10B00231D20F00700C31A0ED05A42C6
:40498000E25070BD211A304600F054F90130EBD10C233360304600F0F8F9002070BD00BF884A0208844A02089368013B002B10B4936009DA9469A34202DBCBB20A2B03D1A3
:4049C0005DF8044BFEF72CBB1368581C10601970C8B25DF8044B7047F8B506460F461446D518AC4208D03A4614F8011B3046FFF7DBFF431CF5D100E00020F8BD2DE9F04F02
:404A00009DB00C4617460393064618B183690BB9FFF7E8FA7F4B9C4201D1746808E07E4B9C4201D1B46803E07C4B9C4208BFF468A38918070CD5236953B10023099320230B
:404A40008DF8293030238DF82A30DFF8D4B144E021463046FEF738FB0028EED04FF0FF30D5E0039A111D12680391002A80F28C80524243F002000792049098F800302E2B08
:404A800000F08480032298F800106548FFF7A0FB48B14023CBEB000003FA00F0049B1843049008F1010898F800105E488DF82810062208F10107FFF78BFB002800F095809B
:404AC000594B002B40F08880039B073323F0070308330393099B53440993B846454615F8013B1BB9B8EB07090FD003E0252BF9D0A846F3E74B463A4621463046FFF76CFFC7
:404B000001307FD0099B4B44099398F80030002B78D000234FF0FF3204930793059206938DF853301A930127052229783F48FFF74FFB05F10108049B38B13C4A801A07FAEB
:404B400000F0184304904546EEE7D90644BF20228DF853201A0744BF2B228DF853202A782A2A3FF47EAF079A00210A20A846013598F80030303B092B03D800FB0232012180
:404B8000F4E700293FF479AF079276E798F801302A2B0BD1039B1A1D1B680392002BB8BF4FF0FF3308F1020805936BE70023059308F1010019460A258046013098F80020D7
:404BC000303A092A03D805FB01210123F4E7002B3FF458AF059155E703AB00932246144B04A93046FDF7FCFC07E003AB009322460F4B04A93046FDF7ADFFB0F1FF3F82467A
:404C00007FF468AFA3895B063FF528AF09981DB0BDE8F08FC4530810E4530810045408102E55081032550810E125081028550810D949081038B5064C00230546084623602D
:404C400000F09CF9431C02D1236803B12B6038BD284B020810B50C46B1F90E1000F096F80028ABBF636DA3891B1823F48053ACBF6365A38110BD2DE9F0411F468B89DB0575
:404C800005460C46164605D502230022B1F90E1000F068F8A389B4F90E1023F48053A38132463B462846BDE8F04100F017B810B50C46B1F90E1000F055F8431CA38915BF46
:404CC000606523F4805343F48053A38118BFA38110BDB1F90E1000F013B8000038B5074C054608461146002222601A46FCF73EFF431C02D1236803B12B6038BD284B0208BA
:404D000038B5064C002305460846236000F016F9431C02D1236803B12B6038BD284B020838B5074C0023054608461146236000F00DF9431C02D1236803B12B6038BD00BF0C
:404D4000284B020838B5064C002305460846236000F004F9431C02D1236803B12B6038BD284B020838B5074C054608461146002222601A4600F0FAF8431C02D1236803B156
:404D80002B6038BD284B02087047704738B5074C054608461146002222601A46FCF7F8FE431C02D1236803B12B6038BD284B02084FF0FF3C06E000BF4FF0010C02E000BFF1
:404DC0004FF0010C4DF804CD4FEA410C7FEA6C5C4FEA430C18BF7FEA6C5C1BD001B050EA410C0CBF52EA430C91EA030F02BF90EA020F0020704710F1000F91EA030F58BF2D
:404E0000994208BF90422CBFD8176FEAE37040F0010070474FEA410C7FEA6C5C02D150EA013C07D14FEA430C7FEA6C5CD6D152EA033CD3D05DF8040B704700BF844610463F
:404E400062468C461946634600E000BF01B5FFF7B7FF002848BF10F1000F01BD4DF808EDFFF7F4FF0CBF012000205DF808FB00BF4DF808EDFFF7EAFF34BF012000205DF8CA
:404E800008FB00BF4DF808EDFFF7E0FF94BF012000205DF808FB00BF4DF808EDFFF7CEFF94BF012000205DF808FB00BF4DF808EDFFF7C4FF34BF012000205DF808FB00BF90
:404EC0004FEA410C7FEA6C5C02D150EA013C0AD14FEA430C7FEA6C5C02D152EA033C02D14FF0000070474FF0010070474FEA410212F5001215D211D56FF47873B3EB62520D
:404F000012D94FEAC12343F0004343EA505311F0004F23FA02F018BF404270474FF00000704750EA013005D111F0004008BF6FF0004070474FF00000704700BF024B5822A3
:404F40001A604FF0FF307047284B0208024B58221A604FF0FF307047284B0208024B58221A600020704700BF284B0208024B58221A604FF0FF307047284B0208044A05495F
:404F80001368002B08BF0B4618441060184670478C4A0208304B0208F8B500BFF8BC08BC9E467047F8B500BFF8BC08BC9E4670475374617274656420554152540D000000AF
:404FC000566F6C746167653A20252E326C660D0A000000004E45572056414C55453A203078256C780D0A0000030000000100000001000000000000000503600004000000FD
:405000000100000000000000010000000604600008000000084A0208190608108A000000070000002E0000000700000047656E6572617465645F536F757263655C50536FD6
:4050400043365C70646C5C647269766572735C7065726970686572616C5C737973696E745C63795F737973696E742E630000000047656E6572617465645F536F7572636501
:405080005C50536F43365C70646C5C647269766572735C7065726970686572616C5C6970635C63795F6970635F6472762E68000047656E6572617465645F536F757263657F
:4050C0005C50536F43365C70646C5C647269766572735C7065726970686572616C5C6970635C63795F6970635F6472762E63000047656E6572617465645F536F7572636544
:405100005C50536F43365C70646C5C647269766572732F7065726970686572616C2F6970632F63795F6970635F6472762E68000047656E6572617465645F536F7572636585
:405140005C50536F43365C70646C5C647269766572735C7065726970686572616C5C6970635C63795F6970635F706970652E630047656E6572617465645F536F7572636561
:405180005C50536F43365C70646C5C647269766572735C7065726970686572616C5C7363625C63795F7363625F756172742E680047656E6572617465645F536F7572636516
:4051C0005C50536F43365C70646C5C647269766572735C7065726970686572616C5C7363625C63795F7363625F636F6D6D6F6E2E6800000047656E6572617465645F536FB8
:40520000757263655C50536F43365C70646C5C647269766572735C7065726970686572616C5C7363625C63795F7363625F756172742E630047656E6572617465645F536F9A
:40524000757263655C50536F43365C70646C5C647269766572735C7065726970686572616C5C7361725C63795F7361722E630000000000000C0000000800000000020000F3
:40528000000000000000000000000000000000000000000000000000000000000B0000000000000000000000000000000000000047656E6572617465645F536F7572636584
:4052C0005C50536F43365C70646C5C647269766572732F7065726970686572616C2F7361722F63795F7361722E68000000000000010000000053081001000000020000004B
:40530000F3C020538800049099000200020002000002000E00000000010000000001000000000000000000000000000000000000000000000000000000000000000000007A
:4053400000000000000000000000000000000000000000000000000000000000010000000000000000000000000000000000000000000000E40C000043000000B4420208F9
:40538000494E4600696E66004E414E006E616E00300030313233343536373839414243444546003031323334353637383961626364656600496E66696E697479004E614E3E
:4053C00000000000000000000000000000000000000000000000000000000000000000000000000000000000000000000000000000000000000000000000000000000000AD
:40540000000000000000000000000000000000000000000000000000000000000000000000000000504F534958002E0005000000190000007D0000000080E03779C34143B9
:40544000176E05B5B5B89346F5F93FE9034F384D321D30F94877825A3CBF737FDD4F1575000000000000F03F000000000000244000000000000059400000000000408F40C9
:40548000000000000088C34000000000006AF8400000000080842E4100000000D01263410000000084D797410000000065CDCD41000000205FA00242000000E876483742D1
:4054C000000000A2941A6D42000040E59C30A2420000901EC4BCD64200003426F56B0C430080E03779C3414300A0D8855734764300C84E676DC1AB43003D9160E458E143CA
:40550000408CB5781DAF154450EFE2D6E41A4B4492D54D06CFF08044F64AE1C7022DB544B49DD9794378EA44232D302B2000686C4C00656667454647000000000000000001
:4055400000000810004002088C020000605508108C4202086C0500008C480208A002000000127A0000127A0000093D0000127A0000127A0008000000401F00000000A00F19
:405580000100000002FF000000000000C4530810E4530810045408100000000000000000000000000000000078530810000000000000000000000000000000000000000018
:4055C00000000000000000000000000000000000000000000000000000000000000000000000000000000000B44202082A5408102D5508102D5508102D5508102D550810AD
:405600002D5508102D5508102D5508102D5508102D550810FFFFFFFFFFFFFFFFFFFFFFFFFFFF0000B10208108D0208100000000080B2C200E8B10F4B1B68002BFBDA3E213B
:405640000D4B196041F61E7104331960A3F584730621C3F8181522F07F42C3F81C25D3F81C350022034B5A60044BD3F81C35002BFADA7047E00023400401264000002640FB
:4056800008B54378FF2B0ED100F010FA064BDB685A68136843F001031360136813F0010FFBD100F00BFA08BD8000234038B54FF260034B4AD3589CB200F0F8F90546494B9E
:4056C0009A68631E032B00F28780DFE803F002234465032A06D10822434B9A60414B9B68032BFBD03F4A13691069C0F307221B0E581C02FB00003D4B03FB00F03C4B1B68C6
:405700003C4AA2FB03239B09B0FBF3F08230FFF78FFF61E0032A06D10822334B9A60314B9B68032BFBD02F4A13691069C0F307221B0E581C02FB00002C4B03FB00F02C4B99
:405740001B682C4AA2FB03239B09B0FBF3F08230FFF76EFF40E0032A06D10822224B9A60204B9B68032BFBD01E4A13691069C0F307221B0E581C02FB00001C4B03FB00F0E2
:405780001B4B1B681B4AA2FB03239B09B0FBF3F08230FFF74DFF1FE0032A06D10822124B9A60104B9B68032BFBD00E4A13691069C0F307221B0E581C02FB00000B4B03FBC0
:4057C00000F00B4B1B680B4AA2FB03239B09B0FBF3F08230FFF72CFF284600F06FF938BD0000254000002140A000234040420F0090420208D34D6210F8B505460E462A4B7F
:405800001B69002B1FDB002000F048F9274B98421BD00023264A0121184600F027F918B1244C15E0013400E00024002000F036F91E4B984202D0204B9C42F3D91E4B9C42FD
:4058400005D91C4C04E01B4C02E01A4C00E000243CBB00F02BF90746184BD3F81C35002B11DA174A0121174800F008F968B93046FFF7DEFE5DB1134B1B69002BFBDB00F041
:4058800005F9044604E00B4C02E00A4C00E00E4C0121002000F0E2F80028F9D1384600F00DF92046F8BD00BFA000234001018800B042020805005200EF4902000000264027
:4058C000384A02082000234001005000394B1B68002BFBDA30B4374BDA6842F00102DA60DB6813F0020F20D0324DEB689CB232490A69120A120402F47F02D1F890301B0A7E
:4059000042EA03632343EB600B6923F47F4343F410630B61D1F8903023F47F4343F41063C1F890300B69D1F89030224B00225A605B68224A136943F004031361012801D0A3
:4059400030BF07E020BF1E4B1B7803B120BF01221B4B1A70184BD3F8803003F00303022BE7D0144B1B68002BFBDA124BDB6813F0020F15D010490B6923F47F420D48C36875
:405980001B0C1B0203F47F4313430B61D1F8903023F47F42C3681B0E42EA0323C1F89030044BDA6822F00102DA6000225A6030BC704700BFE00023400000214000ED00E019
:4059C000484A02081E4A136943F004031361012801D030BF07E020BF1A4B1B7803B120BF0122184B1A70184BD3F8803003F00303022BE7D0154B1B68002BFBDA144BD3F867
:405A00000C31C3B941F61E72124B1A60062203F582631A603E22A3F214431A60442203F583631A600C4B1B68002BFBDA4FF0AA32074BC3F80C210022044B5A60704700BF3C
:405A400000ED00E0484A020800002140E000234000002540080126401C05264001B40248844601BC604700BF9908081001B40248844601BC604700BFFD0A081001B402480F
:405A8000844601BC604700BF8107081001B40248844601BC604700BF790D081001B40248844601BC604700BF2109081001B40248844601BC604700BF2B0F081001B4024864
:405AC000844601BC604700BF330F0810000000000000000000000000000000000000000000000000000000000000000000000000000000000000000000000000000000005F
:405B00000000000000000000000000000000000000000000000000000000000000000000000000000000000000000000000000000000000000000000000000000000000065
:405B40000000000000000000000000000000000000000000000000000000000000000000000000000000000000000000000000000000000000000000000000000000000025
:405B800000000000000000000000000000000000000000000000000000000000000000000000000000000000000000000000000000000000000000000000000000000000E5
:405BC00000000000000000000000000000000000000000000000000000000000000000000000000000000000000000000000000000000000000000000000000000000000A5
:0200000490303A
:02000000EC29E9
:0200000490501A
:0C0000000005E2F021002101E3120D29AF
:00000001FF